:020000040000FA
:0600000002011A02224574
:03002B0002298720
:0300330002296936
:030053000222BBCB
:03006B0002294027
:1000830002209BE5C754F84401F5C779012200001B
:100093000080FB120086B90003020104E479217891
:1000A30008B800028004F709D8FCE479297802B87B
:1000B30000028004F709D8FCE490028178A7791341
:1000C3008002F0A3D8FCD9FA781A90014A7A01BACF
:1000D30000028007E493A3F608DAF97A277B1590E8
:1000E300014B780879048015E493A3AD82AE838A2B
:1000F300828B83F0A3AA82AB838D828E83D8E9D9C6
:10010300E775822E7583B3740312012C7582917582
:100113008300740012012C75D00075813F7518811E
:10012300751902759F00020096C09FF59FE473D076
:100133009F22D083D082C09FE493C0E0740193C018
:10014300E0740293F59F2201FF0000B40000280031
:100153002800283075A000A000A000A0000008001F
:1001630008E001F000100010001000100010001053
:100173000050005000500010001000D00700000095
:100183000000000F0001000500307507001000019A
:100193000081FF00000000FFFFFF740692067A064D
:1001A300B606FF02020208025000A0000000E803A6
:1001B30002B882010000A58202B28201000082150A
:1001C30002AA82010000BF0202B28201000083156D
:1001D30002A882010000D50202B282010000841548
:1001E30002B682010000D70202B282010000851527
:1001F30002C082080000D80202B282010000861504
:1002030002C8820100008715FF0100FF2002B882A7
:100213000100009F8202B282010000EB1502CA8234
:10022300000000000002AC82030000060317002256
:100233000D220D220D220D220D220D220D220D2243
:100243000D220D220D220D220DE00FF20FDA0F0207
:100253000202020202020202010D0000001001026A
:10026300B882010000A28202B2820100002E1602AF
:10027300E282010000400702B2820100002F160251
:10028300D6820100006A8102B282010000301602A8
:10029300D4820100004F8102B282010000311602B4
:1002A300D282010000978002B2820100003216025E
:1002B300D082010000DF8002B28201000033160207
:1002C300CC82010000CD8002B2820100003416020C
:1002D300C682010000BB8002B28201000035160213
:1002E300C482010000418102B2820100003616027D
:1002F300C282010000371601E8030577100AFFFFE9
:10030300FF00013075030201060000000000000039
:1003130000000000000000000000000000000000DA
:100323000000000000FFFF0600800CE803140953DF
:10033300696D706C65424C45506572697068657291
:10034300616C051250002003020A00020106030239
:10035300F0FF53696D706C6520424C452050657207
:100363006970686572616C7E14000084140A4368C6
:100373006172616374657269737469632031000229
:10038300436861726163746572697374696320326F
:1003930000084368617261637465726973746963A9
:1003A300203300104368617261637465726973740A
:1003B3006963203400024368617261637465726922
:1003C3007374696320350002B882010000D1810291
:1003D300B2820100004C1702DA820300001C1502EE
:1003E300B0820100004D1702B2820100005E1702C5
:1003F300DC820100001D1502B0820100005F1702BC
:10040300B282010000701702DE820200001E150294
:10041300B082010000711702B2820100008217024C
:10042300E0820000001F1502AC82030000201502C9
:10043300B082010000831702B28201000094170208
:10044300CE82040000221502B0820100009517122B
:1004530001351B8C031201352E8C031201355F8C81
:1004630003120135998C03120135F28C0312013505
:10047300398D03120135818D03120135B08D0312BD
:100483000135DF8D03120135168E031201355D8EA2
:1004930003120135768E03120135CB8E031201351B
:1004A300E48E03120135328F031201356C8F031270
:1004B3000135F7AB02120135FAAC0212013533AD47
:1004C3000212013556AD0212013568AD0212013533
:1004D300A6AD0212013522AE02120135EAAE0212B6
:1004E30001350CAF02120135A3AF02120135F5AF8E
:1004F3000212013526B00212013533B00212013562
:100503009DB002120135F4B002120135F7B00212A8
:10051300013530B10212013533B1021201353DB15B
:100523000212013591B102120135D2B10212013525
:1005330005B20212013542B20212013544B302126E
:100543000135E8B30212013551B4021201358FB4FB
:10055300021201353A840312013562840312013514
:100563008F8403120135C7840312013525850312D5
:100573000135718503120135D885031201351886BB
:1005830003120135558603120135838603120135A3
:100593002D87031201353787031201354487031270
:1005A30001357787031201358387031201359B8752
:1005B30003120135A58703120135B0B003120135CB
:1005C300BEB003120135D6B003120135EDB00312EC
:1005D30001359CA70112013546A80112013559A91D
:1005E30001120135D5A901120135F3AA0112013512
:1005F3002FAB01120135CAAB01120135AEAC0112AA
:1006030001357AAD0112013508AF0112013579AF19
:100613000112013533B00112013525B10112013543
:1006230065B10112013519B2011201354BB2011244
:10063300013541B40112013583B401120135A1B46E
:100643000112013507B501120135D6B50112013585
:100653009AB601120135B9B801120135C0CC0212A4
:100663000135AACD0212013555CE02120135A6CEAF
:100673000212013556CF02120135C7CF02120135DE
:10068300ACD002120135E0D002120135D9D10212E9
:10069300013516D202120135F2D20212013531D3DD
:1006A300021201354DD3021201354CA40312013558
:1006B300D0A403120135FBA40312013515A60312BE
:1006C30001353388031201354988031201356788E0
:1006D300031201357889031201358289031201352A
:1006E300AD8A03120135A48B03120135118C031259
:1006F3000135AED302120135E4D4021201351BD504
:100703000212013572D50212013587D70212013563
:10071300E68201120135728301120135D68401127A
:100723000135E284011201351D85011201358C85E5
:10073300011201359586011201359E87011201359B
:10074300658801120135C28901120135E089011260
:100753000135FD8901120135AA8A01120135278B62
:10076300011201354F8B01120135198E011201352A
:100773001E8E011201353790011201358590011249
:100783000135F590011201353391011201350F92B4
:1007930001120135CF92011201351B93011201356C
:1007A3001E9301120135629301120135AA930112BE
:1007B3000135E993011201350B94011201353F9480
:1007C30001120135A294011201354ED902120135ED
:1007D3005CD902120135AFD902120135CED902120A
:1007E300013513DA0212013557DB02120135F2DB50
:1007F3000212013536DC0212013560DC02120135CA
:10080300CFDC0212013515DD021201358CDD021237
:1008130001353DDE02120135C02900120135D02910
:1008230000120135712A00120135CD2A001201355B
:100833008A2B00120135A62C00120135D82C001288
:100843000135072D00120135B42E001201352B316D
:10085300001201359B33001201358D34001201352E
:100863008635001201358D3700120135813A0012A9
:100873000135B03B00120135B43D00120135C43ED1
:100883000012013553400012013544410012013575
:100893009241001201350142001201352542001236
:1008A3000135764200120135174700120135184809
:1008B30000120135794800120135A44800120135B0
:1008C3006A49001201350080031201350A800312C0
:1008D30001354F8003120135638003120135F38024
:1008E300031201352C81031201356781031201358F
:1008F300908103120135E48103120135F98103125A
:1009030001351B8203120135308203120135448203
:100913000312013559820312013593820312013503
:10092300BF82031201350883031201357A83031250
:100933000135BD8303120135E783031201351284A8
:1009430003120135C5AC03120135FDF40112013563
:10095300E0F5011201355BF60112013596F601123D
:100963000135E7F70112013575F80112013507FB6F
:1009730001120135B9FB01120135C5FC0112013524
:1009830038FE0112013591FE0112013578F502128C
:100993000135BBF5021201353FF60212013516F996
:1009A30002120135D89F031201358AA003120135C3
:1009B30086A103120135C5A1031201351FA203123B
:1009C300013544A603120135A7A60312013544A736
:1009D3000312013579A703120135A9A703120135C3
:1009E300E4A70312013504A80312013523E302121D
:1009F3000135AFE3021201356EE40212013586E5DB
:100A030002120135A0E702120135B6720012013558
:100A1300DB7200120135A873001201357C740012D9
:100A23000135E97400120135297500120135C575C8
:100A330000120135F97600120135D4770012013521
:100A4300337800120135BF78001201352D79001279
:100A53000135B97900120135FF7900120135717A38
:100A630000120135037B00120135A47B001201350E
:100A7300C47B001201350C7C00120135557C001239
:100A83000135717C00120135977C00120135117D0F
:100A9300001201351F7D00120135AE7D00120135B4
:100AA300177E00120135D7E7021201355CE8021206
:100AB30001359EE80212013582E902120135EFE9A0
:100AC3000212013533EA0212013577EA02120135C7
:100AD300A4EA02120135CCEA0212013504EB021238
:100AE300013542EB0212013569EB02120135E3EBEA
:100AF300021201352DEC02120135C6B8011201357F
:100B030065BA011201359DBC01120135F1BC011218
:100B130001351CBD01120135F8BD0112013528BE96
:100B23000112013557BE011201356ABE01120135AA
:100B3300ABBE01120135D8BE0112013526BF011229
:100B4300013562BF01120135A7BF01120135F4BFA0
:100B5300011201356EC001120135AFC20112013518
:100B630099C401120135D5C40112013564C60112BD
:100B73000135A9C6011201351CC70112013571C720
:100B83000112013576C70112013500C80112013582
:100B93001FC90112013530C90112013558A20212D1
:100BA3000135D1A2021201358BA80212013596A993
:100BB300021201353FAB02120135CDAB02120135F2
:100BC300A35E00120135245F00120135515F00124C
:100BD30001359A5F001201359B6000120135F46004
:100BE30000120135706200120135F2620012013504
:100BF3000D63001201357E63001201353B64001260
:100C03000135FE64001201358C650012013543661F
:100C130000120135566600120135EF6600120135E8
:100C2300866700120135AD670012013516680012A0
:100C33000135606800120135AE6800120135536951
:100C430000120135F169001201357E6A0012013587
:100C5300EF6A00120135366B001201358E6B0012FC
:100C63000135C06B001201357A6C00120135816DBC
:100C730000120135CA6D00120135E76D001201350E
:100C8300066E00120135396F00120135F06F001244
:100C930001351570001201352A70001201359A7062
:100CA30000120135DB7000120135FF7100120135AE
:100CB300807200120135989802120135E3980212EE
:100CC3000135EF9802120135C39902120135DA9901
:100CD30002120135179A02120135489A02120135A0
:100CE300809A02120135D69A02120135EC9A021249
:100CF3000135289B021201353B9B02120135629B91
:100D030002120135969B02120135BC9C0212013579
:100D1300069E02120135029F021201351FA0021224
:100D23000135F07F0012013553C9011201358EC917
:100D330001120135E0CC011201353CCE011201351F
:100D4300FBCE0112013562D2011201354CD30112DF
:100D5300013598D301120135B2D301120135EFD316
:100D630001120135FAD30112013539D401120135CB
:100D730042D401120135ECD401120135C3D501125D
:100D8300013517D60112013574D601120135E6D6A5
:100D9300011201357A9501120135D99801120135F5
:100DA300DF980112013510A00112013517A40112B9
:100DB3000135D48F031201356A90031201358090F7
:100DC30003120135D990031201351D910312013528
:100DD300579103120135EF91031201355E9203120D
:100DE30001356792031201357392031201358D9217
:100DF30003120135B79203120135CC920312013568
:100E03002E9303120135559303120135C8F90212CB
:100E13000135D5F902120135EFF90212013522FA33
:100E23000212013560FA02120135C5FA02120135C8
:100E3300DAFA02120135E5FA02120135F2FA021268
:100E4300013509FB0212013517FB0212013522FBA2
:100E5300021201352EFB021201353DFB0212013550
:100E630048FB021201356BFB021201350FFC021223
:100E730001351FFC0212013539FC0212013556FC03
:100E83000212013571FC0212013596FC0212013582
:100E9300A1FC02120135B6FC02120135CAFC021292
:100EA30001352BFD0212013531FD0212013537FDEB
:100EB300021201353DFD0212013555FD02120135C5
:100EC30088FD021201350580021201359C80021251
:100ED30001353481021201352482021201355B820D
:100EE300021201356E8202120135DC8202120135D3
:100EF3007784021201359E84021201354085021265
:100F03000135758502120135868502120135FF858B
:100F1300021201352086021201353886021201358C
:100F2300908702120135998902120135E98B021269
:100F33000135EC8C021201353B8D0212013535D897
:100F43000112013532D9011201351DDA01120135C1
:100F530027DA0112013549DA0112013555DA011296
:100F63000135A7DB01120135D6DB0112013506DDA0
:100F73000112013548DD0112013574DE011201351C
:100F83004ADF011201359CDF01120135FBDF01123B
:100F9300013532E0011201356DE00112013508E43B
:100FA3000112013521E401120135A3E401120135D7
:100FB300B1E40112013506E50112013514E5011210
:100FC300013581E501120135F3E50112013539E6F9
:100FD30001120135888D02120135AA8D02120135E5
:100FE300948F021201353993021201357C94021257
:100FF30001355695021201353A7E001201355F7EA6
:1010030000120135D07E00120135B5B4021201354C
:10101300BEB402120135C7B402120135F8B502128B
:10102300013517B8021201354DB80212013587B8E0
:1010330002120135BDB802120135F7B802120135AB
:101043002BB90212013557B902120135A0B90212A8
:101053000135DAB90212013522BA0212013578BA22
:1010630002120135ADBA0212013508BB0212013575
:1010730042BB0212013593BB02120135C9BB0212F6
:10108300013503BC0212013531BC0212013554BCD7
:10109300021201357DB103120135A9B103120135E5
:1010A30004B2031201350EB2031201351EB203124C
:1010B3000135469A031201356D9A03120135979A49
:1010C3000312013586B303120135D64900120135E7
:1010D3003E4C00120135F14D001201354E4E001207
:1010E30001354B4F00120135DB4F001201356050C3
:1010F300001201358550001201357D530012013570
:10110300F35300120135E454001201351E55001249
:1011130001355E5500120135045700120135595748
:1011230000120135A657001201351458001201357B
:101133003B58001201355558001201356B59001206
:1011430001357B5900120135075B00120135295B1C
:10115300001201355F5B001201350D5D0012013590
:101163004C5D001201357E5E001201356DEC0212FA
:101173000135C5EC021201350DEE021201357CEE8C
:10118300021201352BEF021201354AEF021201352B
:101193009EEF02120135DCEF021201353AFF011214
:1011A30001354BFF01120135D0B3031201350FB4E2
:1011B30003120135EEFF01120135D3AF03120135DE
:1011C300E3AF03120135F8AF03120135AAB00312DE
:1011D3000135D9AD031201355DAE03120135C3AE3E
:1011E3000312013512A8031201353BA8031201357E
:1011F300A1A803120135C0A80312013514A90312D3
:1012030001356DA903120135A8A903120135ABA954
:10121300031201351797031201352C970312013579
:10122300509803120135BA98031201352E9903120F
:1012330001354899031201355F99031201357299FB
:10124300031201358A99031201359F99031201355F
:10125300C09903120135119A03120135E4FF0212FA
:101263000135F4FF02120135F7FF02120135F87F51
:10127300001201350AFE0212013580FF0212013508
:10128300E1FF0212013553AB031201357CAB0312AC
:101293000135A5AB031201353EAC0312013580AC19
:1012A30003120135E2BC02120135ECBC0212013516
:1012B3002CBD0212013575BD02120135AFBD0212FC
:1012C300013505BE0212013524BE02120135A9C043
:1012D30002120135B2C00212013503C102120135F7
:1012E3002CC10212013541C102120135B1C10212F2
:1012F30001353FC20212013583C202120135ABC26E
:10130300021201352AC3021201356DC302120135DF
:10131300AAC302120135BCC302120135DBC3021298
:101323000135E4C302120135AEC402120135B5A979
:101333000312013506AA031201358FAA03120135E0
:10134300F5AA03120135149D031201353E9D0312C4
:101353000135389E03120135679E03120135ED9E58
:1013630003120135DCAE031201354AA20312013523
:1013730080A203120135B9A20312013512A403128C
:10138300013528B2031201353EB20312013548B2CA
:10139300031201359EB203120135CFB20312013598
:1013A300DAC40212013597C502120135D2C5021201
:1013B3000135FAC5021201355CC602120135A8C611
:1013C3000212013508C70212013599C7021201350D
:1013D30095C80212013522CA02120135A5CA0212AA
:1013E300013509CB0212013520CB0212013516CC8F
:1013F3000212013562CC02120135F7F002120135F7
:101403000CF102120135BCF102120135FCF102129A
:10141300013515F20212013548F20212013595F237
:1014230002120135C9F2021201350BF30212013522
:1014330012F502120135C2E60112013579EA0112F1
:1014430001350BEC0112013562EC0112013581EC1F
:1014530001120135FFEC0112013591EE0112013544
:1014630075EF0112013586F3011201355AF40112A9
:1014730001354FDE0212013582E00212013544E1EB
:1014830002120135C1E202120135839303120135C1
:10149300EB9303120135089403120135D39403121D
:1014A300013526950312013509960312013519B446
:1014B3000312013596B4031201355FB403120135EB
:1014C300C2B403120135EBB403E066701008A3E065
:1014D30066700A08A3E066700408A3E06622C3E707
:1014E300960809E7960809E7960809E79622C3E0F4
:1014F3009608A3E09608A3E09608A3E09622C00806
:10150300C3E096F50808A3E096420808A3E09642D4
:101513000808A3E09645087001D3D00822080808FC
:10152300EAC0E0EBC0E086F0E7A4FA180986F0E72A
:10153300A42AFA180986F0E7A42AFA180986F0E71C
:10154300A42AFA1986F0E7A4FBE5F02AFA1908861B
:10155300F0E7A42BFBE5F03AFA190886F0E7A42B91
:10156300FBE5F03AFA18180986F0E7A4C5F02BFB5F
:10157300E43AFA1908E7C5F0C6A426F6E5F03BFB02
:10158300E43AFA1886F0E7A4F6E5F00826F6E43B19
:1015930008F6E43A08F6D0E0FBD0E0FA22E4CFC044
:1015A300E0E4CEC0E0E4CDC0E0E4CCC0E075F020E0
:1015B300E626F608E633F608E633F608E633F618C9
:1015C3001818EC33FCED33FDEE33FEEF33FFC3ECC1
:1015D3009709ED9709EE9709EF97191919400FFF2E
:1015E300EC97FC09ED97FD09EE97FE191906D5F066
:1015F300BFECF709EDF709EEF709EFF7191919D061
:10160300E0FCD0E0FDD0E0FED0E0FF226016080849
:1016130008C6C313C618C613C618C613C618C613FE
:10162300C6D5E0EA227009080808226016181818BF
:10163300C6C333C608C633C608C633C608C633C6D0
:10164300D5E0EA22E627F60809E637F60809E63781
:10165300F60809E637F622E026F608A3E036F60890
:10166300A3E036F608A3E036F622E026F008A3E06E
:1016730036F008A3E036F008A3E036F022C3E6977D
:10168300F60809E697F60809E697F60809E697F6D5
:1016930022C3E096F008A3E096F008A3E096F008D2
:1016A300A3E096F022E056F608A3E056F608A3E07E
:1016B30056F608A3E056F622E056F008A3E056F0EB
:1016C30008A3E056F008A3E056F022E0F608A3E0F2
:1016D300F608A3E0F608A3E0F622E6F008A3E6F096
:1016E30008A3E6F008A3E6F022E0FAA3E0FBA3E0F8
:1016F300FCA3E0FD22E0F8A3E0F9A3E0FAA3E0FBFA
:1017030022E8F0A3E9F0A3EAF0A3EBF022CAC0E0D9
:10171300E6F0A308DAFAD0E0FA22CAC0E0E0A3C5F3
:1017230082CCC582C583CDC583F0A3C582CCC582D7
:10173300C583CDC583DAE6D0E0CA22C3E498F8E4D2
:1017430099F912177F8026C3E49AFAE49BFBE920F8
:10175300E7E912177FE498F8E499F922C3E498F8CB
:10176300E499F912177FE498F8E499F9C3E49AFA33
:10177300E49BFB22EB20E7CFE920E7E0B90010BBB5
:101783000008E88AF084F8AAF022E4FBC8FA22EB06
:1017930070227B10C833C8C933C9335007C39AC3F7
:1017A300DBF280069A50012ADBEAC833F4C8C93356
:1017B300F4C9FA2275F008E4C833C8C933C933C978
:1017C3009AC99B5004C92AC93BD5F0ECFBC833F432
:1017D300C8E4C9FA22600D08C6A2E713C618C613E7
:1017E300C6D5E0F322600C08C6C313C618C613C6D9
:1017F300D5E0F422700422600D18C6C333C608C6B0
:1018030033C6D5E0F41822251810AF08F518400C9C
:1018130015198008F51840021519D2AF2200C0D05F
:10182300251810AF08F518500C05198008F5185045
:10183300020519D2AFD0D0222518F58210AF08F5D2
:1018430018400C15198008F51840021519D2AF85F8
:101853001983222518F582E43519F583222518F812
:10186300E43519F9222518FAE43519FB222518FC69
:10187300E43519FD22E4732518C582C0E0E5193467
:10188300FFC583C0E0E518C3958224F810AF08852F
:1018930083198582188008858319858218D2AFCE73
:1018A300F0A3E520F0A37808E608F0A3DEFAEFF052
:1018B300A3E58124FAF8E608F0A3E608F0A3E60816
:1018C300F0A30808E608F0A3E608F0A31581158144
:1018D300D0E0FED0E0F8158115811581E8C0E0EE77
:1018E300C0E0222518C582C0E0E51934FFC583C0D6
:1018F300E0E518C3958224F910AF08858319858222
:10190300188008858319858218D2AFCEF0A3E5200D
:10191300F0A37808E608F0A3DEFAEFF0A3E581244C
:10192300FBF8E608F0A3E608F0A30808E608F0A32E
:10193300E608F0A315811581D0E0FED0E0F815810B
:101943001581E8C0E0EEC0E022851983851882E0A6
:10195300A3FEE0A3F5207808E0A3F608DFFAE0A3EE
:10196300FFE0A3C0E0E0A3C0E0E0A3C0E0E0A3C0C9
:10197300E0E0A3C0E010AF088582188583198008D2
:10198300858218858319D2AFD083D0820201328534
:101993001983851882E0A3FEE0A3F5207808E0A36D
:1019A300F608DFFAE0A3FFE0A3C0E0E0A3C0E0E0B5
:1019B300A3C0E0E0A3C0E010AF08858218858319B7
:1019C3008008858218858319D2AFD083D08222C044
:1019D300D02518C582C0E0E51934FFC583C0E0E512
:1019E30018C3958224F310AF088583198582188064
:1019F30008858319858218D2AFC8F0A3E9F0A3EA5A
:101A0300F0A3EBF0A37908E709F0A3D8FAECF0A36D
:101A1300EDF0A3EEF0A3EFF0A3D0E0F0A3D0E0F05D
:101A2300A3D0E0F0A3E520F0A3E5F0F0A32285190D
:101A330083851882E0C0E0A3E0F9A3E0FAA3E0FB0A
:101A4300A37808E0F608A3DFFAE0FCA3E0FDA3E037
:101A5300FEA3E0FFA3E0C0E0A3E0C0E0A3E0F5D075
:101A6300A3E0F520A3E0A3F5F010AF088583198563
:101A730082188008858319858218D2AFD082D083DB
:101A8300D0E0F8D0E032740480067402800274015E
:101A9300C0E0F40412183BD0E01217102274048043
:101AA3000474028000CCC0E0EDC0E0E518C39CCC18
:101AB300AD1950011D10AF068C188D1980068C18B6
:101AC3008D19D2AF12171DD0E0FDD0E0FC22D083D8
:101AD300D082E9C0E0E493A3C386F0C5F095F0F9A2
:101AE30008E493A386F0C5F095F0700BE493A3C3C9
:101AF300994005E9048002A3E475F002A42582F568
:101B030082E5F03583F583D0E0F9E493A3C0E0E404
:101B130093C0E022D083D082ECC0E0EDC0E0E49338
:101B2300A3FCE493A3FDED4C600D121B63EC24FFB7
:101B3300FCED34FFFD80EFE493A3FCE493A3FDED00
:101B43004C600D121BA2EC24FFFCED34FFFD80EF73
:101B5300D0E0FDD0E0FCE493A3C0E0E493C0E02236
:101B6300C0E0C3E49396087401939618400FE4937E
:101B730066700808740193661870007019A3A3C3F4
:101B8300E49396087401939618A3A3400DD0E0D074
:101B9300E0D0E0021B53A3A3A3A3A3A3D0E022C0DE
:101BA300E0C0F088F0E49366700808740193661847
:101BB3007000A8F0A3A3700BD0F0D0E0D0E0D0E089
:0A1BC300021B53A3A3D0F0D0E022D0
:101BD00074F61218E6EAFEEBFF8C088D09EE243449
:101BE000F8E43FF9E8FCE9FDEE2435121EE3FAEED5
:101BF0002437121EE3F88508F0A4C885F00A850989
:101C0000F0A4250AF9EA28F8E439F97A257B0012CC
:101C1000177FEA8C828D83F0FA131313541FF8EEAA
:101C200028F8E43FF9E8245DF582E439F583E0C063
:101C3000E074075AF8D0E0B800028004C313D8FC5F
:101C4000A2E0EE50082434F582E43F8018243612D6
:101C50001EE3F5F0EA84A8F0EE28F8E43FF9E82462
:101C600038F582E439F583E0F97F0302199274F7BD
:101C70001218E6EAFEEBFFEE2434121EE3C0E0EE9B
:101C80002435F582E43FF583D0E0F08E828F83A384
:101C9000A3A3A3A3A3A3C082C0838E828F83A3A385
:101CA000A3A3A3E0F8A3E0F9D083D082E0C398F522
:101CB00008A3E099F509EE247F121EE36401703E4B
:101CC000EE2480F582E43FF583C082C0838E828F4C
:101CD00083A3A3A3A3A3E0240108A3E03400F9D0C5
:101CE00083D082E0687003A3E06970127CB17D0448
:101CF000120C62EE247FF582E43FF583E4F0AC0839
:101D0000AD09EEFAEFFB121BD0E9F91229327F027E
:101D1000021992C082C083851882851983E0F8A3D6
:101D2000E0F9C3EA9CEB9D5010C3EC98ED99401B81
:101D3000C3EA98EB995014800EC3EA98EB994007D8
:101D4000C3EC98ED994004790180027900D083D0EA
:101D50008222EAC39CFAEB9DFB2274EF1218E690F4
:101D60000376E064086005E06407702A9061C8E0CB
:101D700060249003A4E0F4601DE0F875F00BA4C8A3
:101D8000AAF02AF974A628FE740339FF8E828F8385
:101D9000A3A3A3E07003021E68906060E0C0E0EEC1
:101DA0002468F582E43FF583D0E0F0750C21750DD1
:101DB00005750800750900E5D914F50AE5D954033D
:101DC000F50E60127403650E6043E50A600AEE24A6
:101DD00067121EE37002807590051CE06401601FAD
:101DE000121EE060047A0480027A00E50AC39AFABF
:101DF00095E0FB120B0C8A088B09EA450970051265
:101E00000EA88064121EE070048A0C8B0DE50A6037
:101E100012850C82850D83F50BE5D9F0A3150BE532
:101E20000B70F6121EE0604474FC250AF50A780C6B
:101E3000121A8DAC0AA90EEEFAEFFB120D1C7402F9
:101E4000121820E97026AA08AB09121334793D8EC6
:101E5000828F83A3A3A3A3E0FA7B0012096EEEFA9C
:101E6000EFFB120C86120D2E7900806F7403650E45
:101E70006051850A107511007810121A8DAC0CADE6
:101E80000DAA08AB09120CE07402121820EE2468A7
:101E9000121EE364807004747F8001E0F50C780CFE
:101EA000121A91E50EF50C780C121A91A90AAC08D9
:101EB000AD099003A4E0FA7B0012094474021218E1
:101EC000208013900376E06408600BAC0CAD0DEE3F
:101ED000FAEFFB120DA6120EB479017F0A021992D5
:101EE000EE2483F582E43FF583E02274F21218E6D3
:101EF00074FC12180AEAFEEBFF8909A2AFE433F57D
:101F000008C2AF021FB5E0601B780C121A8DAC0B33
:101F1000A90EEEFAEFFB120D1674021218207404CB
:101F2000250BF50B7401250BF5D9850ED9E50B6052
:101F300018F50A850C82850D83E0F5D9A385820CFE
:101F400085830D150AE50A70EA75E195EE2463F8BC
:101F5000E43FF97A007B00A2AFE433F50BC2AF880F
:101F6000828983E0FCA3E0FDEC4D603A888289839E
:101F7000E0FAA3E0FB8A828B83E0FCA3E0FD888289
:101F80008983ECF0A3EDF08A828B83E4F0A3F088E0
:101F9000828983E0FCA3E0FDEC4D700A888289838E
:101FA000A3A3E4F0A3F0E50BA2E092AF12133490E8
:101FB00004B8E004F0EE2463121EE3F8A3E0F9E8AD
:101FC000496064EE2463121EE32402F8A3E03400A7
:101FD000F988828983E5822402F50CE43583F50DC6
:101FE000E0F50BA3E0F50EEE2462121EE36401702F
:101FF000369061D0E0F8121EE060047C0480027C20
:10200000007480C398FA95E0FBE50B2CF8E43400EB
:10201000F9E82402F8500109C3EA98EB99A2D265C5
:10202000D0334003021F069004B8E0604D9004B91D
:10203000E0F89004B8E0C398500C74026509703A57
:102040009004BAE060348E828F83A3A3A3A3E085BB
:10205000188285198312208A7402121856E81220F9
:102060008A9004B7E028F07402121870AA18AB190D
:1020700079011209989004B8E4F0E508A2E092AF63
:1020800074041218207F07021992F0A3E4F0900460
:10209000B8E0F8228521878522C622C0E074EB12C1
:1020A00019D2A2AFE433F508C2AF759B00906182EC
:1020B000E0A2E05030E591A2E0502A7591FE740153
:1020C0006521702112222E120DF412221C121AA068
:1020D0001226DC7404121820E964017005790112DB
:1020E0000E3C121D5A906182E0A2E5505DE591A27E
:1020F000E550577591DF900376E064076005E06472
:1021000008702F12222E74016521703E120DF412F8
:10211000221C121AA01226DC7404121820E9640191
:1021200070057901120E3C7901EEFAEFFB121EEBFD
:102130008018E0640D7013900398E004F064287038
:1021400002E4F07A00E0F9120EBA906182E0A2E6B1
:1021500040030221F1E591A2E640030221F17591CD
:10216000BF900376E064057008120DDC120DE88064
:1021700003120DE2752100120E48E9900377F07901
:1021800000120E3C120BD27A017B00900375E0F92D
:10219000121304907803E064427056900520E01416
:1021A000F0704EC2AF1221A800782AD0E0F618D005
:1021B000E0F6E59F5407F87005750DFF8003750D77
:1021C0007FC4C0E07829E6F50A08E6550DF50B74E2
:1021D0000B780A1217E8D0E0250AF8906270E0A2A6
:1021E000E740F8E8C333906272F0906270E0D2E0AA
:1021F000F0906181E0A2E35009E5E9A2E3500375A4
:10220000E9F7A3E0A2E75009E591A2E75003759131
:102210007FE508A2E092AF7F08021A318E828F8399
:10222000E0F8A3E0C82416F582E438F58322900391
:10223000A4E0F875F00BA4C8AAF02AF974A628FE49
:10224000740339FF22C0E0C0D0C082C08390618394
:10225000E0A2E05009E5BFA2E0500375BFFEE0A296
:10226000E15009E5BFA2E1500375BFFDE0A2E250D5
:1022700009E5BFA2E2500375BFFBE0A2E35009E508
:10228000BFA2E3500375BFF7E0A2E45009E5BFA287
:10229000E4500375BFEFE0A2E55009E5BFA2E550A9
:1022A0000375BFDFE0A2E65009E5BFA2E650037563
:1022B000BFBFD083D082D0D0D0E032C0E074F21261
:1022C00019D2E5A7A2E6500FE5A1A2E6500953A74F
:1022D000BF75A1BF12230FE5A7A2E5500CE5A1A28F
:1022E000E5500653A7DF75A1DFE5A7A2E15009E598
:1022F000A1A2E1500375A1FDE5A7A2E2500CE5A162
:10230000A2E2500653A7FB75A1FB7F01021A3174AC
:10231000F71218E6752101900376E0640670151235
:102320000D528A828B83A3A3A3A3A3A3E0FAA3E005
:10233000FB120DCAA2AFE433FED2AF90037CE0647F
:102340000170187A207B00900375E0F912141E7A50
:10235000207B00900375E0F912130A906182E0D2AD
:10236000E6F090051DE0602185C622801690037B73
:10237000E064017008E5C654F84405F5C653BEFC98
:102380001220947401652160E4EEA2E092AF7F0216
:10239000021992008E238F24858228858327851831
:1023A00082851983E0CEA3E0CF852882852783EB41
:1023B000C9EAC8EDCBECCA75F010C3E833C8E933FD
:1023C000C9EA33CAEB33CBC3EA9EF526EB9FF5256A
:1023D000B35004AB25AA26EC33CCED33CDD5F0DADF
:1023E000AE23AF242274E91218E674FA12180AEA2E
:1023F000FEEBFF8C0A8D0B120E00EAF8EBF9ECFAFB
:10240000EDFB8E828F83121704900376E024F7C3CE
:102410009405500675140102254C120D528A088B42
:1024200009EA45097003022549EEFCEFFDAA18AB45
:1024300019120DFA850882850983A3A3780C121658
:10244000CE908223780C1216A8851882851983787D
:10245000101216CE90822378101216A8780C7910DC
:102460001214E1501F780C791012168090823F7878
:102470000C1215014047850C14850D15850E168527
:102480000F17804590823F8510148511158512160F
:102490008513177814790C121680781412150150D0
:1024A0001C751400751500751600751701781479E0
:1024B000101216807814790C121647800C751401CE
:1024C0007515007516007517007409781412162812
:1024D00090828F780C1216CE7814790C1215A08584
:1024E0000882850983A3A3A3A3A3A312256A1217B5
:1024F0007F880C890DE4F50EF50F7814790C12160F
:1025000047740412185612256A12177FE8FA8A0CCB
:10251000E4F50D7814790C1214E150077814790C55
:10252000121680900376E06408600AE06406600595
:10253000E06405702090823B7814121501501690CB
:102540008237781412165A800C75140075150075B0
:102550001600751700850A82850B8378141216DD24
:1025600074061218207F10021992E0F8A3E0F97A9D
:10257000D07B032274F71218E6120E1290051BE0AE
:1025800064017010906245E4F0A3F053F4F343FE4D
:102590000C5390F3120DB8E5C654B84441F5C6E5A6
:1025A0009E5447644170F8906185740FF09005194E
:1025B000E0F47002A3E0604E90051AE06008146039
:1025C0001B14602E8040750801750900900519E004
:1025D00078081217F7E508F45280802A750801750B
:1025E0000900900519E078081217F7E508F45290F1
:1025F0008014750801750900900519E07808121714
:10260000F7E508F452A079007F0202199274F712DC
:1026100018E6E9FEEAFF120E1274016E700C7A8061
:102620007B00900375E0F91213049029B8E493F449
:102630006008E493F9120BC6800953C6B8E59E54AE
:102640004770FA120DBE90051BE064017003120B77
:10265000E4900519E0F47002A3E0604B90051AE0E5
:10266000600814601A14602C803D7508017509001B
:10267000900519E078081217F7E508428080287560
:102680000801750900900519E078081217F7E508A8
:1026900042908013750801750900900519E07808CB
:1026A0001217F7E50842A0120D528A088B09A808F4
:1026B000A909E8496014E5E170FCE82414F582E416
:1026C00039F583E0F46003E0F5E174016F700A7A94
:1026D00001900375E0F912138E02260874F11218A6
:1026E000E68A088B098C0A8D0B90822378081216D3
:1026F000A8740F121856780C1216CE908223780CFC
:102700001216A87808790C1214E190823F501078C4
:1027100008790C12168078081215014014800E7882
:102720000C7908121680780C12150150047901807A
:102730000279007F0802199274ED1218E68A088B5C
:10274000098C0A8D0B90822378081216A874131234
:102750001856780C1216CE908223780C1216A87890
:102760000C79081214E140117808790C121680AA2D
:1027700008AB09AC0AAD0B8022751000751100750D
:1027800012007513017810790C12168078107908F0
:10279000121647AA10AB11AC12AD137F0C0219929E
:1027A00090822378081216CE8A828B8378081216BC
:1027B000BB7F0402199274F51218E68C828D83781F
:1027C000081216CE8A828B83780812169412280E6D
:1027D000C3E09CF0A3E09D122800402290825B7829
:1027E000081216CE8A828B83780812166D8A828B25
:1027F00083A3A3A3A3E02420F0A3E0344EF080A0A1
:10280000F088828983C3E09420A3E0944E22EA24D6
:1028100004F8E43BF98C828D83A3A3A3A3E0FCA37B
:10282000E0FD888289832274F51218E6E9FE90049F
:10283000D3E0FAA3E0FBEE29F8E433F9740228F5BB
:1028400082748139F583E02AF508A3E03BF5097825
:1028500008121A8D90829B1216EC122394740212A5
:1028600018208A088B098C0A8D0B741078081216B0
:102870000FAA08AB097F0402199274F11218E68AB4
:102880000C8B0D8C0E8D0F7411121856121AA47425
:1028900011121856E02401F508A3E03400F509E40C
:1028A000F50AF50B780C7908121520908233780818
:1028B0001216CE780C7908121520AA0CAB0DAC0EAE
:1028C000AD0F12239474021218208B09EA45096097
:1028D000047A0180027A00EC2AFCE43DFD741312B4
:1028E0001856E0F8A3E0F9E8FEE9FFECF8EDF97A14
:1028F000717B0212177F88088909E4F50AF50B8EAF
:10290000828F8378081216DDECF8EDF97A717B027C
:1029100012177F8A088B09740578081217F78E82C0
:102920008F83A3A3A3A3E508F0A3E509F07F080222
:102930001992C082C083E9906000F0D083D08222D7
:10294000C0E074F21219D2A2AFE433FED2AFE5892F
:10295000A2E15003121202758900C2C5751A00EE79
:10296000A2E092AF7F01021A31C0E074F21219D2D4
:10297000A2AFE433FED2AFE58BA2E0500312120205
:10298000758B00C2E880D5C0E0C0D0E8C0E0E9C0E7
:10299000E0A9A8D2AFC2C7751A00E9A2E7E433F8EC
:1029A000E9A2E792AFD0E0F9D0E0F8D0D0D0E032A1
:0629B000C2AF020000228C
:1029B800FFFFFFFFFFFFFFFFC082C083E99015EA1A
:1029C800F0D083D08202013274F612187AE99002AC
:1029D800E8F0900348E0F5087509007402780812D9
:1029E80017F7AA08AB091213769002E912338390FD
:1029F80002E9123770606F900348E075F003A4FA9B
:102A0800ABF0121376900306123383900306123745
:102A180070700B9002E912374112137C80489003C2
:102A2800061246D57AFF7BFF12116C7A0080198A4C
:102A380008750900740278081217F712417D74FFAF
:102A4800122B83E4F0A3F00A900348E0F8EAC39855
:102A580040DD79051208309002E8E0F912071C7A87
:102A6800BA7B08120AAC02422074F412187A8A0857
:102A78008B09EB548060479002E8E0F91212EC8A67
:102A88000A8B0BAE0AAF0BEE4F602A8E828F83E063
:102A980064B0701A120842E960148E828F83A3A36F
:102AA800A3A3E0F9EE2405FAE43FFB120812EEFABC
:102AB800EFFB1212DAAA08E5096480FB80047A00A9
:102AC8007B00022CD374F212187A74FB12180AEAEB
:102AD800FEEBFFEE4F60457403121856EEF0A3EFBD
:102AE800F0851882851983ECF0A3EDF074021218B2
:102AF80056E9F0AA18AB19120716E9F508707574AB
:102B080013121856E0F50AA3E0F50BE50A450B6029
:102B1800638E828F8312310CEE4F70057508028028
:102B2800537A067B001213768A0C8B0DA80CA90D1C
:102B3800E8497005750813803B88828983E4122B65
:102B480083EEF0A3EF122C9FE50AF0A3E50BF090BB
:102B580002EC122C989002EC6017E0FCA3E08003D2
:102B6800EAFCEBFD8C828D83122C9870F38C828D9D
:102B780083123D98A9087405024955F0A31246B777
:102B8800A32274F212187A8908890C750D0074034F
:102B9800780C1217F7850C0A850D0B9002EBF09054
:102BA80002E9123BA3122C96602E12137C79008046
:102BB8001D890C750D007402780C1217F79002E944
:102BC80012403C8882F583A3A3E4F0A3F0099003A4
:102BD80048E0F8E9C39840D9900348E0FA850AF03C
:102BE800A4CAA8F0850BF0A428FB1213768A0C8BD4
:102BF8000DAE0CAF0DEE4F7003022C8C900348E025
:102C0800FC850AF0A4CCA8F0850BF0A428FD790077
:102C18001212C27C0080318D0C750D007403780C83
:102C28001217F78A828B83122C9188828983E4F0A9
:102C3800122C9EA3A3F0A3F00DEDC3950840D8EE87
:102C4800250AFEEF350BFF0C900348E0F8ECC3981B
:102C580050288C0C750D007402780C1217F790022E
:102C6800E9122C91E82402500109FAE9FB8A828BC7
:102C780083EEF0A3EFF07D0080BFE5089002EBF053
:102C8800790080027913024958124040F922A3A31F
:102C9800123745EA4B22A31246B7A3A3A32274F422
:102CA80012187A7900EAA2E0501F7508E2750981C6
:102CB8007808121A8D79107C047D007AEC7B151245
:102CC800082A7402121820E9F980007F0402194CBE
:102CD800C082C0839002EC123770601C888289839E
:102CE800A3A3E06A7003A3E06B8882898370E8A3DA
:102CF800A3A3A312374180047A007B000229C97478
:102D0800F212187A74FD12180AEAFEEBFF8518828F
:102D1800851983E4F0A3F074021218567401F012B6
:102D2800376D70141209E61213769002EF1233838E
:102D380012376D7003022E99123483EE2404F50ABB
:102D4800E43FF50B850A82F583E024FE603C24FC11
:102D5800607424FE607E24FE7003022DE924FE7058
:102D680003022DF624FE7003022E0324FE700302D4
:102D78002E1024FE7003022E1D24FC7003022E3E2A
:102D880024FE7003022E56022E921209E69002F1DA
:102D9800EAF0A3EB122EA512045EE96003022E925C
:102DA8009002F1121AA48E828F83A3A3A3A3A31265
:102DB80046D58508828509831237411207FA7402BD
:102DC800121820022E92AC18AD19EEFAEFFB120879
:102DD80048022E61AC18AD19EEFAEFFB12084E80CE
:102DE80078AC18AD19EEFAEFFB120854806BAC18EA
:102DF800AD19EEFAEFFB12085A805EAC18AD19EE69
:102E0800FAEFFB1208608051AC18AD19EEFAEFFB2F
:102E180012086680447402121860880C890D780CB8
:102E2800121A8D7402121870EEFAEFFB12086C7405
:102E3800021218208023AC18AD19EEFAEFFB120825
:102E480072E9F870167402121856E4F0803CAC1857
:102E5800AD19EEFAEFFB120878E9F8E8602C8E82DB
:102E68008F83A3E064146022850A82850B83E09037
:102E780002F1F08518828519831237419002F21207
:102E88003383E8A3122EA5120458EEFAEFFB1207BB
:102E9800D07402121856E0F97403024955F07CF117
:102EA8007D028508828509831237452274E8121845
:102EB8007A74FA12180A7404121856ECF0A3EDF09A
:102EC8008A128B13EA2405F50EE43513F50FEA246C
:102ED80002F510E43513F511851082F58312374198
:102EE80012054E8A0A8B0B7508007C037D00790059
:102EF8007AF17B021212C2E50E2402F516E4350FB0
:102F0800F5177402121860880C890D780C121A8D46
:102F1800850E82850F83A3A3A3A3E0F50C750D008E
:102F2800780C121A8DE50E2405F50CE4350FF50D15
:102F3800780C121A8D851682851783123A48120763
:102F48003474061218208A0C8B0DE50C450D70039D
:102F58000230D58020851882851983E0888289838C
:102F6800F00508851882851983A3E0C0E0123116A0
:102F7800D0E0F00508E50A24FBFAE50B34FFFBC3B3
:102F8800E5089AE49B40030230D57E007F00851255
:102F980082851383A3A3A3A3E0F5097809121A91E4
:102FA800E4F514F5157814121A8D7514EE751502DA
:102FB8007814121A8D9002EF121AA4740912185676
:102FC800121AA4E50A24F9F9AC0CAD0D8510828516
:102FD80011831237411208A27409121820E96003FC
:102FE800023076850E82850F83A3A3A3A3A3A3A390
:102FF800E0F89002EEE0687075E0F5148E1578142C
:10300800121A8D1246D2850E82850F83A3A3A3A31D
:10301800A3A3A3A31237411212BC7402121820E909
:10302800604C9002F2123770703BE4F51478141279
:103038001A8D7CFF7DFF79078510828511831237F1
:103048004112080C74021218201237767017850E78
:1030580082850F8312486F74041218561241301279
:103068003A79023109850C82850D8312310CA81832
:10307800A919881489157814121A8D74041218560F
:10308800121AA485168285178312337912074074A1
:10309800041218208A0C8B0DEE4F7003022F521267
:1030A8003116EE123121123A2FEF123121F8A3E036
:1030B8003400F9E50C450D6003022F5D8882898391
:1030C80074FFF0050812311674FFF00508E5086072
:1030D8001A1313543F12338912046AE960099002E3
:1030E800F212374112133479008016850E82850F4B
:1030F8008312486F7404121856124130123D9879A1
:103108000A023A02A3A3A3A3E0FEA3E0FF22A808B1
:103118009002F2E028123A2F22F00508089002F2F5
:10312800E0282274E812187A74FA12180A74021243
:1031380018561233837404121856ECF0A3EDF07489
:1031480002121856E02405123A18E0F50CA3E0F52F
:103158000D7402121856E02402F510A3E03400F5AD
:1031680011851082F58312374112054E75080075D6
:103178000900EA24FCFEEB34FFFF8008050CE50C8F
:103188007002050DA808C3EE98EF940050030233AF
:1031980035A818A919880E890F780E121A8D85146A
:1031A80082851583A3A3A3A31246D9121A8DE51409
:1031B8002405F50EE43515F50F780E121A8D8514D1
:1031C8008285158312337712073474061218208A01
:1031D8000E8B0FEA450F7003023335EA2404F51607
:1031E800E4350FF517851682F583E0F50CA3E0F5B5
:1031F8000D8518828519831246D58A828B83A3A3ED
:10320800A3E0F9851082851183123741120722E95C
:10321800F50960030233357402121856123A3FF565
:10322800097809121A91E4F512F5137812121A8D19
:103238007512EE7513027812121A8D9002EF121A97
:10324800A47407121856121AA4EEF9AC0EAD0F8525
:1032580010828511831237411208A27409121820AE
:10326800E9F5096003023335E508703FE4F50EF52A
:103278000F780E121A8D7CFF7DFF790985108285E3
:10328800118312374112080C7402121820123A6581
:10329800700D740412185612336C79110233699048
:1032A80002EEE024029002F2F080149002F2E0FABA
:1032B8009002EEE0790024025001096A497072A870
:1032C800089002EEE0FAE82AFAE43400FBEE9AEFFE
:1032D8009B405A851682851783E0C0E09002F3125E
:1032E800311BD0E0F00508851682851783A3E0C05E
:1032F800E0089002F312311BD0E0F005089002EECE
:103308001246D9121A8D1246D2A808123A0C121275
:10331800AA74021218209002EEE02508F50874FF3E
:10332800650C700474FF650D6003023184E5086064
:103338001F9002F2E0F5F0E5088412338912047058
:10334800E960099002F312374112133479008011B1
:10335800E509700375090A740412185612336CA92A
:1033680009023A02123BA7E50CF0A3E50DF022A3EF
:10337800A3124964AA0CAB0D22A3A3EAF0A3EBF0B5
:10338800229002F1F07CF17D028510828511831272
:1033980037452274EC12187A74FC12180A123EA8E7
:1033A800740212187012373B12073A8A0C8B0DEA16
:1033B800450D7003023473123483A818A9198810B4
:1033C80089117810121A8D7CFF7DFF790B85088290
:1033D80085098312374112080C740212182012351D
:1033E80079700C850A82850B83123A760234808EB6
:1033F800828F83A3A3A3A3E0F5127812121A91E493
:10340800F512F5137812121A8D7512F175130278E8
:1034180012121A8D7810121A8D7409121856121A6F
:10342800A47409121856E0F9AC0CAD0D8508828514
:1034380009831237411208A27409121820E9FE7094
:10344800157CF17D028508828509831237411204B3
:1034580076E97009802074166E70027E009002F280
:10346800123741121334EE7004800B7E01850A82F4
:10347800850B83123D95EEF9023DAAEE2402F5086C
:10348800E43FF5092274EC12187A74FC12180AEA5F
:10349800FEEBFF8C0E8D0FEE2405F508E43FF509D1
:1034A8007402121870850882850983123741120741
:1034B8003A8A0C8B0DEA450D7003023569EE240239
:1034C800F50AE43FF50BA818A91988108911781096
:1034D800121A8D7CFF7DFF790D12373B12080C7490
:1034E80002121820123579700B850882850983121B
:1034F8003A76807A8E828F83A3A3A3A3E0F512780D
:1035080012121A91850882850983A3A3121AA47539
:1035180012F17513027812121A8D7810121A8D741E
:1035280009121856121AA47409121856E0F912371B
:10353800371208A27409121820E9FE700F7CF17D79
:103548000212373B12047CE97009802074166E70F1
:10355800027E009002F2123741121334EE7004809A
:103568000B7E01850882850983123D95EEF9023D9F
:10357800AA123780F510A3E0F511EA45112274E884
:1035880012187A74FE12180A8A168B178C148D1565
:10359800EA2405F50CE43517F50DEA2402F50EE4E6
:1035A8003517F50F850E82F58312374112054E8ABD
:1035B800088B09750B007C037D0079007AF17B028A
:1035C8001212C2750A00E50814F5100424FFF50864
:1035D800E50934FFF50980549002F1E0FA9002EE13
:1035E800E0F8EA28F8E43400F9E50898E509995084
:1035F8000D9002F1E0F8E510C3989002EEF0E0F5C6
:10360800127513007812121A8D1246D29002F2E047
:103618002AFAA3E03400FB1212AA740212182090AE
:1036280002EEE0F89002F1E028F0050A850C8285A8
:103638000D83A3A312404C400302371C9002F1E013
:10364800C39508E49509400302371CAE0AEE2EFE26
:10365800E433FF12375BAC18AD191246EDE439FBC1
:1036680012073A8A128B13AC12AD13EC4D701B750E
:103678000B0112374B123D999002F2122C986003FD
:10368800121334A90B7402023A0485168285178333
:10369800A3A3A3A3E0F50B780B121A91E4F512F596
:1036A800137812121A8D7512EE7513027812121A07
:1036B8008D9002EF121AA47407121856121AA4A9B0
:1036C80010850E82850F831237411208A2740912E1
:1036D8001820E9F50B709B9002F212377060030214
:1036E80035E0E4F512F5137812121A8D7CFF7DFF90
:1036F800790F850E82850F8312374112080C7402E8
:1037080012182012377660030235E012374B123A4E
:103718007A02368D7CF17D02850E82850F83123701
:1037280041120482E96003023680790002368DACCA
:103738000CAD0D850A82850B8312374522E0FAA36A
:10374800E0FB2212375BE0FAA3E0F9EA85148285F0
:10375800158322850C82850D83E02EF8A3E03FF9BE
:1037680088828983229002EF124873E8492212372F
:1037780080F8A3E0F9E849229002F2EAF0A3EBF01E
:103788009002F2E02274E812187A74FA12180A7495
:10379800041218561233838C168D17740412185697
:1037A800E02405F50EA3E03400F50F740412185652
:1037B800E02402123A1812374112054E8A0A8B0B7E
:1037C8007F007E00A818A919880889097808121AA4
:1037D8008D850E82850F83A3A3A3A3E0F5088E0928
:1037E8007808121A8DE50E2405F508E4350FF50959
:1037F8007808121A8D850E82850F83A3A3123A4882
:1038080012073474061218208A0C8B0D8029123A7C
:1038180039F00F123A39F00F9002EE123D84121A65
:103828008D1246D2EFF8123A0C1212AA740212182C
:10383800209002EEE02FFFE50C450D70030238C81A
:10384800851882851983123EBAA3A3A3E0F98514CB
:1038580082851583123741120722E9FEE50C2404FC
:10386800F510E4350DF511EE705074041218561267
:103878003A3FF5087808121A91E4F508F50978082E
:10388800121A8D7508EE7509027808121A8D9002C1
:10389800EF121AA47407121856121AA4E50A24FA89
:1038A800F9AC0CAD0D8514828515831237411208C9
:1038B800A27409121820E9FE6039123A55123D988F
:1038C800EF70030239EF9002F2E0F5F0EF84900216
:1038D800F1F07CF17D02851482851583123741123F
:1038E8000488E960099002F3123741121334790011
:1038F800023A028F08EF703BE4F512F513781212C2
:103908001A8D7CFF7DFF7911851482851583123706
:103918004112080C7402121820123A657009123A02
:1039280055123A79023A029002EEE024049002F22B
:10393800F080359002EEE0F89002F2E0FAE8240414
:10394800FCE43400FDEC6A4D60030238CEE50A243D
:10395800FAFAE50B34FFFBE50828F8E43400F9EA45
:1039680098EB9950030238CE851082851183E0C008
:10397800E09002F3E02FF8A3E034008882F583D0CA
:10398800E0F00F851082851183A3E0C0E0123A268B
:10399800D0E0F00F740212186088088909780812BC
:1039A8001A8D7402121856121AA4850E82850F8376
:1039B80012337712074074041218208A0C8B0DEA10
:1039C800450D70030238167402121856E0C0E01252
:1039D8003A26D0E0F00F7402121856A3E0C0E012A5
:1039E8003A26D0E002381EEE70027E0A850E8285E5
:1039F8000F83123A5B123D98EEF974061218207F75
:103A08001002194C9002F3E028FAA3E03400FB22DC
:103A1800F514A3E03400F515851482F58322123AD3
:103A28002A229002F3E02FFAA3E034008A82F58379
:103A380022123A2A74FF22123BA7A3A3A3A3E022CF
:103A4800124964850E82850F8312374522851082BC
:103A5800851183124873851682851783229002F395
:103A6800EAF0A3EBF09002F3124873E84922123D02
:103A78009EE8F0A3E9F079112274EA12187A74FE2C
:103A880012180A8A088B098C128D13EA2405FEE4A1
:103A98003509FFAC18AD198E828F83123741120792
:103AA8003A8A0C8B0DEE2406F50EE43FF50FEA4535
:103AB8000D7003023B79E5082402F50AE43509F59F
:103AC8000B8A828B83A3A3A3E0A2E55028851882E2
:103AD8008519831237411208968A108B11EA45110D
:103AE8006020791212373785108285118312187871
:103AF800E9F50C707F850E82850F83E060097952A5
:103B08008011750C0E806D850882850983A3A3A397
:103B1800A3E0F9E4F508F5097808121A8D8E828F6A
:103B280083A3A3E0F5087808121A8D8E828F83A3E9
:103B3800A3A3121AA48E828F831246D512373B1282
:103B480008A87406121820E9F50C7011850E8285F4
:103B58000F83E0702D12373B12048E802574166592
:103B68000C7011750C007418121856123BA3E480DF
:103B780010750C0112486B851282851383E8F0A337
:103B8800E9F0850E82850F83E0600479008002A940
:103B98000C74021218207F0E02194C123BA722E067
:103BA800F8A3E0F58388822274EC12187A74F7126D
:103BB800180A8A0A8B0B8C108D11EA2405FEE4354D
:103BC8000BFF750C00AC18AD198E828F831237412C
:103BD80012073A8A088B09EA45097003023D6FE526
:103BE8000A2402F50A5002050B8A828B83A3A3A339
:103BF800E0A2E5502F8518828519831237411208F3
:103C0800968A0C8B0DEA450D604F7912AC08AD0908
:103C180012373B850C82850D83121878E9F50C6004
:103C280003023D72850A82850B83E0F508A3E0F55F
:103C380009AA08FB12088AEA4B70197AFF7BFF125F
:103C4800088AEA4B7003023D658A828B83E508F097
:103C5800A3E509F07508008008750C0E023D720591
:103C6800089002EBE0F8E508C3984003023D65853B
:103C7800080E750F007403780E1217F78A828B836B
:103C8800A3A3E0250EF8A3E0350F12413970D08EBA
:103C9800828F83123D8D1233838E828F83A3A3126A
:103CA8003D8D123381EE2404F508E43FF5098508BB
:103CB80082F583E088828983A3A3A3A3F0A3E4F019
:103CC800EE2405F50EE43FF50F850E82F583123DCF
:103CD8008DA3A3A3A312338175120775130078125D
:103CE800121A8DEEFCEFFD74041218681212AA74F1
:103CF80002121820E4F5127812121A8D85088285AE
:103D08000983E0FC7D00791712373B12080C740216
:103D18001218207407121856123383740712185693
:103D2800E0FA4B603D850882850983123D84121AAA
:103D38008D850E82850F831246D51212AA7402123F
:103D48001820740212187012373B120494E9602686
:103D580074071218561237411213348019750C095A
:103D68008008750C118003750C0112486B85108250
:103D7800851183123D98A90C74098028E0F508750F
:103D880009007808221237458882898322123D9ECD
:103D9800E8F0A3E9F022E0F8A3E0F9850E82850FA8
:103DA800832274041218207F0C02194C74EC121828
:103DB8007A123EA8751000EE2402F50CE43FF50DCA
:103DC800850C82F58312374112088A8A088B09EA22
:103DD80045097003023E8C850A82850B83E06401E5
:103DE8006003023E81AC08AD09AA0AAB0B12087E3B
:103DF800E9606E85088285098312310EEE2406F586
:103E08000AE43FF50B8E828F83A3A3121AA48E8235
:103E18008F83A3A3A3A3121AA4850A82850B8312F6
:103E28001AA479188E828F83123EBA12374112086B
:103E3800A87406121820E9F8741668700B850A82AF
:103E4800850B83E4F0A38014E860128E828F8312BE
:103E58003741850E82850F83EAF0A3EBF088108046
:103E680018780E121A8DAC08AD09EEFAEFFB12089D
:103E7800847402121820E9F510AA08AB09120890F8
:103E8800E510700E850C82850D8312374112049A55
:103E98008009741665107003751000A910023DAFF3
:103EA800EAFEEBFF8C0E8D0FEE2405F50AE43FF5D4
:103EB8000B22124964850C82850D832274EA12183C
:103EC8007A7508007509007E007F00750A00EC24E9
:103ED80002F510E43DF5118035EC65087003ED65D9
:103EE800096003023F7988828983A3A3E06A70038B
:103EF800A3E06B707C88828983A3A3A3A312486F75
:103F0800EE28FEEF39FFEA28FAEB39FB050A1240E2
:103F180049503A850A0C750D007403780C1217F78E
:103F280085108285118312403C124139601FE508D3
:103F3800450970A58C088D098882898312310C88FF
:103F4800828983A3A3E02EFAA3E03F80BEE50AC3DB
:103F580094025003024037750800750900EE4F605F
:103F680010EEFAEFFB12132E8A0E8B0FEA450F7034
:103F7800057900024039750B0002400C850B0C7561
:103F88000D007403780C1217F7851082851183E0F1
:103F9800250CF50CA3E0350DF50DE50C2406F514FC
:103FA800E4350DF515851482F58312413E6042E52E
:103FB8000C2404F512E4350DF513851282F58312ED
:103FC8001AA4E50E2508FAE50F3509FB1212AA74A2
:103FD80002121820851282851383E02508F508A3AC
:103FE800E03509F5098514828515831237411213C6
:103FF80034E50B600D7C087D007900AA0CAB0D122E
:1040080012C2050BE50BC3950A5003023F848510C5
:104018008285118312486F88828983A3A3A3A3A3EF
:10402800A3E50EF0A3E50F122C9FEEF0A3EFF079B5
:1040380001023B9E12404022E0250CF8A3E0350D1A
:10404800229002EBE0F8E50AC3982274F012187A7D
:104058008A0E8B0F8C0A8D0B750D00750C00805025
:104068007916EE2406F508E43FF5098E828F83A3BE
:10407800A3121AA48E828F83A3A3A3A3121AA485C2
:104088000882850983121AA4850E82850F83A3A34B
:104098001237411208A87406121820E9F50D741693
:1040A800650D706C850882850983E4F0A3F0050C22
:1040B8009002EBE0F8E50CC3985066AA0C8A0875E4
:1040C8000900740378081217F7850A82850B83A301
:1040D800A3124188E8FEE9FF8E828F8312413E6079
:1040E80040EA2401F508E43400F5099002EBE065A4
:1040F800087002E509601488828983A3A3A3A3A397
:10410800A3A3A31237706003024068791802406ABB
:10411800E9609B12486B7410121856124130123D18
:1041280098A90D7F0802194CE0FAA3E0F5838A826A
:1041380022F988828983124964EC4D2274F6121898
:104148007A7C0080010C900348E0F8ECC398501E7C
:104158008C08750900740278081217F712417DE07F
:104168006A7003A3E06B70DDE8FAE9FB80047A006B
:104178007B000242209002E91241888882898322CA
:10418800E02508F8A3E03509F92274F212187A8AB2
:10419800088B09750A0080278E828F83A3A3A3A3A7
:1041A800122C9660031213347C087D007900EEFA15
:1041B800EFFB1212C28E828F83E4F0A3F0050A127D
:1041C80040495027850A0C750D007403780C1217A6
:1041D800F7850882850983A3A3E0250CFEA3E035B3
:1041E8000DFF8E828F8312377070AD850882850926
:1041F8008374FFF0A3F002495874F612187A120873
:104208003C8A828B83E582458370067A007B008036
:1042180007A3A3A3A31237417F0202194C74F41217
:10422800187A89088C828D83E06402703C12480EEB
:10423800FEA3E0F9EEF87402687003742969702926
:10424800750A02750B00780A121A8D741012185626
:10425800121AA47410121856121AA4A90812117E60
:104268007406121820E9F980027901022CD374E847
:1042780012187A74FB12180AE9851882851983F0D6
:104288008A168B17ECFEEDFF7510008E828F83A3C4
:10429800A3A3E0A2E4502D741D1218561237411240
:1042A80008968A828B83E582458370030246AD793E
:1042B8000AEEFCEFFDAA16AB17121878E9F51060A4
:1042C800030246B0741F121856E0F508A3E0F5097A
:1042D8007421121856E0F50AA3E0F50B742312189E
:1042E80056E0F50EA3E0F50F8E828F83E06402603E
:1042F8000302464EA312486F850882850983A38569
:104308008212858313EE2406F50CE43FF50D8882AE
:1043180089831246EDF514E439F5157814121B1744
:1043280001000028012850430700022815440328EB
:1043380083430029444501296F4502291045032973
:1043480044450429E8454E46E50E450F60030246FC
:1043580049850C82850D8312486FE8FAE9FB8A8249
:104368008B83E0850A82850B831246F8121A8D8AA0
:10437800828B83A3E0FCA3E00245D2E50E450F60E3
:1043880003024649850A82850B837401F01246E2CE
:10439800850882850983F07C007D008E828F83A347
:1043A800A3A3A3E02401FAA3E03400FB12073AEA2E
:1043B8004B60408A828B83E02402F8850A82850B51
:1043C80083E028F0EA2404F8E43BF988828983E052
:1043D8008512828513831247061246F8121A8D8AAF
:1043E800828B83A31246D5E5082403FAE43509FB3A
:1043F8000245D7850A82850B83E02404F07C047D7E
:10440800007900AA12AB131212C20246B0E50E459B
:104418000F60030246491246E2FEA3E0FF850A82C6
:10442800850B837404F0EE850882850983F0EF8597
:104438001282851383F07403121870EEFAEFFB12E0
:10444800073A8A0C8B0DEA450D70030244F38A8201
:104458008B83A3A312310C7401121860880E890F84
:10446800780E121A8D7405121856121AA47CFF7D44
:10447800FF12074074041218208B0FEA450F70339F
:10448800850C82850D831246D9121A8D850C82857A
:104498000D83A3121AA47C027D007AB47B821205D4
:1044A8003C7404121820E9700A740112185674FF3B
:1044B800F0A3F08E828F83E064027039750C027568
:1044C8000D00780C121A8D8E828F83A31246D5E5C3
:1044D800082404FAE43509FB1212AA7402121820FF
:1044E800850A82850B83E02402800974011218561C
:1044F800EEF0A3EFF074011218561246C7740112B9
:1045080018561246BE024643E50E450F60030246A2
:1045180049850C82850D8312495DAA16AB171211C5
:1045280084850A82850B837402F085088285098355
:10453800EAF0851282851383EB024646E50E450FA5
:1045480060030246491246E2F8A3E0F9850A82852B
:104558000B837402F0E8850882850983F0E98512E7
:1045680082851383024646850C82850D8312374166
:104578001212A4EAFAF8C3950EE4950F405CE865B8
:104588000E450F70047A008021851882851983E012
:10459800FCE50E2CFCE4350FFDC3EC98ED940050BF
:1045A80003E08005E50ECAC39AFAEA850A82850BFC
:1045B80083F08A0A750B00780A121A8D850C828599
:1045C8000D83E0250EFCA3E0350FFDAA08AB091208
:1045D80012AA74021218200246B07510070246B0DB
:1045E800E50E450F705B850C82850D8312486F853B
:1045F8000A82850B837407F0888289831246BF126A
:1046080046B7E0851282851383F0E82402FAE4397C
:10461800FB8A828B831246C78A828B831246BEA38B
:10462800A3122C9E1246CCF0E82405F85001098804
:104638008289831246CCA3124706A3A3A3A3F080C2
:104648006775100B8062741D1218561237411208D4
:104658003C8A828B83E5824583604A12486F880CC6
:10466800890DE8450D603E7425121856E0F510785E
:1046780010121A91780E121A8D780A121A8D78086B
:10468800121A8D7407121856E0F9EEFCEFFDAA16FF
:10469800AB17850C82850D831218787407121820C1
:1046A800E9F510800375100EA9107405023A04F09C
:1046B80088828983A322A3E0850882850983221240
:1046C800470DF02212470DA3A3229002EF1249646E
:1046D80022E0F50E750F00780E22850C82850D8379
:1046E800123BA7E022E0FAA3E0F8E4C8F9EA28229E
:1046F800F08A828B83E0F50A750B00780A2212464D
:10470800B712470D22E0850882850983A3A3227486
:10471800EE12187A74FE12180A8A088B09ECFEED5C
:10472800FF890AAC18AD19EEFAEFFB12073A8A0CAA
:104738008B0DEA450D70030247FF851882851983A2
:1047480012374112083C8A828B83E58245837003C5
:104758000247FAA3A312486F880E890FE8450F7025
:10476800030247FA7414121856E0F510A3E0F51185
:10477800E50AF50B780B121A917419121856121AC9
:10478800A47810121A8D741B121856E0F9AC0CADEF
:104798000DAA08AB09850E82850F83121878740557
:1047A800121820E9F50B705274FE650A604C850CEE
:1047B80082850D83E06402704112480EFAA3E0F985
:1047C800EAF87402687003742969702E851082856E
:1047D80011831246EDF50CE439F50D780C121A8D9B
:1047E800EEFCEFFDAA08AB091208C07402121820EB
:1047F8008008750B0E8003750B01A90B7402121843
:10480800207F0A02194CA312487388828983E02208
:1048180074F612187A74FE12180A740C12185612CA
:10482800486FE8851882851983F07401121856E9D3
:10483800F0E4F508F5097808121A8D750802780869
:10484800121A8D7404121860880889097808121AD7
:104858008D79FE1208A87406121820740212182006
:104868000242208E828F8312487322E0F8A3E0F977
:104878002274F712187AEAFEEBFF890890030612F1
:1048880046D5121184EA5402600BA908EEFAEFFB30
:1048980012072E800279017F0102194C74F2121856
:1048A8007A74FE12180AEAFEEBFF890A7401650A97
:1048B80060147402650A60030249537901120ACA36
:1048C800E96003024953EEFAEFFB12088AEA4B60EB
:1048D80003120890A818A919880889097808121AD3
:1048E8008D7508027509007808121A8D7508AC755F
:1048F80009827808121A8D7CFF7DFF7A017B0012ED
:10490800073474061218208038850882850983A325
:10491800A3A3A3A3A312495DEEFAEFFB12116CE463
:10492800F50CF50D780C121A8D7402121856121A1D
:10493800A47CFF7DFFAA08AB091207407404121873
:10494800208A088B09E508450970BE7402121820F0
:104958007F0602194C123BA712496422E0FCA3E02F
:10496800FD2274F412187A8A088B09ECFEEDFF9088
:1049780015EAE0F4604B7A097B001212D4EA4B6026
:10498800408A828B8374B1F0A3E41249CCF08A8206
:104998008B83A3A3E508F0A3E5091249CCA3EEF0A5
:1049A800A3EFF0740C12185612486F8A828B83A3F7
:1049B800A3A3A3A3A3A3123D989015EAE0F91212AA
:1049C800E0022CD3F08A828B83A3A3A3A32274F0E2
:1049D80012187A74FA12180A8909ECFEEDFF7508A4
:1049E800008A0A8B0B780A121AD1000410FC4B19A2
:1049F8004A374A514A694A874A9F4AC24ADA4AEEBE
:104A08004A184B934BA44BBB4BD64BFC4BFC4B2E41
:104A18004B740165096003024BF78E828F83E0F8BF
:104A2800C394034003024BF7E89016D6024BD374A5
:104A38000265096003024BF78E828F83124C38900F
:104A480016D7E8F0A3E9024BD374016509600302A5
:104A58004BF7124C294003024BF7E8900749024BE9
:104A6800D3740165096003024BF78E828F83E0F8E7
:104A7800C394054003024BF7E890074A024BD374EE
:104A88000165096003024BF7124C294003024BF7FA
:104A9800E890074B024BD3741065096003024BF78B
:104AA800750A10750B00780A121A8D7A4C7B07125A
:104AB80012AA7402121820024C1D740165096003C1
:104AC800024BF7124C294003024BF7E890075C02AF
:104AD8004BD3740165096003024BF78E828F83E024
:104AE8009016DA024BD3740465096003024BF78E03
:104AF800828F83780C1216CE90829B780C12150147
:104B08005003024BF790075E780C1216DD024C1D1D
:104B1800E96003024BF71206D4E9700512113080E0
:104B2800559007F18061740765096003024BF775BA
:104B38000A06750B00780A121A8D8E828F83A3AC31
:104B480082AD8374021218681212B074021218200F
:104B58007C007D00AA18AB198E828F83E0F91210B1
:104B6800DCE9FEC3940A4003024C1A1206D4E97029
:104B78000CEEF912113679501213F4806D74F22E7E
:104B8800F582E43407F58374018040740165097087
:104B98005E124C295059E890075D802F7401650911
:104BA800704D8E828F83E0F8C3940A5042E89016C5
:104BB800D980187401650970368E828F83E0F87485
:104BC800F928C3940A5028E89016DBF0804774014E
:104BD8006509701B9007F0E0F88E828F83E09007DC
:104BE800F0F0E87030E06401702B12112480267513
:104BF80008188021C3EA9427EB94005015740265C5
:104C080009700F8E828F831256FE120554E9F5083B
:104C18008003750802A90874061218207F08021973
:104C28004C8E828F83E0F8C3940222A908024FD6E3
:104C3800E0F8A3E0F92274F012187A74B112180A95
:104C48008C0C8D0D9081F474201218707406121754
:104C58001D74201218701210DCE9F508745F121820
:104C680056E0F50AE9C3940A4003024DBC75F00604
:104C7800E9A4F50974411218707A0E74202509F90F
:104C88001213EEE97009744D121856E0FF80027F86
:104C9800009016D6E064027005750E018003750E4B
:104CA800007408650A70047422800274212509F5CD
:104CB8000F7C1B7D00790074261218681212C2EF4F
:104CC800A2E0E433FE74261218707A1BA90F12139F
:104CD800EEE970257440121856E024F9C3940A507E
:104CE80018780E121A917427121870EEF9AA0CABE4
:104CF8000D1205F674011218207C147D00790074D9
:104D08000C1218681212C2740C1218707A107424DB
:104D18002509F91213EEE970307C1079FF740C1232
:104D28001868121328E97021741C121856AC82AD49
:104D3800837A0474252509F91213EE740C1218707D
:104D4800EEF9AA0CAB0D1205DEAC18AD197A0C748D
:104D5800702508F91213EEE97049AA18AB19121157
:104D68000C7E00EE75F003A4F8A9F0851882851969
:104D780083E58228F8E5831255171256F8601D88D6
:104D8800828983A3A3E0F5087509007808121A8DB3
:104D9800AA0CAB0D1208AE74021218200EEEC394C2
:104DA8000440C0EFA2E1500C900748E0F9AA0CAB10
:104DB8000D1208B47404650A70289016D6E06402CF
:104DC80070207A0090075CE060027A01900749E061
:104DD8006004780480027800E84AF9AA0CAB0D1246
:104DE80006AA7900744F024C2174F712187A120639
:104DF800D4E9704F9007F1E06401701512113090FA
:104E080007F1E4F07C0AFDF97AF27B071212C280FE
:104E18002A750800A80874F228FEE43407FF8E8279
:104E28008F83E06401700BA9081211368E828F837C
:104E3800E4F00508E508C3940A40D979501213F440
:104E480012112402583674F012187A74F012180AE3
:104E5800EAFEEBFF8C088D09750A0AE9600C1460FC
:104E68000914603B14607D024F4412111EE9F50AD3
:104E7800C3940A4003024F44E50845097003024FF2
:104E880044750C06750D00780C121A8DEEFCEFFDBA
:104E9800AA08AB091212AA7402121820024F44750C
:104EA8000C00750E06750F00780E121A8DEEFCEFC9
:104EB800FDE50C75F00EA4F8A9F0746A28FA7407D9
:104EC80039FB1212BC7402121820E9700B050CE5AC
:104ED8000CC3940A506680CA850C0AE50AC3940A72
:104EE800505A8049750C00AC18AD197A1075F00647
:104EF800E50CA42423F91213EEE9701C7C1079FF49
:104F0800AA18AB19121328E9700EEEFCEFFDAA18C7
:104F1800AB191205BAE9600B050CE50CC3940A50ED
:104F28001B80C4850C0AE50AC3940A500FE508459E
:104F3800096009AA08AB09A90A121118A90A74106C
:104F4800024C2174F412187A890975081574FF6ADD
:104F5800700374FF6B70277E00AC097A027B00EE49
:104F6800F91210FAE960037508000EEEC3940A40BE
:104F7800E8E50960537A487B11120AEE804A120A62
:104F8800BE8A0A8B0BAE0AAF0BEE4F60387C007DF1
:104F980000EE2405FAE43FFB8E828F83A3A3A3A32C
:104FA800E0F91210DCE9F9C3940A500CAC097A0252
:104FB8007B001210FA750800E509600CEEFAEFFBA9
:104FC8001211488003750814024C331218207F040C
:104FD80002194C74F212187AECFEEDFF750815747C
:104FE8000E121856E0F50AA3E0F50B74FF6A700379
:104FF80074FF6B7021750900AC0AAD0BEEFAEFFB7C
:10500800A909121100E960037508000509E509C33B
:10501800940A503F80E2120ABE8A828B83E5824559
:1050280083602D7C007D00E5822405FAE43583FB4E
:10503800A3A3A3A3E0F91210DCE9F9C3940A50135F
:10504800AC0AAD0BEEFAEFFB1211007508008003F5
:10505800750814A9080254DFC082C083900762EA69
:10506800F0A3EBF0900748E0FC7D007A267B001265
:105078000554900748E0F9120818025B5874EF12BB
:10508800187A74EC12180AEAFEEBFFEE240CF50C01
:10509800E43FF50DEE2405F50EE43FF50FEE240987
:1050A800F50AE43FF50BEE2403F508E43FF5098E15
:1050B800828F83A3A3E024FA700302535B24FD705C
:1050C8000302527D14700302515B14601024FD70BA
:1050D800030252511470030252B4025361125E73F8
:1050E8006049E0F5838882124C38880E890FE845BC
:1050F8000F6038850C82850D83E0F50C780C121A48
:1051080091EE240BF582E43FF583E0F9850A828568
:105118000B831256FE0A0A0AAB09850E82850F8395
:105128001218787401121820025361850A82850BBF
:1051380083121AA490075E1216EC1205F07402127C
:105148001820E970030253617901850A82850B836F
:1051580002532B7510008E828F83A385820A858364
:105168000BE0600302521E850E82850F83E0A2E0E9
:10517800400302521E9007FC125E76600302521E24
:105188007C0E7D007900AA18AB191212C2850C8218
:10519800850D83125B23EA4B6010750C06750D00B4
:1051A800780C121A8DEA2410801B125B1D120ABE9D
:1051B800EA4B7003025361750C06750D00780C12EA
:1051C8001A8DEA2405FCE43BFD74021218681212D9
:1051D800AA7402121820850E82850F83E0A2E2507D
:1051E80004D2F08002C2F0A2F0E433F8740C121872
:1051F80056E048F0EEFCEFFDAA18AB19121112E9BF
:1052080070117A027B00900748E0F91213047900C4
:10521800025363751015125E737003025361125ABC
:10522800E77003025361850A82850B83E0FC7901EC
:1052380012536D121878E5107003025361FC79035C
:10524800125B1D125ACD025356125E73700302533D
:1052580061125AFA124C38890BE8450B7003025355
:10526800618E828F83A3E0FC7902125B1D888285A0
:105278000B830253567C007D00EE2404FAE43FFBC6
:10528800850882850983E0F91210DCE9F8C3940ADD
:105298004003025361EE240AFCE43FFD7A0475F0F2
:1052A80006E8A42425F91213E8025361125B1D9045
:1052B800075DE060079016D9E0F9806A9016D6E09D
:1052C800700479058060120ABE8A0C8B0DA80CA99F
:1052D8000DE8497003025361E82404F50CE439F53C
:1052E8000D8E828F83A3A3A3A3A3A3A3E0A2E05060
:1052F8003A850C82850D83E0FE6030850A82850B35
:1053080083A3E054027024740E121870E82405FA7E
:10531800E439FBEEF91210DCE97010790385088294
:10532800850983125B231205EA802EAC0EAD0F852A
:105338000C82850D83E0F9125B1D121154125E7305
:105348006017125AE760127C00790012536D121828
:10535800788006125B1D1210D67901741412182079
:105368007F0902194C850882850983E0FAA3E0FBCE
:105378008E828F832274F512187A74F212180AEA50
:10538800FE8C0A75F006E9A42420F508AC18AD19BE
:105398007A0EF91213EEE970467C0679FFAA18AB6B
:1053A80019121328E97038740C121856125B23EA84
:1053B800F8E50A6005EEC8488004EEF4C858F8EA33
:1053C800687001EB6015740C121856E8F0A3E4F04D
:1053D800AC18AD197A0EA9081213E8790180027980
:1053E80000740E1218207F0302194C74F212187AF6
:1053F80074E612180A890A8A088B09ECFEEDFF7414
:105408000C1218707A0E75F006E9A42420F912130C
:10541800EEE960030254D87C0679FF740C12186810
:10542800121328E960030254D87470250AF50BACEE
:1054380018AD197A0CF91213EEE960030254D4AAD4
:1054480018AB1912110CE5084509701D7C0C790080
:10545800AA18AB19121328E970727C0C7D00790028
:10546800AA18AB191212C28051AC18AD19AA08AB10
:10547800091211068A0C8B0DA80CA90DE849702297
:10548800EE4F604CAC18AD197A007B00121106EA99
:10549800F8EBF9EA4B603988828983E508F0A3E5DF
:1054A80009F0125553FAEE6A7001EF601FEEF04FE3
:1054B800700888828983E4F0A3F0AA18AB19121146
:1054C8000CAC18AD197A0CA90B1213E879018002FB
:1054D8007900741A1218207F0602194C74F71218F2
:1054E8007A7E00EE75F003A4F8A9F0EC28F8ED1226
:1054F8005517E06A7003A3E06B7006E8FAE9FB80D1
:105508000B0EEEC3940440DB7A007B000258363958
:10551800F9888289832274F712187A7C00EC75F076
:1055280003A4F8A9F0EA28F8EB125517E0F4FEA353
:10553800E0F4FF88828983EEF0A3EFF0125553F46C
:10554800F00CECC3940440D5025836E82402F582E6
:10555800E439F583E02274F412187A74F412180A04
:10556800EAFEEBFF8C088D099007FC125E76704FFF
:10557800EE4F70030256D7EC450970030256D71256
:10558800111EE99016DCF0C3940A4033750B007CB9
:105598000679FFE50B75F00EA4FAABF074642AFAED
:1055A80074073BFB121328E96003025638050BE524
:1055B8000BC3940A40D9750A0AE50A9016DCF090E4
:1055C80016DCE0C3940A40030256D775F006E0A43F
:1055D800FB9007FC125E76705CEEFCEFFD7A0E74B1
:1055E800202BF91213E87C0C7D0079FFAA18AB195F
:1055F8001212C2AC18AD197A0C9016DCE02470F9BE
:105608001213E8750A0E750B00780A121A8DEEFC53
:10561800EFFD9016DCE01257961212AA74021218C7
:10562800209007FCE508F0A3E509F079000256D9B7
:10563800850B0A8084E0C824061256F260197A1B8A
:1056480074212BF91213E81256DE2406F582E43889
:10565800F583E4F0A380D31256DE240A1256F260D2
:10566800107A1B74222BF91213E81256DE240A80D2
:10567800DB1256DE240C1256F260107A1074232BBB
:10568800F91213E81256DE240C80C11256E712569E
:10569800F260307A1074242BF91213E81256E7F5E9
:1056A80082E438F583E02410FCA3E03400FD7A049A
:1056B80075F0069016DCE0A42425F91213E81256BA
:1056C800E780899007F0E0600312115A12114E79B1
:1056D80001740C024FD39007FCE0F8A3E0C82290B5
:1056E80007FCE0F8A3E0C8240822F582E438F58333
:1056F8001256FEEC4D22E0FCA3E0FD2274F41218D1
:105708007A74F212180AEAFEEBFFE9C3940A50040D
:10571800EE4F700479028034AC18AD197A0E75F02A
:1057280006E9A42420F91213EEE9F508701C750A9D
:1057380006750B00780A121A8D7402121870EEFAA8
:10574800EFFB1212AA7402121820A908740E024F55
:10575800D374F412187AEAFEEBFF750800750A068E
:10576800750B00780A121A8DEEFCEFFDE50812574A
:10577800961212BC7402121820E96004A908800B62
:105788000508E508C3940A40D4790A024FD675F093
:105798000EA4F8A9F0746428FA740739FB2274F788
:1057A80012187A750800E50875F00EA4F8A9F074C7
:1057B8006428FE740739FFEEFCEFFD7A0E75F006DB
:1057C800E508A42420F91213EEE960297C067D007F
:1057D80079FFEEFAEFFB1212C27C067D0079FFEE2C
:1057E8002CFAE43FFB1212C2EE240CF582E43FF5DA
:1057F80083E4F0A3F00508E508C3940A40A89007DD
:10580800F0E0600312115A12114E802274F7121838
:105818007A7E007F007C06EF12579674FFF9121308
:1058280028E970010E0FEFC3940A40E9EEF97F01F1
:1058380002194C74F712187A7E00EEF9121136E943
:10584800F90EEEC3940A5003E960EF80E174F31295
:10585800187A74CB12180A89089016DCE06508706B
:105868001B7A017B00900748E0F912130A7A027B41
:1058780000900748E0F912130A12116675F006E560
:1058880008A4FF74202FFE74271218707A0EEEF900
:105898001213EEE9600302595D7C0679FF74271242
:1058A8001868121328E9600302595D7C0E7D00799F
:1058B800FF74271218681212C27C1B7D0079FF74CE
:1058C8000C1218681212C27C0C7D0079FFAA18AB62
:1058D800191212C274271218707A0EEEF91213E810
:1058E800E9FE740C1218707A1B74212FF91213E850
:1058F800E9F509740C1218707A1B74222FF9121327
:10590800E8E9F50A740C1218707A1074232FF9124A
:1059180013E8E9F50B740C1218707A1074242FF937
:105928001213E8E9F50C740C1218707A0474252F18
:10593800F91213E8E9FFAC18AD197A0C7470250850
:10594800F91213E8E9F8E509450A450B450C4F48F3
:10595800CE4EFE80027E00EEF974351218207F05C7
:1059680002194C74F712187AE9900748F0121124BA
:1059780002583674F412187AEAFEEBFF548070036A
:10598800025A3E900748E0F91212EC8A088B09EA9D
:1059980045097003025A377A01E5082404F8E4350A
:1059A80009F9880A890B8508828B83E024506040B6
:1059B80014600624E16067806C88828983E07068DF
:1059C8008508828B83A3A3A3A3A3A3A3121AA485E8
:1059D80008828B83A3A3A3A3A31256FE8508828BF8
:1059E80083A3A3125B231210E874021218208038D4
:1059F80088828983E0641E700F79008508828B8312
:105A0800A3A3125B231210E2850A82850B83E0F9B7
:105A1800E5082405FAE43509FB120812800AAA08E9
:105A28001210F4E9FAEA6007AA08AB091212DAEED2
:105A3800FAEF6480802AEE54026028EE6402FE7C4D
:105A4800007D007A007B00121112E960047A01805F
:105A5800027A027B00900748E0F9121304EEFAEF8D
:105A6800FB805FEEA2E0504C6401F508EFF50912E7
:105A78005ADB121160E9602A125E736020125AE73D
:105A8800601B7C007901125ADB8E828F8312187892
:105A98007C007903125ADB125ACD1218781211665B
:105AA800800C7A017B00900748E0F9121304AA08D9
:105AB800AB09800E54046006EE6404FA80047A0090
:105AC8007B00024FD6900762E0F8A3125AF2F583E2
:105AD8008882229007FC125E63E0FAA3E0FB2212A0
:105AE8005AF2F9E8FEE9FFEE4F22125AFAE0F8A35B
:105AF800E022E0F5838882A3A3227F0202194CC02A
:105B080082C083900748E0F98A828B83A3125B23C3
:105B18001208B4803B850882850983E0FAA3E0FB7C
:105B280022C082C08374FF12180A12112AE9C39492
