:020000040000FA
:0600000002011A0224397E
:03002B00022B663F
:030053000224AFD5
:03006B00022B3431
:1000830002228FE5C754F84401F5C7790122000025
:100093000080FB120086B90003020104E479217891
:1000A30008B800028004F709D8FCE479297802B87B
:1000B30000028004F709D8FCE49002817894791354
:1000C3008002F0A3D8FCD9FA781A90014A7A01BACF
:1000D30000028007E493A3F608DAF97A147B1590FB
:1000E300014B78DC79048015E493A3AD82AE838A57
:1000F300828B83F0A3AA82AB838D828E83D8E9D9C6
:10010300E77582287583C2740312012C7582917579
:100113008300740012012C75D00075813F7518811E
:10012300751902759F00020096C09FF59FE473D076
:100133009F22D083D082C09FE493C0E0740193C018
:10014300E0740293F59F22010A416363656C2045C5
:100153006E61626C650000021400416363656C208C
:1001630052616E67650000101010416363656C2077
:10017300582D436F6F7264696E617465000041634B
:1001830063656C20592D436F6F7264696E6174658A
:100193000000416363656C205A2D436F6F7264697D
:1001A3006E6174650000023D820100000C82023919
:1001B3008201000014150257820300008302022A01
:1001C3008101000015150239820100002315026B1D
:1001D300820100002415022A81010000261502393C
:1001E30082010000331502438200000084020227CB
:1001F300820300008702022A8101000036150239BA
:1002030082010000341502458200000085020227A6
:10021300820300008902022A810100004A15023983
:100223008201000035150247820000008602022782
:10023300820300008B02022A810100005E15110176
:1002430099010F12640400AD270111310401023D2D
:10025300820100000F820239820100000F16024B57
:100263008201000010160227820300009502023764
:100273008201000018160229820100001116FF00F6
:1002830000B4000028002800283075A000A000A0BA
:1002930000A00000080008E001F0001000100010AA
:1002A300001000100010005000500050001000100B
:1002B30000D0070000000000000F0001000500301F
:1002C3007507001000010081FF00000000FFFFFF21
:1002D300CC07EA07D2070E08FF0202020802500009
:1002E300A0000000E803023D820100001E820239E3
:1002F30082010000A516022B82010000D6020239FA
:1003030082010000A616022D82010000EC020239D0
:1003130082010000A716022F82010000EE020239BB
:1003230082010000A816023182080000EF020239A0
:1003330082010000A916023382010000AA16FF0100
:1003430000FF20023D820100002182023982010068
:10035300000E17023582000000000002278203000E
:10036300001D0317008C0E8C0E8C0E8C0E8C0E8CC5
:100373000E8C0E8C0E8C0E8C0E8C0E8C0E8C0E4AEC
:10038300115C114411020202020202020202010D77
:100393000000001001023D82010000158202398233
:1003A30001000051170267820100005707023982DA
:1003B3000100005217025B8201000015810239829D
:1003C3000100005317025982010000F980023982AB
:1003D3000100005417025582010000B780023982E0
:1003E3000100005517025382010000A580023982E3
:1003F30001000056170251820100009380023982E6
:100403000100005717026D820100008180023982CA
:100413000100005817024F82010000078102398250
:100423000100005917024D820100005A1701E80329
:100433000577100A0B094B6579666F6264656D6F0A
:100443000201050702031802180418544920424CFC
:1004530045204B6579666F620000000000000000D4
:10046300DE130000E413EA13FFFFFF0001307503FE
:100473000201060000000000000000000000000070
:10048300000000000000000000000000000000FF6A
:10049300FF0600800CE8030A0412023D82010000FB
:1004A3002482023982010000631802638203000080
:1004B3000C15023D820100001B82023982010000FB
:1004C30064180263820200000D15023D82010000E0
:1004D3001282023982010000651802658201000060
:1004E3000E150227820300000F15104B657920506B
:1004F3007265737320537461746500023D82010059
:10050300001882023982010000B6180271820000CD
:100513000011150227820300001215022A8101002F
:1005230000B7181201354284031201350585031201
:100533000135228503120135598603120135A4863C
:1005430003120135588703120135959B03120135B8
:10055300F69B031201351D9C03120135C89C03123F
:1005630001355B9D031201351E9E03120135B3B69F
:100573000312013532B70312013542B703120135B5
:100583005AB7031201357AB703120135FCB70312C8
:1005930001350AB803120135BABF03120135DBBFB7
:1005A300031201356CC0031201352D94031201357A
:1005B300409403120135719403120135AB94031275
:1005C30001350495031201354B95031201359395BB
:1005D30003120135C29503120135F195031201355A
:1005E3002896031201356F9603120135889603127C
:1005F3000135DD9603120135F69603120135449752
:10060300031201357E970312013509AD021201353C
:100613000CAE0212013545AE0212013568AE02126C
:1006230001357AAE02120135B8AE0212013534AF8C
:1006330002120135FCAF021201351EB00212013560
:10064300B5B00212013507B10212013538B10212F9
:10065300013545B102120135AFB10212013506B2BF
:100663000212013509B20212013542B202120135FA
:1006730045B2021201354FB202120135A3B2021282
:100683000135E4B20212013517B30212013554B336
:100693000212013556B402120135FAB402120135C1
:1006A30063B502120135A1B5021201354C8C031258
:1006B3000135748C03120135A18C03120135D98CD9
:1006C30003120135378D03120135838D0312013572
:1006D300EA8D031201352A8E03120135678E031248
:1006E3000135958E031201353F8F03120135498F72
:1006F30003120135568F03120135898F0312013519
:10070300958F03120135AD8F03120135B78F031295
:1007130001352EBE031201353CBE0312013554BE12
:10072300031201356BBE031201356DB90112013598
:1007330017BA011201352ABB01120135A6BB0112FA
:100743000135C4BC0112013500BD011201359BBD49
:10075300011201357FBE011201354BBF0112013574
:10076300D9C0011201354AC10112013504C2011277
:100773000135F6C20112013536C301120135EAC350
:10078300011201351CC40112013512C601120135D3
:1007930054C60112013572C601120135D8C60112C1
:1007A3000135A7C7011201356BC8011201358ACA89
:1007B3000112013585CD021201356FCE02120135CA
:1007C3001ACF021201356BCF021201351BD0021270
:1007D30001358CD00212013571D102120135A5D138
:1007E300021201359ED202120135DBD2021201350B
:1007F300B7D302120135F6D30212013512D4021215
:1008030001350BAC031201358FAC03120135BAACC1
:1008130003120135D4AD031201354590031201359E
:100823005B90031201357990031201358A9103120B
:100833000135949103120135BF9203120135B6932A
:100843000312013523940312013573D402120135C7
:10085300A9D502120135E0D50212013537D60212AD
:1008630001354CD80212013576820112013502831B
:1008730001120135668401120135728401120135BA
:10088300AD84011201351C85011201352586011243
:1008930001352E8701120135F58701120135528981
:1008A300011201357089011201358D89011201355B
:1008B3003A8A01120135B78A01120135DF8A011222
:1008C3000135A98D01120135AE8D01120135C78F96
:1008D3000112013515900112013585900112013580
:1008E300C390011201359F91011201355F920112EC
:1008F3000135AB9201120135AE9201120135F2922C
:10090300011201353A930112013579930112013530
:100913009B9301120135CF930112013532940112D9
:10092300013586DF0212013594DF02120135E7DF5C
:100933000212013506E0021201354BE002120135C5
:100943008FE1021201352AE2021201356EE2021230
:10095300013598E20212013507E3021201354DE336
:1009630002120135C4E30212013575E402120135A6
:10097300A02B00120135B02B00120135512C0012AF
:100983000135AD2C001201356A2D00120135862E7A
:1009930000120135B82E00120135E72E0012013581
:1009A3009430001201350B33001201357B350012F0
:1009B30001356D36001201356637001201356D3988
:1009C30000120135613C00120135903D00120135E2
:1009D300943F00120135A440001201353342001246
:1009E3000135244300120135724300120135E143FE
:1009F3000012013505440012013556440012013539
:100A0300F74800120135F84900120135594A00121E
:100A13000135844A001201354A4B001201355FF259
:100A23000212013569F202120135AEF202120135EA
:100A3300C2F20212013552F3021201358BF3021294
:100A43000135C6F302120135EFF30212013543F407
:100A53000212013558F4021201357AF402120135FB
:100A63008FF402120135A3F402120135B8F4021215
:100A73000135F2F4021201351EF50212013556F565
:100A830002120135FAF5021201352AF60212013576
:100A93006DF60212013597F602120135C2F6021203
:100AA300013550B9031201350C9902120135EF9942
:100AB300021201356A9A02120135A59A0212013512
:100AC300F69B02120135849C02120135169F021215
:100AD3000135C89F02120135D4A00212013547A285
:100AE30002120135A0A20212013574FB0212013574
:100AF300B7FB021201353BFC0212013512FF021251
:100B0300013597A70312013549A80312013545A9F9
:100B13000312013584A903120135DEA9031201353D
:100B2300DDAF0312013540B003120135DDB003120E
:100B3300013512B10312013542B1031201357DB102
:100B4300031201359DB10312013587E40212013509
:100B530013E502120135D2E502120135EAE602126B
:100B6300013504E902120135888D02120135AD8D7C
:100B7300021201357A8E021201354E8F02120135AF
:100B8300BB8F02120135FB8F0212013597900212BF
:100B93000135CB9102120135A6920212013505935C
:100BA30002120135919302120135FF9302120135AE
:100BB3008B9402120135D19402120135439502122E
:100BC3000135D595021201357696021201359696B6
:100BD30002120135DE960212013527970212013502
:100BE300439702120135699702120135E397021206
:100BF3000135F19702120135809802120135E99807
:100C0300021201353BE902120135C0E90212013536
:100C130002EA02120135E6EA0212013553EB02122F
:100C2300013597EB02120135DBEB0212013508ECBB
:100C33000212013530EC0212013568EC0212013563
:100C4300A6EC02120135CDEC0212013547ED02127A
:100C5300013591ED021201350A9501120135A9966C
:100C630001120135E198011201353599011201355F
:100C73006099011201353C9A011201356C9A0112F7
:100C830001359B9A01120135AE9A01120135EF9A93
:100C9300011201351C9B011201356A9B01120135BA
:100CA300A69B01120135EB9B01120135389C011201
:100CB3000135B29C01120135F39E01120135DDA00D
:100CC3000112013519A101120135A8A20112013542
:100CD300EDA20112013560A301120135B5A3011282
:100CE3000135BFA301120135EAA401120135F8A5AC
:100CF3000112013517A70112013528A70112013589
:100D030041F601120135BAF60112013574FC0112E4
:100D130001357FFD0112013528FF01120135B6FFB0
:100D2300011201358360001201350461001201359F
:100D33003161001201357A61001201357B620012C4
:100D43000135BF6200120135F5620012013571648D
:100D530000120135F364001201350E6500120135EE
:100D63007F65001201353C6600120135FF660012F3
:100D730001358D670012013544680012013557684B
:100D830000120135F0680012013587690012013540
:100D9300AE6900120135176A00120135616A00124B
:100DA3000135AF6A00120135546B00120135F26B45
:100DB300001201357F6C00120135F06C0012013511
:100DC300376D001201358F6D00120135C16D0012B0
:100DD30001357B6E00120135826F00120135CB6F36
:100DE30000120135E86F001201350770001201355A
:100DF3003A7100120135F1710012013516720012B9
:100E030001352B72001201359B7200120135DC7221
:100E1300001201350074001201358174001201358E
:100E230049A30212013594A302120135A0A30212B1
:100E3300013574A4021201358BA402120135C8A432
:100E430002120135F9A40212013531A5021201354E
:100E530087A5021201359DA502120135D9A50212FB
:100E63000135ECA50212013513A60212013547A67E
:100E7300021201356DA702120135B7A8021201351E
:100E8300B3A902120135D0AA02120135952B001223
:100E9300013597CA01120135D2CA0112013524CE98
:100EA3000112013580CF011201353FD00112013506
:100EB300A6D30112013590D401120135DCD40112FD
:100EC3000135F6D40112013533D5011201353ED572
:100ED300011201357DD50112013586D50112013587
:100EE30030D60112013507D7011201355BD7011244
:100EF3000135B8D7011201352AD8011201354BA7A4
:100F030001120135AAAA01120135B0AA0112013555
:100F1300E1B101120135E8B501120135E69703127B
:100F230001357C9803120135929803120135EB9831
:100F3300031201352F990312013569990312013503
:100F4300019A03120135709A03120135799A03123B
:100F53000135859A031201359F9A03120135C99A07
:100F630003120135DE9A03120135409B031201354A
:100F7300679B031201350080031201350D800312B4
:100F830001352780031201355A80031201359880F9
:100F930003120135FD80031201351281031201355D
:100FA3001D81031201352A81031201354181031288
:100FB30001354F81031201355A81031201356681D0
:100FC3000312013575810312013580810312013546
:100FD300A38103120135478203120135578203129D
:100FE30001357182031201358E8203120135A98204
:100FF30003120135CE8203120135D9820312013562
:10100300EE82031201350283031201356383031257
:1010130001356983031201356F830312013575832B
:10102300031201358D8303120135C0830312013589
:101033000580021201359C800212013534810212AF
:1010430001352482021201355B82021201356E8260
:1010530002120135DC820212013577840212013556
:101063009E840212013540850212013575850212F4
:101073000135868502120135FF850212013520866E
:1010830002120135388602120135908702120135AA
:10109300998902120135E98B02120135EC8C021297
:1010A30001353B8D0212013579D90112013576DA0A
:1010B3000112013561DB011201356BDB01120135D0
:1010C3008DDB0112013599DB01120135EBDC0112D5
:1010D30001351ADD011201354ADE011201358CDEBC
:1010E30001120135B8DF011201358EE0011201351D
:1010F300E0E0011201353FE10112013576E1011211
:101103000135B1E1011201354CE50112013565E507
:1011130001120135E7E501120135F5E5011201354B
:101123004AE60112013558E601120135C5E60112FE
:10113300013537E7011201357DE701120135B77437
:1011430000120135D97400120135C376001201353E
:10115300687A00120135AB7B00120135857C0012E1
:101163000135ABB103120135D0B10312013541B2E0
:1011730003120135C7B502120135D0B5021201358C
:10118300D9B5021201350AB70212013529B9021283
:1011930001355FB90212013599B902120135CFB990
:1011A3000212013509BA021201353DBA02120135A4
:1011B30069BA02120135B2BA02120135ECBA02124F
:1011C300013534BB021201358ABB02120135BFBBA4
:1011D300021201351ABC0212013554BC0212013548
:1011E300A5BC02120135DBBC0212013515BD02128A
:1011F300013543BD0212013566BD0212013577C0C8
:1012030003120135A3C003120135FEC003120135D9
:1012130008C10312013518C10312013505A20312D7
:1012230001352CA20312013556A20312013580C2E7
:1012330003120135B64B001201351E4E0012013563
:10124300D14F001201352E50001201352B510012DF
:101253000135BB5100120135405200120135655270
:10126300001201355D5500120135D35500120135C9
:10127300C45600120135FE56001201353E570012C6
:101283000135E458001201353959001201358659E8
:1012930000120135F459001201351B5A00120135B1
:1012A300355A001201354B5B001201355B5B0012AE
:1012B3000135E75C00120135095D001201353F5D20
:1012C30000120135ED5E001201352C5F001201356D
:1012D3005E6000120135EAF60212013542F702128E
:1012E30001358AF802120135F9F802120135A8F91D
:1012F30002120135C7F9021201351BFA0212013538
:1013030059FA02120135FBBE031201350CBF031259
:101313000135AFBF03120135CAC20312013509C338
:1013230003120135C4FF021201354FBD031201350B
:101333005FBD0312013574BD0312013528BE0312CC
:10134300013564BA03120135E8BA031201354EBB05
:101353000312013523B8031201354AB803120135CC
:10136300A0B803120135B3B80312013505B903124E
:10137300013544B90312013547B9031201354D88CC
:1013830003120135618803120135DA88031201352E
:10139300AF8903120135818B03120135E68B0312EA
:1013A3000135398C03120135F87F0012013503AE84
:1013B3000312013579AF03120135DAAF0312013598
:1013C300DAC502120135B2C70212013562C902122F
:1013D300013524CA02120135C5CA02120135E4CA15
:1013E300021201351FCC021201355ECC0212013507
:1013F300A6CC021201355EBC0312013587BC031271
:101403000135B0BC03120135C8BC031201350ABD56
:101413000312013513DA021201351DDA0212013506
:101423005DDA02120135A6DA02120135E0DA0212A0
:10143300013536DB0212013555DB021201355EDB65
:1014430002120135AFDB02120135D8DB021201357E
:10145300EDDB021201355DDC02120135EBDC021219
:1014630001352FDD0212013557DD02120135D6DDBC
:101473000212013519DE0212013556DE0212013560
:1014830068DE0212013587DE0212013590DE021298
:1014930001355ADF0212013515B50312013566B560
:1014A30003120135EFB50312013555B603120135A9
:1014B300D3A403120135FDA403120135F7A50312CA
:1014C300013526A603120135ACA60312013567BB0D
:1014D30003120135C9C10312013509AA03120135EB
:1014E3003FAA0312013578AA03120135D1AB0312C7
:1014F300013522C10312013538C10312013542C13E
:101503000312013598C103120135F4BD02120135EE
:10151300B1BE02120135ECBE0212013514BF021234
:10152300013576BF02120135C2BF0212013522C056
:1015330002120135B3C002120135AFC102120135E7
:101543003CC302120135BFC30212013523C4021288
:1015530001353AC40212013530C5021201357CC58A
:1015630002120135D1ED02120135E6ED0212013509
:1015730096EE02120135D6EE02120135EFEE02129B
:10158300013522EF021201356FEF02120135A3EF8D
:1015930002120135E5EF02120135ECF102120135B9
:1015A30052F20212013506E801120135BDEB0112B8
:1015B30001354FED01120135A6ED01120135C5EDDF
:1015C3000112013543EE01120135D5EF0112013548
:1015D300B9F001120135CAF4011201359EF5011269
:1015E3000135DF9E03120135889F03120135A59F44
:1015F300031201353DA00312013568A00312013522
:10160300FAA00312013561B303120135C8B3031203
:1016130001352DB403120135B4B40312013513C3DC
:1016230003120135C77F00120135E0FF01E0667048
:101633001008A3E066700A08A3E066700408A3E03C
:101643006622C3E7960809E7960809E7960809E7BB
:101653009622C3E09608A3E09608A3E09608A3E0C9
:101663009622C008C3E096F50808A3E0964208084E
:10167300A3E096420808A3E09645087001D3D0087A
:1016830022080808EAC0E0EBC0E086F0E7A4FA18F5
:101693000986F0E7A42AFA180986F0E7A42AFA18BB
:1016A3000986F0E7A42AFA1986F0E7A4FBE5F02AF5
:1016B300FA190886F0E7A42BFBE5F03AFA19088635
:1016C300F0E7A42BFBE5F03AFA18180986F0E7A433
:1016D300C5F02BFBE43AFA1908E7C5F0C6A426F6D1
:1016E300E5F03BFBE43AFA1886F0E7A4F6E5F008E8
:1016F30026F6E43B08F6E43A08F6D0E0FBD0E0FA3D
:1017030022E4CFC0E0E4CEC0E0E4CDC0E0E4CCC04E
:10171300E075F020E626F608E633F608E633F60829
:10172300E633F6181818EC33FCED33FDEE33FEEF19
:1017330033FFC3EC9709ED9709EE9709EF97191952
:1017430019400FFFEC97FC09ED97FD09EE97FE1981
:101753001906D5F0BFECF709EDF709EEF709EFF736
:10176300191919D0E0FCD0E0FDD0E0FED0E0FF2253
:101773001217DB1818181217041217CA191919228D
:101783001217CA191919080808E618181820E7E0EB
:101793001217041217DB18181822090909E7191977
:1017A3001920E7DC080808E618181820E7030217D1
:1017B300041217DB1818181217041217DB1818185D
:1017C3001217CA19191922E4C397F709E497F709FD
:1017D300E497F709E497F722E4C396F608E496F64C
:1017E30008E496F608E496F6226017080808C6A2ED
:1017F300E713C618C613C618C613C618C613C6D52C
:10180300E0E9226016080808C6C313C618C613C643
:1018130018C613C618C613C6D5E0EA22700908080D
:1018230008226016181818C6C333C608C633C6087C
:10183300C633C608C633C6D5E0EA22E627F608094A
:10184300E637F60809E637F60809E637F622E02612
:10185300F608A3E036F608A3E036F608A3E036F66A
:1018630022E026F008A3E036F008A3E036F008A350
:10187300E036F022C3E697F60809E697F60809E68C
:1018830097F60809E697F622C3E096F008A3E096D8
:10189300F008A3E096F008A3E096F022E056F608DD
:1018A300A3E056F608A3E056F608A3E056F622E0B6
:1018B30056F008A3E056F008A3E056F008A3E0565C
:1018C300F022E0F608A3E0F608A3E0F608A3E0F6AA
:1018D30022E6F008A3E6F008A3E6F008A3E6F02268
:1018E300E0FAA3E0FBA3E0FCA3E0FD22E0F8A3E021
:1018F300F9A3E0FAA3E0FB22E8F0A3E9F0A3EAF0FE
:10190300A3EBF022CAC0E0E6F0A308DAFAD0E0FACB
:1019130022CAC0E0E0A3C582CCC582C583CDC583FE
:10192300F0A3C582CCC582C583CDC583DAE6D0E0FA
:10193300CA22C3E498F8E499F91219768026C3E41D
:101943009AFAE49BFBE920E7E9121976E498F8E4B4
:1019530099F922C3E498F8E499F9121976E498F80E
:10196300E499F9C3E49AFAE49BFB22EB20E7CFE97D
:1019730020E7E0B90010BB0008E88AF084F8AAF079
:1019830022E4FBC8FA22EB70227B10C833C8C933A8
:10199300C9335007C39AC3DBF280069A50012ADB8E
:1019A300EAC833F4C8C933F4C9FA2275F008E4C8A5
:1019B30033C8C933C933C99AC99B5004C92AC93B1F
:1019C300D5F0ECFBC833F4C8E4C9FA22600D08C6AD
:1019D300A2E713C618C613C6D5E0F322600C08C6E7
:1019E300C313C618C613C6D5E0F422700422600DD3
:1019F30018C6C333C608C633C6D5E0F41822251863
:101A030010AF08F518400C15198008F51840021599
:101A130019D2AF2200C0D0251810AF08F518500C0A
:101A230005198008F51850020519D2AFD0D0222528
:101A330018F58210AF08F518400C15198008F51831
:101A430040021519D2AF851983222518F582E43592
:101A530019F583222518F8E43519F9222518FAE433
:101A63003519FB222518FCE43519FD22E4732518EA
:101A7300C582C0E0E51934FFC583C0E0E518C3950E
:101A83008224F810AF08858319858218800885831E
:101A930019858218D2AFCEF0A3E520F0A37808E62B
:101AA30008F0A3DEFAEFF0A3E58124FAF8E608F0E4
:101AB300A3E608F0A3E608F0A30808E608F0A3E607
:101AC30008F0A315811581D0E0FED0E0F81581154B
:101AD300811581E8C0E0EEC0E0222518C582C0E090
:101AE300E51934FFC583C0E0E518C3958224F910D6
:101AF300AF08858319858218800885831985821824
:101B0300D2AFCEF0A3E520F0A37808E608F0A3DE79
:101B1300FAEFF0A3E58124FBF8E608F0A3E608F06A
:101B2300A30808E608F0A3E608F0A315811581D001
:101B3300E0FED0E0F815811581E8C0E0EEC0E022B8
:101B4300851983851882E0A3FEE0A3F5207808E0D9
:101B5300A3F608DFFAE0A3FFE0A3C0E0E0A3C0E040
:101B6300E0A3C0E0E0A3C0E0E0A3C0E010AF0885BD
:101B730082188583198008858218858319D2AFD08E
:101B830083D082020132851983851882E0A3FEE0A7
:101B9300A3F5207808E0A3F608DFFAE0A3FFE0A3AB
:101BA300C0E0E0A3C0E0E0A3C0E0E0A3C0E010AF6A
:101BB300088582188583198008858218858319D240
:101BC300AFD083D08222C0D02518C582C0E0E519EA
:101BD30034FFC583C0E0E518C3958224F310AF0832
:101BE3008583198582188008858319858218D2AF69
:101BF300C8F0A3E9F0A3EAF0A3EBF0A37908E7099F
:101C0300F0A3D8FAECF0A3EDF0A3EEF0A3EFF0A36A
:101C1300D0E0F0A3D0E0F0A3D0E0F0A3E520F0A360
:101C2300E5F0F0A322851983851882E0C0E0A3E0E4
:101C3300F9A3E0FAA3E0FBA37808E0F608A3DFFA30
:101C4300E0FCA3E0FDA3E0FEA3E0FFA3E0C0E0A36C
:101C5300E0C0E0A3E0F5D0A3E0F520A3E0A3F5F016
:101C630010AF0885831985821880088583198582BA
:101C730018D2AFD082D083D0E0F8D0E032740480A1
:101C830006740280027401C0E0F404121A32D0E038
:101C9300121907227404800474028000CCC0E0EDA2
:101CA300C0E0E518C39CCCAD1950011D10AF068CE4
:101CB300188D1980068C188D19D2AF121914D0E023
:101CC300FDD0E0FC22D083D082E9C0E0E493A3C33B
:101CD30086F0C5F095F0F908E493A386F0C5F09576
:101CE300F0700BE493A3C3994005E9048002A3E4D5
:101CF30075F002A42582F582E5F03583F583D0E003
:101D0300F9E493A3C0E0E493C0E022D083D082EC53
:101D1300C0E0EDC0E0E493A3FCE493A3FDED4C60CD
:101D23000D121D5AEC24FFFCED34FFFD80EFE4930C
:101D3300A3FCE493A3FDED4C600D121D99EC24FF6D
:101D4300FCED34FFFD80EFD0E0FDD0E0FCE493A395
:101D5300C0E0E493C0E022C0E0C3E49396087401BA
:101D6300939618400FE493667008087401936618FD
:101D730070007019A3A3C3E4939608740193961893
:101D8300A3A3400DD0E0D0E0D0E0021D4AA3A3A35B
:101D9300A3A3A3D0E022C0E0C0F088F0E493667070
:101DA300080874019366187000A8F0A3A3700BD001
:101DB300F0D0E0D0E0D0E0021D4AA3A3D0F0D0E001
:101DC3002274F6121ADDEAFEEBFF8C088D09EE246D
:101DD30034F8E43FF9E8FCE9FDEE24351220D7FAA4
:101DE300EE24371220D7F88508F0A4C885F00A85B9
:101DF30009F0A4250AF9EA28F8E439F97A257B00E1
:101E0300121976EA8C828D83F0FA131313541FF898
:101E1300EE28F8E43FF9E8245DF582E439F583E040
:101E2300C0E074075AF8D0E0B800028004C313D8A6
:101E3300FCA2E0EE50082434F582E43F80182436F7
:101E43001220D7F5F0EA84A8F0EE28F8E43FF9E889
:101E53002438F582E439F583E0F97F03021B8974A2
:101E6300F7121ADDEAFEEBFFEE24341220D7C0E0AE
:101E7300EE2435F582E43FF583D0E0F08E828F8344
:101E8300A3A3A3A3A3A3A3C082C0838E828F83A390
:101E9300A3A3A3A3E0F8A3E0F9D083D082E0C3987F
:101EA300F508A3E099F509EE247F1220D7640170A9
:101EB3003EEE2480F582E43FF583C082C0838E82A8
:101EC3008F83A3A3A3A3A3E0240108A3E03400F911
:101ED300D083D082E0687003A3E06970127CC87D70
:101EE30004120DCCEE247FF582E43FF583E4F0ACDD
:101EF30008AD09EEFAEFFB121DC4E9F9122B267F98
:101F030002021B89C082C083851882851983E0F889
:101F1300A3E0F9C3EA9CEB9D5010C3EC98ED994004
:101F23001BC3EA98EB995014800EC3EA98EB9940CF
:101F330007C3EC98ED994004790180027900D083BE
:101F4300D08222EAC39CFAEB9DFB2274EF121ADDC6
:101F530090038DE064086005E06407702A9061C80F
:101F6300E060249003BBE0F4601DE0F875F00BA47F
:101F7300C8AAF02AF974BD28FE740339FF8E828F34
:101F830083A3A3A3E0700302205C906060E0C0E041
:101F9300EE2468F582E43FF583D0E0F0750C3875E4
:101FA3000D05750800750900E5D914F50AE5D9543E
:101FB30003F50E60127403650E6043E50A600AEED2
:101FC30024671220D770028075900533E0640160A6
:101FD3001F1220D460047A0480027A00E50AC39AAF
:101FE300FA95E0FB120C6A8A088B09EA4509700529
:101FF30012101280641220D470048A0C8B0DE50A2F
:102003006012850C82850D83F50BE5D9F0A3150BC2
:10201300E50B70F61220D4604474FC250AF50A78A7
:102023000C121C84AC0AA90EEEFAEFFB120E867496
:1020330002121A17E97026AA08AB0912149E793DF9
:102043008E828F83A3A3A3A3E0FA7B00120ACCEEB4
:10205300FAEFFB120DF0120E987900806F7403658E
:102063000E6051850A107511007810121C84AC0C97
:10207300AD0DAA08AB09120E4A7402121A17EE2408
:10208300681220D764807004747F8001E0F50C78B7
:102093000C121C88E50EF50C780C121C88A90AACEE
:1020A30008AD099003BBE0FA7B00120AA274021286
:1020B3001A17801390038DE06408600BAC0CAD0D10
:1020C300EEFAEFFB120F1012101E79017F0A021BAA
:1020D30089EE2483F582E43FF583E02274F2121A39
:1020E300DD74FC121A01EAFEEBFF8909A2AFE433A7
:1020F300F508C2AF0221A9E0601B780C121C84AC66
:102103000BA90EEEFAEFFB120E807402121A17746B
:1021130004250BF50B7401250BF5D9850ED9E50BB9
:102123006018F50A850C82850D83E0F5D9A38582B5
:102133000C85830D150AE50A70EA75E195EE2463B3
:10214300F8E43FF97A007B00A2AFE433F50BC2AFAA
:1021530088828983E0FCA3E0FDEC4D603A888289A4
:1021630083E0FAA3E0FB8A828B83E0FCA3E0FD8893
:10217300828983ECF0A3EDF08A828B83E4F0A3F0F1
:1021830088828983E0FCA3E0FDEC4D700A88828994
:1021930083A3A3E4F0A3F0E50BA2E092AF12149E95
:1021A3009004CFE004F0EE24631220D7F8A3E0F903
:1021B300E8496064EE24631220D72402F8A3E034D4
:1021C30000F988828983E5822402F50CE43583F5DE
:1021D3000DE0F50BA3E0F50EEE24621220D76401A7
:1021E30070369061D0E0F81220D460047C04800241
:1021F3007C007480C398FA95E0FBE50B2CF8E4347B
:1022030000F9E82402F8500109C3EA98EB99A2D235
:1022130065D03340030220FA9004CFE0604D900470
:10222300D0E0F89004CFE0C398500C7402650970B5
:102233003A9004D1E060348E828F83A3A3A3A3E0FA
:1022430085188285198312227E7402121A4DE812B0
:10225300227E9004CEE028F07402121A67AA18AB0B
:10226300197901120AF69004CFE4F0E508A2E0928E
:10227300AF7404121A177F07021B89F0A3E4F090CE
:1022830004CFE0F8228521878522C622C0E074EBC3
:10229300121BC9A2AFE433F508C2AF759B0090616E
:1022A30082E0A2E05030E591A2E0502A7591FE74DD
:1022B3000165217021122422120F5E122410121CB8
:1022C300971228D07404121A17E964017005790172
:1022D300120FA6121F4E906182E0A2E5505DE591B8
:1022E300A2E550577591DF90038DE064076005E028
:1022F3006408702F12242274016521703E120F5E50
:10230300122410121C971228D07404121A17E964AD
:102313000170057901120FA67901EEFAEFFB122085
:10232300DF8018E0640D70139003AFE004F06428BD
:102333007002E4F07A00E0F9121024906182E0A2C6
:10234300E640030223E5E591A2E640030223E57597
:1023530091BF90038DE064057008120F46120F526F
:102363008003120F4C752100120FB2E990038EF017
:102373007900120FA6120D367A017B0090038CE0D0
:10238300F912146E907803E064427056900537E0BA
:1023930014F0704EC2AF12239C00782AD0E0F618D6
:1023A300D0E0F6E59F5407F87005750DFF800375BF
:1023B3000D7FC4C0E07829E6F50A08E6550DF50B54
:1023C300740B780A1219DFD0E0250AF8906270E0E6
:1023D300A2E740F8E8C333906272F0906270E0D2F3
:1023E300E0F0906181E0A2E35009E5E9A2E3500344
:1023F30075E9F7A3E0A2E75009E591A2E750037559
:10240300917FE508A2E092AF7F08021C288E828F9D
:1024130083E0F8A3E0C82416F582E438F58322901C
:1024230003BBE0F875F00BA4C8AAF02AF974BD2821
:10243300FE740339FF22C0E0C0D0C082C083906124
:1024430083E0A2E05009E5BFA2E0500375BFFEE0C0
:10245300A2E15009E5BFA2E1500375BFFDE0A2E28E
:102463005009E5BFA2E2500375BFFBE0A2E35009A8
:10247300E5BFA2E3500375BFF7E0A2E45009E5BF4F
:10248300A2E4500375BFEFE0A2E55009E5BFA2E562
:10249300500375BFDFE0A2E65009E5BFA2E6500393
:1024A30075BFBFD083D082D0D0D0E032C0E074F209
:1024B300121BC9E5A7A2E6500FE5A1A2E6500953F6
:1024C300A7BF75A1BF122503E5A7A2E5500CE5A19F
:1024D300A2E5500653A7DF75A1DFE5A7A2E15009E6
:1024E300E5A1A2E1500375A1FDE5A7A2E2500CE529
:1024F300A1A2E2500653A7FB75A1FB7F01021C2892
:1025030074F7121ADD75210190038DE064067015CE
:10251300120EBC8A828B83A3A3A3A3A3A3E0FAA373
:10252300E0FB120F34A2AFE433FED2AF900393E08B
:10253300640170187A207B0090038CE0F9121588EF
:102543007A207B0090038CE0F9121474906182E08E
:10255300D2E6F0900534E0602185C6228016900310
:1025630092E064017008E5C654F84405F5C653BE0D
:10257300FC1222887401652160E4EEA2E092AF7F31
:1025830002021B89008E238F248582288583278559
:102593001882851983E0CEA3E0CF8528828527831F
:1025A300EBC9EAC8EDCBECCA75F010C3E833C8E950
:1025B30033C9EA33CAEB33CBC3EA9EF526EB9FF567
:1025C30025B35004AB25AA26EC33CCED33CDD5F09F
:1025D300DAAE23AF242274E9121ADD74FA121A0157
:1025E300EAFEEBFF8C0A8D0B120F6AEAF8EBF9ECAB
:1025F300FAEDFB8E828F831218FB90038DE024F794
:10260300C394055006751401022740120EBC8A08B4
:102613008B09EA4509700302273DEEFCEFFDAA187A
:10262300AB19120F64850882850983A3A3780C1262
:1026330018C5908178780C12189F851882851983A4
:1026430078101218C5908178781012189F780C7939
:1026530010121645501F780C79101218779081A824
:10266300780C1216654047850C14850D15850E16DA
:10267300850F1780459081A8851014851115851243
:10268300168513177814790C1218777814121665B7
:10269300501C751400751500751600751701781414
:1026A30079101218777814790C12183E800C75146F
:1026B3000175150075160075170074097814121842
:1026C3001F9081B4780C1218C57814790C12170472
:1026D300850882850983A3A3A3A3A3A312275E125C
:1026E3001976880C890DE4F50EF50F7814790C1220
:1026F300183E7404121A4D12275E121976E8FA8AEC
:102703000CE4F50D7814790C1216455007781479FA
:102713000C12187790038DE06408600AE064066089
:1027230005E0640570209081AC781412166550168C
:102733009081B07814121851800C7514007515002F
:10274300751600751700850A82850B837814121895
:10275300D47406121A177F10021B89E0F8A3E0F95C
:102763007AD07B032274F7121ADD120F7C900532A4
:10277300E064017010906245E4F0A3F053F4F34376
:10278300FE0C5390F3120F22E5C654B84441F5C62C
:10279300E59E5447644170F8906185740FF090058D
:1027A30030E0F47002A3E0604E900531E06008145D
:1027B300601B14602E804075080175090090053078
:1027C300E078081219EEE508F45280802A750801B2
:1027D300750900900530E078081219EEE508F45207
:1027E300908014750801750900900530E07808128F
:1027F30019EEE508F452A079007F02021B8974F7F1
:10280300121ADDE9FEEAFF120F7C74016E700C7A76
:10281300807B0090038CE0F912146E902B98E49364
:10282300F46008E493F9120D2A800953C6B8E59EB3
:10283300544770FA120F28900532E06401700312B6
:102843000D4E900530E0F47002A3E0604B9005312B
:10285300E0600814601A14602C803D750801750946
:1028630000900530E078081219EEE50842808028D0
:10287300750801750900900530E078081219EEE536
:102883000842908013750801750900900530E078BF
:10289300081219EEE50842A0120EBC8A088B09A89B
:1028A30008A909E8496014E5E170FCE82414F582FD
:1028B300E439F583E0F46003E0F5E174016F700A35
:1028C3007A0190038CE0F91214FE0227FC74F112D2
:1028D3001ADD8A088B098C0A8D0B9081787808128F
:1028E300189F740F121A4D780C1218C590817878BE
:1028F3000C12189F7808790C1216459081A8501075
:102903007808790C12187778081216654014800E2F
:10291300780C7908121877780C121665500479012F
:10292300800279007F08021B8974ED121ADD8A0880
:102933008B098C0A8D0B908178780812189F741379
:10294300121A4D780C1218C5908178780C12189FC2
:10295300780C790812164540117808790C1218770B
:10296300AA08AB09AC0AAD0B8022751000751100E3
:102973007512007513017810790C12187778107995
:102983000812183EAA10AB11AC12AD137F0C021B38
:102993008990817878081218C58A828B8378081207
:1029A30018B27F04021B8974F5121ADD8C828D83A1
:1029B30078081218C58A828B83780812188B122A1A
:1029C30002C3E09CF0A3E09D1229F4402290820010
:1029D30078081218C58A828B8378081218648A8251
:1029E3008B83A3A3A3A3E02420F0A3E0344EF080C1
:1029F300A0F088828983C3E09420A3E0944E22EA66
:102A03002404F8E43BF98C828D83A3A3A3A3E0FC05
:102A1300A3E0FD888289832274F5121ADDE9FE9012
:102A230004EAE0FAA3E0FBEE29F8E433F974E928B9
:102A3300F582748039F583E02AF508A3E03BF509B4
:102A43007808121C849081F01218E312258874020E
:102A5300121A178A088B098C0A8D0B7410780812C6
:102A63001806AA08AB097F04021B8974F1121ADD48
:102A73008A0C8B0D8C0E8D0F7411121A4D121C9B28
:102A83007411121A4DE02401F508A3E03400F5098E
:102A9300E4F50AF50B780C79081216849081BC785A
:102AA300081218C5780C7908121684AA0CAB0DAC61
:102AB3000EAD0F1225887402121A178B09EA450905
:102AC30060047A0180027A00EC2AFCE43DFD741371
:102AD300121A4DE0F8A3E0F9E8FEE9FFECF8EDF98E
:102AE3007A717B0212197688088909E4F50AF50BD5
:102AF3008E828F8378081218D4ECF8EDF97A717B03
:102B0300021219768A088B09740578081219EE8E59
:102B1300828F83A3A3A3A3E508F0A3E509F07F08AD
:102B2300021B89C082C083E9906000F0D083D08209
:102B330022C0E074F2121BC9A2AFE433FED2AFE5A8
:102B430089A2E04006E589A2E1500312136C75895E
:102B530000758900C2C5751A00EEA2E092AF7F012D
:102B6300021C28C0E0C0D0E8C0E0E9C0E0A9A8D2B8
:102B7300AFC2C7751A00E9A2E7E433F8E9A2E79206
:102B8300AFD0E0F9D0E0F8D0D0D0E032C2AF02004D
:102B93000022020132FFFFFFFFFFFFFFFFC082C0E1
:102BA30083E990170DF0D083D08202013274F612BC
:102BB3001A71E99002FFF090035FE0F508750900D0
:102BC300740278081219EEAA08AB091214E69003EE
:102BD30000123563900300123950606F90035FE079
:102BE30075F003A4FAABF01214E690031D123563DB
:102BF30090031D123950700B9003001239211214E7
:102C0300EC804890031D1248B57AFF7BFF1212D661
:102C13007A0080198A08750900740278081219EE7F
:102C230012435D74FF122D63E4F0A3F00A90035F77
:102C3300E0F8EAC39840DD79051209889002FFE0C5
:102C4300F91208747A127B0A120C0A02440074F413
:102C5300121A718A088B09EB548060479002FFE0D7
:102C6300F91214568A0A8B0BAE0AAF0BEE4F602A89
:102C73008E828F83E064B0701A12099AE960148E11
:102C8300828F83A3A3A3A3E0F9EE2405FAE43FFB19
:102C930012096AEEFAEFFB121444AA08E5096480EC
:102CA300FB80047A007B00022EB374F2121A717453
:102CB300FB121A01EAFEEBFFEE4F60457403121A92
:102CC3004DEEF0A3EFF0851882851983ECF0A3EDA8
:102CD300F07402121A4DE9F0AA18AB1912086EE942
:102CE300F50870757413121A4DE0F50AA3E0F50B9D
:102CF300E50A450B60638E828F831232ECEE4F70D0
:102D03000575080280537A067B001214E68A0C8B41
:102D13000DA80CA90DE8497005750813803B88823E
:102D23008983E4122D63EEF0A3EF122E7FE50AF000
:102D3300A3E50BF0900303122E789003036017E0D2
:102D4300FCA3E08003EAFCEBFD8C828D83122E78DA
:102D530070F38C828D83123F78A9087405024B357A
:102D6300F0A3124897A32274F2121A718908890CEE
:102D7300750D007403780C1219EE850C0A850D0B82
:102D8300900302F0900300123D83122E76602E1200
:102D930014EC7900801D890C750D007402780C12F7
:102DA30019EE90030012421C8882F583A3A3E4F07A
:102DB300A3F00990035FE0F8E9C39840D990035F5B
:102DC300E0FA850AF0A4CAA8F0850BF0A428FB1248
:102DD30014E68A0C8B0DAE0CAF0DEE4F7003022E72
:102DE3006C90035FE0FC850AF0A4CCA8F0850BF09F
:102DF300A428FD79001214327C0080318D0C750DEE
:102E0300007403780C1219EE8A828B83122E718858
:102E1300828983E4F0122E7EA3A3F0A3F00DEDC309
:102E2300950840D8EE250AFEEF350BFF0C90035FA3
:102E3300E0F8ECC39850288C0C750D007402780CE4
:102E43001219EE900300122E71E82402500109FAC0
:102E5300E9FB8A828B83EEF0A3EFF07D0080BFE570
:102E630008900302F0790080027913024B38124272
:102E730020F922A3A3123925EA4B22A3124897A3D0
:102E8300A3A32274F4121A717900EAA2E0501F7509
:102E930008507509817808121C8479107C047D0020
:102EA3007A0F7B171209827402121A17E9F980004C
:102EB3007F04021B43C082C0839003031239506016
:102EC3001C88828983A3A3E06A7003A3E06B8882D2
:102ED300898370E8A3A3A3A312392180047A007B1A
:102EE30000022BA974F2121A7174FD121A01EAFE80
:102EF300EBFF851882851983E4F0A3F07402121A9C
:102F03004D7401F012394D7014120B441214E690F3
:102F1300030612356312394D70030230791236639A
:102F2300EE2404F50AE43FF50B850A82F583E024D9
:102F3300FE603C24FC607424FE607E24FE70030269
:102F43002FC924FE7003022FD624FE7003022FE341
:102F530024FE7003022FF024FE7003022FFD24FCD5
:102F6300700302301E24FE700302303602307212E8
:102F73000B44900308EAF0A3EB1230851205B6E97F
:102F83006003023072900308121C9B8E828F83A30E
:102F9300A3A3A3A31248B585088285098312392107
:102FA3001209527402121A17023072AC18AD19EEDC
:102FB300FAEFFB1209A0023041AC18AD19EEFAEF9B
:102FC300FB1209A68078AC18AD19EEFAEFFB1209D3
:102FD300AC806BAC18AD19EEFAEFFB1209B2805E50
:102FE300AC18AD19EEFAEFFB1209B88051AC18AD6D
:102FF30019EEFAEFFB1209BE80447402121A5788C5
:103003000C890D780C121C847402121A67EEFAEF05
:10301300FB1209C47402121A178023AC18AD19EEFF
:10302300FAEFFB1209CAE9F870167402121A4DE49A
:10303300F0803CAC18AD19EEFAEFFB1209D0E9F8B9
:10304300E8602C8E828F83A3E064146022850A8259
:10305300850B83E0900308F0851882851983123964
:1030630021900309123563E8A31230851205B0EEEF
:10307300FAEFFB1209287402121A4DE0F9740302E5
:103083004B35F07C087D0385088285098312392539
:103093002274E8121A7174FA121A017404121A4D86
:1030A300ECF0A3EDF08A128B13EA2405F50EE43558
:1030B30013F50FEA2402F510E43513F51185108298
:1030C300F5831239211206A68A0A8B0B7508007C38
:1030D300037D0079007A087B03121432E50E240283
:1030E300F516E4350FF5177402121A57880C890D7B
:1030F300780C121C84850E82850F83A3A3A3A3E0FF
:10310300F50C750D00780C121C84E50E2405F50CE6
:10311300E4350FF50D780C121C8485168285178310
:10312300123C2812088C7406121A178A0C8B0DE5B0
:103133000C450D70030232B58020851882851983F2
:10314300E088828983F00508851882851983A3E0C6
:10315300C0E01232F6D0E0F00508E50A24FBFAE5F8
:103163000B34FFFBC3E5089AE49B40030232B57EB0
:10317300007F00851282851383A3A3A3A3E0F5092F
:103183007809121C88E4F514F5157814121C84755B
:1031930014057515037814121C84900306121C9BE6
:1031A3007409121A4D121C9BE50A24F9F9AC0CADF3
:1031B3000D8510828511831239211209FA740912BF
:1031C3001A17E96003023256850E82850F83A3A383
:1031D300A3A3A3A3A3E0F8900305E0687075E0F54B
:1031E300148E157814121C841248B2850E82850F32
:1031F30083A3A3A3A3A3A3A3A312392112142C74FF
:1032030002121A17E9604C900309123950703BE41B
:10321300F5147814121C847CFF7DFF7907851082D6
:103223008511831239211209647402121A17123993
:10323300567017850E82850F83124A4F7404121A33
:103243004D124310123C590232E9850C82850D83DD
:103253001232ECA818A919881489157814121C8441
:103263007404121A4D121C9B85168285178312351E
:10327300591208987404121A178A0C8B0DEE4F70AA
:10328300030231321232F6EE123301123C0FEF1207
:103293003301F8A3E03400F9E50C450D6003023176
:1032A3003D8882898374FFF005081232F674FFF0BB
:1032B3000508E508601A1313543F1235691205C255
:1032C300E9600990030912392112149E79008016CE
:1032D300850E82850F83124A4F7404121A4D1243CE
:1032E30010123F78790A023BE2A3A3A3A3E0FEA353
:1032F300E0FF22A808900309E028123C0F22F00502
:103303000808900309E0282274E8121A7174FA126B
:103313001A017402121A4D1235637404121A4DEC19
:10332300F0A3EDF07402121A4DE02405123BF8E00D
:10333300F50CA3E0F50D7402121A4DE02402F5100A
:10334300A3E03400F511851082F5831239211206AA
:10335300A6750800750900EA24FCFEEB34FFFF8024
:1033630008050CE50C7002050DA808C3EE98EF9450
:10337300005003023515A818A919880E890F780E75
:10338300121C84851482851583A3A3A3A31248B9B1
:10339300121C84E5142405F50EE43515F50F780E9B
:1033A300121C8485148285158312355712088C7478
:1033B30006121A178A0E8B0FEA450F700302351592
:1033C300EA2404F516E4350FF517851682F583E034
:1033D300F50CA3E0F50D8518828519831248B58A8B
:1033E300828B83A3A3A3E0F985108285118312390D
:1033F3002112087AE9F50960030235157402121ADD
:103403004D123C1FF5097809121C88E4F512F513D7
:103413007812121C847512057513037812121C841A
:10342300900306121C9B7407121A4D121C9BEEF993
:10343300AC0EAD0F8510828511831239211209FA62
:103443007409121A17E9F5096003023515E50870C6
:103453003FE4F50EF50F780E121C847CFF7DFF7997
:1034630009851082851183123921120964740212AD
:103473001A17123C45700D7404121A4D12354C790B
:1034830011023549900305E02402900309F08014EA
:10349300900309E0FA900305E07900240250010942
:1034A3006A497072A808900305E0FAE82AFAE4343E
:1034B30000FBEE9AEF9B405A851682851783E0C086
:1034C300E090030A1232FBD0E0F0050885168285EE
:1034D3001783A3E0C0E00890030A1232FBD0E0F0A8
:1034E30005089003051248B9121C841248B2A808B3
:1034F300123BEC12141A7402121A17900305E025FA
:1035030008F50874FF650C700474FF650D60030211
:103513003364E508601F900309E0F5F0E5088412C1
:1035230035691205C8E9600990030A12392112149A
:103533009E79008011E509700375090A7404121A53
:103543004D12354CA909023BE2123D87E50CF0A36D
:10355300E50DF022A3A3124B44AA0CAB0D22A3A3A7
:10356300EAF0A3EBF022900308F07C087D038510BA
:10357300828511831239252274EC121A7174FC129C
:103583001A011240887402121A6712391B12089228
:103593008A0C8B0DEA450D7003023653123663A86D
:1035A30018A919881089117810121C847CFF7DFFDB
:1035B300790B850882850983123921120964740203
:1035C300121A17123759700C850A82850B83123C25
:1035D300560236608E828F83A3A3A3A3E0F51278ED
:1035E30012121C88E4F512F5137812121C8475125A
:1035F300087513037812121C847810121C84740942
:10360300121A4D121C9B7409121A4DE0F9AC0CAD41
:103613000D8508828509831239211209FA7409126A
:103623001A17E9FE70157C087D03850882850983D6
:103633001239211205CEE97009802074166E7002CA
:103643007E0090030912392112149EEE7004800B40
:103653007E01850A82850B83123F75EEF9023F8A4C
:10366300EE2402F508E43FF5092274EC121A717492
:10367300FC121A01EAFEEBFF8C0E8D0FEE2405F50A
:1036830008E43FF5097402121A67850882850983E5
:103693001239211208928A0C8B0DEA450D70030230
:1036A3003749EE2402F50AE43FF50BA818A9198857
:1036B3001089117810121C847CFF7DFF790D12395B
:1036C3001B1209647402121A17123759700B8508FA
:1036D30082850983123C56807A8E828F83A3A3A3AB
:1036E300A3E0F5127812121C88850882850983A34A
:1036F300A3121C9B7512087513037812121C84788D
:1037030010121C847409121A4D121C9B7409121A8C
:103713004DE0F91239171209FA7409121A17E9FE62
:10372300700F7C087D0312391B1205D4E9700980E0
:103733002074166E70027E00900309123921121450
:103743009EEE7004800B7E01850882850983123FFB
:1037530075EEF9023F8A123960F510A3E0F511EA1C
:1037630045112274E8121A7174FE121A018A168B1B
:10377300178C148D15EA2405F50CE43517F50DEABD
:103783002402F50EE43517F50F850E82F583123901
:10379300211206A68A088B09750B007C037D00792C
:1037A300007A087B03121432750A00E50814F51039
:1037B3000424FFF508E50934FFF509805490030854
:1037C300E0FA900305E0F8EA28F8E43400F9E508A4
:1037D30098E50999500D900308E0F8E510C3989017
:1037E3000305F0E0F5127513007812121C841248D9
:1037F300B2900309E02AFAA3E03400FB12141A740E
:1038030002121A17900305E0F8900308E028F00568
:103813000A850C82850D83A3A312422C4003023830
:10382300FC900308E0C39508E4950940030238FCC3
:10383300AE0AEE2EFEE433FF12393BAC18AD19127B
:1038430048CDE439FB1208928A128B13AC12AD13E4
:10385300EC4D701B750B0112392B123F7990030944
:10386300122E78600312149EA90B7402023BE485A6
:103873001682851783A3A3A3A3E0F50B780B121C71
:1038830088E4F512F5137812121C8475120575136A
:10389300037812121C84900306121C9B7407121ADD
:1038A3004D121C9BA910850E82850F83123921129C
:1038B30009FA7409121A17E9F50B709B90030912A0
:1038C300395060030237C0E4F512F5137812121C65
:1038D300847CFF7DFF790F850E82850F831239214A
:1038E3001209647402121A1712395660030237C0A0
:1038F30012392B123C5A02386D7C087D03850E82E7
:10390300850F831239211205DAE9600302386079E1
:103913000002386DAC0CAD0D850A82850B8312391C
:103923002522E0FAA3E0FB2212393BE0FAA3E0F9F7
:10393300EA85148285158322850C82850D83E02E0A
:10394300F8A3E03FF98882898322900306124A5341
:10395300E84922123960F8A3E0F9E8492290030903
:10396300EAF0A3EBF0900309E02274E8121A7174F1
:10397300FA121A017404121A4D1235638C168D173C
:103983007404121A4DE02405F50EA3E03400F50F7C
:103993007404121A4DE02402123BF8123921120664
:1039A300A68A0A8B0B7F007E00A818A919880889AC
:1039B300097808121C84850E82850F83A3A3A3A311
:1039C300E0F5088E097808121C84E50E2405F50835
:1039D300E4350FF5097808121C84850E82850F8360
:1039E300A3A3123C2812088C7406121A178A0C8B94
:1039F3000D8029123C19F00F123C19F00F900305AA
:103A0300123F64121C841248B2EFF8123BEC1214FA
:103A13001A7402121A17900305E02FFFE50C450DE7
:103A23007003023AA885188285198312409AA3A3CA
:103A3300A3E0F985148285158312392112087AE9E6
:103A4300FEE50C2404F510E4350DF511EE70507409
:103A530004121A4D123C1FF5087808121C88E4F56D
:103A630008F5097808121C84750805750903780898
:103A7300121C84900306121C9B7407121A4D121C0D
:103A83009BE50A24FAF9AC0CAD0D851482851583E8
:103A93001239211209FA7409121A17E9FE60391250
:103AA3003C35123F78EF7003023BCF900309E0F5FA
:103AB300F0EF84900308F07C087D0385148285155C
:103AC300831239211205E0E9600990030A123921B2
:103AD30012149E7900023BE28F08EF703BE4F5126B
:103AE300F5137812121C847CFF7DFF7911851482F3
:103AF3008515831239211209647402121A17123CB4
:103B0300457009123C35123C59023BE2900305E033
:103B13002404900309F08035900305E0F89003092D
:103B2300E0FAE82404FCE43400FDEC6A4D6003028F
:103B33003AAEE50A24FAFAE50B34FFFBE50828F868
:103B4300E43400F9EA98EB995003023AAE85108207
:103B5300851183E0C0E090030AE02FF8A3E034006E
:103B63008882F583D0E0F00F851082851183A3E06E
:103B7300C0E0123C06D0E0F00F7402121A57880816
:103B830089097808121C847402121A4D121C9B8531
:103B93000E82850F831235571208987404121A1770
:103BA3008A0C8B0DEA450D70030239F67402121A62
:103BB3004DE0C0E0123C06D0E0F00F7402121A4D43
:103BC300A3E0C0E0123C06D0E00239FEEE70027EB4
:103BD3000A850E82850F83123C3B123F78EEF974FF
:103BE30006121A177F10021B4390030AE028FAA358
:103BF300E03400FB22F514A3E03400F515851482AC
:103C0300F58322123C0A2290030AE02FFAA3E03440
:103C1300008A82F58322123C0A74FF22123D87A395
:103C2300A3A3A3E022124B44850E82850F8312398E
:103C33002522851082851183124A538516828517A2
:103C4300832290030AEAF0A3EBF090030A124A538B
:103C5300E84922123F7EE8F0A3E9F079112274EAE1
:103C6300121A7174FE121A018A088B098C128D13B1
:103C7300EA2405FEE43509FFAC18AD198E828F8363
:103C83001239211208928A0C8B0DEE2406F50EE4EC
:103C93003FF50FEA450D7003023D59E5082402F58F
:103CA3000AE43509F50B8A828B83A3A3A3E0A2E57B
:103CB30050288518828519831239211209EE8A103A
:103CC3008B11EA451160207912123917851082850C
:103CD3001183121A6FE9F50C707F850E82850F83AD
:103CE300E0600979528011750C0E806D850882851C
:103CF3000983A3A3A3A3E0F9E4F508F5097808125F
:103D03001C848E828F83A3A3E0F5087808121C8499
:103D13008E828F83A3A3A3121C9B8E828F83124850
:103D2300B512391B120A007406121A17E9F50C7042
:103D330011850E82850F83E0702D12391B1205E663
:103D430080257416650C7011750C007418121A4DC9
:103D5300123D83E48010750C01124A4B8512828553
:103D63001383E8F0A3E9F0850E82850F83E06004F6
:103D730079008002A90C7402121A177F0E021B43EA
:103D8300123D8722E0F8A3E0F58388822274EC12C7
:103D93001A7174F7121A018A0A8B0B8C108D11EAAF
:103DA3002405FEE4350BFF750C00AC18AD198E82AB
:103DB3008F831239211208928A088B09EA45097008
:103DC30003023F4FE50A2402F50A5002050B8A82DB
:103DD3008B83A3A3A3E0A2E5502F851882851983C3
:103DE3001239211209EE8A0C8B0DEA450D604F79C9
:103DF30012AC08AD0912391B850C82850D83121A8A
:103E03006FE9F50C6003023F52850A82850B83E05C
:103E1300F508A3E0F509AA08FB1209E2EA4B7019B9
:103E23007AFF7BFF1209E2EA4B7003023F458A8265
:103E33008B83E508F0A3E509F07508008008750C8D
:103E43000E023F520508900302E0F8E508C39840CC
:103E530003023F4585080E750F007403780E12198F
:103E6300EE8A828B83A3A3E0250EF8A3E0350F121D
:103E7300431970D08E828F83123F6D1235638E8209
:103E83008F83A3A3123F6D123561EE2404F508E47A
:103E93003FF509850882F583E088828983A3A3A37C
:103EA300A3F0A3E4F0EE2405F50EE43FF50F850E31
:103EB30082F583123F6DA3A3A3A312356175120785
:103EC3007513007812121C84EEFCEFFD7404121AB1
:103ED3005F12141A7402121A17E4F5127812121CE4
:103EE30084850882850983E0FC7D00791712391BDC
:103EF3001209647402121A177407121A4D123563E9
:103F03007407121A4DE0FA4B603D850882850983D8
:103F1300123F64121C84850E82850F831248B512EA
:103F2300141A7402121A177402121A6712391B1226
:103F330005ECE960267407121A4D12392112149EFA
:103F43008019750C098008750C118003750C01121A
:103F53004A4B851082851183123F78A90C7409801E
:103F630028E0F50875090078082212392588828926
:103F73008322123F7EE8F0A3E9F022E0F8A3E0F900
:103F8300850E82850F83227404121A177F0C021B7D
:103F93004374EC121A71124088751000EE2402F576
:103FA3000CE43FF50D850C82F5831239211209E2E9
:103FB3008A088B09EA4509700302406C850A8285E9
:103FC3000B83E064016003024061AC08AD09AA0AF7
:103FD300AB0B1209D6E9606E85088285098312321C
:103FE300EEEE2406F50AE43FF50B8E828F83A3A33E
:103FF300121C9B8E828F83A3A3A3A3121C9B850AEF
:1040030082850B83121C9B79188E828F8312409AB0
:10401300123921120A007406121A17E9F874166885
:10402300700B850A82850B83E4F0A38014E8601289
:104033008E828F83123921850E82850F83EAF0A346
:10404300EBF088108018780E121C84AC08AD09EED2
:10405300FAEFFB1209DC7402121A17E9F510AA0829
:10406300AB091209E8E510700E850C82850D8312E9
:1040730039211205F280097416651070037510005A
:10408300A910023F8FEAFEEBFF8C0E8D0FEE240585
:10409300F50AE43FF50B22124B44850C82850D8310
:1040A3002274EA121A717508007509007E007F00F8
:1040B300750A00EC2402F510E43DF5118035EC653A
:1040C300087003ED6509600302415988828983A35F
:1040D300A3E06A7003A3E06B707C88828983A3A347
:1040E300A3A3124A4FEE28FEEF39FFEA28FAEB3971
:1040F300FB050A124229503A850A0C750D00740318
:10410300780C1219EE85108285118312421C12431A
:1041130019601FE508450970A58C088D09888289F7
:10412300831232EC88828983A3A3E02EFAA3E03FB3
:1041330080BEE50AC3940250030242177508007556
:104143000900EE4F6010EEFAEFFB1214988A0E8B03
:104153000FEA450F70057900024219750B00024101
:10416300EC850B0C750D007403780C1219EE851099
:1041730082851183E0250CF50CA3E0350DF50DE5E3
:104183000C2406F514E4350DF515851482F5831218
:10419300431E6042E50C2404F512E4350DF5138546
:1041A3001282F583121C9BE50E2508FAE50F3509EB
:1041B300FB12141A7402121A17851282851383E0F4
:1041C3002508F508A3E03509F509851482851583CB
:1041D30012392112149EE50B600D7C087D007900D5
:1041E300AA0CAB0D121432050BE50BC3950A500351
:1041F300024164851082851183124A4F8882898324
:10420300A3A3A3A3A3A3E50EF0A3E50F122E7FEEB2
:10421300F0A3EFF07901023D7E12422022E0250C4B
:10422300F8A3E0350D22900302E0F8E50AC39822D3
:1042330074F0121A718A0E8B0F8C0A8D0B750D0098
:10424300750C0080507916EE2406F508E43FF50955
:104253008E828F83A3A3121C9B8E828F83A3A3A31F
:10426300A3121C9B850882850983121C9B850E82E1
:10427300850F83A3A3123921120A007406121A1799
:10428300E9F50D7416650D706C850882850983E464
:10429300F0A3F0050C900302E0F8E50CC398506618
:1042A300AA0C8A08750900740378081219EE850AA6
:1042B30082850B83A3A3124368E8FEE9FF8E828FF6
:1042C3008312431E6040EA2401F508E43400F50933
:1042D300900302E065087002E5096014888289830F
:1042E300A3A3A3A3A3A3A3A3123950600302424829
:1042F300791802424AE9609B124A4B7410121A4D14
:10430300124310123F78A90D7F08021B43E0FAA362
:10431300E0F5838A8222F988828983124B44EC4D2B
:104323002274F6121A717C0080010C90035FE0F88E
:10433300ECC398501E8C0875090074027808121992
:10434300EE12435DE06A7003A3E06B70DDE8FAE907
:10435300FB80047A007B0002440090030012436850
:104363008882898322E02508F8A3E03509F92274BD
:10437300F2121A718A088B09750A0080278E828FC0
:1043830083A3A3A3A3122E76600312149E7C087D3D
:10439300007900EEFAEFFB1214328E828F83E4F081
:1043A300A3F0050A1242295027850A0C750D0074E3
:1043B30003780C1219EE850882850983A3A3E025EF
:1043C3000CFEA3E0350DFF8E828F8312395070AD42
:1043D30085088285098374FFF0A3F0024B3874F6D5
:1043E300121A711209948A828B83E58245837006BF
:1043F3007A007B008007A3A3A3A31239217F0202C3
:104403001B4374F4121A7189088C828D83E0640251
:10441300703C1249EEFEA3E0F9EEF87402687003F3
:104423007429697029750A02750B00780A121C84B5
:104433007410121A4D121C9B7410121A4D121C9BED
:10444300A9081212E87406121A17E9F98002790111
:10445300022EB374E8121A7174FB121A01E985185B
:1044630082851983F08A168B17ECFEEDFF75100019
:104473008E828F83A3A3A3E0A2E4502D741D121A8E
:104483004D1239211209EE8A828B83E582458370AE
:104493000302488D790AEEFCEFFDAA16AB17121A38
:1044A3006FE9F5106003024890741F121A4DE0F58E
:1044B30008A3E0F5097421121A4DE0F50AA3E0F50B
:1044C3000B7423121A4DE0F50EA3E0F50F8E828FC5
:1044D30083E06402600302482EA3124A4F850882D8
:1044E300850983A3858212858313EE2406F50CE4E4
:1044F3003FF50D888289831248CDF514E439F5150B
:104503007814121D0E01000028012830450700020F
:1045130028F545032863450029244701294F47020D
:1045230029F046032924470429C8472E48E50E45A8
:104533000F6003024829850C82850D83124A4FE8D8
:10454300FAE9FB8A828B83E0850A82850B83124812
:10455300D8121C848A828B83A3E0FCA3E00247B2B7
:10456300E50E450F6003024829850A82850B837493
:1045730001F01248C2850882850983F07C007D0022
:104583008E828F83A3A3A3A3E02401FAA3E03400C4
:10459300FB120892EA4B60408A828B83E02402F884
:1045A300850A82850B83E028F0EA2404F8E43BF9CA
:1045B30088828983E08512828513831248E6124834
:1045C300D8121C848A828B83A31248B5E50824037E
:1045D300FAE43509FB0247B7850A82850B83E02499
:1045E30004F07C047D007900AA12AB13121432028A
:1045F3004890E50E450F60030248291248C2FEA306
:10460300E0FF850A82850B837404F0EE85088285BA
:104613000983F0EF851282851383F07403121A67FE
:10462300EEFAEFFB1208928A0C8B0DEA450D70032C
:104633000246D38A828B83A3A31232EC7401121A2B
:1046430057880E890F780E121C847405121A4D12A6
:104653001C9B7CFF7DFF1208987404121A178B0FA2
:10466300EA450F7033850C82850D831248B9121CFD
:1046730084850C82850D83A3121C9B7C027D007AAA
:104683003B7B821206947404121A17E9700A7401B0
:10469300121A4D74FFF0A3F08E828F83E0640270D0
:1046A30039750C02750D00780C121C848E828F8371
:1046B300A31248B5E5082404FAE43509FB12141AD9
:1046C3007402121A17850A82850B83E0240280097B
:1046D3007401121A4DEEF0A3EFF07401121A4D1289
:1046E30048A77401121A4D12489E024823E50E454D
:1046F3000F6003024829850C82850D83124B3DAA66
:1047030016AB171212EE850A82850B837402F085AD
:104713000882850983EAF0851282851383EB0248B8
:1047230026E50E450F60030248291248C2F8A3E0AC
:10473300F9850A82850B837402F0E885088285096E
:1047430083F0E9851282851383024826850C8285CE
:104753000D83123921121414EAFAF8C3950EE49565
:104763000F405CE8650E450F70047A0080218518C0
:1047730082851983E0FCE50E2CFCE4350FFDC3ECC8
:1047830098ED94005003E08005E50ECAC39AFAEA57
:10479300850A82850B83F08A0A750B00780A121C3E
:1047A30084850C82850D83E0250EFCA3E0350FFD87
:1047B300AA08AB0912141A7402121A170248907548
:1047C3001007024890E50E450F705B850C82850D3E
:1047D30083124A4F850A82850B837407F088828986
:1047E3008312489F124897E0851282851383F0E86D
:1047F3002402FAE439FB8A828B831248A78A828BCC
:104803008312489EA3A3122E7E1248ACF0E824051F
:10481300F8500109888289831248ACA31248E6A3A1
:10482300A3A3A3F0806775100B8062741D121A4D49
:104833001239211209948A828B83E5824583604A67
:10484300124A4F880C890DE8450D603E7425121AF3
:104853004DE0F5107810121C88780E121C84780A2B
:10486300121C847808121C847407121A4DE0F9EEA6
:10487300FCEFFDAA16AB17850C82850D83121A6F08
:104883007407121A17E9F510800375100EA9107436
:1048930005023BE4F088828983A322A3E085088292
:1048A300850983221248EDF0221248EDA3A322903A
:1048B3000306124B4422E0F50E750F00780E228595
:1048C3000C82850D83123D87E022E0FAA3E0F8E431
:1048D300C8F9EA2822F08A828B83E0F50A750B0077
:1048E300780A221248971248ED22E085088285094A
:1048F30083A3A32274EE121A7174FE121A018A089A
:104903008B09ECFEEDFF890AAC18AD19EEFAEFFB4B
:104913001208928A0C8B0DEA450D70030249DF855C
:1049230018828519831239211209948A828B83E5AF
:1049330082458370030249DAA3A3124A4F880E8982
:104943000FE8450F70030249DA7414121A4DE0F5AB
:1049530010A3E0F511E50AF50B780B121C88741906
:10496300121A4D121C9B7810121C84741B121A4DC0
:10497300E0F9AC0CAD0DAA08AB09850E82850F8357
:10498300121A6F7405121A17E9F50B705274FE654B
:104993000A604C850C82850D83E0640270411249E4
:1049A300EEFAA3E0F9EAF8740268700374296970F7
:1049B3002E8510828511831248CDF50CE439F50D4F
:1049C300780C121C84EEFCEFFDAA08AB09120A183E
:1049D3007402121A178008750B0E8003750B01A958
:1049E3000B7402121A177F0A021B43A3124A53883D
:1049F300828983E02274F6121A7174FE121A01740A
:104A03000C121A4D124A4FE8851882851983F074E7
:104A130001121A4DE9F0E4F508F5097808121C842F
:104A23007508027808121C847404121A57880889BE
:104A3300097808121C8479FE120A007406121A17E8
:104A43007402121A170244008E828F83124A532271
:104A5300E0F8A3E0F92274F7121A71EAFEEBFF897A
:104A63000890031D1248B51212EEEA5402600BA916
:104A730008EEFAEFFB120886800279017F01021B20
:104A83004374F2121A7174FE121A01EAFEEBFF89E3
:104A93000A7401650A60147402650A6003024B33E9
:104AA3007901120C28E96003024B33EEFAEFFB1293
:104AB30009E2EA4B60031209E8A818A919880889D2
:104AC300097808121C847508027509007808121CFD
:104AD300847508277509827808121C847CFF7DFF82
:104AE3007A017B0012088C7406121A178038850825
:104AF30082850983A3A3A3A3A3A3124B3DEEFAEFDD
:104B0300FB1212D6E4F50CF50D780C121C8474021A
:104B1300121A4D121C9B7CFF7DFFAA08AB091208D9
:104B2300987404121A178A088B09E508450970BEA0
:104B33007402121A177F06021B43123D87124B445D
:104B430022E0FCA3E0FD2274F4121A718A088B0997
:104B5300ECFEEDFF90170DE0F4604B7A097B001239
:104B6300143EEA4B60408A828B8374B1F0A3E41253
:104B73004BACF08A828B83A3A3E508F0A3E509126B
:104B83004BACA3EEF0A3EFF0740C121A4D124A4F84
:104B93008A828B83A3A3A3A3A3A3A3123F78901713
:104BA3000DE0F912144A022EB3F08A828B83A3A379
:104BB300A3A32274F0121A7174FA121A018909EC70
:104BC300FEEDFF7508008A0A8B0B780A121CC800D9
:104BD3000410DC4DF94B174C314C494C674C7F4C5E
:104BE300A24CBA4CCE4CF84C734D844D9B4DB64DF4
:104BF300DC4DDC4D0E4D740165096003024DD78E0B
:104C0300828F83E0F8C394034003024DD7E89017E3
:104C1300F9024DB3740265096003024DD78E828F8A
:104C230083124E189017FAE8F0A3E9024DB374010A
:104C330065096003024DD7124E094003024DD7E8C0
:104C4300900760024DB3740165096003024DD78E6E
:104C5300828F83E0F8C394054003024DD7E89007A1
:104C630061024DB3740165096003024DD7124E0909
:104C73004003024DD7E8900762024DB374106509F3
:104C83006003024DD7750A10750B00780A121C8455
:104C93007A637B0712141A7402121A17024DFD74F9
:104CA3000165096003024DD7124E094003024DD737
:104CB300E8900773024DB3740165096003024DD791
:104CC3008E828F83E09017FD024DB37404650960F3
:104CD30003024DD78E828F83780C1218C59081F012
:104CE300780C1216655003024DD7900775780C1295
:104CF30018D4024DFDE96003024DD712082CE97068
:104D03000512129A8055900808806174076509603E
:104D130003024DD7750A06750B00780A121C848EA0
:104D2300828F83A3AC82AD837402121A5F121420A4
:104D33007402121A177C007D00AA18AB198E828F99
:104D430083E0F9121246E9FEC3940A4003024DFAC6
:104D530012082CE9700CEEF91212A0795012155EAC
:104D6300806D74092EF582E43408F5837401804064
:104D730074016509705E124E095059E890077480FA
:104D83002F74016509704D8E828F83E0F8C3940AF6
:104D93005042E89017FC80187401650970368E82C2
:104DA3008F83E0F874F928C3940A5028E89017FE1B
:104DB300F0804774016509701B900807E0F88E8244
:104DC3008F83E0900807F0E87030E06401702B12E5
:104DD300128E80267508188021C3EA9427EB94006D
:104DE300501574026509700F8E828F831258DE127C
:104DF30006ACE9F5088003750802A9087406121ABF
:104E0300177F08021B438E828F83E0F8C39402222C
:104E1300A9080251B6E0F8A3E0F92274F0121A715E
:104E230074B1121A018C0C8D0D90814A7420121AE0
:104E33006774061219147420121A67121246E9F5E0
:104E430008745F121A4DE0F50AE9C3940A4003029D
:104E53004F9C75F006E9A4F5097441121A677A0E9E
:104E630074202509F9121558E97009744D121A4D69
:104E7300E0FF80027F009017F9E064027005750E71
:104E8300018003750E007408650A700474228002A1
:104E930074212509F50F7C1B7D0079007426121AF5
:104EA3005F121432EFA2E0E433FE7426121A677A1B
:104EB3001BA90F121558E970257440121A4DE024EE
:104EC300F9C3940A5018780E121C887427121A67B3
:104ED300EEF9AA0CAB0D12074E7401121A177C14CB
:104EE3007D007900740C121A5F121432740C121ABA
:104EF300677A1074242509F9121558E970307C106B
:104F030079FF740C121A5F121492E97021741C1247
:104F13001A4DAC82AD837A0474252509F91215580C
:104F2300740C121A67EEF9AA0CAB0D120736AC1803
:104F3300AD197A0C74702508F9121558E97049AA4D
:104F430018AB191212767E00EE75F003A4F8A9F0DF
:104F5300851882851983E58228F8E5831256F712AE
:104F630058D8601D88828983A3A3E0F508750900DA
:104F73007808121C84AA0CAB0D120A067402121ACA
:104F8300170EEEC3940440C0EFA2E1500C90075FEC
:104F9300E0F9AA0CAB0D120A0C7404650A70289090
:104FA30017F9E0640270207A00900773E060027AD8
:104FB30001900760E06004780480027800E84AF911
:104FC300AA0CAB0D1208027900744F024E0174F75C
:104FD300121A7112082CE9704F900808E0640170EE
:104FE3001512129A900808E4F07C0AFDF97A097BFD
:104FF30008121432802A750800A808740928FEE4F0
:105003003408FF8E828F83E06401700BA9081212AB
:10501300A08E828F83E4F00508E508C3940A40D983
:10502300795012155E12128E025A1674F0121A710A
:1050330074F0121A01EAFEEBFF8C088D09750A0A57
:10504300E9600C14600914603B14607D0251241262
:105053001288E9F50AC3940A4003025124E508457E
:10506300097003025124750C06750D00780C121C8F
:1050730084EEFCEFFDAA08AB0912141A7402121A8B
:1050830017025124750C00750E06750F00780E1269
:105093001C84EEFCEFFDE50C75F00EA4F8A9F0748A
:1050A3008128FA740739FB12142C7402121A17E9B7
:1050B300700B050CE50CC3940A506680CA850C0A74
:1050C300E50AC3940A505A8049750C00AC18AD190F
:1050D3007A1075F006E50CA42423F9121558E9702B
:1050E3001C7C1079FFAA18AB19121492E9700EEE0A
:1050F300FCEFFDAA18AB19120712E9600B050CE5CA
:105103000CC3940A501B80C4850C0AE50AC3940A95
:10511300500FE50845096009AA08AB09A90A12124C
:1051230082A90A7410024E0174F4121A7189097566
:10513300081574FF6A700374FF6B70277E00AC0957
:105143007A027B00EEF9121264E960037508000E1F
:10515300EEC3940A40E8E50960537AB27B12120C5D
:105163004C804A120C1C8A0A8B0BAE0AAF0BEE4F13
:1051730060387C007D00EE2405FAE43FFB8E828FCD
:1051830083A3A3A3A3E0F9121246E9F9C3940A5037
:105193000CAC097A027B00121264750800E5096001
:1051A3000CEEFAEFFB1212B28003750814024E13D1
:1051B300121A177F04021B4374F2121A71ECFEEDEC
:1051C300FF750815740E121A4DE0F50AA3E0F50BEE
:1051D30074FF6A700374FF6B7021750900AC0AAD2C
:1051E3000BEEFAEFFBA90912126AE96003750800D6
:1051F3000509E509C3940A503F80E2120C1C8A8218
:105203008B83E5824583602D7C007D00E582240548
:10521300FAE43583FBA3A3A3A3E0F9121246E9F949
:10522300C3940A5013AC0AAD0BEEFAEFFB12126AE9
:105233007508008003750814A9080256BFC082C010
:1052430083900779EAF0A3EBF090075FE0FC7D0021
:105253007A267B001206AC90075FE0F91209700210
:105263005D3874EF121A7174EC121A01EAFEEBFF47
:10527300EE240CF50CE43FF50DEE2405F50EE43FAA
:10528300F50FEE2409F50AE43FF50BEE2403F508C8
:10529300E43FF5098E828F83A3A3E024FA7003020F
:1052A300553B24FD700302545D14700302533B14F9
:1052B300601024FD700302543114700302549402ED
:1052C30055411260536049E0F5838882124E188875
:1052D3000E890FE8450F6038850C82850D83E0F554
:1052E3000C780C121C88EE240BF582E43FF583E066
:1052F300F9850A82850B831258DE0A0A0AAB0985EF
:105303000E82850F83121A6F7401121A1702554108
:10531300850A82850B83121C9B9007751218E31272
:1053230007487402121A17E970030255417901857F
:105333000A82850B8302550B7510008E828F83A31F
:1053430085820A85830BE060030253FE850E828506
:105353000F83E0A2E040030253FE9008131260564D
:1053630060030253FE7C0E7D007900AA18AB19126C
:105373001432850C82850D83125D03EA4B60107530
:105383000C06750D00780C121C84EA2410801B1285
:105393005CFD120C1CEA4B7003025541750C06753B
:1053A3000D00780C121C84EA2405FCE43BFD740216
:1053B300121A5F12141A7402121A17850E82850FBD
:1053C30083E0A2E25004D2F08002C2F0A2F0E43300
:1053D300F8740C121A4DE048F0EEFCEFFDAA18AB7E
:1053E3001912127CE970117A027B0090075FE0F9D1
:1053F30012146E7900025543751015126053700331
:10540300025541125CC77003025541850A82850B20
:1054130083E0FC790112554D121A6FE510700302F7
:105423005541FC7903125CFD125CAD0255361260E6
:10543300537003025541125CDA124E18890BE8458A
:105443000B70030255418E828F83A3E0FC79021215
:105453005CFD8882850B830255367C007D00EE243B
:1054630004FAE43FFB850882850983E0F9121246BA
:10547300E9F8C3940A4003025541EE240AFCE43FD1
:10548300FD7A0475F006E8A42425F9121552025595
:1054930041125CFD900774E060079017FCE0F9800F
:1054A3006A9017F9E0700479058060120C1C8A0C6D
:1054B3008B0DA80CA90DE8497003025541E824049B
:1054C300F50CE439F50D8E828F83A3A3A3A3A3A3C5
:1054D300A3E0A2E0503A850C82850D83E0FE6030A4
:1054E300850A82850B83A3E054027024740E121A7A
:1054F30067E82405FAE439FBEEF9121246E9701065
:105503007903850882850983125D03120742802E81
:10551300AC0EAD0F850C82850D83E0F9125CFD1294
:1055230012BE1260536017125CC760127C007900D0
:1055330012554D121A6F8006125CFD12124079014A
:105543007414121A177F09021B4385088285098385
:10555300E0FAA3E0FB8E828F832274F5121A717432
:10556300F2121A01EAFE8C0A75F006E9A42420F56A
:1055730008AC18AD197A0EF9121558E970467C0675
:1055830079FFAA18AB19121492E97038740C121A25
:105593004D125D03EAF8E50A6005EEC8488004EEA3
:1055A300F4C858F8EA687001EB6015740C121A4DD0
:1055B300E8F0A3E4F0AC18AD197A0EA9081215525D
:1055C300790180027900740E121A177F03021B43BC
:1055D30074F2121A7174E6121A01890A8A088B0985
:1055E300ECFEEDFF740C121A677A0E75F006E9A44F
:1055F3002420F9121558E960030256B87C0679FF96
:10560300740C121A5F121492E960030256B8747094
:10561300250AF50BAC18AD197A0CF9121558E96087
:10562300030256B4AA18AB19121276E5084509709D
:105633001D7C0C7900AA18AB19121492E970727CC4
:105643000C7D007900AA18AB191214328051AC18E2
:10565300AD19AA08AB091212708A0C8B0DA80CA9FC
:105663000DE8497022EE4F604CAC18AD197A007BFF
:1056730000121270EAF8EBF9EA4B603988828983E9
:10568300E508F0A3E509F0125733FAEE6A7001EF6B
:10569300601FEEF04F700888828983E4F0A3F0AABC
:1056A30018AB19121276AC18AD197A0CA90B121596
:1056B30052790180027900741A121A177F06021BAD
:1056C3004374F7121A717E00EE75F003A4F8A9F083
:1056D300EC28F8ED1256F7E06A7003A3E06B70064E
:1056E300E8FAE9FB800B0EEEC3940440DB7A007BFF
:1056F30000025A1639F9888289832274F7121A71C3
:105703007C00EC75F003A4F8A9F0EA28F8EB125634
:10571300F7E0F4FEA3E0F4FF88828983EEF0A3EFC1
:10572300F0125733F4F00CECC3940440D5025A162C
:10573300E82402F582E439F583E02274F4121A7145
:1057430074F4121A01EAFEEBFF8C088D099008131A
:10575300126056704FEE4F70030258B7EC45097054
:10576300030258B7121288E99017FFF0C3940A4056
:1057730033750B007C0679FFE50B75F00EA4FAABCD
:10578300F0747B2AFA74073BFB121492E96003025C
:105793005818050BE50BC3940A40D9750A0AE50AA4
:1057A3009017FFF09017FFE0C3940A40030258B725
:1057B30075F006E0A4FB900813126056705CEEFCD3
:1057C300EFFD7A0E74202BF91215527C0C7D0079B3
:1057D300FFAA18AB19121432AC18AD197A0C901732
:1057E300FFE02470F9121552750A0E750B00780A42
:1057F300121C84EEFCEFFD9017FFE0125976121491
:105803001A7402121A17900813E508F0A3E509F0B9
:1058130079000258B9850B0A8084E0C8240612581F
:10582300D260197A1B74212BF91215521258BE2417
:1058330006F582E438F583E4F0A380D31258BE243E
:105843000A1258D260107A1B74222BF912155212C5
:1058530058BE240A80DB1258BE240C1258D26010A2
:105863007A1074232BF91215521258BE240C80C1DE
:105873001258C71258D260307A1074242BF91215BB
:10588300521258C7F582E438F583E02410FCA3E0F4
:105893003400FD7A0475F0069017FFE0A42425F97F
:1058A3001215521258C78089900807E0600312123C
:1058B300C41212B87901740C0251B3900813E0F8C2
:1058C300A3E0C822900813E0F8A3E0C8240822F557
:1058D30082E438F5831258DEEC4D22E0FCA3E0FDB0
:1058E3002274F4121A7174F2121A01EAFEEBFFE940
:1058F300C3940A5004EE4F700479028034AC18AD9F
:10590300197A0E75F006E9A42420F9121558E9F561
:1059130008701C750A06750B00780A121C84740241
:10592300121A67EEFAEFFB12141A7402121A17A96D
:1059330008740E0251B374F4121A71EAFEEBFF7588
:105943000800750A06750B00780A121C84EEFCEF3A
:10595300FDE50812597612142C7402121A17E96025
:1059630004A908800B0508E508C3940A40D4790A02
:105973000251B675F00EA4F8A9F0747B28FA7407E7
:1059830039FB2274F7121A71750800E50875F00ED9
:10599300A4F8A9F0747B28FE740739FFEEFCEFFD31
:1059A3007A0E75F006E508A42420F9121558E9606B
:1059B300297C067D0079FFEEFAEFFB1214327C0698
:1059C3007D0079FFEE2CFAE43FFB121432EE240C37
:1059D300F582E43FF583E4F0A3F00508E508C394FA
:1059E3000A40A8900807E060031212C41212B8809C
:1059F3002274F7121A717E007F007C06EF1259762B
:105A030074FFF9121492E970010E0FEFC3940A4068
:105A1300E9EEF97F01021B4374F7121A717E00EE5F
:105A2300F91212A0E9F90EEEC3940A5003E960EFEC
:105A330080E174F3121A7174CB121A01890890175A
:105A4300FFE06508701B7A017B0090075FE0F912A5
:105A530014747A027B0090075FE0F9121474121237
:105A6300D075F006E508A4FF74202FFE7427121AE0
:105A7300677A0EEEF9121558E96003025B3D7C0666
:105A830079FF7427121A5F121492E96003025B3DD7
:105A93007C0E7D0079FF7427121A5F1214327C1B6F
:105AA3007D0079FF740C121A5F1214327C0C7D0096
:105AB30079FFAA18AB191214327427121A677A0ED7
:105AC300EEF9121552E9FE740C121A677A1B74214F
:105AD3002FF9121552E9F509740C121A677A1B741F
:105AE300222FF9121552E9F50A740C121A677A106B
:105AF30074232FF9121552E9F50B740C121A677AF5
:105B03001074242FF9121552E9F50C740C121A674C
:105B13007A0474252FF9121552E9FFAC18AD197ADE
:105B23000C74702508F9121552E9F8E509450A4580
:105B33000B450C4F48CE4EFE80027E00EEF97435C5
