:020000040000FA
:10000000020759C2AFF508810FFFFFC2AFF50881A3
:1000100021FFFFC2AFF5088133FFFFC2AFF50881B2
:1000200045FFFFC2AFF5088157FFFFC2AFF508815A
:1000300069FFFFC2AFF508817BFFFFC2AFF5088102
:100040008DFFFFC2AFF508819FFFFFC2AFF50881AA
:10005000B1FFFFC2AFF50881C3FFFFC2AFF5088152
:10006000D5FFFFC2AFF50881E7FFFFC2AFF50881FA
:10007000F9FFFFC2AFF508A10BFFFFC2AFF508A162
:100080001DFFFFC2AFF508A12FFFFFC2AFF508A10A
:1000900041758701002274FC12071F750A04750B55
:1000A00000780A120748740212078E7A007B0079E2
:1000B000081205577402120704850D82850E83E02D
:1000C000F47003A3E0F470030201FB850D82850E3A
:1000D00083E0F8A3E0F9E84970030201FB7402121F
:1000E0000784E0687003A3E069701075090102409D
:1000F00030C2AF75C9AB75C95B80FE53BEFBE59DD1
:10010000A2E650FAE5C654804449F5C6E59E547F00
:10011000644970F853C67FE59EA2E740FA53C68053
:10012000E59E547F70FA43BE049062707408F075C7
:100130000A00F50B780A1207487C807D017A007B63
:100140000079081205577402120704900186E0F541
:100150000AA3E0F50B7409780A120768E50A240877
:10016000FF53B4F375BC0075BC007CFC7D077A04BA
:100170007B0079081203807E09EFC3940A401C803B
:100180000774086E70027E467C007D087A007B0052
:10019000EEF91203800EEEC39F40E6A8BD850D82E6
:1001A000850E83E8F9E5BCF8E0687003A3E06970A8
:1001B0004A850D82850E83E0F8A3E0F974021207E8
:1001C00084E8F0A3E9F0850D82850E8374FFF0A327
:1001D000F07409F5D575D480750A01780A120748BC
:1001E000740212078E7A007B101205DD740212076A
:1001F00004C2AF75C9AB75C95B80FE750A04780A85
:10020000120748740212078E7A007B0079011205EA
:10021000577402120704850D82850E83E0F4700383
:10022000A3E0F47003020370850D82850E83E0F86D
:10023000A3E0F9E84970030203707402120784E036
:10024000F8A3E0F9850D82850E83E0687003A3E0D2
:10025000697010750900020830C2AF75C9AB75C965
:100260005B80FE74FF68700374FF696003020370B3
:1002700053BEFBE59DA2E650FAE5C654804449F51D
:10028000C6E59E547F644970F853C67FE59EA2E799
:1002900040FA53C680E59E547F70FA43BE049062D4
:1002A000707408F0750A00F50B780A1207487C8014
:1002B0007D017A007B007901120557740212070450
:1002C000900186E0F50AA3E0F50B7409780A12079D
:1002D00068E50A243FFF53B4F375BC0075BC007C8D
:1002E000FC7D077A047B0079011203807E02EFC354
:1002F0009403401C800774086E70027E467C007D6B
:10030000087A007B00EEF91203800EEEC39F40E6F0
:10031000A8BD850D82850E83E8F9E5BCF8E068701C
:1003200003A3E069704A850D82850E83E0F8A3E09F
:10033000F97402120784E8F0A3E9F0850D82850EB6
:100340008374FFF0A3F07409F5D575D480750A01A4
:10035000780A120748740212078E7A007B0212058F
:10036000DD7402120704C2AF75C9AB75C95B80FEAC
:1003700043BE03120091C2AF75C9AB75C95B80FE65
:1003800074F7120643E9FEAFC7740F5EF50A750BEA
:1003900000740B780A120735EA2400F8EB350BF9E4
:1003A000E82400E93480F9A2AFE433F50AC2AFEEE5
:1003B000C4540FFAE5C754F84AF5C7E9900980F02C
:1003C000E8A3F0A37470F0A374BDF0EC900985F07D
:1003D000EDFC900984E054E04CF09009867420F024
:1003E000A37442F07409F5D575D48075D601000068
:1003F00000000000000000000075D701E5D7A2E072
:1004000040FA8FC7E50AA2E092AF7F020206A9E593
:10041000096007E508D2AF024033E508D2AF020811
:1004200033E5096007E508D2AF02403BE508D2AFEB
:1004300002083BE5096007E508D2AF024043E50842
:10044000D2AF020843E5096007E508D2AF02404B8E
:10045000E508D2AF02084BE5096007E508D2AF0214
:100460004053E508D2AF020853E5096007E508D21A
:10047000AF02405BE508D2AF02085BE5096007E523
:1004800008D2AF024063E508D2AF020863E5096015
:1004900007E508D2AF02406BE508D2AF02086BE572
:1004A000096007E508D2AF024073E508D2AF020841
:1004B00073E5096007E508D2AF02407BE508D2AFDB
:1004C00002087BE5096007E508D2AF024083E50832
:1004D000D2AF020883E5096007E508D2AF02408B7E
:1004E000E508D2AF02088BE5096007E508D2AF0244
:1004F0004093E508D2AF020893E5096007E508D20A
:10050000AF02409BE508D2AF02089BE5096007E512
:1005100008D2AF0240A3E508D2AF0208A3E5096004
:1005200007E508D2AF0240ABE508D2AF0208ABE561
:10053000096007E508D2AF0240B3E508D2AF020870
:10054000B3E5096007E508D2AF0240BBE508D2AFCA
:100550000208BB0002055374F6120643890C740F9F
:10056000550CF50A750B00740B780A120735EA244E
:1005700000F8EB3480F9E82400E9350BF985C70B66
:10058000A2AFE433F50AC2AFE50CC4540FFAE5C7D5
:1005900054F84AF5C7740A120784E0FEA3E0FFEEA0
:1005A0004F602CEEFAEFFB88828983E08C828D838A
:1005B000F088828983A3A882A9838C828D83A3ACCF
:1005C00082AD83EA24FF1AEB34FFFBEA4B70D88537
:1005D0000BC7E50AA2E092AF7F030206A974F712E7
:1005E0000643ED900980F0ECA3F0A37462F0A374CD
:1005F00073F0A3E0541FF07409120784E0F50AA316
:10060000E0F50BE50A333354FC900985F074067865
:100610000A120768E50A900984F09009867412F0BE
:10062000A37442F075D11E75D601EA906271F0EBA9
:10063000A3F0906270E0D2E1F0E0A2E740FB7F021D
:100640000206A9250DC582C0E0E50E34FFC583C0B2
:10065000E0E50DC3958224F910AF0885830E8582ED
:100660000D800885830E85820DD2AFCEF0A3E520E4
:10067000F0A3780AE608F0A3DEFAEFF0A3E5812400
:10068000FBF8E608F0A3E608F0A30808E608F0A3E4
:10069000E608F0A315811581D0E0FED0E0F81581C1
:1006A0001581E8C0E0EEC0E022850E83850D82E072
:1006B000A3FEE0A3F520780AE0A3F608DFFAE0A3A2
:1006C000FFE0A3C0E0E0A3C0E0E0A3C0E0E0A3C07F
:1006D000E010AF0885820D85830E800885820D8528
:1006E000830ED2AFD083D08222250DF58210AF08C1
:1006F000F50D400C150E8008F50D4002150ED2AF19
:10070000850E832200C0D0250D10AF08F50D500CCA
:10071000050E8008F50D5002050ED2AFD0D022256F
:100720000D10AF08F50D400C150E8008F50D4002B8
:10073000150ED2AF22700422600D18C6C333C6084E
:10074000C633C6D5E0F4182274028000C0E0F40479
:100750001206E9D0E01207772275D00075813F7547
:100760000D80750E01020796600C08C6C313C618EB
:10077000C613C6D5E0F422CAC0E0E6F0A308DAFA50
:10078000D0E0FA22250DF582E4350EF58322250D01
:10079000FCE4350EFD2212009612079C000000803A
:1007A000FBFFFFFFFFFFFFFFFFFFFFFFFFFFFFFF5D
:1007B000FFFFFFFFFFFFFFFFFFFFFFFFFFFFFFFF49
:1007C000FFFFFFFFFFFFFFFFFFFFFFFFFFFFFFFF39
:1007D000FFFFFFFFFFFFFFFFFFFFFFFFFFFFFFFF29
:1007E000FFFFFFFFFFFFFFFFFFFFFFFFFFFFFFFF19
:1007F000FFFFFFFFFFFFFFFFFFFFFFFFFFFFFFFF09
:100800007806FFFF0C00007C41414141FFFFFFFFE4
:10081000FFFFFFFFFFFFFFFFFFFFFFFFFFFFFFFFE8
:10082000000102030405060708090A0BFFFFFFFF8A
:10083000020DFA021BADFFFFFFFFFFFFFFFFFFFFEF
:10084000FFFFFFFFFFFFFFFFFFFFFFFFFFFFFFFFB8
:10085000FFFFFFFFFFFFFFFFFFFFFF02231EFFFF62
:10086000FFFFFF0222F5FFFFFFFFFFFFFFFFFFFF7C
:10087000FFFFFFFFFFFFFFFFFFFFFFFFFFFFFFFF88
:10088000FFFFFF021C23FFFFFFFFFFFFFFFFFFFF34
:10089000FFFFFFFFFFFFFFFFFFFFFF0222A8FFFF99
:1008A000FFFFFFFFFFFFFFFFFFFFFF0222CEFFFF63
:1008B000FFFFFF021A0301120A0A0A02578401000D
:1008C000001C84025184010000D5151066820100CD
:1008D000008202024D84030000850202518401005F
:1008E00000D61510568203000087020251840100D1
:1008F00000D715104682030000D815120A020A0A12
:100900000257840100001684025184010000191668
:100910001066810100008A02024D840300008E02ED
:100920000251840100001A1610D6800300009002C4
:100930000251840100001C1610F6800300001D16F1
:100940000251840100001B1610E680010000910294
:10095000024D84030000A102FF0000B40000280043
:100960002800283075A000A000A000A0000008000A
:1009700008E001F00010001000100010001000103E
:100980000050005000500010001000D00700000080
:100990000000000F00010005003075070010000185
:1009A0000081FF00000000FFFFFFB725D525BD2512
:1009B000F925FF02020208025000A0000000E8032F
:1009C0000257840100003184025184010000D116D5
:1009D000024B84010000E102025184010000D216A2
:1009E000024984010000F702025184010000D3167D
:1009F000024784010000F902025184010000D4166C
:100A0000024584080000FA02025184010000D51654
:100A1000024384010000D616FF0100FF2002578424
:100A20000100002B840251840100003A1702418426
:100A30000000000000024D84030000280317006539
:100A40002C652C652C652C652C652C652C652C651E
:100A50002C652C652C652C652C232F352F1D2F1212
:100A600008080257840100002E840251840100000E
:100A70007D1710A6820100006407024D8403000068
:100A80006A070251840100007E171096820200005E
:100A90006C070251840100007F171086820200005B
:100AA0007407020202020202020202010D000000AB
:100AB00010010257840100001F84025184010000CC
:100AC000C01702398401000075070251840100003B
:100AD000C117023B84010000C5800251840100005F
:100AE000C217023D840100006D83025184010000A1
:100AF000C317023F84010000B3800251840100004B
:100B0000C417025D84010000688302518401000063
:100B1000C517025F84010000728302518401000046
:100B2000C617026784010000A18002518401000001
:100B3000C717025584010000E682025184010000BB
:100B4000C817026184010000C91701E80305771086
:100B50000A120A0A0A0257840100002884025184FA
:100B60000100006F181016820100003908024D8440
:100B70000300003F08025184010000701810068233
:100B80000300004108025184010000711810F68131
:100B90000300007218038000008070006180120A58
:100BA0000A0A0257840100002284025184010000D5
:100BB000BC1810D681010000CC08024D840300004F
:100BC000D008025184010000BD1810C68103000046
:100BD000D208025184010000BE1810B68103000043
:100BE000BF18120A0A1E0257840100003484025101
:100BF000840100000019109681010000D508024D03
:100C000084030000D9080251840100000119107604
:100C100081030000DB0802518401000002191076F4
:100C2000820300000319120A0A0A02578401000015
:100C30001384025184010000441910468101000010
:100C4000DE08024D84030000E40802518401000024
:100C50004519103681030000E608025184010000A6
:100C6000461910168103000047191C025784010021
:100C7000001984025184010000881910508002007C
:100C800000E708024D84030000E908024F840100D8
:100C900000F4820251840100008819106080020073
:100CA00000E808024D84030000EB08024F840100B5
:100CB000000183FFFFFFFFFF000130750302010603
:100CC0000000000000000000000000000000000024
:100CD000000000000000000000000000FFFF060010
:100CE000800CE8030A0953656E736F7254616705DF
:100CF0001250002003020A00020105544920424C10
:100D0000452053656E736F722054616700D007E809
:100D100003E803E803E803E803893500008F35950D
:100D2000359B35A735A135AD35B335B935104B6594
:100D30007920507265737320537461746500025793
:100D40008401000025840251840100004B1A0265D1
:100D500084000000D215024D84030000D315024F19
:100D6000840100004C1AE5C754F84405F5C7790121
:100D70002200000080FB120D66B90003020DE4E4BE
:100D800079217808B800028004F709D8FCE47929B1
:100D90007802B800028004F709D8FCE49002807859
:100DA0005679148002F0A3D8FCD9FA781C9008B6C2
:100DB0007A01BA00028007E493A3F608DAF97AD53B
:100DC0007B159008B778B079058015E493A3AD82C0
:100DD000AE838A828B83F0A3AA82AB838D828E83BB
:100DE000D8E9D9E775828B7583FF7406120E0C75EE
:100DF000827175830D7400120E0C75D00075813FE1
:100E0000751A80751B02759F00020D76C09FF59FB5
:100E1000E473D09F22D083D082C09FE493C0E0745B
:100E20000193C0E0740293F59F22E066701008A35E
:100E3000E066700A08A3E066700408A3E06622C3B7
:100E4000E7960809E7960809E7960809E79622C396
:100E5000E09608A3E09608A3E09608A3E09622C0D7
:100E60000AC3E096F50A08A3E096420A08A3E096B2
:100E7000420A08A3E096450A7001D3D00A22080866
:100E800008EAC0E0EBC0E086F0E7A4FA180986F0B3
:100E9000E7A42AFA180986F0E7A42AFA180986F0C6
:100EA000E7A42AFA1986F0E7A4FBE5F02AFA190864
:100EB00086F0E7A42BFBE5F03AFA190886F0E7A4E0
:100EC0002BFBE5F03AFA18180986F0E7A4C5F02BD9
:100ED000FBE43AFA1908E7C5F0C6A426F6E5F03BAC
:100EE000FBE43AFA1886F0E7A4F6E5F00826F6E403
:100EF0003B08F6E43A08F6D0E0FBD0E0FA22E4CF73
:100F0000C0E0E4CEC0E0E4CDC0E0E4CCC0E075F0E9
:100F100020E626F608E633F608E633F608E633F66A
:100F2000181818EC33FCED33FDEE33FEEF33FFC33E
:100F3000EC9709ED9709EE9709EF97191919400FEA
:100F4000FFEC97FC09ED97FD09EE97FE191906D500
:100F5000F0BFECF709EDF709EEF709EFF7191919EA
:100F6000D0E0FCD0E0FDD0E0FED0E0FF226016082B
:100F70000808C6C313C618C613C618C613C618C6B3
:100F800013C6D5E0EA22700908080822601618186E
:100F900018C6C333C608C633C608C633C608C63328
:100FA000C6D5E0EA22E627F60809E637F60809E69C
:100FB00037F60809E637F622E026F608A3E036F60B
:100FC00008A3E036F608A3E036F622E026F008A3F0
:100FD000E036F008A3E036F008A3E036F022C3E6DE
:100FE00097F60809E697F60809E697F60809E697DE
:100FF000F622C3E096F008A3E096F008A3E096F08E
:1010000008A3E096F022E056F608A3E056F608A3FF
:10101000E056F608A3E056F622E056F008A3E056A4
:10102000F008A3E056F008A3E056F022E0F608A38B
:10103000E0F608A3E0F608A3E0F622E6F008A3E64F
:10104000F008A3E6F008A3E6F022E0FAA3E0FBA391
:10105000E0FCA3E0FD22EAF0A3EBF0A3ECF0A3EDAB
:10106000F022E0F8A3E0F9A3E0FAA3E0FB22E8F025
:10107000A3E9F0A3EAF0A3EBF022CAC0E0E6F0A3F4
:1010800008DAFAD0E0FA22CAC0E0E0A3C582CCC5F3
:1010900082C583CDC583F0A3C582CCC582C583CD6F
:1010A000C583DAE6D0E0CA22C3E498F8E499F912DD
:1010B00010E98026C3E49AFAE49BFBE920E7E912F1
:1010C00010E9E498F8E499F922C3E498F8E499F96E
:1010D0001210E9E498F8E499F9C3E49AFAE49BFB66
:1010E00022EB20E7CFE920E7E0B90010BB0008E8D9
:1010F0008AF084F8AAF022E4FBC8FA22EB70227B83
:1011000010C833C8C933C9335007C39AC3DBF28050
:10111000069A50012ADBEAC833F4C8C933F4C9FA85
:101120002275F008E4C833C8C933C933C99AC99BCA
:101130005004C92AC93BD5F0ECFBC833F4C8E4C954
:10114000FA22600D08C6A2E713C618C613C6D5E07A
:10115000F322600C08C6C313C618C613C6D5E0F444
:1011600022700422600D18C6C333C608C633C6D524
:10117000E0F41822251A10AF08F51A400C151B8050
:1011800008F51A4002151BD2AF2200C0D0251A1054
:10119000AF08F51A500C051B8008F51A5002051B04
:1011A000D2AFD0D022251AF58210AF08F51A400C24
:1011B000151B8008F51A4002151BD2AF851B832230
:1011C000251AF582E4351BF58322251AF8E4351B30
:1011D000F922251AFAE4351BFB22251AFCE4351BFB
:1011E000FD22E473251AC582C0E0E51B34FFC583E8
:1011F000C0E0E51AC3958224F810AF0885831B85EB
:10120000821A800885831B85821AD2AFCEF0A3E5AF
:1012100020F0A3780AE608F0A3DEFAEFF0A3E58158
:1012200024FAF8E608F0A3E608F0A3E608F0A3081D
:1012300008E608F0A3E608F0A315811581D0E0FECA
:10124000D0E0F8158115811581E8C0E0EEC0E022FC
:10125000251AC582C0E0E51B34FFC583C0E0E51A4E
:10126000C3958224F910AF0885831B85821A8008F4
:1012700085831B85821AD2AFCEF0A3E520F0A37838
:101280000AE608F0A3DEFAEFF0A3E58124FBF8E616
:1012900008F0A3E608F0A30808E608F0A3E608F0C3
:1012A000A315811581D0E0FED0E0F815811581E805
:1012B000C0E0EEC0E022851B83851A82E0A3FEE039
:1012C000A3F520780AE0A3F608DFFAE0A3FFE0A385
:1012D000C0E0E0A3C0E0E0A3C0E0E0A3C0E0E0A382
:1012E000C0E010AF0885821A85831B800885821AAA
:1012F00085831BD2AFD083D082020E12851B8385DB
:101300001A82E0A3FEE0A3F520780AE0A3F608DF46
:10131000FAE0A3FFE0A3C0E0E0A3C0E0E0A3C0E0E8
:10132000E0A3C0E010AF0885821A85831B80088582
:10133000821A85831BD2AFD083D08222C0D0251AD7
:10134000C582C0E0E51B34FFC583C0E0E51AC39544
:101350008224F310AF0885831B85821A8008858359
:101360001B85821AD2AFC8F0A3E9F0A3EAF0A3EB81
:10137000F0A3790AE709F0A3D8FAECF0A3EDF0A303
:10138000EEF0A3EFF0A3D0E0F0A3D0E0F0A3D0E024
:10139000F0A3E520F0A3E5F0F0A322851B83851AD6
:1013A00082E0C0E0A3E0F9A3E0FAA3E0FBA3780A9F
:1013B000E0F608A3DFFAE0FCA3E0FDA3E0FEA3E073
:1013C000FFA3E0C0E0A3E0C0E0A3E0F5D0A3E0F518
:1013D00020A3E0A3F5F010AF0885831B85821A8057
:1013E0000885831B85821AD2AFD082D083D0E0F8E3
:1013F000D0E03274048006740280027401C0E0F40C
:10140000041211A5D0E012107A2274048004740230
:101410008000CCC0E0EDC0E0E51AC39CCCAD1B5011
:10142000011D10AF068C1A8D1B80068C1A8D1BD2E5
:10143000AF121087D0E0FDD0E0FC22D083D082E94B
:10144000C0E0E493A3C386F0C5F095F0F908E493F7
:10145000A386F0C5F095F0700BE493A3C399400503
:10146000E9048002A3E475F002A42582F582E5F088
:101470003583F583D0E0F9E493A3C0E0E493C0E0C2
:1014800022D083D082ECC0E0EDC0E0E493A3FCE482
:1014900093A3FDED4C600D1214CDEC24FFFCED3454
:1014A000FFFD80EFE493A3FCE493A3FDED4C600DFE
:1014B00012150CEC24FFFCED34FFFD80EFD0E0FDB5
:1014C000D0E0FCE493A3C0E0E493C0E022C0E0C31A
:1014D000E49396087401939618400FE4936670089D
:1014E00008740193661870007019A3A3C3E493965F
:1014F000087401939618A3A3400DD0E0D0E0D0E08B
:101500000214BDA3A3A3A3A3A3D0E022C0E0C0F014
:1015100088F0E4936670080874019366187000A858
:10152000F0A3A3700BD0F0D0E0D0E0D0E00214BD67
:10153000A3A3D0F0D0E022FF74F6121250EAFEEB23
:10154000FF8C0A8D0BEE2434F8E43FF9E8FCE9FD4A
:10155000EE243512184BFAEE243712184BF8850A90
:10156000F0A4C885F00C850BF0A4250CF9EA28F846
:10157000E439F97A257B001210E9EA8C828D83F038
:10158000FA131313541FF8EE28F8E43FF9E8245D2A
:10159000F582E439F583E0C0E074075AF8D0E0B88A
:1015A00000028004C313D8FCA2E0EE50082434F5F6
:1015B00082E43F8018243612184BF5F0EA84A8F034
:1015C000EE28F8E43FF9E82438F582E439F583E0C1
:1015D000F97F030212FC74F7121250EAFEEBFFEEE1
:1015E000243412184BC0E0EE2435F582E43FF58335
:1015F000D0E0F08E828F83A3A3A3A3A3A3A3C08272
:10160000C0838E828F83A3A3A3A3A3E0F8A3E0F9F2
:10161000D083D082E0C398F50AA3E099F50BEE24BD
:101620007F12184B6401703EEE2480F582E43FF592
:1016300083C082C0838E828F83A3A3A3A3A3E0244D
:101640000108A3E03400F9D083D082E0687003A3DE
:10165000E06970127CD37D04122BA5EE247FF58205
:10166000E43FF583E4F0AC0AAD0BEEFAEFFB1215A4
:1016700038E9F912229A7F020212FCC082C08385E7
:101680001A82851B83E0F8A3E0F9C3EA9CEB9D5026
:1016900010C3EC98ED99401BC3EA98EB9950148065
:1016A0000EC3EA98EB994007C3EC98ED9940047992
:1016B0000180027900D083D08222EAC39CFAEB9D9C
:1016C000FB2274EF121250900398E064086005E06A
:1016D0006407702A9061C8E060249003C6E0F4605B
:1016E0001DE0F875F00BA4C8AAF02AF974C828FE0A
:1016F000740339FF8E828F83A3A3A3E070030217C4
:10170000D0906060E0C0E0EE2468F582E43FF583AD
:10171000D0E0F0750E43750F05750A00750B00E5F6
:10172000D914F50CE5D95403F51060127403651053
:101730006043E50C600AEE246712184B7002807556
:1017400090053EE06401601F12184860047A04802E
:10175000027A00E50CC39AFA95E0FB122A4F8A0A36
:101760008B0BEA450B7005122DEB80641218487044
:10177000048A0E8B0FE50C6012850E82850F83F5AF
:101780000DE5D9F0A3150DE50D70F612184860446B
:1017900074FC250CF50C780E1213F7AC0CA910EEA6
:1017A000FAEFFB122C5F740212118AE97026AA0A62
:1017B000AB0B123427793D8E828F83A3A3A3A3E0C2
:1017C000FA7B001228B1EEFAEFFB122BC9122C7132
:1017D0007900806F740365106051850C12751300D9
:1017E00078121213F7AC0EAD0FAA0AAB0B122C2312
:1017F000740212118AEE246812184B64807004740B
:101800007F8001E0F50E780E1213FBE510F50E78DF
:101810000E1213FBA90CAC0AAD0B9003C6E0FA7BC9
:1018200000122887740212118A8013900398E064D2
:1018300008600BAC0EAD0FEEFAEFFB122CE9122D87
:10184000F779017F0A0212FCEE2483F582E43FF56A
:1018500083E02274F212125074FC121174EAFEEB4F
:10186000FF890BA2AFE433F50AC2AF02191DE06095
:101870001B780E1213F7AC0DA910EEFAEFFB122C29
:1018800059740212118A7404250DF50D7401250D89
:10189000F5D98510D9E50D6018F50C850E82850FF8
:1018A00083E0F5D9A385820E85830F150CE50C70B6
:1018B000EA75E195EE2463F8E43FF97A007B00A233
:1018C000AFE433F50DC2AF88828983E0FCA3E0FD6D
:1018D000EC4D603A88828983E0FAA3E0FB8A828B30
:1018E00083E0FCA3E0FD88828983ECF0A3EDF08A1D
:1018F000828B83E4F0A3F088828983E0FCA3E0FD7F
:10190000EC4D700A88828983A3A3E4F0A3F0E50D6F
:10191000A2E092AF1234279004DAE004F0EE2463E0
:1019200012184BF8A3E0F9E8496064EE246312183A
:101930004B2402F8A3E03400F988828983E58224ED
:1019400002F50EE43583F50FE0F50DA3E0F510EE9A
:10195000246212184B640170369061D0E0F81218BE
:101960004860047C0480027C007480C398FA95E08F
:10197000FBE50D2CF8E43400F9E82402F8500109E5
:10198000C3EA98EB99A2D265D033400302186E9057
:1019900004DAE0604D9004DBE0F89004DAE0C398EC
:1019A000500C7402650B703A9004DCE060348E8257
:1019B0008F83A3A3A3A3E0851A82851B831219F248
:1019C00074021211C0E81219F29004D9E028F074E0
:1019D000021211DAAA1AAB1B79011228DB9004DA81
:1019E000E4F0E50AA2E092AF740412118A7F0702C4
:1019F00012FCF0A3E4F09004DAE0F8228521878558
:101A000022C622C0E074EB12133CA2AFE433F50A05
:101A1000C2AF759B00906182E0A2E05030E591A2D8
:101A2000E0502A7591FE740165217021121B9612F7
:101A30002D37121B8412140A122044740412118AC6
:101A4000E9640170057901122D7F1216C29061823E
:101A5000E0A2E5505DE591A2E550577591DF900356
:101A600098E064076005E06408702F121B9674010B
:101A70006521703E122D37121B8412140A12204465
:101A8000740412118AE9640170057901122D7F79BD
:101A900001EEFAEFFB1218538018E0640D701390FA
:101AA00003BAE004F064287002E4F07A00E0F9126E
:101AB0002DFD906182E0A2E64003021B59E591A250
:101AC000E64003021B597591BF900398E0640570CE
:101AD00008122D1F122D2B8003122D2575210012A7
:101AE0002D8BE9900399F07900122D7F122B157A36
:101AF000017B00900397E0F91233F7907803E064DC
:101B0000427056900542E014F0704EC2AF121B10A6
:101B100000782AD0E0F618D0E0F6E59F5407F87078
:101B200005750FFF8003750F7FC4C0E07829E6F5C7
:101B30000C08E6550FF50D740B780C121152D0E01D
:101B4000250CF8906270E0A2E740F8E8C333906299
:101B500072F0906270E0D2E0F0906181E0A2E35018
:101B600009E5E9A2E3500375E9F7A3E0A2E750090C
:101B7000E591A2E7500375917FE50AA2E092AF7F5D
:101B80000802139B8E828F83E0F8A3E0C82416F529
:101B900082E438F583229003C6E0F875F00BA4C800
:101BA000AAF02AF974C828FE740339FF22C0E0C0E5
:101BB000D0C082C083906183E0A2E05009E5BFA25B
:101BC000E0500375BFFEE0A2E15009E5BFA2E1507D
:101BD0000375BFFDE0A2E25009E5BFA2E250037524
:101BE000BFFBE0A2E35009E5BFA2E3500375BFF7D6
:101BF000E0A2E45009E5BFA2E4500375BFEFE0A204
:101C0000E55009E5BFA2E5500375BFDFE0A2E6504D
:101C100009E5BFA2E6500375BFBFD083D082D0D004
:101C2000D0E032C0E074F212133CE5A7A2E6500FF8
:101C3000E5A1A2E6500953A7BF75A1BF121C77E525
:101C4000A7A2E5500CE5A1A2E5500653A7DF75A1B8
:101C5000DFE5A7A2E15009E5A1A2E1500375A1FDCE
:101C6000E5A7A2E2500CE5A1A2E2500653A7FB753E
:101C7000A1FB7F0102139B74F71212507521019092
:101C80000398E064067015122C958A828B83A3A3B7
:101C9000A3A3A3A3E0FAA3E0FB122D0DA2AFE433AC
:101CA000FED2AF90039EE0640170187A207B009012
:101CB0000397E0F91235117A207B00900397E0F941
:101CC0001233FD906182E0D2E6F090053FE06021A2
:101CD00085C622801690039DE064017008E5C65415
:101CE000F84405F5C653BEFC1219FC740165216069
:101CF000E4EEA2E092AF7F020212FCFF8E238F245B
:101D0000858228858327851A82851B83E0CEA3E000
:101D1000CF852882852783EBC9EAC8EDCBECCA754D
:101D2000F010C3E833C8E933C9EA33CAEB33CBC395
:101D3000EA9EF526EB9FF525B35004AB25AA26ECC9
:101D400033CCED33CDD5F0DAAE23AF242274E912D3
:101D5000125074FA121174EAFEEBFF8C0C8D0D1206
:101D60002D43EAF8EBF9ECFAEDFB8E828F8312102B
:101D70006E900398E024F7C394055006751601028F
:101D80001EB4122C958A0A8B0BEA450B7003021EB7
:101D9000B1EEFCEFFDAA1AAB1B122D3D850A828520
:101DA0000B83A3A3780E12102C9083AF780E121021
:101DB00006851A82851B83781212102C9083AF78C7
:101DC00012121006780E7912120E3F501F780E79FB
:101DD00012120FDE9083C7780E120E5F4047850EF9
:101DE00016850F1785101885111980459083C785B2
:101DF00012168513178514188515197816790E1281
:101E00000FDE7816120E5F501C75160075170075E0
:101E1000180075190178167912120FDE7816790EEE
:101E2000120FA5800C75160175170075180075192D
:101E30000074097816120F869083FB780E12102C0E
:101E40007816790E120EFE850A82850B83A3A3A352
:101E5000A3A3A3121ED21210E9880E890FE4F51075
:101E6000F5117816790E120FA574041211C0121E06
:101E7000D21210E9E8FA8A0EE4F50F7816790E12FC
:101E80000E3F50077816790E120FDE900398E0642B
:101E900008600AE064066005E0640570209083BF76
:101EA0007816120E5F50169083BB7816120FB8800A
:101EB0000C751600751700751800751900850C82D1
:101EC000850D83781612103B740612118A7F10025A
:101ED00012FCE0F8A3E0F97AD07B032274F7121227
:101EE00050122D5590053DE064017010906245E45C
:101EF000F0A3F053F4F343FE0C5390F3122CFBE5E4
:101F0000C654B84441F5C6E59E5447644170F89004
:101F10006185740FF090053BE0F47002A3E0604E21
:101F200090053CE0600814601B14602E8040750A28
:101F300001750B0090053BE0780A121161E50AF487
:101F40005280802A750A01750B0090053BE0780AE3
:101F5000121161E50AF452908014750A01750B00A4
:101F600090053BE0780A121161E50AF452A079006D
:101F70007F020212FC74F7121250E9FEEAFF122DE2
:101F80005574016E700C7A807B00900397E0F91213
:101F900033F7903608E493F46008E493F9122B09C0
:101FA000800953C6B8E59E544770FA122D0190057A
:101FB0003DE064017003122B2790053BE0F47002B2
:101FC000A3E0604B90053CE0600814601A14602C9C
:101FD000803D750A01750B0090053BE0780A1211EF
:101FE00061E50A42808028750A01750B0090053B67
:101FF000E0780A121161E50A42908013750A0175B2
:102000000B0090053BE0780A121161E50A42A0122C
:102010002C958A0A8B0BA80AA90BE8496014E5E104
:1020200070FCE82414F582E439F583E0F46003E001
:10203000F5E174016F700A7A01900397E0F91234A8
:1020400081021F7074F11212508A0A8B0B8C0C8D56
:102050000D9083AF780A121006740F1211C0780E1B
:1020600012102C9083AF780E121006780A790E1297
:102070000E3F9083C75010780A790E120FDE780A4F
:10208000120E5F4014800E780E790A120FDE780E61
:10209000120E5F50047901800279007F080212FC61
:1020A00074ED1212508A0A8B0B8C0C8D0D9083AF3D
:1020B000780A12100674131211C0780E12102C90A8
:1020C00083AF780E121006780E790A120E3F401177
:1020D000780A790E120FDEAA0AAB0BAC0CAD0D809C
:1020E00022751200751300751400751501781279A8
:1020F0000E120FDE7812790A120FA5AA12AB13ACDA
:1021000014AD157F0C0212FC9083AF780A12102CCC
:102110008A828B83780A1210197F040212FC74F5EC
:102120001212508C828D83780A12102C8A828B8333
:10213000780A120FF2122176C3E09CF0A3E09D1200
:10214000216840229083A7780A12102C8A828B8300
:10215000780A120FCB8A828B83A3A3A3A3E0242047
:10216000F0A3E0344EF080A0F088828983C3E0942D
:1021700020A3E0944E22EA2404F8E43BF98C828DFB
:1021800083A3A3A3A3E0FCA3E0FD88828983227438
:10219000F5121250E9FE9004F5E0FAA3E0FBEE29F7
:1021A000F8E433F974D628F582748239F583E02A8D
:1021B000F50AA3E03BF50B780A1213F790839F1200
:1021C000104A121CFC740212118A8A0A8B0B8C0CA6
:1021D0008D0D7410780A120F6DAA0AAB0B7F0402E2
:1021E00012FC74F11212508A0E8B0F8C108D117428
:1021F000111211C012140E74111211C0E02401F555
:102200000AA3E03400F50BE4F50CF50D780E790A1D
:10221000120E7E9083B7780A12102C780E790A126B
:102220000E7EAA0EAB0FAC10AD11121CFC74021284
:10223000118A8B0BEA450B60047A0180027A00EC6C
:102240002AFCE43DFD74131211C0E0F8A3E0F9E8A4
:10225000FEE9FFECF8EDF97A717B021210E9880AC9
:10226000890BE4F50CF50D8E828F83780A12103BF2
:10227000ECF8EDF97A717B021210E98A0A8B0B7483
:1022800005780A1211618E828F83A3A3A3A3E50AA6
:10229000F0A3E50BF07F080212FCC082C083E99036
:1022A0006000F0D083D08222C0E074F212133CA20E
:1022B000AFE433FED2AFE589A2E050031232477596
:1022C0008900C2C5EEA2E092AF7F0102139BC0E07D
:1022D00074F212133CA2AFE433FED2AFE58AA2E659
:1022E0004006E58AA2E75003123247758A00758AD4
:1022F00000C2EB80CFC0E0C0D0E8C0E0E9C0E0A9F8
:10230000A8D2AF758B00C2E8E9A2E7E433F8E9A2EE
:10231000E792AFD0E0F9D0E0F8D0D0D0E032C0E022
:10232000C0D0E8C0E0E9C0E0A9A8D2AFC2C7751C20
:1023300000E9A2E7E433F8E9A2E792AFD0E0F9D0F0
:10234000E0F8D0D0D0E032C2AF02000022120E1569
:10235000CAAA07120E15FCAA07120E1525AB071202
:102360000E15C4AB07120E1505AC07120E15E8AC1E
:1023700007120E15CC8C07120E15FE8C07120E15C7
:10238000278D07120E151E8E07120E15728E07125C
:102390000E15628F07120E15B69807120E15C99802
:1023A00007120E15FA9807120E15349907120E151A
:1023B0008D9907120E15D49907120E151C9A071243
:1023C0000E154B9A07120E157A9A07120E15B19A2E
:1023D00007120E15F89A07120E15119B07120E150B
:1023E000669B07120E157F9B07120E15CD9B0712D9
:1023F0000E15079C07120E1590F605120E1593F791
:1024000005120E15CCF705120E15EFF705120E1575
:1024100001F805120E153FF805120E15BBF805124E
:102420000E1583F905120E15A5F905120E153CFAC5
:1024300005120E158EFA05120E15BFFA05120E15AD
:10244000CCFA05120E1536FB05120E158DFB051282
:102450000E1590FB05120E15C9FB05120E15CCFBCF
:1024600005120E15D6FB05120E152AFC05120E15C7
:102470006BFC05120E159EFC05120E15DBFC0512F9
:102480000E15DDFD05120E1581FE05120E15EAFE74
:1024900005120E1528FF05120E15D59007120E1500
:1024A000FD9007120E152A9107120E156291071260
:1024B0000E15C09107120E150C9207120E1573928D
:1024C00007120E15B39207120E15F09207120E1591
:1024D0001E9307120E15C89307120E15D2930712FA
:1024E0000E15DF9307120E15129407120E151E9487
:1024F00007120E15369407120E15409407120E158A
:1025000066E007120E1574E007120E158CE0071234
:102510000E15A3E007120E151FA905120E15C9A965
:1025200005120E15DCAA05120E1558AB05120E1574
:1025300076AC05120E15B2AC05120E154DAD051296
:102540000E1531AE05120E15FDAE05120E158BB02F
:1025500005120E15FCB005120E15B6B105120E15BA
:10256000A8B205120E15E8B205120E159CB305129D
:102570000E15CEB305120E15C4B505120E1506B60E
:1025800005120E1524B605120E158AB605120E1583
:1025900059B705120E151DB805120E153CBA0512D5
:1025A0000E15F6F804120E15E0F904120E158BFA4A
:1025B00004120E15DCFA04120E158CFB04120E1513
:1025C000FDFB04120E15E2FC04120E1516FD04129A
:1025D0000E150FFE04120E154CFE04120E1528FFE8
:1025E00004120E1567FF04120E1583FF04120E1558
:1025F00025C707120E15A9C707120E15D4C7071253
:102600000E15EEC807120E15CE9407120E15E4949F
:1026100007120E15029507120E15139607120E15C6
:102620001D9607120E15489707120E153F980712B0
:102630000E15AC9807120E1515DD06120E154BDEA1
:1026400006120E1582DE06120E15D9DE06120E15C2
:10265000EEE006120E15698405120E15F5840512BA
:102660000E15598605120E15658605120E15A086E3
:1026700005120E150F8705120E15188805120E1576
:10268000218905120E15E88905120E15458B0512D4
:102690000E15638B05120E15808B05120E152D8CF1
:1026A00005120E15AA8C05120E15D28C05120E15E8
:1026B0009C8F05120E15A18F05120E15BA910512E9
:1026C0000E15089205120E15789205120E15B69287
:1026D00005120E15929305120E15529405120E1541
:1026E0009E9405120E15A19405120E15E59405127F
:1026F0000E152D9505120E156C9505120E158E955D
:1027000005120E15C29505120E15259605120E1509
:1027100028E806120E1536E806120E1589E806128C
:102720000E15A8E806120E15EDE806120E1531EA90
:1027300006120E15CCEA06120E1510EB06120E1537
:102740003AEB06120E15A9EB06120E15EFEB061268
:102750000E1566EC06120E1517ED06120E1500B0DA
:1027600004120E1510B004120E15B1B004120E159D
:102770000DB104120E15CAB104120E15E6B2041200
:102780000E1518B304120E1547B304120E15F4B447
:1027900004120E156BB704120E15DBB904120E15D8
:1027A000CDBA04120E15C6BB04120E15CDBD04120F
:1027B0000E15C1C004120E15F0C104120E15F4C39B
:1027C00004120E1504C504120E1593C604120E153C
:1027D00084C704120E15D2C704120E1541C8041284
:1027E0000E1565C804120E15B6C804120E1557CD85
:1027F00004120E1558CE04120E15B9CE04120E1581
:10280000E4CE04120E15AACF04120E1592880712F8
:102810000E159C8807120E15E18807120E15F58813
:1028200007120E15858907120E15BE8907120E159F
:10283000F98907120E15228A07120E15768A0712D9
:102840000E158B8A07120E15AD8A07120E15C28A55
:1028500007120E15D68A07120E15EB8A07120E15EF
:10286000258B07120E15518B07120E159A8B071226
:102870000E150C8C07120E154F8C07120E15798C45
:1028800007120E15A48C07120E158EDB07120E15FB
:10289000CEB106120E15B1B206120E152CB30612E9
:1028A0000E1567B306120E15B8B406120E1546B50E
:1028B00006120E15D8B706120E158AB806120E1596
:1028C00096B906120E1509BB06120E1562BB06124A
:1028D0000E15008007120E15438007120E15C780D3
:1028E00007120E159E8307120E1561BE07120E15F4
:1028F00013BF07120E150FC007120E154EC0071298
:102900000E15A8C007120E15F3CA07120E1556CBE6
:1029100007120E15F3CB07120E1528CC07120E1551
:1029200058CC07120E1593CC07120E15B3CC071214
:102930000E1529ED06120E15B5ED06120E1574EEE4
:1029400006120E158CEF06120E15A6F106120E15C4
:102950003A9B06120E155F9B06120E152C9C061252
:102960000E15009D06120E156D9D06120E15AD9DDD
:1029700006120E15499E06120E157D9F06120E15A3
:1029800058A006120E15B7A006120E1543A1061286
:102990000E15B1A106120E153DA206120E1583A248
:1029A00006120E15F5A206120E1587A306120E15B5
:1029B00028A406120E1548A406120E1590A406129D
:1029C0000E15D9A406120E15F5A406120E151BA598
:1029D00006120E1595A506120E15A3A506120E15C4
:1029E00032A606120E159BA606120E15DDF1061272
:1029F0000E1562F206120E15A4F206120E1588F3D9
:102A000006120E15F5F306120E1539F406120E1500
:102A10007DF406120E15AAF406120E15D2F4061253
:102A20000E150AF506120E1548F506120E156FF56D
:102A300006120E15E9F506120E1533F606120E15DE
:102A400049BA05120E15E8BB05120E1520BE051277
:102A50000E1574BE05120E159FBE05120E157BBF16
:102A600005120E15ABBF05120E15DABF05120E15B5
:102A7000EDBF05120E152EC005120E155BC0051216
:102A80000E15A9C005120E15E5C005120E152AC1B6
:102A900005120E1577C105120E15F1C105120E159E
:102AA00032C405120E151CC605120E1558C60512A5
:102AB0000E15E7C705120E152CC805120E159FC876
:102AC00005120E15F4C805120E15F9C805120E15DB
:102AD00083C905120E15A2CA05120E15B3CA051236
:102AE0000E150BBC06120E1584BC06120E153EC246
:102AF00006120E1549C306120E15F2C406120E1563
:102B000080C506120E15E3E404120E1564E50412E6
:102B10000E1591E504120E15DAE504120E15DBE62A
:102B200004120E1534E704120E15B0E804120E1547
:102B300032E904120E154DE904120E15BEE9041215
:102B40000E157BEA04120E153EEB04120E15CCEBAB
:102B500004120E1583EC04120E1596EC04120E15D9
:102B60002FED04120E15C6ED04120E15EDED041234
:102B70000E1556EE04120E15A0EE04120E15EEEE12
:102B800004120E1593EF04120E1531F004120E15F7
:102B9000BEF004120E152FF104120E1576F1041278
:102BA0000E15CEF104120E1500F204120E15BAF233
:102BB00004120E15C1F304120E150AF404120E15B8
:102BC00027F404120E1546F404120E1579F50412BA
:102BD0000E1530F604120E1555F604120E156AF68F
:102BE00004120E15DAF604120E151BF704120E1558
:102BF0003FF804120E15C0F804120E150C36001220
:102C00000E15573600120E15633600120E153737A3
:102C100000120E154E3700120E158B3700120E15CE
:102C2000BC3700120E15F43700120E154A38001288
:102C30000E15603800120E159C3800120E15AF38B4
:102C400000120E15D63800120E150A3900120E1594
:102C5000303A00120E157A3B00120E15763C001227
:102C60000E15933D00120E15FCFF04120E15D6CA68
:102C700005120E1511CB05120E1563CE05120E1599
:102C8000BFCF05120E157ED005120E15E5D3051225
:102C90000E15CFD405120E151BD505120E1535D500
:102CA00005120E1572D505120E157DD505120E15DD
:102CB000BCD505120E15C5D505120E156FD6051219
:102CC0000E1546D705120E159AD705120E15F7D711
:102CD00005120E1569D805120E15FD9605120E1572
:102CE0005C9A05120E15629A05120E1593A1051233
:102CF0000E159AA505120E156F9C07120E15059D4F
:102D000007120E151B9D07120E15749D07120E1546
:102D1000B89D07120E15F29D07120E158A9E071216
:102D20000E15F99E07120E15029F07120E150E9F23
:102D300007120E15289F07120E15529F07120E1527
:102D4000679F07120E15C99F07120E15F09F0712F5
:102D50000E15508407120E155D8407120E15778428
:102D600007120E15AA8407120E15E88407120E1515
:102D70004D8507120E15628507120E156D85071217
:102D80000E157A8507120E15918507120E159F856F
:102D900007120E15AA8507120E15B68507120E1515
:102DA000C58507120E15D08507120E15F38507127B
:102DB0000E15978607120E15A78607120E15C186E7
:102DC00007120E15DE8607120E15F98607120E156C
:102DD0001E8707120E15298707120E153E87071248
:102DE0000E15528707120E15B38707120E15B987F5
:102DF00007120E15BF8707120E15C58707120E158D
:102E0000DD8707120E15108807120E15B78D0612F2
:102E10000E154E8E06120E15E68E06120E15D68F64
:102E200006120E150D9006120E15209006120E15A4
:102E30008E9006120E15299206120E155092061249
:102E40000E15F29206120E15279306120E153893E0
:102E500006120E15B19306120E15D29306120E1518
:102E6000EA9306120E15429506120E154B9706129E
:102E70000E159B9906120E159E9A06120E15ED9AC6
:102E800006120E15B8D905120E15B5DA05120E1573
:102E9000A0DB05120E15AADB05120E15CCDB051200
:102EA0000E15D8DB05120E152ADD05120E1559DD9B
:102EB00005120E1589DE05120E15CBDE05120E1554
:102EC000F7DF05120E15CDE005120E151FE10512F4
:102ED0000E157EE105120E15B5E105120E15F0E195
:102EE00005120E158BE505120E15A4E505120E153B
:102EF00026E605120E1534E605120E1589E60512B2
:102F00000E1597E605120E1504E705120E1576E765
:102F100005120E15BCE705120E15BEA606120E15FB
:102F2000E0A606120E15CAA806120E156FAC061200
:102F30000E15B2AD06120E158CAE06120E15C1CCD2
:102F400007120E15E6CC07120E1557CD07120E15F7
:102F5000AAC506120E15B3C506120E15BCC506127B
:102F60000E15EDC606120E150CC906120E1542C935
:102F700006120E157CC906120E15B2C906120E15E0
:102F8000ECC906120E1520CA06120E154CCA0612FE
:102F90000E1595CA06120E15CFCA06120E1517CBBE
:102FA00006120E156DCB06120E15A2CB06120E15CB
:102FB000FDCB06120E1537CC06120E1588CC061264
:102FC0000E15BECC06120E15F8CC06120E1526CD27
:102FD00006120E1549CD06120E154EFF05120E15DE
:102FE0007AFF05120E15D5FF05120E15DFFF05122B
:102FF0000E15EFFF05120E1571B507120E15A3B5CC
:1030000007120E15C0B507120E156EB607120E1573
:10301000BAB607120E1574B707120E15ABB8071221
:103020000E15D2B807120E15FCB807120E15D4E211
:1030300007120E1516D004120E157ED204120E15AC
:1030400031D404120E158ED404120E158BD5041231
:103050000E151BD604120E15A0D604120E15C5D6D9
:1030600004120E15BDD904120E1533DA04120E1512
:1030700024DB04120E155EDB04120E159EDB041217
:103080000E1544DD04120E1599DD04120E15E6DD51
:1030900004120E1554DE04120E157BDE04120E15FA
:1030A00095DE04120E15ABDF04120E15BBDF041201
:1030B0000E1547E104120E1569E104120E159FE189
:1030C00004120E154DE304120E158CE304120E15B6
:1030D000BEE404120E1501FB06120E1559FB061272
:1030E0000E15A1FC06120E1510FD06120E15BFFDE1
:1030F00006120E15DEFD06120E1532FE06120E1514
:1031000070FE06120E153DA707120E156FA70712C7
:103110000E1598A707120E1537A807120E1578A8D6
:1031200007120E155BA907120E157BD307120E1599
:103130008BD307120E15C4D307120E1588D40712AD
:103140000E1567D607120E159CD607120E15B9D6A6
:1031500007120E1535D707120E1555D707120E1583
:10316000E4FF04120E15F0FF04120E1582E307129D
:103170000E158DDF07120E159DDF07120E15ACDF41
:1031800007120E1560E007120E15A2DC07120E15CD
:1031900026DD07120E158CDD07120E151DC907124C
:1031A0000E1531C907120E156BC907120E15C0C9CD
:1031B00007120E155BCA07120E157ECA07120E15EE
:1031C0008ACA07120E15BDCA07120E150FD90712AB
:1031D0000E154AD907120E15B5D907120E15E9D9E1
:1031E00007120E151FDA07120E1547DA07120E1511
:1031F000BFD707120E15F3D707120E151CD80712EA
:103200000E1593D807120E1502D907120E1505C315
:1032100007120E151FC307120E1547C307120E150E
:103220006EC307120E1509C407120E1549C4071202
:103230000E1502D507120E152AD507120E159CD5AC
:1032400007120E15B7D507120E1511D607120E1557
:103250005BD607120E155ED607120E151EA00712BA
:103260000E152CA007120E15A5A007120E1572A19F
:1032700007120E152BA307120E1570A307120E15B9
:103280009DA307120E152BD007120E1531D0071271
:103290000E1577D007120E15ABD007120E15C3D03E
:1032A00007120E1545D107120E155EDA07120E151C
:1032B000A9DA07120E1501DB07120E1565DB0712DE
:1032C0000E15F83F00120E15D3C007120E155BC283
:1032D00007120E15BCC207120E1502C307120E15F7
:1032E000B0A307120E15E2A307120E150BA40712C6
:1032F0000E15AAA407120E15EBA407120E15CEA5E3
:1033000007120E1557AE07120E1589AE07120E15CD
:10331000B2AE07120E1551AF07120E1592AF07127B
:103320000E1575B007120E15E4B107120E1516B280
:1033300007120E153FB207120E15DEB207120E1558
:103340001FB307120E1502B407120E15BDD50612D3
:103350000E1546D606120E155DD606120E1525D789
:1033600006120E15FFD706120E1551D906120E15AC
:1033700026DA06120E1587DB06120E150DDC061274
:103380000E159CDE07120E15C5DE07120E15EEDEB9
:1033900007120E1506DF07120E1548DF07120E156D
:1033A000B5E206120E15BFE206120E15FFE2061276
:1033B0000E1548E306120E1582E306120E15D8E329
:1033C00006120E15F7E306120E1500E406120E158E
:1033D00051E406120E157AE406120E158FE4061259
:1033E0000E15FFE406120E158DE506120E15D1E539
:1033F00006120E15F9E506120E1578E606120E15E0
:10340000BBE606120E15F8E606120E150AE70612BE
:103410000E1529E706120E1532E706120E15FCE707
:1034200006120E15DDD107120E152ED207120E153B
:10343000B7D207120E151DD307120E159DBB07122A
:103440000E15C7BB07120E15C1BC07120E15F0BC36
:1034500007120E1576BD07120E15A5DD07120E1503
:1034600023C507120E1559C507120E1592C507126E
:103470000E15EBC607120E1533E107120E1549E1C2
:1034800007120E1553E107120E15A9E107120E15CA
:1034900075E207120E15D7CD06120E1594CE061240
:1034A0000E15CFCE06120E15F7CE06120E1559CFF9
:1034B00006120E15A5CF06120E1505D006120E1512
:1034C00096D006120E1592D106120E151FD30612B3
:1034D0000E15A2D306120E1506D406120E151DD413
:1034E00006120E1513D506120E155FD506120E150F
:1034F00073F606120E1588F606120E1538F7061228
:103500000E1578F706120E1591F706120E15C4F770
:1035100006120E1511F806120E1545F806120E15B4
:1035200087F806120E158EFA06120E15F4FA061218
:103530000E1545E805120E15FCEB05120E158EED65
:1035400005120E15DEED05120E15F5ED05120E1520
:1035500014EE05120E1592EE05120E1524F005124A
:103560000E1508F105120E1519F505120E15EDF5DB
:1035700005120E15008006120E15248206120E1575
:10358000C78506120E15EC8506120E15C2860612A8
:103590000E157F8806120E15118906120E157389F5
:1035A00006120E15EB8906120E15608A06120E150C
:1035B000CF8A06120E153A8B06120E15C68B06120E
:1035C0000E151B8C06120E15C18C06120E1577CE29
:1035D00007120E15DECE07120E1543CF07120E1579
:1035E000CACF07120E15DAE107120E1539E20712DB
:1035F0000E151EE307120E15CC3F00120E1564E3E4
:1036000007FFFFFFFFFFFFFFFFFFFFFF74F7121130
:10361000E474FF29F804C313FE6032EA28FCE43B9B
:10362000FDEAF8EBF9EEFF88828983E0FA8C828D5F
:1036300083E088828983F0EA8C828D83123F68A8B8
:1036400082A983EC24FFED34FF1CFDDFDA80031236
:103650002C357F010212B6C082C08390618FE0F9E1
:1036600002378474F41211E4890AE97005791202B0
:10367000372590619AE0643F70047E0180027E00ED
:10368000906186E0FF53B4F390619A743FF0A374A5
:103690005AF09061A0E4F0906184F0E5E170FC756F
:1036A000E102750B009061BFE07009050BE50BC3EB
:1036B00094FA40F174FA650B6029750B00E0F50C83
:1036C000E0F50DF9E50CF849600A740368700374BD
:1036D00080697009050BE50BC394FA40E074FA6544
:1036E0000B7004791F803EEAF8EBF9850A0B9061B4
:1036F000BF12372A12372AE5BC88828983F0A3A833
:1037000082A983150BE50B70E5E5E170FC75E1011D
:10371000850DBC850CBC122B03EEF9122B1BEF9010
:103720006186F079007F040212B6E0F5BDE0F5BDD8
:10373000E0F5BDE0F5BD22C082C083786379051253
:103740003765646B7003E9640570F4023784C082E6
:10375000C083786B7905123765646F7003E964057F
:1037600070F402378488828983E08A828B83F088B0
:10377000828983A3A882A9838A828B83A3AA82AB2E
:1037800083E822F0D083D082020E1274F71211E483
:10379000ECFEEDFF122C41750A10780A1213FBEEB5
:1037A000FCEFFD7910740A1211C0E0FAA3E0FB12DD
:1037B0002C2F740112118A790002364FC082C08307
:1037C0009008547470F0A374B1F0A3E0541FF0900B
:1037D0000858741DF0A37442F0A37470F0A374B27F
:1037E000F090085EE0541FF0900860741EF0A3741F
:1037F00012023783C082C083EA6C7002EB6D6036C0
:10380000123839F0ED90084AF0ECA3F0EBA3F0EA9F
:10381000A3F0851A82851B83E0F8A3E0F9E89008FD
:103820004FF0E990084EF075D11E75D60175D7019D
:10383000E5D1A2E050FA02378490084EE0541FF020
:103840009008507420F0A3745222C082C083EB9081
:103850000852F0EAA3F0E9900857123B630237845C
:1038600074F71211E4ED900852F0ECA3F074091211
:1038700011C0E0900857123B71EB90085CF0EAA38E
:10388000F0E990085FF090085EE054E0F075D11D1B
:1038900075D11B75D60275D604023652E5B354F8BD
:1038A00049F5B343B301E5B3A2E350FA020E12C0E7
:1038B00082C083E5B3548F4450F5B37480900852AE
:1038C000F074301238FB4406F5B343B301E5B3A2FC
:1038D000E350FA023784C082C083E5B3548F44407A
:1038E000F5B3EB900852F0EA1238FB4404F5B34309
:1038F000B301E5B3A2E350FA023784A3F09008576E
:103900007410123B67E5B354F82274F21211E47498
:10391000E01211748A0A8B0B890DECFEEDFF740F17
:10392000550D6004780180027800E9C4540F28F531
:103930000C750E10750F00780E1213F77C307D8019
:1039400074121211D2122C23740212118A741012E2
:1039500011C0123A201213F7AC0AAD0B74131211F6
:10396000C0AA82AB83122C23740212118A123B4527
:10397000E91211D2122C297906122C35750A107809
:103980000A1213FB742F1211C0123C6C1211D212C6
:103990002C2F740112118A7900122C35741F121108
:1039A000C0123B507910E91211D2122C297906125B
:1039B0002C35E50CC454F0F9F50A780A1213FBEE25
:1039C000FCEFFDEEFAEFFB122C2F740112118AE5C9
:1039D0000C6011FA53B3F843B3011AE5B3A2E350F4
:1039E000FAEA70F0A80DEE28F8E43FF9851A82850E
:1039F0001B83E088828983F074011211C0123A2976
:103A0000F074021211C0123A29A3F074031211C00B
:103A1000123A29A3A3F0742012118A7F060212B66B
:103A20007401F0750E0D780E22E088828983A3223E
:103A300074F21211E474E0121174EAFEEBFF890BC8
:103A40008C0C8D0D740F550B60047801800278008A
:103A5000E9C4540F28F50A750E10750F00780E1280
:103A600013F77C307D8074021211D2122C23740261
:103A700012118A851A82851B83123A201213F7EEDF
:103A8000FCEFFD74031211C0AA82AB83122C2374C5
:103A90000212118A123B45AA1AAB1B122C29790675
:103AA000122C35742E1211C0E0FEA3E0FF750E102B
:103AB000780E1213FBEEFCEFFD791074111211D287
:103AC000122C2F740112118A7900122C35741012E5
:103AD00011C0E08E828F83F074111211C0123B5C12
:103AE000F074121211C0123B5CA3F074131211C0D7
:103AF000123B5CA3A3F0740F1211C0123B50123C96
:103B00005E7410123B637906122C35E50AC454F03A
:103B1000F9F50E780E1213FBAC0CAD0DAA0CAB0D23
:103B2000122C2F740112118AE50A6016F8E5B354BD
:103B3000F84402F5B343B30118E5B3A2E350FAE841
:103B400070EB023A16E5B3548F4410F5B3791022A6
:103B50007401F0E5B3548F4430F5B322E08E828FC8
:103B600083A322123B6722123B7175D11D75D602C9
:103B700022F0900856E054E0F02274F21211E4743E
:103B8000E0121174EAFEEBFF890A8C0B740F550BDF
:103B90006004780180027800ECC4540F28F50C1200
:103BA0002C3B750E20750F00780E1213F77C307DBC
:103BB0008074021211D2122C23740212118A851AF7
:103BC00082851B837449123A221213F7EEFCEFFD33
:103BD00074031211C0AA82AB83122C237402121137
:103BE0008A740F1211C0E50BF074111211C0740128
:103BF000F074121211C0E50AF0123C5E7420123B00
:103C0000637900122C357900122C35E50CC454F080
:103C1000F50D780D1213FB742F1211C0123C6C12AB
:103C200011D2122C2F740112118AE50C6024AAB350
:103C3000150CE50C6004785080027800748F5A48A7
:103C4000F5B353B3F843B301E5B3A2E350FAE50C7F
:103C500070DC74301211C0E0F8A3E00239EBE51B10
:103C6000900852F0E51AA3F090085722E0FCA3E078
:103C7000FD791074012274F01211E474F8121174B9
:103C8000EAFEEBFF890B8C0AEE24B3FAE43FFB1249
:103C90002C41123F7D7026123D83121062851A82DC
:103CA000851B8312106E123F921211C0123FB61282
:103CB00011C0123FC41211C0123FA18029123F6FE0
:103CC0007025123D83121062851A82851B831210A3
:103CD0006E123F921211C0123FB61211C0123FC4B1
:103CE0001211C0123F8DF0E50AC39411A80A5004C6
:103CF000741080027420C398F50C95E0F50D7418CB
:103D00001211C0E0F50EA3E0F50F780C1213F77C4A
:103D1000307D80A80AE50E28FAE4350FFB122C232B
:103D2000740212118AEE24A6F50CE43FF50D74041A
:103D30001211CA8810891178101213F7780E121315
:103D4000F7AC0AA90BAA0CAB0D122C537404121178
:103D50008A78101213F7AC0EAD0FA90AAA0CAB0D9E
:103D6000122C47740212118A9083EF780E12102CD5
:103D7000EE123D8A780E120FCB740812118A7F085A
:103D80000212B6123F5B123D8A2224D5F582E43F2F
:103D9000F5832274F01211E474F4121174EAFEEB4C
:103DA000FF890B8C0AEE24B3FAE43FFB122C41127C
:103DB0003F7D7026123F4B121062851A82851B834D
:103DC00012106E123F921211C0123FB61211C012A1
:103DD0003FC41211C0123F8D8029123F6F7025120F
:103DE0003F4B121062851A82851B8312106E123FA0
:103DF000921211C0123FB61211C0123FC41211C06C
:103E0000123FA1F0741C1211C0E0F50CA3E0F50DF7
:103E1000A80AE50C28F8E4350DF988828983E0C00A
:103E2000E074041211C0D0E0123F68E0C0E07405F5
:103E30001211C0D0E0123F68A3E0C0E07406121176
:103E4000C0D0E0123F68A3A3E0C0E074071211C025
:103E5000D0E0F0E50AC39411A80A5004741080025F
:103E60007420C398F50E95E0F50F780E1213F77CC9
:103E7000307D80A80AE50C28FAE4350DFB122C23CE
:103E8000740212118A74041211CA881089117810F0
:103E90001213F7AC0CAD0DA90AEE24A6FAE43FFB11
:103EA000122C4D740212118A850E10850F11781094
:103EB0001213F77C307D80A80AE50C28FAE4350D52
:103EC000FB122C23740212118A74081211CA880E74
:103ED000890F780E1213F7780C1213F7AC0AA90B9E
:103EE000EE24A6FAE43FFB122C53740412118A74D8
:103EF000041211C0E0F874081211C0E06870307448
:103F0000051211C0E0F874091211C0E06870207445
:103F1000061211C0E0F8740A1211C0E06870107443
:103F2000071211C0E0F8740B1211C0E06860047948
:103F30000080139083EF780E12102CEE123F52780F
:103F40000E120FCB7901740C023D7B123F5B123FC6
:103F5000522224D9F582E43FF58322EE24A6F8E428
:103F60003FF9E8FCE9FDEE22F088828983A3228EE6
:103F7000828F83A3E0F5838882E06440228E828F63
:103F800083E0F8A3E0F5838882E0648022123FA7F3
:103F9000E422851A82851B83E08C828D83F0740174
:103FA00022123FA7748022123FBDA3A3F08C828D02
:103FB00083A3A3A3A322123FBDF0740222E08C824C
:103FC0008D83A322123FBDA3F0740322C082C0835D
:103FD000851A82851B83E0F8A3E0F9E84960128A1C
:103FE000828B83ECF0A3E824FF18E934FFF94870D2
:103FF000F2D083D082020E12851C87C2AF020E124D
:020000040002F8
:10300000C082C083E9901739F0D083D082020E12BB
:1030100074F61211E4E990030AF090036AE0F50AED
:10302000750B007402780A121161AA0AAB0B1234F4
:103030006990030B12B9C390030B12BDB0606F907F
:10304000036AE075F003A4FAABF012346990032828
:1030500012B9C390032812BDB0700B90030B12BDC0
:103060008112346F804890032812CD157AFF7BFFC0
:103070001230D37A0080198A0A750B007402780A1C
:1030800012116112C7BD74FF12B1C3E4F0A3F00ABC
:1030900090036AE0F8EAC39840DD7905122773903F
:1030A000030AE0F912265F7AFD7B271229EF02C896
:1030B0006074F41211E48A0A8B0BEB548060479021
:1030C000030AE0F91233DF8A0C8B0DAE0CAF0DEE64
:1030D0004F602A8E828F83E064B0701A122785E9D0
:1030E00060148E828F83A3A3A3A3E0F9EE2405FAD4
:1030F000E43FFB122755EEFAEFFB1233CDAA0AE5A7
:103100000B6480FB80047A007B0002B31374F2121C
:1031100011E474FB121174EAFEEBFFEE4F6045748C
:10312000031211C0EEF0A3EFF0851A82851B83EC29
:10313000F0A3EDF074021211C0E9F0AA1AAB1B1251
:103140002659E9F50A707574131211C0E0F50CA345
:10315000E0F50DE50C450D60638E828F8312B74C50
:10316000EE4F7005750A0280537A067B00123469AF
:103170008A0E8B0FA80EA90FE8497005750A1380F7
:103180003B88828983E412B1C3EEF0A3EF12B2DF71
:10319000E50CF0A3E50DF090030E12B2D890030EEB
:1031A0006017E0FCA3E08003EAFCEBFD8C828D83DA
:1031B00012B2D870F38C828D8312C3D8A90A740519
:1031C00002CF95F0A312CCF7A32274F21211E48976
:1031D0000A890E750F007403780E121161850E0CAA
:1031E000850F0D90030DF090030B12C1E312B2D6C0
:1031F000602E12346F7900801D890E750F007402E5
:10320000780E12116190030B12C67C8882F583A39D
:10321000A3E4F0A3F00990036AE0F8E9C39840D969
:1032200090036AE0FA850CF0A4CAA8F0850DF0A41A
:1032300028FB1234698A0E8B0FAE0EAF0FEE4F7063
:103240000302B2CC90036AE0FC850CF0A4CCA8F099
:10325000850DF0A428FD79001233BB7C0080318DF0
:103260000E750F007403780E1211618A828B83121F
:10327000B2D188828983E4F012B2DEA3A3F0A3F076
:103280000DEDC3950A40D8EE250CFEEF350DFF0C71
:1032900090036AE0F8ECC39850288C0E750F007408
:1032A00002780E12116190030B12B2D1E824025081
:1032B0000109FAE9FB8A828B83EEF0A3EFF07D002F
:1032C00080BFE50A90030DF079008002791302CFE8
:1032D0009812C680F922A3A312BD85EA4B22A3123D
:1032E000CCF7A3A3A32274F41211E47900EAA2E0BC
:1032F000501F750A3E750B83780A1213F779107CFC
:10330000047D007A3B7B1712276D740212118AE943
:10331000F980007F040212B6C082C08390030E12AF
:10332000BDB0601C88828983A3A3E06A7003A3E018
:103330006B8882898370E8A3A3A3A312BD81800454
:103340007A007B0002B00974F21211E474FD1211CC
:1033500074EAFEEBFF851A82851B83E4F0A3F07408
:10336000021211C07401F012BDAD7014122929129D
:10337000346990031112B9C312BDAD700302B4D900
:1033800012BAC3EE2404F50CE43FF50D850C82F56A
:1033900083E024FE603C24FC607424FE607E24FEF6
:1033A000700302B42924FE700302B43624FE7003B5
:1033B00002B44324FE700302B45024FE700302B42E
:1033C0005D24FC700302B47E24FE700302B49602F6
:1033D000B4D2122929900313EAF0A3EB12B4E51238
:1033E00023A1E9600302B4D290031312140E8E825B
:1033F0008F83A3A3A3A3A312CD15850A82850B8374
:1034000012BD8112273D740212118A02B4D2AC1A85
:10341000AD1BEEFAEFFB12278B02B4A1AC1AAD1B69
:10342000EEFAEFFB1227918078AC1AAD1BEEFAEFA3
:10343000FB122797806BAC1AAD1BEEFAEFFB12273D
:103440009D805EAC1AAD1BEEFAEFFB1227A38051F4
:10345000AC1AAD1BEEFAEFFB1227A98044740212DE
:1034600011CA880E890F780E1213F774021211DA3E
:10347000EEFAEFFB1227AF740212118A8023AC1A06
:10348000AD1BEEFAEFFB1227B5E9F87016740212C5
:1034900011C0E4F0803CAC1AAD1BEEFAEFFB122732
:1034A000BBE9F8E8602C8E828F83A3E0641460226D
:1034B000850C82850D83E0900313F0851A82851BAD
:1034C0008312BD8190031412B9C3E8A312B4E512AC
:1034D000239BEEFAEFFB12271374021211C0E0F9DE
:1034E000740302CF95F07C137D03850A82850B83DC
:1034F00012BD852274E81211E474FA121174740476
:103500001211C0ECF0A3EDF08A148B15EA2405F536
:1035100010E43515F511EA2402F512E43515F5131A
:10352000851282F58312BD811224918A0C8B0D7550
:103530000A007C037D0079007A137B031233BBE51C
:10354000102402F518E43511F51974021211CA8815
:103550000E890F780E1213F7851082851183A3A3AD
:10356000A3A3E0F50E750F00780E1213F7E51024F3
:1035700005F50EE43511F50F780E1213F785188254
:1035800085198312C088122677740612118A8A0E52
:103590008B0FE50E450F700302B7158020851A8248
:1035A000851B83E088828983F0050A851A82851B42
:1035B00083A3E0C0E012B756D0E0F0050AE50C2482
:1035C000FBFAE50D34FFFBC3E50A9AE49B400302D6
:1035D000B7157E007F00851482851583A3A3A3A35E
:1035E000E0F50B780B1213FBE4F516F517781612BD
:1035F00013F775161075170378161213F790031149
:1036000012140E74091211C012140EE50C24F9F9EB
:10361000AC0EAD0F85128285138312BD811227E592
:10362000740912118AE9600302B6B6851082851109
:1036300083A3A3A3A3A3A3A3E0F8900310E068705F
:1036400075E0F5168E1778161213F712CD12851045
:1036500082851183A3A3A3A3A3A3A3A312BD811255
:1036600033B5740212118AE9604C90031412BDB094
:10367000703BE4F51678161213F77CFF7DFF79078F
:1036800085128285138312BD8112274F7402121195
:103690008A12BDB6701785108285118312CEAF7461
:1036A000041211C012C77012C0B902B749850E8248
:1036B000850F8312B74CA81AA91B8816891778168C
:1036C0001213F774041211C012140E851882851992
:1036D0008312B9B9122683740412118A8A0E8B0FD1
:1036E000EE4F700302B59212B756EE12B76112C0D8
:1036F0006FEF12B761F8A3E03400F9E50E450F60F3
:103700000302B59D8882898374FFF0050A12B756BB
:1037100074FFF0050AE50A601A1313543F12B9C981
:103720001223ADE9600990031412BD811234277988
:1037300000801685108285118312CEAF7404121199
:10374000C012C77012C3D8790A02C042A3A3A3A3B0
:10375000E0FEA3E0FF22A80A900314E02812C06F45
:1037600022F0050A08900314E0282274E81211E4FC
:1037700074FA12117474021211C012B9C3740412D3
:1037800011C0ECF0A3EDF074021211C0E024051298
:10379000C058E0F50EA3E0F50F74021211C0E0244A
:1037A00002F512A3E03400F513851282F58312BDF1
:1037B00081122491750A00750B00EA24FCFEEB349B
:1037C000FFFF8008050EE50E7002050FA80AC3EE84
:1037D00098EF9400500302B975A81AA91B881089A4
:1037E0001178101213F7851682851783A3A3A3A35C
:1037F00012CD191213F7E5162405F510E43517F567
:103800001178101213F785168285178312B9B71233
:103810002677740612118A8A108B11EA45117003FB
:1038200002B975EA2404F518E43511F519851882F2
:10383000F583E0F50EA3E0F50F851A82851B831250
:10384000CD158A828B83A3A3A3E0F9851282851309
:103850008312BD81122665E9F50B600302B9757408
:10386000021211C012C07FF50B780B1213FBE4F5A6
:1038700014F51578141213F77514107515037814D0
:103880001213F790031112140E74071211C01214C0
:103890000EEEF9AC10AD1185128285138312BD8135
:1038A0001227E5740912118AE9F50B600302B97554
:1038B000E50A703FE4F510F51178101213F77CFF5C
:1038C0007DFF790985128285138312BD8112274FEE
:1038D000740212118A12C0A5700D74041211C01264
:1038E000B9AC791102B9A9900310E0240290031435
:1038F000F08014900314E0FA900310E079002402A1
:103900005001096A497072A80A900310E0FAE82A87
:10391000FAE43400FBEE9AEF9B405A851882851931
:1039200083E0C0E090031512B75BD0E0F0050A8594
:103930001882851983A3E0C0E00890031512B75BD5
:10394000D0E0F0050A90031012CD191213F712CD32
:1039500012A80A12C04C1233A3740212118A9003E7
:1039600010E0250AF50A74FF650E700474FF650FF8
:10397000600302B7C4E50A601F900314E0F5F0E5A8
:103980000A8412B9C91223B3E9600990031512BD64
:103990008112342779008011E50B7003750B0A74CE
:1039A000041211C012B9ACA90B02C04212C1E7E562
:1039B0000EF0A3E50FF022A3A312CFA4AA0EAB0F23
:1039C00022A3A3EAF0A3EBF022900313F07C137D73
:1039D0000385128285138312BD852274EC1211E4D3
:1039E00074FC12117412C4E874021211DA12BD7B55
:1039F00012267D8A0E8B0FEA450F700302BAB312AE
:103A0000BAC3A81AA91B8812891378121213F77C5B
:103A1000FF7DFF790B850A82850B8312BD811227FA
:103A20004F740212118A12BBB9700C850C82850D7D
:103A30008312C0B602BAC08E828F83A3A3A3A3E071
:103A4000F51478141213FBE4F514F5157814121319
:103A5000F775141375150378141213F778121213EF
:103A6000F774091211C012140E74091211C0E0F992
:103A7000AC0EAD0F850A82850B8312BD811227E53E
:103A8000740912118AE9FE70157C137D03850A8280
:103A9000850B8312BD811223B9E970098020741649
:103AA0006E70027E0090031412BD81123427EE70F6
:103AB00004800B7E01850C82850D8312C3D5EEF93F
:103AC00002C3EAEE2402F50AE43FF50B2274EC127D
:103AD00011E474FC121174EAFEEBFF8C108D11EEF0
:103AE0002405F50AE43FF50B74021211DA850A8207
:103AF000850B8312BD8112267D8A0E8B0FEA450F3E
:103B0000700302BBA9EE2402F50CE43FF50DA81AE0
:103B1000A91B8812891378121213F77CFF7DFF7995
:103B20000D12BD7B12274F740212118A12BBB9709D
:103B30000B850A82850B8312C0B6807A8E828F83B2
:103B4000A3A3A3A3E0F51478141213FB850A8285BE
:103B50000B83A3A312140E75141375150378141296
:103B600013F778121213F774091211C012140E749D
:103B7000091211C0E0F912BD771227E5740912117C
:103B80008AE9FE700F7C137D0312BD7B1223BFE90F
:103B90007009802074166E70027E0090031412BDAE
:103BA00081123427EE7004800B7E01850A82850B1A
:103BB0008312C3D5EEF902C3EA12BDC0F512A3E029
:103BC000F513EA45132274E81211E474FE1211741D
:103BD0008A188B198C168D17EA2405F50EE4351911
:103BE000F50FEA2402F510E43519F511851082F578
:103BF0008312BD811224918A0A8B0B750D007C0300
:103C00007D0079007A137B031233BB750C00E50A43
:103C100014F5120424FFF50AE50B34FFF50B80546C
:103C2000900313E0FA900310E0F8EA28F8E4340077
:103C3000F9E50A98E50B99500D900313E0F8E512A9
:103C4000C398900310F0E0F5147515007814121362
:103C5000F712CD12900314E02AFAA3E03400FB120D
:103C600033A3740212118A900310E0F8900313E05A
:103C700028F0050C850E82850F83A3A312C68C4005
:103C80000302BD5C900313E0C3950AE4950B400367
:103C900002BD5CAE0CEE2EFEE433FF12BD9BAC1AEF
:103CA000AD1B12CD2DE439FB12267D8A148B15AC89
:103CB00014AD15EC4D701B750D0112BD8B12C3D9DF
:103CC00090031412B2D86003123427A90D740202B3
:103CD000C044851882851983A3A3A3A3E0F50D78BA
:103CE0000D1213FBE4F514F51578141213F775147F
:103CF0001075150378141213F790031112140E7433
:103D0000071211C012140EA9128510828511831298
:103D1000BD811227E5740912118AE9F50D709B9097
:103D2000031412BDB0600302BC20E4F514F515784D
:103D3000141213F77CFF7DFF790F851082851183A4
:103D400012BD8112274F740212118A12BDB6600390
:103D500002BC2012BD8B12C0BA02BCCD7C137D0305
:103D600085108285118312BD811223C5E96003028B
:103D7000BCC0790002BCCDAC0EAD0F850C82850DA8
:103D80008312BD8522E0FAA3E0FB2212BD9BE0FA7C
:103D9000A3E0F9EA85168285178322850E82850FB6
:103DA00083E02EF8A3E03FF98882898322900311F3
:103DB00012CEB3E8492212BDC0F8A3E0F9E84922C7
:103DC000900314EAF0A3EBF0900314E02274E812DD
:103DD00011E474FA12117474041211C012B9C38C74
:103DE000188D1974041211C0E02405F510A3E034F5
:103DF00000F51174041211C0E0240212C05812BD63
:103E0000811224918A0C8B0D7F007E00A81AA91BB9
:103E1000880A890B780A1213F7851082851183A30B
:103E2000A3A3A3E0F50A8E0B780A1213F7E510247A
:103E300005F50AE43511F50B780A1213F78510829F
:103E4000851183A3A312C088122677740612118AE3
:103E50008A0E8B0F802912C079F00F12C079F00FF3
:103E600090031012C3C41213F712CD12EFF812C050
:103E70004C1233A3740212118A900310E02FFFE555
:103E80000E450F700302BF08851A82851B8312C47A
:103E9000FAA3A3A3E0F985168285178312BD8112C8
:103EA0002665E9FEE50E2404F512E4350FF513EE60
:103EB000705074041211C012C07FF50A780A1213F0
:103EC000FBE4F50AF50B780A1213F7750A10750B67
:103ED00003780A1213F790031112140E74071211CB
:103EE000C012140EE50C24FAF9AC0EAD0F85168243
:103EF00085178312BD811227E5740912118AE9FE24
:103F0000603912C09512C3D8EF700302C02F90031E
:103F100014E0F5F0EF84900313F07C137D03851615
:103F20008285178312BD811223CBE96009900315A6
:103F300012BD81123427790002C0428F0AEF703B14
:103F4000E4F514F51578141213F77CFF7DFF791151
:103F500085168285178312BD8112274F74021211B4
:103F60008A12C0A5700912C09512C0B902C0429051
:103F70000310E02404900314F08035900310E0F85F
:103F8000900314E0FAE82404FCE43400FDEC6A4DEC
:103F9000600302BF0EE50C24FAFAE50D34FFFBE5E1
:103FA0000A28F8E43400F9EA98EB99500302BF0EAE
:103FB000851282851383E0C0E0900315E02FF8A3FB
:103FC000E034008882F583D0E0F00F8512828513FB
:103FD00083A3E0C0E012C066D0E0F00F74021211BB
:103FE000CA880A890B780A1213F774021211C012D8
:103FF000140E85108285118312B9B71226837404BA
:1040000012118A8A0E8B0FEA450F700302BE567496
:10401000021211C0E0C0E012C066D0E0F00F7402DE
:104020001211C0A3E0C0E012C066D0E002BE5EEE96
:1040300070027E0A85108285118312C09B12C3D83C
:10404000EEF9740612118A7F100212B6900315E081
:1040500028FAA3E03400FB22F516A3E03400F5179C
:10406000851682F5832212C06A22900315E02FFA8A
:10407000A3E034008A82F5832212C06A74FF221200
:10408000C1E7A3A3A3A3E02212CFA48510828511C8
:104090008312BD852285128285138312CEB38518C3
:1040A0008285198322900315EAF0A3EBF0900315A3
:1040B00012CEB3E8492212C3DEE8F0A3E9F0791189
:1040C0002274EA1211E474FE1211748A0A8B0B8CAA
:1040D000148D15EA2405FEE4350BFFAC1AAD1B8EDA
:1040E000828F8312BD8112267D8A0E8B0FEE2406ED
:1040F000F510E43FF511EA450F700302C1B9E50A76
:104100002402F50CE4350BF50D8A828B83A3A3A35F
:10411000E0A2E55028851A82851B8312BD811227F3
:10412000D98A128B13EA45136020791212BD778564
:1041300012828513831211E2E9F50E707F851082D9
:10414000851183E0600979528011750E0E806D85AE
:104150000A82850B83A3A3A3A3E0F9E4F50AF50B78
:10416000780A1213F78E828F83A3A3E0F50A780AE8
:104170001213F78E828F83A3A3A312140E8E828F45
:104180008312CD1512BD7B1227EB740612118AE93A
:10419000F50E7011851082851183E0702D12BD7BA4
:1041A0001223D180257416650E7011750E007418D7
:1041B0001211C012C1E3E48010750E0112CEAB855E
:1041C0001482851583E8F0A3E9F0851082851183B8
:1041D000E0600479008002A90E740212118A7F0E39
:1041E0000212B612C1E722E0F8A3E0F5838882222A
:1041F00074EC1211E474F71211748A0C8B0D8C128A
:104200008D13EA2405FEE4350DFF750E00AC1AADE2
:104210001B8E828F8312BD8112267D8A0A8B0BEA48
:10422000450B700302C3AFE50C2402F50C500205E8
:104230000D8A828B83A3A3A3E0A2E5502F851A8267
:10424000851B8312BD811227D98A0E8B0FEA450F79
:10425000604F7912AC0AAD0B12BD7B850E82850FC3
:10426000831211E2E9F50E600302C3B2850C828568
:104270000D83E0F50AA3E0F50BAA0AFB1227CDEAAD
:104280004B70197AFF7BFF1227CDEA4B700302C3F4
:10429000A58A828B83E50AF0A3E50BF0750A0080FE
:1042A00008750E0E02C3B2050A90030DE0F8E50A88
:1042B000C398400302C3A5850A10751100740378E2
:1042C000101211618A828B83A3A3E02510F8A3E06A
:1042D000351112C77970D08E828F8312C3CD12B977
:1042E000C38E828F83A3A312C3CD12B9C1EE24045F
:1042F000F50AE43FF50B850A82F583E0888289831D
:10430000A3A3A3A3F0A3E4F0EE2405F510E43FF586
:1043100011851082F58312C3CDA3A3A3A312B9C143
:1043200075140775150078141213F7EEFCEFFD7481
:10433000041211D21233A3740212118AE4F5147814
:10434000141213F7850A82850B83E0FC7D00791730
:1043500012BD7B12274F740212118A74071211C00A
:1043600012B9C374071211C0E0FA4B603D850A828E
:10437000850B8312C3C41213F78510828511831233
:10438000CD151233A3740212118A74021211DA12BB
:10439000BD7B1223D7E9602674071211C012BD81BC
:1043A0001234278019750E098008750E1180037567
:1043B0000E0112CEAB85128285138312C3D8A90ECB
:1043C00074098028E0F50A750B00780A2212BD8571
:1043D000888289832212C3DEE8F0A3E9F022E0F8A4
:1043E000A3E0F985108285118322740412118A7F5B
:1043F0000C0212B674EC1211E412C4E8751200EE4D
:104400002402F50EE43FF50F850E82F58312BD817F
:104410001227CD8A0A8B0BEA450B700302C4CC85A8
:104420000C82850D83E06401600302C4C1AC0AAD57
:104430000BAA0CAB0D1227C1E9606E850A82850BB1
:104440008312B74EEE2406F50CE43FF50D8E828FF5
:1044500083A3A312140E8E828F83A3A3A3A312148B
:104460000E850C82850D8312140E79188E828F832F
:1044700012C4FA12BD811227EB740612118AE9F8F0
:10448000741668700B850C82850D83E4F0A380148C
:10449000E860128E828F8312BD8185108285118320
:1044A000EAF0A3EBF08812801878101213F7AC0A28
:1044B000AD0BEEFAEFFB1227C7740212118AE9F571
:1044C00012AA0AAB0B1227D3E512700E850E828555
:1044D0000F8312BD811223DD8009741665127003EB
:1044E000751200A91202C3EFEAFEEBFF8C108D11CA
:1044F000EE2405F50CE43FF50D2212CFA4850E82C3
:10450000850F832274EA1211E4750A00750B007E90
:10451000007F00750C00EC2402F512E43DF51380D9
:1045200035EC650A7003ED650B600302C5B988823E
:104530008983A3A3E06A7003A3E06B707C888289FF
:1045400083A3A3A3A312CEAFEE28FEEF39FFEA2880
:10455000FAEB39FB050C12C689503A850C0E750F23
:10456000007403780E12116185128285138312C6BE
:104570007C12C779601FE50A450B70A58C0A8D0B6C
:104580008882898312B74C88828983A3A3E02EFA9C
:10459000A3E03F80BEE50CC39402500302C67775CA
:1045A0000A00750B00EE4F6010EEFAEFFB1234219B
:1045B0008A108B11EA45117005790002C679750DD4
:1045C0000002C64C850D0E750F007403780E121193
:1045D00061851282851383E0250EF50EA3E0350F69
:1045E000F50FE50E2406F516E4350FF5178516824E
:1045F000F58312C77E6042E50E2404F514E4350FFE
:10460000F515851482F58312140EE510250AFAE5D6
:1046100011350BFB1233A3740212118A85148285A3
:104620001583E0250AF50AA3E0350BF50B85168204
:1046300085178312BD81123427E50D600D7C087D3E
:10464000007900AA0EAB0F1233BB050DE50DC39523
:104650000C500302C5C485128285138312CEAF8825
:10466000828983A3A3A3A3A3A3E510F0A3E511125A
:10467000B2DFEEF0A3EFF0790102C1DE12C68022B4
:10468000E0250EF8A3E0350F2290030DE0F8E50CCD
:10469000C3982274F01211E48A108B118C0C8D0DCA
:1046A000750F00750E0080507916EE2406F50AE4A9
:1046B0003FF50B8E828F83A3A312140E8E828F83FD
:1046C000A3A3A3A312140E850A82850B8312140ED2
:1046D000851082851183A3A312BD811227EB740676
:1046E00012118AE9F50F7416650F706C850A8285C0
:1046F0000B83E4F0A3F0050E90030DE0F8E50EC384
:10470000985066AA0E8A0A750B007403780A121173
:1047100061850C82850D83A3A312C7C8E8FEE9FF5B
:104720008E828F8312C77E6040EA2401F50AE4344A
:1047300000F50B90030DE0650A7002E50B6014882C
:10474000828983A3A3A3A3A3A3A3A312BDB06003E1
:1047500002C6A8791802C6AAE9609B12CEAB7410F3
:104760001211C012C77012C3D8A90F7F080212B667
:10477000E0FAA3E0F5838A8222F98882898312CF46
:10478000A4EC4D2274F61211E47C0080010C90031D
:104790006AE0F8ECC398501E8C0A750B007402781E
:1047A0000A12116112C7BDE06A7003A3E06B70DDED
:1047B000E8FAE9FB80047A007B0002C86090030BF2
:1047C00012C7C88882898322E0250AF8A3E0350B46
:1047D000F92274F21211E48A0A8B0B750C008027FF
:1047E0008E828F83A3A3A3A312B2D66003123427B1
:1047F0007C087D007900EEFAEFFB1233BB8E828FCE
:1048000083E4F0A3F0050C12C6895027850C0E75C1
:104810000F007403780E121161850A82850B83A341
:10482000A3E0250EFEA3E0350FFF8E828F8312BD1D
:10483000B070AD850A82850B8374FFF0A3F002CFC0
:104840009874F61211E412277F8A828B83E58245E1
:104850008370067A007B008007A3A3A3A312BD8107
:104860007F020212B674F41211E4890A8C828D83DD
:10487000E06402703C12CE4EFEA3E0F9EEF8740242
:104880006870037429697029750C02750D00780C25
:104890001213F774101211C012140E74101211C0FA
:1048A00012140EA90A1230E5740612118AE9F98071
:1048B00002790102B31374E81211E474FB1211744B
:1048C000E9851A82851B83F08A188B19ECFEEDFFAF
:1048D0007512008E828F83A3A3A3E0A2E4502D74EF
:1048E0001D1211C012BD811227D98A828B83E582E5
:1048F0004583700302CCED790AEEFCEFFDAA18ABFC
:10490000191211E2E9F512600302CCF0741F1211C2
:10491000C0E0F50AA3E0F50B74211211C0E0F50C1C
:10492000A3E0F50D74231211C0E0F510A3E0F5111A
:104930008E828F83E06402600302CC8EA312CEAF1E
:10494000850A82850B83A3858214858315EE240650
:10495000F50EE43FF50F8882898312CD2DF516E41C
:1049600039F517781612148101000028012890C922
:104970000700022855CA0328C3C9002984CB01298E
:10498000AFCB022950CB032984CB042928CC8ECC71
:10499000E5104511600302CC89850E82850F8312D4
:1049A000CEAFE8FAE9FB8A828B83E0850C82850D25
:1049B0008312CD381213F78A828B83A3E0FCA3E025
:1049C00002CC12E5104511600302CC89850C82856A
:1049D0000D837401F012CD22850A82850B83F07C51
:1049E000007D008E828F83A3A3A3A3E02401FAA3FA
:1049F000E03400FB12267DEA4B60408A828B83E024
:104A00002402F8850C82850D83E028F0EA2404F85E
:104A1000E43BF988828983E085148285158312CD71
:104A20004612CD381213F78A828B83A312CD15E577
:104A30000A2403FAE4350BFB02CC17850C82850DA2
:104A400083E02404F07C047D007900AA14AB1512E5
:104A500033BB02CCF0E5104511600302CC8912CDC6
:104A600022FEA3E0FF850C82850D837404F0EE85A1
:104A70000A82850B83F0EF851482851583F0740319
:104A80001211DAEEFAEFFB12267D8A0E8B0FEA4541
:104A90000F700302CB338A828B83A3A312B74C74AB
:104AA000011211CA8810891178101213F7740512B7
:104AB00011C012140E7CFF7DFF12268374041211A4
:104AC0008A8B11EA45117033850E82850F8312CDD2
