:020000040000FA
:0600000002011A0221EDCD
:03002B000228A602
:0300330002288818
:0300530002226323
:03006B0002285F09
:10008300022043E5C754F84401F5C7790122000073
:100093000080FB120086B90003020104E479217891
:1000A30008B800028004F709D8FCE479297802B87B
:1000B30000028004F709D8FCE490028178A7791341
:1000C3008002F0A3D8FCD9FA781A90014A7A01BACF
:1000D30000028007E493A3F608DAF97A277B1590E8
:1000E300014B780879048015E493A3AD82AE838A2B
:1000F300828B83F0A3AA82AB838D828E83D8E9D9C6
:10010300E77582237583C2740312012C758291757E
:100113008300740012012C75D00075813F7518811E
:10012300751902759F00020096C09FF59FE473D076
:100133009F22D083D082C09FE493C0E0740193C018
:10014300E0740293F59F2201FF0000B40000280031
:100153002800283075A000A000A000A0000008001F
:1001630008E001F000100010001000100010001053
:100173000050005000500010001000D00700000095
:100183000000000F0001000500307507001000019A
:100193000081FF00000000FFFFFF740692067A064D
:1001A300B606FF02020208025000A0000000E803A6
:1001B30002CD90010000A89002B3900100008215C7
:1001C30002AB90010000BF0202B39001000083154F
:1001D30002B790010000D50202B39001000084151C
:1001E30002B990010000D70202B390010000851507
:1001F30002BF90080000D80202B3900100008615E8
:1002030002CB900100008715FF0100FF2002CD9073
:100213000100009F9002B390010000EB1502E590EE
:10022300000000000002AD90030000060317006405
:100233000D640D640D640D640D640D640D640D6433
:100243000D640D640D640D640D4C105E10461002B8
:100253000202020202020202010D0000001001026A
:10026300CD90010000A29002B3900100002E16026F
:10027300D790010000400702B3900100002F16023F
:10028300D5900100005B8F02B3900100003016028D
:10029300D3900100004D8F02B3900100003116028C
:1002A300CF90010000DD8E02B390010000321602F0
:1002B300C990010000958E02B3900100003316022D
:1002C300C790010000B98E02B390010000341602FA
:1002D300C590010000CB8E02B390010000351602D9
:1002E300C3900100003F8F02B39001000036160255
:1002F300C190010000371601E8030577100AFFFFDC
:10030300FF00013075030201060000000000000039
:1003130000000000000000000000000000000000DA
:100323000000000000FFFF0600800CE803140953DF
:10033300696D706C65424C45506572697068657291
:10034300616C051250002003020A00020106030239
:10035300F0FF53696D706C6520424C452050657207
:100363006970686572616CEA140000F0140A4368EE
:100373006172616374657269737469632031000229
:10038300436861726163746572697374696320326F
:1003930000084368617261637465726973746963A9
:1003A300203300104368617261637465726973740A
:1003B3006963203400024368617261637465726922
:1003C3007374696320350002CD90010000A590028B
:1003D300B3900100004C1702DD900300001C1502CE
:1003E300AF900100004D1702B3900100005E1702A9
:1003F300DF900100001D1502AF900100005F17029E
:10040300B390010000701702E1900200001E150274
:10041300AF90010000711702B39001000082170230
:10042300E3900000001F1502AD90030000201502A9
:10043300AF90010000831702B390010000941702EC
:10044300D190040000221502AF900100009517120D
:100453000135499D031201355C9D031201358D9DC4
:1004630003120135C79D03120135209E0312013586
:10047300679E03120135AF9E03120135DE9E031200
:1004830001350D9F03120135449F031201358B9FE4
:1004930003120135A49F03120135F99F031201359D
:1004A30012A00312013560A0031201359AA00312B2
:1004B3000135E9B702120135ECB80212013525B94D
:1004C3000212013548B9021201355AB90212013537
:1004D30098B90212013514BA02120135DCBA0212BC
:1004E3000135FEBA0212013595BB02120135E7BB95
:1004F3000212013518BC0212013525BC0212013566
:100503008FBC02120135E6BC02120135E9BC0212AE
:10051300013522BD0212013525BD021201352FBD61
:100523000212013583BD02120135C4BD0212013529
:10053300F7BD0212013534BE0212013536BF021275
:100543000135DABF0212013543C00212013581C001
:1005530002120135959103120135BD910312013544
:10056300EA9103120135229203120135809203129C
:100573000135CC9203120135339303120135739382
:1005830003120135B09303120135DE9303120135D3
:100593008894031201359294031201359F94031238
:1005A3000135D29403120135DE9403120135F6941A
:1005B30003120135009503120135F1BE0312013513
:1005C300FFBE0312013517BF031201352EBF0312FD
:1005D300013573C8011201351DC90112013530CA35
:1005E30001120135ACCA01120135CACB0112013522
:1005F30006CC01120135A1CC0112013585CD0112C2
:10060300013551CE01120135DFCF0112013550D032
:10061300011201350AD101120135FCD10112013554
:100623003CD201120135F0D20112013522D301125D
:10063300013518D5011201355AD50112013578D586
:1006430001120135DED501120135ADD60112013596
:1006530071D70112013590D901120135B2D80212B6
:1006630001359CD90212013547DA0212013598DAB5
:100673000212013548DB02120135B9DB02120135E2
:100683009EDC02120135D2DC02120135CBDD0212EF
:10069300013508DE02120135E4DE0212013523DFE3
:1006A300021201353FDF02120135FDAE031201359F
:1006B30081AF03120135ACAF03120135C6B003128B
:1006C30001358E9503120135A49503120135C295A8
:1006D30003120135D39603120135DD96031201355A
:1006E300089803120135FF98031201356C99031220
:1006F3000135A0DF02120135D6E0021201350DE10A
:100703000212013564E10212013579E30212013567
:10071300E7A30112013573A401120135D7A5011214
:100723000135E3A5011201351EA6011201358DA67F
:100733000112013596A7011201359FA80112013557
:1007430066A901120135C3AA01120135E1AA0112FA
:100753000135FEAA01120135ABAB0112013528ACFC
:100763000112013550AC011201351AAF01120135E6
:100773001FAF0112013538B10112013586B10112E3
:100783000135F6B10112013534B20112013510B34E
:1007930001120135D0B3011201351CB40112013528
:1007A3001FB40112013563B401120135ABB4011258
:1007B3000135EAB4011201350CB50112013540B51A
:1007C30001120135A3B50112013540E502120135CD
:1007D3004EE502120135A1E502120135C0E5021210
:1007E300013505E60212013549E702120135E4E756
:1007F3000212013528E80212013552E802120135CE
:10080300C1E80212013507E9021201357EE902123D
:1008130001352FEA02120135E02800120135F028D4
:1008230000120135912900120135ED29001201351D
:10083300AA2A00120135C62B00120135F82B00122B
:100843000135272C00120135D42D001201354B3010
:1008530000120135BB3200120135AD3300120135F0
:10086300A63400120135AD3600120135A13900124C
:100873000135D03A00120135D43C00120135E43D74
:1008830000120135733F0012013564400012013537
:10089300B2400012013521410012013545410012D9
:1008A30001359641001201353746001201353847AC
:1008B30000120135994700120135C4470012013572
:1008C3008A48001201355B8D03120135658D0312D1
:1008D3000135AA8D03120135BE8D031201354E8EEB
:1008E30003120135878E03120135C28E03120135BF
:1008F300EB8E031201353F8F03120135548F031220
:100903000135768F031201358B8F031201359F8FCB
:1009130003120135B48F03120135EE8F0312013533
:100923001A9003120135639003120135D590031217
:1009330001351891031201354291031201356D916E
:100943000312013506BB03120135FAA30212013566
:10095300DDA40212013558A50212013593A5021236
:100963000135E4A60212013572A70212013504AA69
:1009730002120135B6AA02120135C2AB02120135C9
:1009830035AD021201358EAD021201350B8903120A
:1009930001354E8903120135D28903120135A98C21
:1009A3000312013589AA031201353BAB031201354A
:1009B30037AC0312013576AC03120135D0AC031208
:1009C3000135CFB20312013532B303120135CFB370
:1009D3000312013504B40312013534B40312013593
:1009E3006FB4031201358FB403120135D4F302122D
:1009F300013560F4021201351FF50212013537F695
:100A03000212013551F802120135668D02120135C9
:100A13008B8D02120135588E021201352C8F021272
:100A23000135998F02120135D98F02120135759064
:100A330002120135A9910212013584920212013585
:100A4300E392021201356F9302120135DD93021214
:100A53000135699402120135AF94021201352195D3
:100A630002120135B3950212013554960212013573
:100A7300749602120135BC960212013505970212D3
:100A83000135219702120135479702120135C197AB
:100A930002120135CF97021201355E980212013519
:100AA300C7980212013588F8021201350DF90212B6
:100AB30001354FF90212013533FA02120135A0FA5A
:100AC30002120135E4FA0212013528FB0212013544
:100AD30055FB021201357DFB02120135B5FB0212F3
:100AE3000135F3FB021201351AFC0212013594FCA5
:100AF30002120135DEFC021201357BB6011201350B
:100B030023B80112013550BA01120135A4BA0112FA
:100B13000135CFBA01120135A1BB01120135E5BB85
:100B23000112013529BC011201353CBC011201350A
:100B33007DBC01120135AABC01120135F8BC0112BA
:100B4300013539BD0112013567BD01120135BABD49
:100B53000112013551BE011201353BC101120135AC
:100B630051C3011201358FC30112013522C5011290
:100B7300013567C501120135D9C5011201352AC6F0
:100B83000112013564C60112013569C6011201352E
:100B930009C7011201353FC80112013550C80112BE
:100BA300013537AE02120135B6AE02120135AFB4CC
:100BB30002120135B5B50212013528B7021201350B
:100BC300BFB702120135C35D001201350C5E00127E
:100BD3000135395E001201356B5E00120135785E16
:100BE30000120135845E00120135965E0012013554
:100BF300715F00120135CF5F0012013504600012EE
:100C030001353B6100120135886100120135AC6189
:100C1300001201351C6200120135DD62001201353C
:100C2300A063001201350E6400120135CB6400127B
:100C33000135DE64001201355C6500120135EF6594
:100C4300001201351666001201357E660012013569
:100C5300CF6600120135246700120135BF67001209
:100C630001356A6800120135166900120135886979
:100C730000120135DC69001201353C6A00120135AE
:100C83006C6A00120135026B001201352B6C0012E5
:100C93000135736C00120135906C00120135AF6C95
:100CA30000120135DE6C00120135F36D00120135BF
:100CB300796E001201359E6E00120135B36E00127B
:100CC3000135266F00120135676F001201358370FD
:100CD30000120135247100120135727100120135C1
:100CE300DC7100120135F5710012013565F6011250
:100CF3000135B9F601120135C5F6011201358FF739
:100D030001120135BCF701120135EAF70112013571
:100D130056F8011201358CF801120135C5F801129C
:100D23000135DDF80112013532F9011201354BF9B4
:100D33000112013590F901120135A3F901120135B0
:100D4300BDF901120135D3F901120135F1FA01128E
:100D530001351CFC0112013506FD01120135F7FDB9
:100D630001120135D5280012013500800212013528
:100D7300328002120135F8830212013553850212C3
:100D830001351986021201359887021201356F88E1
:100D930002120135BE8802120135D88802120135CC
:100DA3001A89021201352589021201356C89021252
:100DB3000135758902120135218A02120135FA8A39
:100DC30002120135418B02120135A98B0212013542
:100DD300EB8B02120135198C02120135568C02126B
:100DE3000135E89001120135AE9401120135B49436
:100DF30001120135589B01120135AC9F01120135D7
:100E030095A301120135769903120135EC9903126A
:100E13000135029A03120135929A03120135CF9AD2
:100E230003120135099B03120135439B031201355C
:100E3300B69B03120135F79B03120135009C031285
:100E430001350C9C031201352B9C03120135559C73
:100E5300031201356A9C03120135929C031201357A
:100E6300F49C031201351B9D0312013515EF021289
:100E7300013528EF0212013542EF021201356FEFFF
:100E830002120135B5EF02120135E8EF0212013506
:100E930026F0021201358BF002120135A0F0021286
:100EA3000135ABF002120135B8F002120135CFF073
:100EB30002120135DDF002120135E8F002120135AC
:100EC300F4F00212013507F10212013512F1021298
:100ED300013535F102120135D9F102120135E9F17B
:100EE3000212013503F20212013520F2021201351A
:100EF3003BF20212013560F2021201356BF202126B
:100F0300013580F20212013594F202120135F5F235
:100F130002120135FBF20212013501F3021201350F
:100F230007F3021201351FF30212013552F30212C5
:100F330001352A7200120135C1720012013559734D
:100F43000012013549740012013580740012013515
:100F53009374001201350175001201359C7600125D
:100F63000135C376001201356577001201359A7792
:100F730000120135AB7700120135247800120135D8
:100F83004578001201355D7800120135B5790012FC
:100F93000135BE7B001201350E7E00120135117F33
:100FA30000120135607F001201359DD90112013510
:100FB3009ADA0112013585DB011201358FDB01124B
:100FC3000135B1DB01120135BDDB011201350FDD46
:100FD300011201353EDD011201356EDE01120135CC
:100FE300B0DE01120135DCDF01120135B2E001127E
:100FF300013504E10112013563E1011201359AE182
:1010030001120135D5E10112013570E501120135F7
:1010130089E5011201350BE60112013519E60112CA
:1010230001356EE6011201357CE601120135E9E670
:10103300011201355BE701120135A1E70112013508
:10104300EA98021201350C9902120135F69A02123E
:1010530001359B9E02120135DE9F02120135B8A0B5
:10106300021201359DB403120135C2B403120135D6
:1010730033B503120135A7C002120135B0C0021205
:101083000135B9C002120135EAC10212013509C4A2
:10109300021201353FC40212013579C4021201352F
:1010A300AFC402120135E9C4021201351DC5021293
:1010B300013549C50212013592C502120135CCC56D
:1010C3000212013514C6021201356AC60212013535
:1010D3009FC602120135FAC60212013534C7021245
:1010E300013585C702120135BBC702120135F5C7A9
:1010F3000212013523C80212013546C80212013516
:1011030072C0031201359EC003120135F9C00312E8
:10111300013503C10312013513C1031201351EFD4D
:101123000212013545FD021201356FFD0212013530
:10113300AD7F00120135F648001201355E4B0012F7
:101143000135114D001201356E4D001201356B4E04
:1011530000120135FB4E00120135804F001201359C
:10116300A54F001201359D52001201351353001291
:1011730001350454001201353E54001201357E54EA
:10118300001201352456001201357956001201353B
:10119300C656001201353457001201355B57001251
:1011A30001357557001201358B58001201359B58D4
:1011B30000120135275A00120135495A0012013530
:1011C3007F5A001201352D5C001201356C5C001250
:1011D30001359E5D001201350080031201355880F0
:1011E30003120135A081031201350F820312013569
:1011F300BE8203120135DD820312013531830312EE
:1012030001356F8303120135BEBF03120135CFBF12
:1012130003120135B1FF01120135F0FF011201354F
:10122300ECFF0212013514BE0312013524BE031272
:10123300013539BE03120135EBBE031201351ABC69
:10124300031201359EBC0312013504BD031201359F
:1012530053B6031201357CB603120135E2B603120D
:10126300013501B70312013555B703120135AEB786
:1012730003120135E9B703120135ECB70312013547
:1012830096A403120135ABA403120135CFA50312B3
:10129300013539A603120135ADA603120135C7A6E0
:1012A30003120135DEA603120135F1A6031201353F
:1012B30009A7031201351EA7031201353FA7031225
:1012C300013590A7031201356BC3031201357BC3AC
:1012D300031201357EC303120135F87F0012013575
:1012E300F5B0031201356BB203120135CCB2031210
:1012F300013594B903120135BDB903120135E6B9BD
:10130300031201357FBA03120135C1BA0312013545
:10131300D4C802120135DEC8021201351EC90212F9
:10132300013567C902120135A1C902120135F7C996
:101333000212013516CA021201359BCC0212013585
:10134300A4CC02120135F5CC021201351ECD0212D6
:10135300013533CD02120135A3CD0212013531CE51
:101363000212013575CE021201359DCE02120135EE
:101373001CCF021201355FCF021201359CCF02123E
:101383000135AECF02120135CDCF02120135D6CFD2
:1013930002120135A0D002120135F6B7031201354E
:1013A30047B803120135D0B80312013536B9031219
:1013B3000135C5A703120135EFA703120135E9A8CB
:1013C3000312013518A9031201359EA90312013531
:1013D3001DBD03120135FBAC0312013531AD031200
:1013E30001356AAD03120135C3AE031201351DC1C8
:1013F3000312013533C1031201353DC10312013517
:1014030093C103120135C4C103120135CCD00212BA
:10141300013589D102120135C4D102120135ECD153
:10142300021201354ED2021201359AD2021201354F
:10143300FAD2021201358BD30212013587D402127C
:10144300013514D60212013597D602120135FBD6A7
:101453000212013512D70212013508D802120135E2
:1014630054D8021201358A84031201359F84031272
:1014730001354F85031201358F8503120135A88588
:1014830003120135DB85031201352886031201356A
:101493005C86031201359E8603120135A58803126B
:1014A30001352AE801120135E1EB0112013573ED33
:1014B30001120135CAED01120135E9ED01120135C1
:1014C30067EE01120135F9EF01120135DDF001126A
:1014D3000135EEF401120135C2F50112013541EA7D
:1014E3000212013574EC0212013536ED0212013598
:1014F300B3EE0212013502A1031201356AA10312F0
:10150300013587A10312013552A203120135A5A2A9
:101513000312013588A3031201357BC2031201357F
:10152300F8C203120135C1C20312013524C30312E9
:1015330001354DC303E066701008A3E066700A0826
:10154300A3E066700408A3E06622C3E7960809E7F0
:10155300960809E7960809E79622C3E09608A3E0F0
:101563009608A3E09608A3E09622C008C3E096F588
:101573000808A3E096420808A3E096420808A3E0FF
:101583009645087001D3D00822080808EAC0E0EBAA
:10159300C0E086F0E7A4FA180986F0E7A42AFA184F
:1015A3000986F0E7A42AFA180986F0E7A42AFA19AB
:1015B30086F0E7A4FBE5F02AFA190886F0E7A42BE6
:1015C300FBE5F03AFA190886F0E7A42BFBE5F03ABD
:1015D300FA18180986F0E7A4C5F02BFBE43AFA19C8
:1015E30008E7C5F0C6A426F6E5F03BFBE43AFA1893
:1015F30086F0E7A4F6E5F00826F6E43B08F6E43ABD
:1016030008F6D0E0FBD0E0FA22E4CFC0E0E4CEC09D
:10161300E0E4CDC0E0E4CCC0E075F020E626F608B7
:10162300E633F608E633F608E633F6181818EC3313
:10163300FCED33FDEE33FEEF33FFC3EC9709ED977B
:1016430009EE9709EF97191919400FFFEC97FC0959
:10165300ED97FD09EE97FE191906D5F0BFECF709D2
:10166300EDF709EEF709EFF7191919D0E0FCD0E00F
:10167300FDD0E0FED0E0FF226016080808C6C313C1
:10168300C618C613C618C613C618C613C6D5E0EACD
:10169300227009080808226016181818C6C333C632
:1016A30008C633C608C633C608C633C6D5E0EA2221
:1016B300E627F60809E637F60809E637F60809E6E5
:1016C30037F622E026F608A3E036F608A3E036F65E
:1016D30008A3E036F622E026F008A3E036F008A3DC
:1016E300E036F008A3E036F022C3E697F60809E6F1
:1016F30097F60809E697F60809E697F622C3E096F7
:10170300F008A3E096F008A3E096F008A3E096F0B3
:1017130022E056F608A3E056F608A3E056F608A31F
:10172300E056F622E056F008A3E056F008A3E05690
:10173300F008A3E056F022E0F608A3E0F608A3E0E1
:10174300F608A3E0F622E6F008A3E6F008A3E6F025
:1017530008A3E6F022E0FAA3E0FBA3E0FCA3E0FD8C
:1017630022E0F8A3E0F9A3E0FAA3E0FB22E8F0A368
:10177300E9F0A3EAF0A3EBF022CAC0E0E6F0A30885
:10178300DAFAD0E0FA22CAC0E0E0A3C582CCC5826F
:10179300C583CDC583F0A3C582CCC582C583CDC522
:1017A30083DAE6D0E0CA22C3E498F8E499F9121781
:1017B300EB8026C3E49AFAE49BFBE920E7E91217DE
:1017C300EBE498F8E499F922C3E498F8E499F91260
:1017D30017EBE498F8E499F9C3E49AFAE49BFB2243
:1017E300EB20E7CFE920E7E0B90010BB0008E88A67
:1017F300F084F8AAF022E4FBC8FA22EB70227B10F3
:10180300C833C8C933C9335007C39AC3DBF2800650
:101813009A50012ADBEAC833F4C8C933F4C9FA225F
:1018230075F008E4C833C8C933C933C99AC99B5092
:1018330004C92AC93BD5F0ECFBC833F4C8E4C9FAA0
:1018430022600D08C6A2E713C618C613C6D5E0F377
:1018530022600C08C6C313C618C613C6D5E0F4220B
:10186300700422600D18C6C333C608C633C6D5E05C
:10187300F41822251810AF08F518400C1519800824
:10188300F51840021519D2AF2200C0D0251810AFA9
:1018930008F518500C05198008F51850020519D2DF
:1018A300AFD0D0222518F58210AF08F518400C15DB
:1018B300198008F51840021519D2AF85198322251E
:1018C30018F582E43519F583222518F8E43519F95A
:1018D300222518FAE43519FB222518FCE43519FDF5
:1018E30022E4732518C582C0E0E51934FFC583C01F
:1018F300E0E518C3958224F810AF08858319858223
:10190300188008858319858218D2AFCEF0A3E5200D
:10191300F0A37808E608F0A3DEFAEFF0A3E581244C
:10192300FAF8E608F0A3E608F0A3E608F0A308082F
:10193300E608F0A3E608F0A315811581D0E0FED0F8
:10194300E0F8158115811581E8C0E0EEC0E022259D
:1019530018C582C0E0E51934FFC583C0E0E518C3AC
:10196300958224F910AF088583198582188008852C
:101973008319858218D2AFCEF0A3E520F0A37808AF
:10198300E608F0A3DEFAEFF0A3E58124FBF8E6080E
:10199300F0A3E608F0A30808E608F0A3E608F0A31E
:1019A30015811581D0E0FED0E0F815811581E8C0DE
:1019B300E0EEC0E022851983851882E0A3FEE0A350
:1019C300F5207808E0A3F608DFFAE0A3FFE0A3C060
:1019D300E0E0A3C0E0E0A3C0E0E0A3C0E0E0A3C078
:1019E300E010AF08858218858319800885821885E1
:1019F3008319D2AFD083D08202013285198385182F
:101A030082E0A3FEE0A3F5207808E0A3F608DFFA5E
:101A1300E0A3FFE0A3C0E0E0A3C0E0E0A3C0E0E0F8
:101A2300A3C0E010AF0885821885831980088582DA
:101A330018858319D2AFD083D08222C0D02518C590
:101A430082C0E0E51934FFC583C0E0E518C3958281
:101A530024F310AF088583198582188008858319BC
:101A6300858218D2AFC8F0A3E9F0A3EAF0A3EBF0A4
:101A7300A37908E709F0A3D8FAECF0A3EDF0A3EEFD
:101A8300F0A3EFF0A3D0E0F0A3D0E0F0A3D0E0F018
:101A9300A3E520F0A3E5F0F0A3228519838518823E
:101AA300E0C0E0A3E0F9A3E0FAA3E0FBA37808E039
:101AB300F608A3DFFAE0FCA3E0FDA3E0FEA3E0FF4A
:101AC300A3E0C0E0A3E0C0E0A3E0F5D0A3E0F520ED
:101AD300A3E0A3F5F010AF08858319858218800869
:101AE300858319858218D2AFD082D083D0E0F8D015
:101AF300E03274048006740280027401C0E0F404CE
:101B03001218A7D0E012177C227404800474028098
:101B130000CCC0E0EDC0E0E518C39CCCAD1950018A
:101B23001D10AF068C188D1980068C188D19D2AF35
:101B3300121789D0E0FDD0E0FC22D083D082E9C027
:101B4300E0E493A3C386F0C5F095F0F908E493A30A
:101B530086F0C5F095F0700BE493A3C3994005E9B3
:101B6300048002A3E475F002A42582F582E5F03532
:101B730083F583D0E0F9E493A3C0E0E493C0E022CB
:101B8300D083D082ECC0E0EDC0E0E493A3FCE49307
:101B9300A3FDED4C600D121BCFEC24FFFCED34FFD5
:101BA300FD80EFE493A3FCE493A3FDED4C600D12E1
:101BB3001C0EEC24FFFCED34FFFD80EFD0E0FDD0E4
:101BC300E0FCE493A3C0E0E493C0E022C0E0C3E4FC
:101BD3009396087401939618400FE493667008086F
:101BE300740193661870007019A3A3C3E493960855
:101BF3007401939618A3A3400DD0E0D0E0D0E00287
:101C03001BBFA3A3A3A3A3A3D0E022C0E0C0F0887B
:101C1300F0E4936670080874019366187000A8F0E6
:101C2300A3A3700BD0F0D0E0D0E0D0E0021BBFA3A1
:061C3300A3D0F0D0E02276
:101C3C0074F6121952EAFEEBFF8C088D09EE24346F
:101C4C00F8E43FF9E8FCE9FD121D6EE0FAEE2437EA
:101C5C00F582E43FF583E0F88508F0A4C885F00A26
:101C6C008509F0A4250AF9EA28F8E439F97A257BE4
:101C7C00001217EBEA8C828D83F0FA131313541FA6
:101C8C00F8EE28F8E43FF9E8245DF582E439F583B1
:101C9C00E0C0E074075AF8D0E0B800028004C31327
:101CAC00D8FCA2E05003EA8020EE2436F582E43F13
:101CBC00F583E0F5F0EA84A8F0EE28F8E43FF9E8C3
:101CCC002438F582E439F583E0F97F030219FE74B8
:101CDC00F5121952EAFEEBFFEE2434F582E43FF5DF
:101CEC0083E0C0E0121D6ED0E0F08E828F83A3A340
:101CFC00A3A3A3E0FAA3E0FB8E828F83A3A3A3A3E9
:101D0C00A3A3A3E0C39AF508A3E09BF509EE247FF7
:101D1C00F8E43FF9880A890B8882F583E064017046
:101D2C002CEE2480F582E43FF583EA2401F8E43BB1
:101D3C00F9E0687003A3E06970137CB17D04EEFADE
:101D4C00EFFB120C80850A82850B83E4F0AC08ADA6
:101D5C0009EEFAEFFB121C3CE9F91228517F040240
:101D6C0019FEEE2435F582E43FF58322C082C08350
:101D7C00851882851983E0F8A3E0F9C3EA9CEB9DF2
:101D8C005010C3EC98ED99401BC3EA98EB99501492
:101D9C00800EC3EA98EB994007C3EC98ED99400488
:101DAC00790180027900D083D08222EAC39CFAEBBD
:101DBC009DFB2274ED121952900376E064086005C5
:101DCC00E06407702C9061C8E060269003A4E0F8F2
:101DDC0074FF68601CE875F00BA4C8AAF02AF974AB
:101DEC00A628FE740339FF8E828F83A3A3A3E07011
:101DFC00057900021F58EE2468F50EE43FF50F90AC
:101E0C006060E0850E82850F83F0751021751105D9
:101E1C00750800750900E5D914F50AE5D95403F5E0
:101E2C000B601FEE2483F50CE43FF50D7403650B7A
:101E3C006059E50A6017EE2467F582E43FF583E00C
:101E4C00700B793DEEFAEFFB120CB080A490051CE0
:101E5C00E064016023850C82850D83E060047A04C4
:101E6C0080027A00E50AC39AFA95E0FB120B0C8A01
:101E7C00088B09EA45097006120F14021DFD850C2A
:101E8C0082850D83E070048A108B117A008014E532
:101E9C00D9C0E0EAF8E51028F582E43511F583D0D5
:101EAC00E0F00AEAC3950A40E6850C82850D83E0D2
:101EBC00602874FC250AF50A7810121AF9AC0AA9E4
:101ECC000BEEFAEFFB120D5E740212188CE9700A1D
:101EDC00AA08AB091213A0021E4E7403650B6054C2
:101EEC00850A0C750D00780C121AF9AC10AD11AAFC
:101EFC0008AB09120D22740212188C850E82850F04
:101F0C0083E0F87480687005750C7F8002880CE59E
:101F1C000CF50D780D121AFD780B121AFDA90AACEE
:101F2C0008AD099003A4E0FA7B0012094474021274
:101F3C00188C8013900376E06408600BAC10AD1124
:101F4C00EEFAEFFB120DF4120F2079017F0C02193F
:101F5C00FE74F312195274FC121876EAFEEBFF8928
:101F6C0009A2AFE433F508C2AFEE2463F50AE43FEF
:101F7C00F50B8010AA0AAB0B120CDA1213A090040A
:101F8C00B8E004F0850A82850B83E0F8A3E0F9E859
:101F9C0049602DE82402FAE439FBEA2402F50CE44A
:101FAC003BF50D780C121AF98A828B83E0FCA3E0C6
:101FBC00F9EEFAEFFB120CCE740212188CE960B435
:101FCC009004B8E0604D9004B9E0F89004B8E0C318
:101FDC0098500C74026509703A9004BAE060348E23
:101FEC00828F83A3A3A3A3E0851882851983122073
:101FFC002F74021218C2E812202F9004B7E028F0B8
:10200C0074021218DCAA18AB197901120998900401
:10201C00B8E4F0E508A2E092AF740412188C7F06C5
:10202C000219FEF0A3E4F09004B8E0F822000000DE
:10203C008521878522C622C0E074EB121A3EA2AF1E
:10204C00E433F508C2AF759B00906182E0A2E050CA
:10205C0030E591A2E0502A7591FE74016521702142
:10206C001221D6120E4E1221C4121B0C1225FB7417
:10207C000412188CE9640170057901120EA8121D66
:10208C00BF906182E0A2E5505DE591A2E5505775E5
:10209C0091DF900376E064076005E06408702F120E
:1020AC0021D674016521703E120E4E1221C4121BF2
:1020BC000C1225FB740412188CE96401700579016B
:1020CC00120EA87901EEFAEFFB121F5D8018E06486
:1020DC000D7013900398E004F064287002E4F07A19
:1020EC0000E0F9120F26906182E0A2E64003022183
:1020FC0099E591A2E640030221997591BF90037670
:10210C00E064057008120E36120E428003120E3C6B
:10211C00752100120EB4E9900377F07900120EA825
:10212C00120BEA7A017B00900375E0F912137090A0
:10213C007803E064427056900520E014F0704EC2B3
:10214C00AF12215000782AD0E0F618D0E0F6E59FC7
:10215C005407F87005750DFF8003750D7FC4C0E042
:10216C007829E6F50A08E6550DF50B740B780A127A
:10217C001854D0E0250AF8906270E0A2E740F8E825
:10218C00C333906272F0906270E0D2E0F0906181A3
:10219C00E0A2E35009E5E9A2E3500375E9F7A3E0F7
:1021AC00A2E75009E591A2E7500375917FE508A2DB
:1021BC00E092AF7F08021A9D8E828F83E0F8A3E035
:1021CC00C82416F582E438F583229003A4E0F87550
:1021DC00F00BA4C8AAF02AF974A628FE740339FFE0
:1021EC0022C0E0C0D0C082C083906183E0A2E050E6
:1021FC0009E5BFA2E0500375BFFEE0A2E15009E57E
:10220C00BFA2E1500375BFFDE0A2E25009E5BFA2F9
:10221C00E2500375BFFBE0A2E35009E5BFA2E35017
:10222C000375BFF7E0A2E45009E5BFA2E4500375C3
:10223C00BFEFE0A2E55009E5BFA2E5500375BFDF93
:10224C00E0A2E65009E5BFA2E6500375BFBFD083FC
:10225C00D082D0D0D0E032C0E074F2121A3EE5A7A2
:10226C00A2E4500FE5A1A2E4500953A7EF75A1EF2A
:10227C001222B7E5A7A2E5500CE5A1A2E550065342
:10228C00A7DF75A1DFE5A7A2E15009E5A1A2E15006
:10229C000375A1FDE5A7A2E2500CE5A1A2E2500650
:1022AC0053A7FB75A1FB7F01021A9D74F8121952FA
:1022BC00752101900376E0640670077A007B0012AA
:1022CC000E1EA2AFE433FED2AF90037CE06401702B
:1022DC00187A207B00900375E0F912148A7A207B1F
:1022EC0000900375E0F9121376906182E0D2E6F06B
:1022FC0090051DE0602185C622801690037BE0646A
:10230C00017008E5C654F84405F5C653BEFC12200E
:10231C003C7401652160E4EEA2E092AF7F010219EA
:10232C00FE0000008E238F24858228858327851844
:10233C0082851983E0CEA3E0CF852882852783EBA5
:10234C00C9EAC8EDCBECCA75F010C3E833C8E93361
:10235C00C9EA33CAEB33CBC3EA9EF526EB9FF525CE
:10236C00B35004AB25AA26EC33CCED33CDD5F0DA43
:10237C00AE23AF242274E912195274FA121876EAB9
:10238C00FEEBFF8C088D09120E60EAF8EBF9ECFA03
:10239C00EDFB8E828F83121770900376E024F7C3C7
:1023AC00940550067510010224B8120D948A0A8BFC
:1023BC000BEA450B70030224B5120E548A0C8B0DDC
:1023CC00120E54EA650C7003EB650D60ECEEFCEF3D
:1023DC00FDAA18AB19120E5A850A82850B83A3A38A
:1023EC00780C12173A90901B780C121714851882DF
:1023FC00851983781412173A90901B7814121714BD
:10240C00780C791412154D501F780C79141216ECA7
:10241C00909037780C12156D4047850C10850D1176
:10242C00850E12850F1380459090378514108515F5
:10243C00118516128517137810790C1216EC78107A
:10244C0012156D501C751000751100751200751366
:10245C0001781079141216EC7810790C1216B380DE
:10246C000C75100175110075120075130074097844
:10247C001012169490908F780C12173A7810790CE1
:10248C0012160C900376E06408600AE0640660059E
:10249C00E064057020909033781012156D501690F2
:1024AC00902F78101216C6800C75100075110075DF
:1024BC00120075130085088285098378101217495C
:1024CC00740612188C7F100219FE74F7121952122E
:1024DC000E7290051BE064017010906245E4F0A34D
:1024EC00F053F4F343FE0C5390F3120E0CE5C65468
:1024FC00B84441F5C6E59E5447644170F890618537
:10250C00740FF0900519E0F47002A3E0602C7508CC
:10251C0001750900900519E07808121863E508F4B4
:10252C00FAA3E0600814600A14600C800DEA528073
:10253C008008EA52908003EA52A079007F020219C7
:10254C00FE74F7121952E9FEEAFF74016E700C7AF0
:10255C00807B00900375E0F91213709028D8E493F7
:10256C00F46008E493F9120BCC800953C6B8E59ECD
:10257C00544770FA120E1290051BE064017003129E
:10258C000C02900519E0F47002A3E0602B750801B1
:10259C00750900900519E07808121863E508FAA38C
:1025AC00E0600814600A14600C800DEA4280800818
:1025BC00EA42908003EA42A0120D948A088B09A883
:1025CC0008A909E8496016E5E170FCE82414F582D5
:1025DC00E439F583E0F874FF68600288E174016FF8
:1025EC00700A7A01900375E0F91213FA0225487407
:1025FC00F11219528A088B098C0A8D0B90901B785A
:10260C0008121714740F1218C2780C12173A909003
:10261C001B780C1217147808790C12154D90903702
:10262C0050107808790C1216EC780812156D4014BD
:10263C00800E780C79081216EC780C12156D50047B
:10264C007901800279007F080219FE74ED1219528B
:10265C008A088B098C0A8D0B90901B780812171422
:10266C0074131218C2780C12173A90901B780C1233
:10267C001714780C790812154D40117808790C1242
:10268C0016ECAA08AB09AC0AAD0B802275100075CC
:10269C0011007512007513017810790C1216EC7874
:1026AC001079081216B3AA10AB11AC12AD137F0C33
:1026BC000219FE90901B780812173A8A828B837845
:1026CC00081217277F040219FE74F51219528C8216
:1026DC008D83780812173A8A828B83780812170038
:1026EC00122729C3E098F0A3E09912271B401E90F3
:1026FC009057780812173A8A828B8378081216D969
:10270C008E828F83E02420F0A3E0344EF080A4F07E
:10271C008E828F83C3E09420A3E0944E22EA24049B
:10272C00F8E43BF9E8FEE9FF8C828D83A3A3A3A315
:10273C00E0F8A3E0F98E828F832274F5121952E926
:10274C00FE9004D3E0FAA3E0FBEE29F8E433F9742D
:10275C002028F582748F39F583E02AF508A3E03B35
:10276C00F5097808121AF990905312175812233061
:10277C00740212188C8A088B098C0A8D0B741078D1
:10278C000812167BAA08AB097F040219FE74F11219
:10279C0019528A0C8B0D8C0E8D0F74111218C212DB
:1027AC001B1074111218C2E02401F508A3E03400C8
:1027BC00F509E4F50AF50B780C790812158C909054
:1027CC009B780812173A780C790812158CAA0CAB66
:1027DC000DAC0EAD0F122330740212188C8B09EA5B
:1027EC00450960047A0180027A00EC2AFCE43DFD84
:1027FC0074131218C2E0F8A3E0F9E8FEE9FFECF854
:10280C00EDF97A717B021217EB88088909E4F50A55
:10281C00F50B8E828F837808121749ECF8EDF97A54
:10282C00717B021217EB8A088B0974057808121851
:10283C00638E828F83A3A3A3A3E508F0A3E509F01D
:10284C007F080219FEC082C083E9906000F0D0833B
:10285C00D08222C0E074F2121A3EA2AFE433FED250
:10286C00AFE589A2E1500312126E758900C2C575DD
:10287C001A00EEA2E092AF7F01021A9DC0E074F242
:10288C00121A3EA2AFE433FED2AFE58BA2E05003A6
:10289C0012126E758B00C2E880D5C0E0C0D0E8C0C3
:1028AC00E0E9C0E0A9A8D2AFC2C7751A00E9A2E757
:1028BC00E433F8E9A2E792AFD0E0F9D0E0F8D0D059
:1028CC00D0E032C2AF02000022020132FFFFFFFF54
:1028DC00FFFFFFFFC082C083E99015EAF0D083D0E0
:1028EC008202013274F61218E6E99002E8F09003C5
:1028FC0048E0F50875090074027808121863AA08F4
:10290C00AB091213E29002E91232A39002E91236DB
:10291C0090606F900348E075F003A4FAABF01213CB
:10292C00E29003061232A3900306123690700B90BD
:10293C0002E91236611213E880489003061245F53D
:10294C007AFF7BFF1211D87A0080198A087509006A
:10295C007402780812186312409D74FF122AA3E4C3
:10296C00F0A3F00A900348E0F8EAC39840DD79053B
:10297C001208309002E8E0F912071C7ABA7B0812B0
:10298C000AAC02414074F41218E68A088B09EB5425
:10299C008060479002E8E0F91213588A0A8B0BAE5C
:1029AC000AAF0BEE4F602A8E828F83E064B0701AF0
:1029BC00120842E960148E828F83A3A3A3A3E0F9CB
:1029CC00EE2405FAE43FFB120812EEFAEFFB1213A9
:1029DC0046AA08E5096480FB80047A007B00022B80
:1029EC00F374F21218E674FB121876EAFEEBFFEEA3
:1029FC004F604574031218C2EEF0A3EFF0851882F5
:102A0C00851983ECF0A3EDF074021218C2E9F0AA58
:102A1C0018AB19120716E9F508707574131218C261
:102A2C00E0F50AA3E0F50BE50A450B60638E828F97
:102A3C008312302CEE4F700575080280537A067B9A
:102A4C00001213E28A0C8B0DA80CA90DE849700535
:102A5C00750813803B88828983E4122AA3EEF0A3C5
:102A6C00EF122BBFE50AF0A3E50BF09002EC122B52
:102A7C00B89002EC6017E0FCA3E08003EAFCEBFDED
:102A8C008C828D83122BB870F38C828D83123CB8A0
:102A9C00A9087405024875F0A31245D7A32274F255
:102AAC001218E68908890C750D007403780C12183D
:102ABC0063850C0A850D0B9002EBF09002E9123A3B
:102ACC00C3122BB6602E1213E87900801D890C7589
:102ADC000D007402780C1218639002E9123F5C88A6
:102AEC0082F583A3A3E4F0A3F009900348E0F8E98E
:102AFC00C39840D9900348E0FA850AF0A4CAA8F01C
:102B0C00850BF0A428FB1213E28A0C8B0DAE0CAFD4
:102B1C000DEE4F7003022BAC900348E0FC850AF0DD
:102B2C00A4CCA8F0850BF0A428FD790012132E7C00
:102B3C000080318D0C750D007403780C1218638AAB
:102B4C00828B83122BB188828983E4F0122BBEA373
:102B5C00A3F0A3F00DEDC3950840D8EE250AFEEFC7
:102B6C00350BFF0C900348E0F8ECC39850288C0C04
:102B7C00750D007402780C1218639002E9122BB1D7
:102B8C00E82402500109FAE9FB8A828B83EEF0A358
:102B9C00EFF07D0080BFE5089002EBF07900800239
:102BAC007913024878123F60F922A3A3123665EA22
:102BBC004B22A31245D7A3A3A32274F41218E679CF
:102BCC0000EAA2E0501F7508F075098F7808121AF8
:102BDC00F979107C047D007AEC7B1512082A7402BA
:102BEC0012188CE9F980007F040219B8C082C083E6
:102BFC009002EC123690601C88828983A3A3E06A51
:102C0C007003A3E06B8882898370E8A3A3A3A3124B
:102C1C00366180047A007B000228E974F21218E60F
:102C2C0074FD121876EAFEEBFF851882851983E491
:102C3C00F0A3F074021218C27401F012368D7014E5
:102C4C001209E61213E29002EF1232A312368D70C3
:102C5C0003022DB91233A3EE2404F50AE43FF50B5D
:102C6C00850A82F583E024FE603C24FC607424FE1B
:102C7C00607E24FE7003022D0924FE7003022D16C3
:102C8C0024FE7003022D2324FE7003022D3024FE3B
:102C9C007003022D3D24FC7003022D5E24FE700394
:102CAC00022D76022DB21209E69002F1EAF0A3EBA6
:102CBC00122DC512045EE96003022DB29002F112CE
:102CCC001B108E828F83A3A3A3A3A31245F58508A3
:102CDC00828509831236611207FA740212188C026B
:102CEC002DB2AC18AD19EEFAEFFB120848022D818B
:102CFC00AC18AD19EEFAEFFB12084E8078AC18AD9B
:102D0C0019EEFAEFFB120854806BAC18AD19EEFA01
:102D1C00EFFB12085A805EAC18AD19EEFAEFFB12FD
:102D2C0008608051AC18AD19EEFAEFFB1208668002
:102D3C004474021218CC880C890D780C121AF97490
:102D4C00021218DCEEFAEFFB12086C740212188CEB
:102D5C008023AC18AD19EEFAEFFB120872E9F8708B
:102D6C001674021218C2E4F0803CAC18AD19EEFADD
:102D7C00EFFB120878E9F8E8602C8E828F83A3E0D1
:102D8C0064146022850A82850B83E09002F1F08541
:102D9C0018828519831236619002F21232A3E8A3CD
:102DAC00122DC5120458EEFAEFFB1207D074021262
:102DBC0018C2E0F97403024875F07CF17D028508B5
:102DCC00828509831236652274E81218E674FA12A9
:102DDC00187674041218C2ECF0A3EDF08A128B135F
:102DEC00EA2405F50EE43513F50FEA2402F510E498
:102DFC003513F511851082F58312366112054E8A52
:102E0C000A8B0B7508007C037D0079007AF17B023C
:102E1C0012132EE50E2402F516E4350FF517740285
:102E2C001218CC880C890D780C121AF9850E828533
:102E3C000F83A3A3A3A3E0F50C750D00780C121A55
:102E4C00F9E50E2405F50CE4350FF50D780C121A86
:102E5C00F9851682851783123968120734740612A5
:102E6C00188C8A0C8B0DE50C450D7003022FF58028
:102E7C0020851882851983E088828983F00508856E
:102E8C001882851983A3E0C0E0123036D0E0F0053B
:102E9C0008E50A24FBFAE50B34FFFBC3E5089AE4CA
:102EAC009B4003022FF57E007F00851282851383E1
:102EBC00A3A3A3A3E0F5097809121AFDE4F514F510
:102ECC00157814121AF97514EE7515027814121A75
:102EDC00F99002EF121B1074091218C2121B10E5A4
:102EEC000A24F9F9AC0CAD0D8510828511831236CC
:102EFC00611208A2740912188CE96003022F9685DE
:102F0C000E82850F83A3A3A3A3A3A3A3E0F890022F
:102F1C00EEE0687075E0F5148E157814121AF9123B
:102F2C0045F2850E82850F83A3A3A3A3A3A3A3A31A
:102F3C00123661121328740212188CE9604C90023C
:102F4C00F2123690703BE4F5147814121AF97CFFE7
:102F5C007DFF790785108285118312366112080C6A
:102F6C00740212188C1236967017850E82850F8398
:102F7C0012478F74041218C2124050123999023041
:102F8C0029850C82850D8312302CA818A919881458
:102F9C0089157814121AF974041218C2121B1085B0
:102FAC001682851783123299120740740412188CFA
:102FBC008A0C8B0DEE4F7003022E72123036EE120D
:102FCC00304112394FEF123041F8A3E03400F9E5EB
:102FDC000C450D6003022E7D8882898374FFF005F9
:102FEC000812303674FFF00508E508601A13135404
:102FFC003F1232A912046AE960099002F21236619A
:10300C001213A079008016850E82850F8312478FCC
:10301C0074041218C2124050123CB8790A023922B8
:10302C00A3A3A3A3E0FEA3E0FF22A8089002F2E072
:10303C002812394F22F00508089002F2E028227479
:10304C00E81218E674FA12187674021218C21232C8
:10305C00A374041218C2ECF0A3EDF074021218C29F
:10306C00E02405123938E0F50CA3E0F50D740212DA
:10307C0018C2E02402F510A3E03400F5118510828B
:10308C00F58312366112054E750800750900EA24A5
:10309C00FCFEEB34FFFF8008050CE50C7002050DFF
:1030AC00A808C3EE98EF94005003023255A818A953
:1030BC0019880E890F780E121AF9851482851583DA
:1030CC00A3A3A3A31245F9121AF9E5142405F50ECE
:1030DC00E43515F50F780E121AF9851482851583CF
:1030EC00123297120734740612188C8A0E8B0FEA60
:1030FC00450F7003023255EA2404F516E4350FF53A
:10310C0017851682F583E0F50CA3E0F50D85188282
:10311C008519831245F58A828B83A3A3A3E0F985D5
:10312C001082851183123661120722E9F5096003BA
:10313C0002325574021218C212395FF5097809125D
:10314C001AFDE4F512F5137812121AF97512EE75D0
:10315C0013027812121AF99002EF121B1074071254
:10316C0018C2121B10EEF9AC0EAD0F851082851132
:10317C00831236611208A2740912188CE9F50960E1
:10318C0003023255E508703FE4F50EF50F780E1288
:10319C001AF97CFF7DFF790985108285118312361F
:1031AC006112080C740212188C123985700D74049B
:1031BC001218C212328C79110232899002EEE0247C
:1031CC00029002F2F080149002F2E0FA9002EEE02B
:1031DC00790024025001096A497072A8089002EE25
:1031EC00E0FAE82AFAE43400FBEE9AEF9B405A85A9
:1031FC001682851783E0C0E09002F312303BD0E0DA
:10320C00F00508851682851783A3E0C0E0089002BC
:10321C00F312303BD0E0F005089002EE1245F912A3
:10322C001AF91245F2A80812392C1213167402124C
:10323C00188C9002EEE02508F50874FF650C7004FC
:10324C0074FF650D60030230A4E508601F9002F264
:10325C00E0F5F0E508841232A9120470E9600990D7
:10326C0002F31236611213A079008011E509700384
:10327C0075090A74041218C212328CA90902392277
:10328C00123AC7E50CF0A3E50DF022A3A312488473
:10329C00AA0CAB0D22A3A3EAF0A3EBF0229002F14F
:1032AC00F07CF17D028510828511831236652274C3
:1032BC00EC1218E674FC121876123DC8740212183F
:1032CC00DC12365B12073A8A0C8B0DEA450D700343
:1032DC000233931233A3A818A919881089117810F6
:1032EC00121AF97CFF7DFF790B8508828509831200
:1032FC00366112080C740212188C123499700C85F9
:10330C000A82850B831239960233A08E828F83A397
:10331C00A3A3A3E0F5127812121AFDE4F512F5132B
:10332C007812121AF97512F17513027812121AF931
:10333C007810121AF974091218C2121B107409129F
:10334C0018C2E0F9AC0CAD0D8508828509831236E4
:10335C00611208A2740912188CE9FE70157CF17DBB
:10336C0002850882850983123661120476E9700998
:10337C00802074166E70027E009002F2123661127A
:10338C0013A0EE7004800B7E01850A82850B8312DC
:10339C003CB5EEF9023CCAEE2402F508E43FF5090F
:1033AC002274EC1218E674FC121876EAFEEBFF8C11
:1033BC000E8D0FEE2405F508E43FF5097402121882
:1033CC00DC85088285098312366112073A8A0C8BD8
:1033DC000DEA450D7003023489EE2402F50AE43F30
:1033EC00F50BA818A919881089117810121AF97CF4
:1033FC00FF7DFF790D12365B12080C740212188CCB
:10340C00123499700B850882850983123996807A5B
:10341C008E828F83A3A3A3A3E0F5127812121AFD58
:10342C00850882850983A3A3121B107512F17513ED
:10343C00027812121AF97810121AF974091218C2B9
:10344C00121B1074091218C2E0F91236571208A296
:10345C00740912188CE9FE700F7CF17D0212365B38
:10346C0012047CE97009802074166E70027E009044
:10347C0002F21236611213A0EE7004800B7E0185ED
:10348C000882850983123CB5EEF9023CCA1236A0BB
:10349C00F510A3E0F511EA45112274E81218E67450
:1034AC00FE1218768A168B178C148D15EA2405F5E6
:1034BC000CE43517F50DEA2402F50EE43517F50F7B
:1034CC00850E82F58312366112054E8A088B0975BA
:1034DC000B007C037D0079007AF17B0212132E75B0
:1034EC000A00E50814F5100424FFF508E50934FF7B
:1034FC00F50980549002F1E0FA9002EEE0F8EA2827
:10350C00F8E43400F9E50898E50999500D9002F1BA
:10351C00E0F8E510C3989002EEF0E0F51275130098
:10352C007812121AF91245F29002F2E02AFAA3E08C
:10353C003400FB121316740212188C9002EEE0F891
:10354C009002F1E028F0050A850C82850D83A3A377
:10355C00123F6C400302363C9002F1E0C39508E444
:10356C009509400302363CAE0AEE2EFEE433FF1200
:10357C00367BAC18AD1912460DE439FB12073A8AAA
:10358C00128B13AC12AD13EC4D701B750B01123674
:10359C006B123CB99002F2122BB860031213A0A963
:1035AC000B7402023924851682851783A3A3A3A367
:1035BC00E0F50B780B121AFDE4F512F513781212E4
:1035CC001AF97512EE7513027812121AF99002EFAD
:1035DC00121B1074071218C2121B10A910850E8230
:1035EC00850F831236611208A2740912188CE9F542
:1035FC000B709B9002F21236906003023500E4F5DA
:10360C0012F5137812121AF97CFF7DFF790F850ED3
:10361C0082850F8312366112080C740212188C12F8
:10362C003696600302350012366B12399A0235ADAC
:10363C007CF17D02850E82850F8312366112048225
:10364C00E960030235A079000235ADAC0CAD0D85F7
:10365C000A82850B8312366522E0FAA3E0FB221264
:10366C00367BE0FAA3E0F9EA85148285158322857E
:10367C000C82850D83E02EF8A3E03FF988828983C4
:10368C00229002EF124793E849221236A0F8A3E0E9
:10369C00F9E849229002F2EAF0A3EBF09002F2E092
:1036AC002274E81218E674FA12187674041218C20E
:1036BC001232A38C168D1774041218C2E02405F56F
:1036CC000EA3E03400F50F74041218C2E0240212A9
:1036DC00393812366112054E8A0A8B0B7F007E0038
:1036EC00A818A919880889097808121AF9850E8270
:1036FC00850F83A3A3A3A3E0F5088E097808121AFB
:10370C00F9E50E2405F508E4350FF5097808121AC9
:10371C00F9850E82850F83A3A312396812073474BE
:10372C000612188C8A0C8B0D8029123959F00F1245
:10373C003959F00F9002EE123CA4121AF91245F20C
:10374C00EFF812392C121316740212188C9002EE28
:10375C00E02FFFE50C450D70030237E885188285D4
:10376C001983123DDAA3A3A3E0F98514828515838E
:10377C00123661120722E9FEE50C2404F510E4353B
:10378C000DF511EE705074041218C212395FF50861
:10379C007808121AFDE4F508F5097808121AF9757B
:1037AC0008EE7509027808121AF99002EF121B1034
:1037BC0074071218C2121B10E50A24FAF9AC0CADEE
:1037CC000D8514828515831236611208A2740912B4
:1037DC00188CE9FE6039123975123CB8EF7003028F
:1037EC00390F9002F2E0F5F0EF849002F1F07CF1E9
:1037FC007D02851482851583123661120488E96076
:10380C00099002F31236611213A079000239228F4B
:10381C0008EF703BE4F512F5137812121AF97CFFDD
:10382C007DFF791185148285158312366112080C7F
:10383C00740212188C123985700912397512399963
:10384C000239229002EEE024049002F2F0803590CE
:10385C0002EEE0F89002F2E0FAE82404FCE4340012
:10386C00FDEC6A4D60030237EEE50A24FAFAE50B2B
:10387C0034FFFBE50828F8E43400F9EA98EB99509A
:10388C00030237EE851082851183E0C0E09002F3CD
:10389C00E02FF8A3E034008882F583D0E0F00F85A8
:1038AC001082851183A3E0C0E0123946D0E0F00FFE
:1038BC0074021218CC880889097808121AF9740253
:1038CC001218C2121B10850E82850F8312329712AA
:1038DC000740740412188C8A0C8B0DEA450D70038A
:1038EC0002373674021218C2E0C0E0123946D0E03A
:1038FC00F00F74021218C2A3E0C0E0123946D0E0F7
:10390C0002373EEE70027E0A850E82850F831239D5
:10391C007B123CB8EEF9740612188C7F100219B8A1
:10392C009002F3E028FAA3E03400FB22F514A3E0A4
:10393C003400F515851482F5832212394A2290023F
:10394C00F3E02FFAA3E034008A82F5832212394A7D
:10395C0074FF22123AC7A3A3A3A3E02212488485C2
:10396C000E82850F83123665228510828511831293
:10397C004793851682851783229002F3EAF0A3EB16
:10398C00F09002F3124793E84922123CBEE8F0A3F0
:10399C00E9F079112274EA1218E674FE1218768A8C
:1039AC00088B098C128D13EA2405FEE43509FFAC53
:1039BC0018AD198E828F8312366112073A8A0C8BDE
:1039CC000DEE2406F50EE43FF50FEA450D700302EB
:1039DC003A99E5082402F50AE43509F50B8A828B3D
:1039EC0083A3A3A3E0A2E55028851882851983122E
:1039FC0036611208968A108B11EA451160207912F3
:103A0C001236578510828511831218E4E9F50C7073
:103A1C007F850E82850F83E0600979528011750CC9
:103A2C000E806D850882850983A3A3A3A3E0F9E426
:103A3C00F508F5097808121AF98E828F83A3A3E092
:103A4C00F5087808121AF98E828F83A3A3A3121B90
:103A5C00108E828F831245F512365B1208A87406FD
:103A6C0012188CE9F50C7011850E82850F83E070AD
:103A7C002D12365B12048E80257416650C70117530
:103A8C000C0074181218C2123AC3E48010750C01A1
:103A9C0012478B851282851383E8F0A3E9F0850E1B
:103AAC0082850F83E0600479008002A90C740212F5
:103ABC00188C7F0E0219B8123AC722E0F8A3E0F571
:103ACC008388822274EC1218E674F71218768A0A2C
:103ADC008B0B8C108D11EA2405FEE4350BFF750C55
:103AEC0000AC18AD198E828F8312366112073A8A98
:103AFC00088B09EA45097003023C8FE50A2402F59C
:103B0C000A5002050B8A828B83A3A3A3E0A2E55083
:103B1C002F8518828519831236611208968A0C8BB0
:103B2C000DEA450D604F7912AC08AD0912365B8574
:103B3C000C82850D831218E4E9F50C6003023C92AB
:103B4C00850A82850B83E0F508A3E0F509AA08FB3A
:103B5C0012088AEA4B70197AFF7BFF12088AEA4B2B
:103B6C007003023C858A828B83E508F0A3E509F09B
:103B7C007508008008750C0E023C9205089002EB4B
:103B8C00E0F8E508C3984003023C8585080E750FE4
:103B9C00007403780E1218638A828B83A3A3E0252A
:103BAC000EF8A3E0350F12405970D08E828F83121D
:103BBC003CAD1232A38E828F83A3A3123CAD123282
:103BCC00A1EE2404F508E43FF509850882F583E0AD
:103BDC0088828983A3A3A3A3F0A3E4F0EE2405F5C4
:103BEC000EE43FF50F850E82F583123CADA3A3A323
:103BFC00A31232A17512077513007812121AF9EE7E
:103C0C00FCEFFD74041218D4121316740212188CE3
:103C1C00E4F5127812121AF9850882850983E0FC02
:103C2C007D00791712365B12080C740212188C7412
:103C3C00071218C21232A374071218C2E0FA4B60B2
:103C4C003D850882850983123CA4121AF9850E82DF
:103C5C00850F831245F5121316740212188C740218
:103C6C001218DC12365B120494E9602674071218E1
:103C7C00C21236611213A08019750C098008750CDC
:103C8C00118003750C0112478B85108285118312EC
:103C9C003CB8A90C74098028E0F50875090078086F
:103CAC00221236658882898322123CBEE8F0A3E991
:103CBC00F022E0F8A3E0F9850E82850F83227404CC
:103CCC0012188C7F0C0219B874EC1218E6123DC84D
:103CDC00751000EE2402F50CE43FF50D850C82F511
:103CEC008312366112088A8A088B09EA4509700327
:103CFC00023DAC850A82850B83E064016003023DC2
:103D0C00A1AC08AD09AA0AAB0B12087EE9606E855E
:103D1C00088285098312302EEE2406F50AE43FF55D
:103D2C000B8E828F83A3A3121B108E828F83A3A36F
:103D3C00A3A3121B10850A82850B83121B10791802
:103D4C008E828F83123DDA1236611208A874061225
:103D5C00188CE9F8741668700B850A82850B83E45D
:103D6C00F0A38014E860128E828F83123661850E68
:103D7C0082850F83EAF0A3EBF088108018780E127E
:103D8C001AF9AC08AD09EEFAEFFB120884740212B2
:103D9C00188CE9F510AA08AB09120890E510700E02
:103DAC00850C82850D8312366112049A8009741673
:103DBC0065107003751000A910023CCFEAFEEBFFF2
:103DCC008C0E8D0FEE2405F50AE43FF50B221248FC
:103DDC0084850C82850D832274EA1218E67508001E
:103DEC007509007E007F00750A00EC2402F510E4D2
:103DFC003DF5118035EC65087003ED650960030233
:103E0C003E9988828983A3A3E06A7003A3E06B7058
:103E1C007C88828983A3A3A3A312478FEE28FEEF8D
:103E2C0039FFEA28FAEB39FB050A123F69503A854B
:103E3C000A0C750D007403780C12186385108285BA
:103E4C001183123F5C124059601FE508450970A5AB
:103E5C008C088D098882898312302C88828983A3EF
:103E6C00A3E02EFAA3E03F80BEE50AC39402500300
:103E7C00023F57750800750900EE4F6010EEFAEF1F
:103E8C00FB12139A8A0E8B0FEA450F70057900020C
:103E9C003F59750B00023F2C850B0C750D007403FC
:103EAC00780C121863851082851183E0250CF50CB3
:103EBC00A3E0350DF50DE50C2406F514E4350DF5F0
:103ECC0015851482F58312405E6042E50C2404F5DE
:103EDC0012E4350DF513851282F583121B10E50ED5
:103EEC002508FAE50F3509FB121316740212188C0B
:103EFC00851282851383E02508F508A3E03509F5C2
:103F0C00098514828515831236611213A0E50B60A6
:103F1C000D7C087D007900AA0CAB0D12132E050B3D
:103F2C00E50BC3950A5003023EA4851082851183CC
:103F3C0012478F88828983A3A3A3A3A3A3E50EF0C2
:103F4C00A3E50F122BBFEEF0A3EFF07901023ABEFE
:103F5C00123F6022E0250CF8A3E0350D229002EB15
:103F6C00E0F8E50AC3982274F01218E68A0E8B0F5B
:103F7C008C0A8D0B750D00750C0080507916EE2493
:103F8C0006F508E43FF5098E828F83A3A3121B105C
:103F9C008E828F83A3A3A3A3121B1085088285098D
:103FAC0083121B10850E82850F83A3A31236611218
:103FBC0008A8740612188CE9F50D7416650D706C52
:103FCC00850882850983E4F0A3F0050C9002EBE0F0
:103FDC00F8E50CC3985066AA0C8A0875090074039E
:103FEC007808121863850A82850B83A3A31240A854
:103FFC00E8FEE9FF8E828F8312405E6040EA240166
:10400C00F508E43400F5099002EBE065087002E570
:10401C0009601488828983A3A3A3A3A3A3A3A312D7
:10402C0036906003023F887918023F8AE9609B1240
:10403C00478B74101218C2124050123CB8A90D7F55
:10404C00080219B8E0FAA3E0F5838A8222F9888283
:10405C008983124884EC4D2274F61218E67C008099
:10406C00010C900348E0F8ECC398501E8C087509BD
:10407C00007402780812186312409DE06A7003A362
:10408C00E06B70DDE8FAE9FB80047A007B0002410A
:10409C00409002E91240A88882898322E02508F822
:1040AC00A3E03509F92274F21218E68A088B097517
:1040BC000A0080278E828F83A3A3A3A3122BB66042
:1040CC00031213A07C087D007900EEFAEFFB1213AB
:1040DC002E8E828F83E4F0A3F0050A123F695027DD
:1040EC00850A0C750D007403780C12186385088210
:1040FC00850983A3A3E0250CFEA3E0350DFF8E827A
:10410C008F8312369070AD85088285098374FFF019
:10411C00A3F002487874F61218E612083C8A828BD7
:10412C0083E582458370067A007B008007A3A3A3F6
:10413C00A31236617F020219B874F41218E68908CA
:10414C008C828D83E06402703C12472EFEA3E0F952
:10415C00EEF874026870037429697029750A027587
:10416C000B00780A121AF974101218C2121B107470
:10417C00101218C2121B10A9081211EA7406121898
:10418C008CE9F980027901022BF374E81218E674B9
:10419C00FB121876E9851882851983F08A168B171D
:1041AC00ECFEEDFF7510008E828F83A3A3A3E0A21B
:1041BC00E4502D741D1218C21236611208968A82B0
:1041CC008B83E582458370030245CD790AEEFCEFC3
:1041DC00FDAA16AB171218E4E9F51060030245D0DE
:1041EC00741F1218C2E0F508A3E0F5097421121827
:1041FC00C2E0F50AA3E0F50B74231218C2E0F50E29
:10420C00A3E0F50F8E828F83E06402600302456E9B
:10421C00A312478F850882850983A3858212858323
:10422C0013EE2406F50CE43FF50D888289831246C3
:10423C000DF514E439F5157814121B8301000028D0
:10424C00012870420700022835430328A3420029A5
:10425C00644401298F44022930440329644404290D
:10426C0008456E45E50E450F6003024569850C82D5
:10427C00850D8312478FE8FAE9FB8A828B83E085F0
:10428C000A82850B83124618121AF98A828B83A331
:10429C00E0FCA3E00244F2E50E450F600302456921
:1042AC00850A82850B837401F0124602850882858B
:1042BC000983F07C007D008E828F83A3A3A3A3E0EF
:1042CC002401FAA3E03400FB12073AEA4B60408A5F
:1042DC00828B83E02402F8850A82850B83E028F028
:1042EC00EA2404F8E43BF988828983E0851282850C
:1042FC001383124626124618121AF98A828B83A34C
:10430C001245F5E5082403FAE43509FB0244F78568
:10431C000A82850B83E02404F07C047D007900AADA
:10432C0012AB1312132E0245D0E50E450F6003029B
:10433C004569124602FEA3E0FF850A82850B837451
:10434C0004F0EE850882850983F0EF8512828513CF
:10435C0083F074031218DCEEFAEFFB12073A8A0CA6
:10436C008B0DEA450D70030244138A828B83A3A341
:10437C0012302C74011218CC880E890F780E121A78
:10438C00F974051218C2121B107CFF7DFF12074036
:10439C00740412188C8B0FEA450F7033850C8285D0
:1043AC000D831245F9121AF9850C82850D83A3121F
:1043BC001B107C027D007AB57B9012053C740412B4
:1043CC00188CE9700A74011218C274FFF0A3F08EF5
:1043DC00828F83E064027039750C02750D00780CC5
:1043EC00121AF98E828F83A31245F5E5082404FA7C
:1043FC00E43509FB121316740212188C850A828597
:10440C000B83E02402800974011218C2EEF0A3EFB2
:10441C00F074011218C21245E774011218C2124549
:10442C00DE024563E50E450F6003024569850C828B
:10443C00850D8312487DAA16AB171211F0850A82DE
:10444C00850B837402F0850882850983EAF0851256
:10445C0082851383EB024566E50E450F600302452A
:10446C0069124602F8A3E0F9850A82850B8374026F
:10447C00F0E8850882850983F0E98512828513832B
:10448C00024566850C82850D83123661121310EA83
:10449C00FAF8C3950EE4950F405CE8650E450F7075
:1044AC00047A008021851882851983E0FCE50E2CA6
:1044BC00FCE4350FFDC3EC98ED94005003E080054F
:1044CC00E50ECAC39AFAEA850A82850B83F08A0A3A
:1044DC00750B00780A121AF9850C82850D83E0257C
:1044EC000EFCA3E0350FFDAA08AB091213167402DB
:1044FC0012188C0245D07510070245D0E50E450FF9
:10450C00705B850C82850D8312478F850A82850B23
:10451C00837407F0888289831245DF1245D7E085C2
:10452C001282851383F0E82402FAE439FB8A828B29
:10453C00831245E78A828B831245DEA3A3122BBE1E
:10454C001245ECF0E82405F85001098882898312A1
:10455C0045ECA3124626A3A3A3A3F0806775100B0A
:10456C008062741D1218C212366112083C8A828B4A
:10457C0083E5824583604A12478F880C890DE84594
:10458C000D603E74251218C2E0F5107810121AFD59
:10459C00780E121AF9780A121AF97808121AF974A4
:1045AC00071218C2E0F9EEFCEFFDAA16AB17850C4A
:1045BC0082850D831218E4740712188CE9F51080AB
:1045CC000375100EA9107405023924F088828983B2
:1045DC00A322A3E08508828509832212462DF022AE
:1045EC0012462DA3A3229002EF12488422E0F50E6E
:1045FC00750F00780E22850C82850D83123AC7E068
:10460C0022E0FAA3E0F8E4C8F9EA2822F08A828BC7
:10461C0083E0F50A750B00780A221245D712462D55
:10462C0022E0850882850983A3A32274EE1218E682
:10463C0074FE1218768A088B09ECFEEDFF890AAC21
:10464C0018AD19EEFAEFFB12073A8A0C8B0DEA45FE
:10465C000D700302471F851882851983123661126B
:10466C00083C8A828B83E5824583700302471AA338
:10467C00A312478F880E890FE8450F700302471A63
:10468C0074141218C2E0F510A3E0F511E50AF50B4D
:10469C00780B121AFD74191218C2121B1078101212
:1046AC001AF9741B1218C2E0F9AC0CAD0DAA08ABC8
:1046BC0009850E82850F831218E4740512188CE993
:1046CC00F50B705274FE650A604C850C82850D8367
:1046DC00E06402704112472EFAA3E0F9EAF8740282
:1046EC00687003742969702E8510828511831246B7
:1046FC000DF50CE439F50D780C121AF9EEFCEFFD02
:10470C00AA08AB091208C0740212188C8008750B29
:10471C000E8003750B01A90B740212188C7F0A0210
:10472C0019B8A312479388828983E02274F6121871
:10473C00E674FE121876740C1218C212478FE885B4
:10474C001882851983F074011218C2E9F0E4F50897
:10475C00F5097808121AF97508027808121AF97412
:10476C00041218CC880889097808121AF979FE12F3
:10477C0008A8740612188C740212188C0241408E10
:10478C00828F8312479322E0F8A3E0F92274F71288
:10479C0018E6EAFEEBFF89089003061245F51211A4
:1047AC00F0EA5402600BA908EEFAEFFB12072E8018
:1047BC000279017F010219B874F21218E674FE1224
:1047CC001876EAFEEBFF890A7401650A601474021C
:1047DC00650A60030248737901120ACAE960030290
:1047EC004873EEFAEFFB12088AEA4B60031208904A
:1047FC00A818A919880889097808121AF9750802E5
:10480C007509007808121AF97508AD7509907808C1
:10481C00121AF97CFF7DFF7A017B001207347406B3
:10482C0012188C8038850882850983A3A3A3A3A3BF
:10483C00A312487DEEFAEFFB1211D8E4F50CF50D3E
:10484C00780C121AF974021218C2121B107CFF7D1C
:10485C00FFAA08AB09120740740412188C8A088B43
:10486C0009E508450970BE740212188C7F060219FE
:10487C00B8123AC712488422E0FCA3E0FD2274F47B
:10488C001218E68A088B09ECFEEDFF9015EAE0F4AD
:10489C00604B7A097B00121340EA4B60408A828B92
:1048AC008374B1F0A3E41248ECF08A828B83A3A347
:1048BC00E508F0A3E5091248ECA3EEF0A3EFF074C1
:1048CC000C1218C212478F8A828B83A3A3A3A3A3B3
:1048DC00A3A3123CB89015EAE0F912134C022BF387
:1048EC00F08A828B83A3A3A3A32274F01218E6741C
:1048FC00FA1218768909ECFEEDFF7508008A0A8B0E
:10490C000B780A121B3D0004101C4B394957497196
:10491C00498949A749BF49E249FA490E4A384AB37D
:10492C004AC44ADB4AF64A1C4B1C4B4E4A7401657E
:10493C00096003024B178E828F83E0F8C394034007
:10494C0003024B17E89016D6024AF374026509600D
:10495C0003024B178E828F83124B589016D7E8F0B8
:10496C00A3E9024AF3740165096003024B17124B69
:10497C00494003024B17E8900749024AF37401655A
:10498C00096003024B178E828F83E0F8C3940540B5
:10499C0003024B17E890074A024AF3740165096059
:1049AC0003024B17124B494003024B17E890074B7D
:1049BC00024AF3741065096003024B17750A1075EF
:1049CC000B00780A121AF97A4C7B07121316740230
:1049DC0012188C024B3D740165096003024B1712CF
:1049EC004B494003024B17E890075C024AF37401F1
:1049FC0065096003024B178E828F83E09016DA02F2
:104A0C004AF3740465096003024B178E828F837816
:104A1C000C12173A909053780C12156D5003024BF0
:104A2C001790075E780C121749024B3DE9600302A0
:104A3C004B171206D4E9700512119C80559007F1A2
:104A4C008061740765096003024B17750A06750BC4
:104A5C0000780A121AF98E828F83A3AC82AD83740C
:104A6C00021218D412131C740212188C7C007D00D4
:104A7C00AA18AB198E828F83E0F9121148E9FEC394
:104A8C00940A4003024B3A1206D4E9700CEEF91268
:104A9C0011A27950121460806D74F22EF582E434F8
:104AAC0007F5837401804074016509705E124B49EF
:104ABC005059E890075D802F74016509704D8E8206
:104ACC008F83E0F8C3940A5042E89016D98018748A
:104ADC0001650970368E828F83E0F874F928C394CF
:104AEC000A5028E89016DBF0804774016509701BAA
:104AFC009007F0E0F88E828F83E09007F0F0E8707A
:104B0C0030E06401702B12119080267508188021FA
:104B1C00C3EA9427EB9400501574026509700F8E4C
:104B2C00828F8312561E120554E9F508800375080E
:104B3C0002A908740612188C7F080219B88E828F8D
:104B4C0083E0F8C3940222A908024EF6E0F8A3E031
:104B5C00F92274F01218E674B11218768C0C8D0DC3
:104B6C00908FEA74201218DC7406121789742012C4
:104B7C0018DC121148E9F508745F1218C2E0F50A46
:104B8C00E9C3940A4003024CDC75F006E9A4F5096C
:104B9C0074411218DC7A0E74202509F912145AE9A2
:104BAC007009744D1218C2E0FF80027F009016D677
:104BBC00E064027005750E018003750E00740865C3
:104BCC000A70047422800274212509F50F7C1B7D68
:104BDC0000790074261218D412132EEFA2E0E433DD
:104BEC00FE74261218DC7A1BA90F12145AE97025D0
:104BFC0074401218C2E024F9C3940A5018780E12AB
:104C0C001AFD74271218DCEEF9AA0CAB0D1205F67E
:104C1C00740112188C7C147D007900740C1218D459
:104C2C0012132E740C1218DC7A1074242509F91244
:104C3C00145AE970307C1079FF740C1218D41213CA
:104C4C0094E97021741C1218C2AC82AD837A04747E
:104C5C00252509F912145A740C1218DCEEF9AA0C59
:104C6C00AB0D1205DEAC18AD197A0C74702508F971
:104C7C0012145AE97049AA18AB191211787E00EE79
:104C8C0075F003A4F8A9F0851882851983E58228AC
:104C9C00F8E583125437125618601D88828983A355
:104CAC00A3E0F5087509007808121AF9AA0CAB0DE7
:104CBC001208AE740212188C0EEEC3940440C0EFAE
:104CCC00A2E1500C900748E0F9AA0CAB0D1208B405
:104CDC007404650A70289016D6E0640270207A007D
:104CEC0090075CE060027A01900749E06004780468
:104CFC0080027800E84AF9AA0CAB0D1206AA7900DA
:104D0C00744F024B4174F71218E61206D4E9704F37
:104D1C009007F1E06401701512119C9007F1E4F01A
:104D2C007C0AFDF97AF27B0712132E802A75080093
:104D3C00A80874F228FEE43407FF8E828F83E064A7
:104D4C0001700BA9081211A28E828F83E4F0050862
:104D5C00E508C3940A40D9795012146012119002DC
:104D6C00575674F01218E674F0121876EAFEEBFF40
:104D7C008C088D09750A0AE9600C14600914603BF3
:104D8C0014607D024E6412118AE9F50AC3940A403C
:104D9C0003024E64E50845097003024E64750C0667
:104DAC00750D00780C121AF9EEFCEFFDAA08AB0990
:104DBC00121316740212188C024E64750C00750EC8
:104DCC0006750F00780E121AF9EEFCEFFDE50C7566
:104DDC00F00EA4F8A9F0746A28FA740739FB1213C0
:104DEC0028740212188CE9700B050CE50CC3940A9C
:104DFC00506680CA850C0AE50AC3940A505A804949
:104E0C00750C00AC18AD197A1075F006E50CA424DD
:104E1C0023F912145AE9701C7C1079FFAA18AB19EB
:104E2C00121394E9700EEEFCEFFDAA18AB191205E3
:104E3C00BAE9600B050CE50CC3940A501B80C485C1
:104E4C000C0AE50AC3940A500FE50845096009AA43
:104E5C0008AB09A90A121184A90A7410024B4174F7
:104E6C00F41218E6890975081574FF6A700374FF4B
:104E7C006B70277E00AC097A027B00EEF91211668A
:104E8C00E960037508000EEEC3940A40E8E509607A
:104E9C00537AB47B11120AEE804A120ABE8A0A8B2C
:104EAC000BAE0AAF0BEE4F60387C007D00EE240594
:104EBC00FAE43FFB8E828F83A3A3A3A3E0F9121124
:104ECC0048E9F9C3940A500CAC097A027B00121120
:104EDC0066750800E509600CEEFAEFFB1211B48060
:104EEC0003750814024B5312188C7F040219B87402
:104EFC00F21218E6ECFEEDFF750815740E1218C2CE
:104F0C00E0F50AA3E0F50B74FF6A700374FF6B7095
:104F1C0021750900AC0AAD0BEEFAEFFBA9091211D1
:104F2C006CE960037508000509E509C3940A503F54
:104F3C0080E2120ABE8A828B83E5824583602D7CD7
:104F4C00007D00E5822405FAE43583FBA3A3A3A32B
:104F5C00E0F9121148E9F9C3940A5013AC0AAD0BED
:104F6C00EEFAEFFB12116C7508008003750814A99A
:104F7C00080253FFC082C083900762EAF0A3EBF0F3
:104F8C00900748E0FC7D007A267B001205549007C0
:104F9C0048E0F9120818025A7874EF1218E674EC0B
:104FAC00121876EAFEEBFFEE240CF50CE43FF50D3F
:104FBC00EE2405F50EE43FF50FEE2409F50AE43F67
:104FCC00F50BEE2403F508E43FF5098E828F83A3DD
:104FDC00A3E024FA700302527B24FD700302519D5E
:104FEC0014700302507B14601024FD700302517185
:104FFC001470030251D4025281125D936049E0F5A2
:10500C00838882124B58880E890FE8450F603885CB
:10501C000C82850D83E0F50C780C121AFDEE240B36
:10502C00F582E43FF583E0F9850A82850B831256FD
:10503C001E0A0A0AAB09850E82850F831218E474C6
:10504C000112188C025281850A82850B83121B1067
:10505C0090075E1217581205F0740212188CE97042
:10506C00030252817901850A82850B8302524B75AA
:10507C0010008E828F83A385820A85830BE06003E8
:10508C0002513E850E82850F83E0A2E0400302515F
:10509C003E9007FC125D96600302513E7C0E7D0033
:1050AC007900AA18AB1912132E850C82850D831268
:1050BC005A43EA4B6010750C06750D00780C121AE9
:1050CC00F9EA2410801B125A3D120ABEEA4B7003F7
:1050DC00025281750C06750D00780C121AF9EA242F
:1050EC0005FCE43BFD74021218D412131674021260
:1050FC00188C850E82850F83E0A2E25004D2F080DA
:10510C0002C2F0A2F0E433F8740C1218C2E048F0BA
:10511C00EEFCEFFDAA18AB1912117EE970117A02A0
:10512C007B00900748E0F9121370790002528375E6
:10513C001015125D937003025281125A077003020C
:10514C005281850A82850B83E0FC790112528D1203
:10515C0018E4E5107003025281FC7903125A3D12D7
:10516C0059ED025276125D937003025281125A1A53
:10517C00124B58890BE8450B70030252818E828FBB
:10518C0083A3E0FC7902125A3D8882850B8302527C
:10519C00767C007D00EE2404FAE43FFB85088285D2
:1051AC000983E0F9121148E9F8C3940A400302524A
:1051BC0081EE240AFCE43FFD7A0475F006E8A42491
:1051CC0025F9121454025281125A3D90075DE06089
:1051DC00079016D9E0F9806A9016D6E0700479052C
:1051EC008060120ABE8A0C8B0DA80CA90DE84970C0
:1051FC0003025281E82404F50CE439F50D8E828FFC
:10520C0083A3A3A3A3A3A3A3E0A2E0503A850C829B
:10521C00850D83E0FE6030850A82850B83A3E05404
:10522C00027024740E1218DCE82405FAE439FBEE43
:10523C00F9121148E97010790385088285098312E7
:10524C005A431205EA802EAC0EAD0F850C82850DEB
:10525C0083E0F9125A3D1211C0125D936017125A75
:10526C000760127C00790012528D1218E48006122D
:10527C005A3D1211427901741412188C7F090219CB
:10528C00B8850882850983E0FAA3E0FB8E828F83C0
:10529C002274F51218E674F2121876EAFE8C0A756E
:1052AC00F006E9A42420F508AC18AD197A0EF91211
:1052BC00145AE970467C0679FFAA18AB191213949C
:1052CC00E97038740C1218C2125A43EAF8E50A60F5
:1052DC0005EEC8488004EEF4C858F8EA687001EB93
:1052EC006015740C1218C2E8F0A3E4F0AC18AD19F8
:1052FC007A0EA908121454790180027900740E12E6
:10530C00188C7F030219B874F21218E674E612189E
:10531C0076890A8A088B09ECFEEDFF740C1218DCF6
:10532C007A0E75F006E9A42420F912145AE96003E8
:10533C000253F87C0679FF740C1218D4121394E9FA
:10534C0060030253F87470250AF50BAC18AD197A8A
:10535C000CF912145AE960030253F4AA18AB19128F
:10536C001178E5084509701D7C0C7900AA18AB1959
:10537C00121394E970727C0C7D007900AA18AB1999
:10538C0012132E8051AC18AD19AA08AB0912117268
:10539C008A0C8B0DA80CA90DE8497022EE4F604CBD
:1053AC00AC18AD197A007B00121172EAF8EBF9EA2D
:1053BC004B603988828983E508F0A3E509F0125423
:1053CC0073FAEE6A7001EF601FEEF04F700888827E
:1053DC008983E4F0A3F0AA18AB19121178AC18ADBC
:1053EC00197A0CA90B121454790180027900741AE1
:1053FC0012188C7F060219B874F71218E67E00EEAC
:10540C0075F003A4F8A9F0EC28F8ED125437E06A13
:10541C007003A3E06B7006E8FAE9FB800B0EEEC399
:10542C00940440DB7A007B0002575639F988828954
:10543C00832274F71218E67C00EC75F003A4F8A92B
:10544C00F0EA28F8EB125437E0F4FEA3E0F4FF88FE
:10545C00828983EEF0A3EFF0125473F4F00CECC3DA
:10546C00940440D5025756E82402F582E439F583BA
:10547C00E02274F41218E674F4121876EAFEEBFFCC
:10548C008C088D099007FC125D96704FEE4F7003DF
:10549C000255F7EC450970030255F712118AE99091
:1054AC0016DCF0C3940A4033750B007C0679FFE5DB
:1054BC000B75F00EA4FAABF074642AFA74073BFB7C
:1054CC00121394E96003025558050BE50BC3940ABB
:1054DC0040D9750A0AE50A9016DCF09016DCE0C398
:1054EC00940A40030255F775F006E0A4FB9007FC04
:1054FC00125D96705CEEFCEFFD7A0E74202BF912A7
:10550C0014547C0C7D0079FFAA18AB1912132EAC25
:10551C0018AD197A0C9016DCE02470F9121454753D
:10552C000A0E750B00780A121AF9EEFCEFFD9016B4
:10553C00DCE01256B6121316740212188C9007FC8B
:10554C00E508F0A3E509F079000255F9850B0A800E
:10555C0084E0C8240612561260197A1B74212BF9A8
:10556C001214541255FE2406F582E438F583E4F047
:10557C00A380D31255FE240A12561260107A1B74A3
:10558C00222BF91214541255FE240A80DB1255FEFC
:10559C00240C12561260107A1074232BF912145426
:1055AC001255FE240C80C112560712561260307A26
:1055BC001074242BF9121454125607F582E438F5A2
:1055CC0083E02410FCA3E03400FD7A0475F006900F
:1055DC0016DCE0A42425F912145412560780899085
:1055EC0007F0E060031211C61211BA7901740C02B3
:1055FC004EF39007FCE0F8A3E0C8229007FCE0F81B
:10560C00A3E0C8240822F582E438F58312561EEC78
:10561C004D22E0FCA3E0FD2274F41218E674F212A1
:10562C001876EAFEEBFFE9C3940A5004EE4F7004BF
:10563C0079028034AC18AD197A0E75F006E9A42401
:10564C0020F912145AE9F508701C750A06750B003E
:10565C00780A121AF974021218DCEEFAEFFB121324
:10566C0016740212188CA908740E024EF374F412FC
:10567C0018E6EAFEEBFF750800750A06750B007854
:10568C000A121AF9EEFCEFFDE5081256B6121328B1
:10569C00740212188CE96004A908800B0508E5084F
:1056AC00C3940A40D4790A024EF675F00EA4F8A9F8
:1056BC00F0746428FA740739FB2274F71218E67533
:1056CC000800E50875F00EA4F8A9F0746428FE74BF
:1056DC000739FFEEFCEFFD7A0E75F006E508A42401
:1056EC0020F912145AE960297C067D0079FFEEFA44
:1056FC00EFFB12132E7C067D0079FFEE2CFAE43FB3
:10570C00FB12132EEE240CF582E43FF583E4F0A398
:10571C00F00508E508C3940A40A89007F0E0600380
:10572C001211C61211BA802274F71218E67E007F8D
:10573C00007C06EF1256B674FFF9121394E970014F
:10574C000E0FEFC3940A40E9EEF97F010219B87409
:10575C00F71218E67E00EEF91211A2E9F90EEEC36B
:10576C00940A5003E960EF80E174F31218E674CBED
:10577C0012187689089016DCE06508701B7A017B9C
:10578C0000900748E0F91213767A027B00900748E4
:10579C00E0F91213761211D275F006E508A4FF7425
:1057AC00202FFE74271218DC7A0EEEF912145AE927
:1057BC00600302587D7C0679FF74271218D41213EB
:1057CC0094E9600302587D7C0E7D0079FF742712EA
:1057DC0018D412132E7C1B7D0079FF740C1218D474
:1057EC0012132E7C0C7D0079FFAA18AB1912132E04
:1057FC0074271218DC7A0EEEF9121454E9FE740CAC
:10580C001218DC7A1B74212FF9121454E9F509745F
:10581C000C1218DC7A1B74222FF9121454E9F50AB5
:10582C00740C1218DC7A1074232FF9121454E9F545
:10583C000B740C1218DC7A1074242FF9121454E91E
:10584C00F50C740C1218DC7A0474252FF91214540C
:10585C00E9FFAC18AD197A0C74702508F9121454C0
:10586C00E9F8E509450A450B450C4F48CE4EFE803C
:10587C00027E00EEF9743512188C7F050219B8748B
:10588C00F71218E6E9900748F01211900257567477
:10589C00F41218E6EAFEEBFF5480700302595E9096
:1058AC000748E0F91213588A088B09EA4509700376
:1058BC000259577A01E5082404F8E43509F9880AF5
:1058CC00890B8508828B83E0245060401460062489
:1058DC00E16067806C88828983E070688508828BC0
:1058EC0083A3A3A3A3A3A3A3121B108508828B835A
:1058FC00A3A3A3A3A312561E8508828B83A3A31272
:10590C005A43121154740212188C8038888289837D
:10591C00E0641E700F79008508828B83A3A3125A52
:10592C004312114E850A82850B83E0F9E5082405A4
:10593C00FAE43509FB120812800AAA08121160E970
:10594C00FAEA6007AA08AB09121346EEFAEF648074
:10595C00802AEE54026028EE6402FE7C007D007A00
:10596C00007B0012117EE960047A0180027A027BCE
:10597C0000900748E0F9121370EEFAEFFB805FEE2F
:10598C00A2E0504C6401F508EFF5091259FB121115
:10599C00CCE9602A125D936020125A07601B7C00D0
:1059AC0079011259FB8E828F831218E47C007903E3
:1059BC001259FB1259ED1218E41211D2800C7A0113
:1059CC007B00900748E0F9121370AA08AB09800E0F
:1059DC0054046006EE6404FA80047A007B00024EE4
:1059EC00F6900762E0F8A3125A12F583888222908F
:1059FC0007FC125D83E0FAA3E0FB22125A12F9E8CD
:105A0C00FEE9FFEE4F22125A1AE0F8A3E022E0F56D
:105A1C00838882A3A3227F020219B8C082C083901C
:105A2C000748E0F98A828B83A3125A431208B48088
:105A3C003B850882850983E0FAA3E0FB22C082C083
:105A4C008374FF121876121196E9C394028518829A
:105A5C00851983400474028002740AF0AC18AD19E5
:105A6C007A0179051206F2740112188CD083D08257
:105A7C0002013274F21218E674E8121876EAFEEBA0
:105A8C00FF890A8C088D097C187D007900AA18AB57
:105A9C001912132E851882851983EEF0A3EFF0905E
:105AAC00074AE0C0E074021218C2D0E0F090074B35
:105ABC00E0C0E074031218C2D0E0F09016DBE0C036
:105ACC00E074171218C2D0E0F074151218C2E0542A
:105ADC00FEFAA3E0FB9016DAE0A2E0E433F8EA4821
:105AEC00F8EBF974151218C2125C23A2E15004D21F
:105AFC00F08002C2F0E854FDFAA2F0E43325E0F89D
:105B0C00EA48F874151218C2125C23A2E45004D2AD
:105B1C00F08002C2F0E8FAE954FEFBA2F0E433F99B
:105B2C00EB49F974151218C2125C23A2E55004D289
