:020000040000FA
:060000000201070223B516
:03002B000227F0B9
:0300330002281C84
:0300530002242B59
:03007B000227ADAC
:1000830002220BE5C754F84401F5C77901220000A9
:100093000080FB120086B900030200F1E4792178A5
:1000A30008B800028004F709D8FCE479297802B87B
:1000B30000028004F709D8FCE490028178B2791930
:1000C3008002F0A3D8FCD9FA7A327B1B90013778EF
:1000D3001C79028015E493A3AD82AE838A828B835D
:1000E300F0A3AA82AB838D828E83D8E9D9E7758288
:1000F3008E7583F2740312011975829175830074EE
:100103000012011975D00075813F751881751902A8
:10011300759F00020096C09FF59FE473D09F22D085
:1001230083D082C09FE493C0E0740193C0E0740263
:1001330093F59F227E038A03C003BA03FF0000B432
:10014300000028002800283075A000A000A000A00F
:100153000000080008E001F000100010001000107B
:10016300001000100050005000500010001000D08C
:10017300070000000000000F0001000500307507B4
:10018300001000010081FF00000000FFFFFF0202DA
:100193000208025000A0000000E803025C8F010087
:1001A30000AD8E02608F0100008C1B02548F010092
:1001B30000B60202608F0100008D1B024A8F01000E
:1001C30000CC0202608F0100008E1B024C8F0100E5
:1001D30000CE0202608F0100008F1B024E8F0800C9
:1001E30000CF0202608F010000901B02508F0100BC
:1001F30000911BFFFFFF1700FA0BFA0BFA0BFA0B28
:10020300FA0BFA0BFA0BFA0BFA0BFA0BFA0BFA0BC3
:10021300FA0B4C0E6A0E460E01E803057710020A2C
:100223000000E81100000012FFFF0148494420418B
:10023300647652656D6F7465FFFFFF00BE1472151F
:100243005216821682160000000101FF00FF001201
:1002530001221ADD031201222DDD031201224EDDDC
:1002630003120122B9DD03120122FADD0312012276
:100273001BDE031201225CDE03120122F4DE0312F1
:1002830001223CDF0312012267DF031201224CE645
:10029300031201225FE6031201228CE603120122FC
:1002A30003E7031201223DE703120122C5BD021237
:1002B3000122C8BE02120122F5BE021201223ABF78
:1002C300021201226DBF0212012270BF021201222B
:1002D300AEBF0212012222C0021201228EC00212FC
:1002E300012256C1021201228DC102120122C7C18D
:1002F3000212012291C202120122C2C2021201227F
:10030300F3C2021201225DC30212012260C3021270
:1003130001226DC30212012270C302120122C7C35C
:100323000212012231C40212012234C40212012238
:10033300CEC402120122DEC40212012211C502122E
:1003430001221EC50212012221C50212012289C502
:10035300021201228BC6021201222FC702120122AE
:1003630098C702120122D6C70212012262DB0212CF
:1003730001225ADC021201228EDC0212012224DD48
:10038300021201226FDD02120122D3DD02120122C9
:100393005DDE0212012216DF0212012238E202128E
:1003A3000122B5E302120122D8E302120122EAB9C3
:1003B300031201228FBB03120122AFBB03120122DE
:1003C300D0BC0312012223BD0312012253C2031224
:1003D30001227BC203120122A8C203120122E0C23E
:1003E300031201223EC3031201228AC30312012214
:1003F300F1C30312012231C4031201226EC403129A
:1004030001229CC40312012246C50312012250C5D6
:10041300031201225DC50312012290C503120122BA
:100423009CC503120122B4C503120122BEC50312E7
:100433000122C3EC03120122D1EC03120122E9ECE5
:100443000312012201ED0312012218ED031201220E
:1004530068DF0112012212E0011201228EE0011273
:100463000122ACE101120122E8E10112012283E23F
:100473000112012267E3011201222AE4011201227F
:10048300A2E40112012230E601120122A1E60112C7
:1004930001225BE7011201224DE8011201228DE8DE
:1004A3000112012241E90112012273E90112012221
:1004B30069EB01120122B0EB01120122CEEB011212
:1004C300012253EC0112012217ED0112012236EF32
:1004D300011201224CC60312012262C60312012239
:1004E30080C60312012291C7031201229BC7031284
:1004F3000122C6C803120122BDC9031201222ACA5E
:1005030003120122B2E403120122EFE503120122D6
:1005130093A50112012244A60112012260A6011231
:10052300012221A70112012256A70112012297A736
:1005330001120122A2A70112012278A801120122AD
:1005430055A901120122E5A9011201229CAA011257
:100553000122AAAD0112012299AF011201224BB06F
:100563000112012214B10112012259B40112012214
:1005730003B5011201222CB601120122E8B70112C0
:10058300012288B801120122D6B80112012215B93D
:1005930001120122E8B9011201221CBA011201223F
:1005A300A9BA01120122A3CE011201222FCF0112F7
:1005B30001226ACF01120122D9CF01120122E2D016
:1005C30001120122EBD101120122B2D20112012246
:1005D3000FD4011201222DD4011201224AD4011297
:1005E300012215D5011201223DD50112012207D89E
:1005F300011201220CD80112012225DA0112012273
:1006030073DA01120122E3DA0112012221DB011262
:100613000122FDDB01120122BDDC0112012209DDF1
:10062300011201220CDD0112012250DD011201220F
:1006330098DD01120122D7DD01120122F9DD011239
:1006430001222DDE0112012290DE01120122D8A225
:1006530003120122E1A203120122FBA203120122CF
:100663001AA3031201225FA303120122A3A40312FC
:1006730001223EA50312012282A503120122ACA589
:10068300031201221BA60312012261A603120122F7
:10069300D8A60312012289A70312012200800312A4
:1006A30001221D80031201227D8003120122A180F9
:1006B300031201223F850312012240860312012205
:1006C3009D8603120122D586031201227CB50312F3
:1006D300012286B503120122CBB503120122DFB535
:1006E300031201226FB603120122A8B603120122DC
:1006F300E3B6031201220CB7031201224FB7031210
:10070300012264B703120122CFB703120122E3B718
:1007130003120122F7B7031201220CB803120122BC
:1007230046B803120122B3B803120122FFB8031221
:1007330001222AB9031201226DB90312012297B9CA
:1007430003120122C2B903120122C4E803120122D7
:100753001DA70212012200A8021201227BA8021285
:100763000122B6A80212012207AA0212012290AAAC
:1007730002120122A8AC021201223AAF0212012294
:10078300ECAF02120122F8B0021201226BB2021284
:100793000122C4B202120122A89303120122EB9395
:1007A300031201226F9403120122429503120122C4
:1007B3001998031201227CDA0312012229DB0312A6
:1007C300012236DC0312012275DC03120122CFDC85
:1007D300031201222CFE021201228FFE02120122B9
:1007E3002CFF021201225AFF021201227BFF021286
:1007F3000122B6FF02120122D6FF021201229BA799
:100803000312012227A803120122E6A803120122E0
:10081300FEA90312012218AC03120122FCC7021223
:10082300012221C802120122F5C80212012262C963
:1008330002120122B8C90212012254CA0212012271
:1008430088CB0212012263CC02120122C2CC021213
:10085300012293CD021201221FCE0212012222CEC7
:10086300021201226CCE02120122DECE02120122FA
:1008730089CF02120122A9CF02120122F1CF021263
:1008830001220DD00212012287D00212012295D03B
:100893000212012224D1021201228DD1021201225D
:1008A300E6B0031201226BB103120122ADB10312B0
:1008B300012291B203120122FEB20312012242B3BA
:1008C3000312012286B303120122B3B303120122DE
:1008D300DBB30312012213B40312012251B4031236
:1008E300012278B403120122F2B4031201223CB5AF
:1008F30003120122F14500120122EA4700120122EC
:10090300D64A001201222A4B00120122554B001233
:1009130001222F4C001201226E4C00120122B54C11
:1009230000120122C84C00120122094D00120122BB
:10093300364D00120122844D00120122C34D0012D4
:100943000122EE4D00120122414E00120122D04E2F
:1009530000120122BE510012012233530012012260
:100963002754001201224056001201229156001210
:100973000122AC5B00120122FB5B00120122415CED
:1009830000120122295E00120122F35F00120122EC
:100993000560001201222F61001201226061001222
:1009A3000122906200120122A26200120122D6D714
:1009B3000312012248D8031201229ED803120122F6
:1009C300E2D80312012202D9031201224FD90312E2
:1009D300012297D903120122EAD9031201223BDA39
:1009E30003120122B0D1021201222FD202120122DC
:1009F30028D8021201222ED902120122A1DA0212F0
:100A0300012238DB02120122FC28001201224529AF
:100A130000120122722900120122A42900120122CC
:100A2300B02900120122BC2900120122D32900128D
:100A33000122AE2A001201220C2B00120122412BAB
:100A430000120122722C00120122BF2C001201227B
:100A5300052D00120122712D00120122152E001204
:100A63000122CB2E001201222A2F001201229B2FDA
:100A730000120122F92F001201222B310012012250
:100A83009332001201225D33001201226A330012F5
:100A93000122AC3300120122BC3300120122E033E5
:100AA30000120122E33300120122CF34001201228B
:100AB3006B35001201220436001201229B3600120C
:100AC3000122C836001201222637001201226D3797
:100AD30000120122BD37001201220D38001201223B
:100AE3007F38001201221A3900120122C53900127F
:100AF3000122643A00120122E23A00120122293B48
:100B0300001201228D3B00120122BC3B0012012284
:100B1300533C00120122653E00120122A93E00123D
:100B23000122F43E001201227A3F00120122044006
:100B3300001201221D4100120122A34100120122D1
:100B4300C841001201221F42001201223442001246
:100B530001227C4200120122EF420012012234439F
:100B6300001201223D4400120122EE440012012230
:100B73004C4500120122A84500120122C145001272
:100B83000122FBE4021201224FE5021201225BE57E
:100B93000212012225E60212012252E6021201226A
:100BA30080E602120122ECE60212012222E702127F
:100BB30001225BE70212012273E702120122C8E756
:100BC30002120122E1E70212012226E802120122A7
:100BD30039E80212012253E80212012269E80212E3
:100BE300012287E902120122B2EA021201229CEBDE
:100BF300021201228DEC02120122FBFF01120122DB
:100C0300CB98031201224E9C031201229B9D0312D7
:100C13000122A19A02120122749D021201227A9DDD
:100C2300021201220AA0021201226DA20212012263
:100C33004FAC03120122E6AC03120122A4AD03124E
:100C43000122CEAD03120122A8AF03120122ADB0DF
:100C530003120122658F01120122978F01120122D3
:100C6300B49B01120122059D011201220E9E011265
:100C730001228D9F0112012278A001120122C7A037
:100C830001120122E1A00112012223A1011201227A
:100C93002EA10112012275A1011201227EA10112CE
:100CA30001222AA20112012203A3011201224AA353
:100CB30001120122B2A301120122F4A301120122A3
:100CC30022A4011201225FA4011201229FBB01127F
:100CD30001226ABF0112012270BF0112012214C650
:100CE3000112012268CA0112012251CE011201220E
:100CF300CDCD0312012243CE0312012259CE03129A
:100D03000122E9CE0312012226CF0312012260CF72
:100D1300031201229ACF031201220DD003120122E2
:100D23004ED00312012257D00312012263D00312C3
:100D3300012282D003120122ACD003120122C1D0BE
:100D43000312012204D1031201223379001201227A
:100D53004679001201226079001201228D79001276
:100D63000122D37900120122067A00120122447A69
:100D730000120122A97A00120122BE7A0012012276
:100D8300C97A00120122D67A00120122ED7A0012EA
:100D93000122FB7A001201220A7B001201221F7B2F
:100DA30000120122347B001201223F7B0012012238
:100DB3004B7B00120122587B001201226B7B001235
:100DC3000122767B001201229B7B001201223F7CD1
:100DD30000120122547C00120122697C00120122BC
:100DE300837C00120122A07C00120122BD7C001230
:100DF3000122C87C00120122747D00120122557E5B
:100E0300001201227A7E00120122857E0012012245
:100E13009A7E00120122AE7E001201220F7F001281
:100E23000122157F001201221B7F00120122217F64
:100E330000120122397F001201226C7F001201226D
:100E43006DB3021201228FB30212012257B40212B0
:100E5300012211B70212012227B80212012248B956
:100E63000212012222BA02120122D1BA0212012273
:100E73000580021201229C80021201223481021297
:100E830001222482021201225B82021201226E825B
:100E930002120122DC820212012277840212012251
:100EA3009E840212012240850212012275850212DC
:100EB3000122868502120122FF8502120122208669
:100EC30002120122388602120122908702120122A5
:100ED300998902120122E98B02120122EC8C02127F
:100EE30001223B8D0212012240EF011201223DF04B
:100EF3000112012228F10112012232F10112012211
:100F030054F10112012260F101120122B2F2011225
:100F13000122E1F20112012211F40112012253F420
:100F2300011201227FF50112012255F6011201225D
:100F3300A7F60112012206F7011201223DF7011261
:100F4300012278F70112012213FB011201222CFB6B
:100F530001120122AEFB01120122BCFB011201228C
:100F630011FC011201221FFC011201228CFC01124F
:100F73000122FEFC0112012244FD01120122B0DF15
:100F830003120122D5DF0312012246E003120122DC
:100F930047EE0212012250EE0212012259EE021212
:100FA30001228AEF02120122A9F102120122DFF1CA
:100FB3000212012219F2021201224FF2021201223D
:100FC30089F202120122BDF202120122E9F2021297
:100FD300012232F3021201226CF302120122B4F352
:100FE300021201220AF4021201223FF40212012228
:100FF3009AF402120122D4F40212012225F50212FC
:1010030001225BF50212012295F502120122B8F5C5
:1010130002120122A8ED03120122D4ED03120122D0
:101023002FEE0312012239EE0312012249EE0312BD
:101033000122E69D03120122259E03120122AE9E88
:1010430003120122C39E031201220E9F03120122E7
:101053004D9F031201225C9F03120122B59F0312CD
:10106300012204A0031201225DA0031201226AA13E
:101073000312012263A203120122A0A2031201227E
:10108300D4F103120122C562001201223965001254
:101093000122106600120122846700120122E16717
:1010A300001201228A6800120122876900120122BC
:1010B3000F6A00120122946A00120122B96A001217
:1010C3000122726D00120122E36D00120122CF6E24
:1010D30000120122096F00120122496F001201223E
:1010E300EF700012012220710012012275710012AB
:1010F3000122C271001201223372001201225772BF
:101103000012012271720012012287730012012260
:101113009773001201221575001201223575001212
:1011230001226B75001201222277001201229B77A4
:1011330000120122DA77001201220579001201223E
:1011430015F10312012234F103120122EE7F001282
:101153000122E4F20312012223F3031201224BF3CF
:1011630003120122F8EE0312012208EF03120122F7
:1011730020EF0312012288EF03120122D8E90312A0
:1011830001225CEA03120122C2EA0312012253EE96
:101193000312012256EE031201228FEE03120122E3
:1011A300E5EE0312012234CA0312012248CA0312D4
:1011B3000122C1CA0312012296CB0312012268CD78
:1011C30003120122888D02120122148F02120122BE
:1011D300729002120122759002120122789002127B
:1011E30001222694021201228A94021201223897C4
:1011F300021201226F970212012292970212012218
:10120300A49702120122E59802120122A299021266
:101213000122DA9902120122759A02120122D2EBFB
:1012230003120122FBEB0312012224EC031201221D
:101233003CEC031201227EEC031201223A8E0312CC
:101243000122448E03120122848E03120122CD8EC9
:1012530003120122078F031201225D8F0312012261
:101263007C8F03120122858F03120122D68F031272
:101273000122FF8F03120122149003120122849092
:101283000312012212910312012256910312012229
:101293007E9103120122FD91031201224092031257
:1012A30001227D92031201228F9203120122AE9238
:1012B30003120122B792031201227C93031201222B
:1012C30014E30312012265E303120122EEE3031286
:1012D300012254E40312012232D1031201225CD110
:1012E3000312012256D2031201227BD203120122DE
:1012F3001CD303120122A2D303120122DBEA03123D
:10130300012234F203120122CDFD0112012203FE58
:10131300011201223CFE0112012295FF011201225A
:101323002BF00312012241F0031201224BF00312AE
:10133300012246F60212012203F7021201223EF7AE
:101343000212012266F702120122C8F702120122D9
:1013530014F80212012274F80212012205F9021292
:10136300012201FA021201228EFB0212012211FC58
:101373000212012275FC021201228CFC02120122CC
:1013830082FD02120122CEFD0212012230BE03129F
:10139300012245BE03120122F8BE0312012238BF07
:1013A3000312012251BF0312012284BF031201223F
:1013B300D1BF0312012205C00312012247C0031249
:1013C300012246C20312012266E103120122B0E1A7
:1013D30003120122C0E10312012219E203120122C6
:1013E30074E203120122BDE203120122ACE70312ED
:1013F300012219E8031201222AE80312012273E8E9
:1014030003120122A9E8031201228DD4031201223F
:10141300E2D40312012206D5031201225BD7031281
:10142300012275D703120122A0D70312012292EFE2
:1014330003120122A7EF03120122A1F003120122DA
:10144300CCF003120122F6F003120122F8F003128A
:101453000122FAF0031201220BF1031201220DF112
:101463000312012272F103120122E4FF021201228C
:101473004187031201221888031201220A890312E9
:1014830001221B89031201222C890312012276896E
:1014930003120122128B03120122638C0312012215
:1014A300938C031201225E8D03120122BE8D03125F
:1014B3000122CFFF011201222DF3031201000200CA
:1014C3000000205104B41600010102030109025473
:1014D30000030100A0190904000001030101000930
:1014E3002111010001223F000705810308000A09B9
:1014F3000401000103000000092111010001226D14
:1015030000070582030C000A09040300010301021A
:1015130000092111010001223400070584030F0093
:101523000A0403090424035400650078006100736E
:1015330000200049006E0073007400720075006D96
:101543000065006E00740073001E035500530042D3
:1015530000200043004300320035003400300020F7
:101563000048004900440008033000300031000502
:10157300010906A10195087501050719E029E71579
:101583000025018102950175088101950575010505
:1015930008190129059102950175039101950675B5
:1015A30008050719002965150025658100C0050C8C
:1015B3000901A1010902A10205091901290A15015D
:1015C300250A750495018100C0050C098615FF25C0
:1015D3000175029501814609E909EA15007501952E
:1015E30002810209E209300983098109CD09400911
:1015F300B209B309B409B509B609B71501250C75C4
:1016030004950181000980A1020509190129031527
:1016130001250375028100C08103C005010902A1F0
:10162300010901A100050919012903150025017507
:1016330001950381027505950181010501093009B1
:101643003109381581257F750895038106C0C022AD
:1016530000000072153F0022000001B1156D002249
:101663000000031E16340021000000E214090021CB
:10167300000001FB1409002100000314150900D91F
:10168300140000F21400000B150000E0667010084F
:10169300A3E066700A08A3E066700408A3E066226C
:1016A300C3E7960809E7960809E7960809E796222B
:1016B300C3E09608A3E09608A3E09608A3E0962269
:1016C300C008C3E096F50808A3E096420808A3E023
:1016D30096420808A3E09645087001D3D00822BBC0
:1016E3000102E722C082C08389828A83BB0003E0B0
:1016F3008002E493D083D08222BB000EC082C083D9
:101703008A838982F0D083D08222BB0101F7220829
:101713000808EAC0E0EBC0E086F0E7A4FA180986FF
:10172300F0E7A42AFA180986F0E7A42AFA1809862A
:10173300F0E7A42AFA1986F0E7A4FBE5F02AFA19E0
:101743000886F0E7A42BFBE5F03AFA190886F0E7E0
:10175300A42BFBE5F03AFA18180986F0E7A4C5F0C4
:101763002BFBE43AFA1908E7C5F0C6A426F6E5F020
:101773003BFBE43AFA1886F0E7A4F6E5F00826F610
:10178300E43B08F6E43A08F6D0E0FBD0E0FA22E4C2
:10179300CFC0E0E4CEC0E0E4CDC0E0E4CCC0E0756F
:1017A300F020E626F608E633F608E633F608E633D5
:1017B300F6181818EC33FCED33FDEE33FEEF33FF70
:1017C300C3EC9709ED9709EE9709EF97191919409B
:1017D3000FFFEC97FC09ED97FD09EE97FE1919062B
:1017E300D5F0BFECF709EDF709EEF709EFF7191993
:1017F30019D0E0FCD0E0FDD0E0FED0E0FF2260167F
:10180300080808C6C313C618C613C618C613C618D5
:10181300C613C6D5E0EA2270090808082260161824
:101823001818C6C333C608C633C608C633C608C6A7
:1018330033C6D5E0EA22E627F60809E637F60809B3
:10184300E637F60809E637F622E026F608A3E0367F
:10185300F608A3E036F608A3E036F622E026F00801
:10186300A3E036F008A3E036F008A3E036F022C385
:10187300E697F60809E697F60809E697F60809E6F3
:1018830097F622C3E096F008A3E096F008A3E0964B
:10189300F008A3E096F022E657F60809E657F608A3
:1018A30009E657F60809E657F622E056F608A3E0DC
:1018B30056F608A3E056F608A3E056F622E056F0E3
:1018C30008A3E056F008A3E056F008A3E056F02280
:1018D300E066F608A3E066F608A3E066F608A3E070
:1018E30066F622E0F608A3E0F608A3E0F608A3E014
:1018F300F622E6F008A3E6F008A3E6F008A3E6F074
:1019030022E0FAA3E0FBA3E0FCA3E0FD22EAF0A3BC
:10191300EBF0A3ECF0A3EDF022E0F8A3E0F9A3E0F1
:10192300FAA3E0FB22E8F0A3E9F0A3EAF0A3EBF0CB
:1019330022CAC0E0E6F0A308DAFAD0E0FA22CAC06D
:10194300E0E0A3C582CCC582C583CDC583F0A3C522
:1019530082CCC582C583CDC583DAE6D0E0CA22C373
:10196300E498F8E499F91219A38026C3E49AFAE4F7
:101973009BFBE920E7E91219A3E498F8E499F9221B
:10198300C3E498F8E499F91219A3E498F8E499F9EF
:10199300C3E49AFAE49BFB22EB20E7CFE920E7E0DC
:1019A300B90010BB0008E88AF084F8AAF022E4FB2F
:1019B300C8FA22EB70227B10C833C8C933C933502D
:1019C30007C39AC3DBF280069A50012ADBEAC833C5
:1019D300F4C8C933F4C9FA2275F008E4C833C8C996
:1019E30033C933C99AC99B5004C92AC93BD5F0EC02
:1019F300FBC833F4C8E4C9FA22600D08C6A2E71392
:101A0300C618C613C6D5E0F322600C08C6C313C6B6
:101A130018C613C6D5E0F422700422600D18C6C39D
:101A230033C608C633C6D5E0F41822251810AF080C
:101A3300F518400C15198008F51840021519D2AF96
:101A43002200C0D0251810AF08F518500C051980D6
:101A530008F51850020519D2AFD0D0222518F58207
:101A630010AF08F518400C15198008F51840021539
:101A730019D2AF851983222518F582E43519F58328
:101A8300222518F8E43519F9222518FAE43519FB4B
:101A9300222518FCE43519FD22E4732518C582C0FC
:101AA300E0E51934FFC583C0E0E518C3958224F847
:101AB30010AF08858319858218800885831985826C
:101AC30018D2AFCEF0A3E520F0A37808E608F0A380
:101AD300DEFAEFF0A3E58124FAF8E608F0A3E608BE
:101AE300F0A3E608F0A30808E608F0A3E608F0A3CD
:101AF30015811581D0E0FED0E0F81581158115819F
:101B0300E8C0E0EEC0E0222518C582C0E0E5193444
:101B1300FFC583C0E0E518C3958224F910AF08859B
:101B230083198582188008858319858218D2AFCEE0
:101B3300F0A3E520F0A37808E608F0A3DEFAEFF0BF
:101B4300A3E58124FBF8E608F0A3E608F0A3080860
:101B5300E608F0A3E608F0A315811581D0E0FED0D6
:101B6300E0F815811581E8C0E0EEC0E02285198315
:101B7300851882E0A3FEE0A3F5207808E0A3F60829
:101B8300DFFAE0A3FFE0A3C0E0E0A3C0E0E0A3C06E
:101B9300E0E0A3C0E0E0A3C0E010AF0885821885B1
:101BA30083198008858218858319D2AFD083D082A8
:101BB30002011F851983851882E0A3FEE0A3F520A7
:101BC3007808E0A3F608DFFAE0A3FFE0A3C0E0E0B3
:101BD300A3C0E0E0A3C0E0E0A3C0E010AF088582AB
:101BE300188583198008858218858319D2AFD0831D
:101BF300D08222C0D02518C582C0E0E51934FFC5C4
:101C030083C0E0E518C3958224F310AF08858319D8
:101C13008582188008858319858218D2AFC8F0A3FE
:101C2300E9F0A3EAF0A3EBF0A37908E709F0A3D85E
:101C3300FAECF0A3EDF0A3EEF0A3EFF0A3D0E0F005
:101C4300A3D0E0F0A3D0E0F0A3E520F0A3E5F0F00B
:101C5300A322851983851882E0C0E0A3E0F9A3E0FD
:101C6300FAA3E0FBA37808E0F608A3DFFAE0FCA3FD
:101C7300E0FDA3E0FEA3E0FFA3E0C0E0A3E0C0E03B
:101C8300A3E0F5D0A3E0F520A3E0A3F5F010AF089F
:101C93008583198582188008858319858218D2AFB8
:101CA300D082D083D0E0F8D0E0327404800A740389
:101CB3008006740280027401C0E0F404121A5FD03B
:101CC300E0121934227404800874038004740280BF
:101CD30000CCC0E0EDC0E0E518C39CCCAD195001C9
:101CE3001D10AF068C188D1980068C188D19D2AF74
:101CF300121941D0E0FDD0E0FC22D083D082E9C0AC
:101D0300E0E493A3C386F0C5F095F0F908E493A348
:101D130086F0C5F095F0700BE493A3C3994005E9F1
:101D2300048002A3E475F002A42582F582E5F03570
:101D330083F583D0E0F9E493A3C0E0E493C0E02209
:101D4300D083D082ECC0E0EDC0E0E493A3FCE49345
:101D5300A3FDED4C600D121D8FEC24FFFCED34FF51
:101D6300FD80EFE493A3FCE493A3FDED4C600D121F
:101D73001DCEEC24FFFCED34FFFD80EFD0E0FDD061
:101D8300E0FCE493A3C0E0E493C0E022C0E0C3E43A
:101D93009396087401939618400FE49366700808AD
:101DA300740193661870007019A3A3C3E493960893
:101DB3007401939618A3A3400DD0E0D0E0D0E002C5
:101DC3001D7FA3A3A3A3A3A3D0E022C0E0C0F088F8
:101DD300F0E4936670080874019366187000A8F025
:101DE300A3A3700BD0F0D0E0D0E0D0E0021D7FA31E
:061DF300A3D0F0D0E022B5
:101DFC0074F6121B0AEAFEEBFF8C088D09EE2434F4
:101E0C00F8E43FF9E8FCE9FD121F2EE0FAEE243766
:101E1C00F582E43FF583E0F88508F0A4C885F00A64
:101E2C008509F0A4250AF9EA28F8E439F97A257B22
:101E3C00001219A3EA8C828D83F0FA131313541F2A
:101E4C00F8EE28F8E43FF9E8245DF582E439F583EF
:101E5C00E0C0E074075AF8D0E0B800028004C31365
:101E6C00D8FCA2E05003EA8020EE2436F582E43F51
:101E7C00F583E0F5F0EA84A8F0EE28F8E43FF9E801
:101E8C002438F582E439F583E0F97F03021BB6743C
:101E9C00F5121B0AEAFEEBFFEE2434F582E43FF563
:101EAC0083E0C0E0121F2ED0E0F08E828F83A3A3BC
:101EBC00A3A3A3E0FAA3E0FB8E828F83A3A3A3A327
:101ECC00A3A3A3E0C39AF508A3E09BF509EE247F36
:101EDC00F8E43FF9880A890B8882F583E064017085
:101EEC002CEE2480F582E43FF583EA2401F8E43BF0
:101EFC00F9E0687003A3E06970137CA97D06EEFA23
:101F0C00EFFB120B0A850A82850B83E4F0AC08AD5B
:101F1C0009EEFAEFFB121DFCE9F912279F7F040270
:101F2C001BB6EE2435F582E43FF58322C082C083D4
:101F3C00851882851983E0F8A3E0F9C3EA9CEB9D30
:101F4C005010C3EC98ED99401BC3EA98EB995014D0
:101F5C00800EC3EA98EB994007C3EC98ED994004C6
:101F6C00790180027900D083D08222EAC39CFAEBFB
:101F7C009DFB2274ED121B0A900352E0640860056D
:101F8C00E06407702C9061C8E06026900380E0F854
:101F9C0074FF68601CE875F00DA4C8AAF02AF974E7
:101FAC008228FE740339FF8E828F83A3A3A3E07073
:101FBC00057900022121EE2468F50EE43FF50F901F
:101FCC006060E0850E82850F83F0751043751107F4
:101FDC00750800750900E5D914F50AE5D95403F51F
:101FEC000B601FEE2483F50CE43FF50D7403650BB9
:101FFC006059E50A6017EE2467F582E43FF583E04B
:10200C00700B793DEEFAEFFB120B3A80A490073E71
:10201C00E064016023850C82850D83E060047A0402
:10202C0080027A00E50AC39AFA95E0FB1209068A47
:10203C00088B09EA45097006120E22021FBD850C99
:10204C0082850D83E070048A108B117A008014E570
:10205C00D9C0E0EAF8E51028F582E43511F583D013
:10206C00E0F00AEAC3950A40E6850C82850D83E010
:10207C00602874FC250AF50A7810121CB5AC0AA964
:10208C000BEEFAEFFB120BF47402121A44E9700A0D
:10209C00AA08AB091212C602200E7403650B605419
:1020AC00850A0C750D00780C121CB5AC10AD11AA7C
:1020BC0008AB09120BB87402121A44850E82850FF4
:1020CC0083E0F87480687005750C7F8002880CE5DD
:1020DC000CF50D780D121CB9780B121CB9A90AACB1
:1020EC0008AD09900380E0FA7B0012074A740212D3
:1020FC001A44801C900352E06408AC10AD117009B6
:10210C00EEFAEFFB120C248007EEFAEFFB120CDE5A
:10211C00120E2E79017F0C021BB674F3121B0A747B
:10212C00FC121A2EEAFEEBFF8909A2AFE433F50884
:10213C00C2AFEE2463F50AE43FF50B8010AA0AAB9C
:10214C000B120B701212C69006B0E004F0850A82D6
:10215C00850B83E0F8A3E0F9E849602DE82402FA46
:10216C00E439FBEA2402F50CE43BF50D780C121C67
:10217C00B58A828B83E0FCA3E0F9EEFAEFFB120B3D
:10218C00647402121A44E960B49006B0E0604D9099
:10219C0006B1E0F89006B0E0C398500C74026509E3
:1021AC00703A9006B2E060348E828F83A3A3A3A30F
:1021BC00E08518828519831221F87402121A7AE8C4
:1021CC001221F89006AFE028F07402121A94AA18A3
:1021DC00AB1979011207AA9006B0E4F0E508A2E069
:1021EC0092AF7404121A447F06021BB6F0A3E4F0FB
:1021FC009006B0E0F82200008521878522C622C017
:10220C00E074EB121BF6A2AFE433F508C2AF759B7A
:10221C0000906182E0A2E05030E591A2E0502A7576
:10222C0091FE74016521702112239E120D38122328
:10223C008C121CC81225497404121A44E9640170EA
:10224C00057901120D86121F7F906182E0A2E55084
:10225C005DE591A2E550577591DF900352E064075C
:10226C006005E06408702F12239E74016521703E96
:10227C00120D3812238C121CC81225497404121A20
:10228C0044E9640170057901120D867901EEFAEFCB
:10229C00FB1221268018E0640D7013900374E00487
:1022AC00F064287002E4F07A00E0F9120E349061C8
:1022BC0082E0A2E64003022361E591A2E64003021C
:1022CC0023617591BF900352E064057008120D20D4
:1022DC00120D2C8003120D26752100120DA4E9900D
:1022EC000353F07900120D86120A2C7A017B0090B0
:1022FC000351E0F9121296907803E0644270569004
:10230C000742E014F0704EC2AF12231800782AD0A6
:10231C00E0F618D0E0F6E59F5407F87005750DFF50
:10232C008003750D7FC4C0E07829E6F50A08E655F0
:10233C000DF50B740B780A121A0CD0E0250AF890E4
:10234C006270E0A2E740F8E8C333906272F09062EA
:10235C0070E0D2E0F0906181E0A2E35009E5E9A2DF
:10236C00E3500375E9F7A3E0A2E75009E591A2E772
:10237C00500375917FE508A2E092AF7F08021C55CF
:10238C008E828F83E0F8A3E0C82416F582E438F53A
:10239C008322900380E0F875F00DA4C8AAF02AF906
:1023AC00748228FE740339FF22C0E0C0D0C082C002
:1023BC0083906183E0A2E05009E5BFA2E050037571
:1023CC00BFFEE0A2E15009E5BFA2E1500375BFFDDD
:1023DC00E0A2E25009E5BFA2E2500375BFFBE0A208
:1023EC00E35009E5BFA2E3500375BFF7E0A2E45048
:1023FC0009E5BFA2E4500375BFEFE0A2E55009E583
:10240C00BFA2E5500375BFDFE0A2E65009E5BFA20D
:10241C00E6500375BFBFD083D082D0D0D0E032C09D
:10242C00E074F2121BF6E5A7A2E4500FE5A1A2E4BA
:10243C00500953A7EF75A1EF12247FE5A7A2E55031
:10244C000CE5A1A2E5500653A7DF75A1DFE5A7A215
:10245C00E15009E5A1A2E1500375A1FDE5A7A2E2B7
:10246C00500CE5A1A2E2500653A7FB75A1FB7F011E
:10247C00021C5574F8121B0A752101900352E0647A
:10248C000670077A007B00120D08A2AFE433FED26F
:10249C00AF900358E0640170187A207B00900351D0
:1024AC00E0F91213B07A207B00900351E0F912127C
:1024BC009C906182E0D2E6F090073FE0602185C6F7
:1024CC00228016900357E064017008E5C654F84466
:1024DC0005F5C653BEFC1222047401652160E4EEBE
:1024EC00A2E092AF7F01021BB60000008E238F2466
:1024FC00858228858327851882851983E0CEA3E001
:10250C00CF852882852783EBC9EAC8EDCBECCA7549
:10251C00F010C3E833C8E933C9EA33CAEB33CBC391
:10252C00EA9EF526EB9FF525B35004AB25AA26ECC5
:10253C0033CCED33CDD5F0DAAE23AF242274F112C7
:10254C001B0A8A088B098C0A8D0B908EEE78081268
:10255C0018AD740F121A7A780C1218E6908EEE7869
:10256C000C1218AD7808790C1216A3908F0A501023
:10257C007808790C12187278081216C34014800E61
:10258C00780C7908121872780C1216C35004790161
:10259C00800279007F08021BB674ED121B0A8A08B0
:1025AC008B098C0A8D0B908EEE78081218AD741373
:1025BC00121A7A780C1218E6908EEE780C1218AD6E
:1025CC00780C79081216A340117808790C1218723D
:1025DC00AA08AB09AC0AAD0B80227510007511006E
:1025EC007512007513017810790C12187278107925
:1025FC0008121839AA10AB11AC12AD137F0C021BC8
:10260C00B6908EEE78081218E68A828B83780812C0
:10261C0018C07F04021BB674F5121B0A8C828D83C2
:10262C0078081218E68A828B83780812188612268C
:10263C0077C3E098F0A3E099122669401E908F466C
:10264C0078081218E68A828B83780812185F8E82BB
:10265C008F83E02420F0A3E0344EF080A4F08E822F
:10266C008F83C3E09420A3E0944E22EA2404F8E480
:10267C003BF9E8FEE9FF8C828D83A3A3A3A3E0F8CA
:10268C00A3E0F98E828F832274F5121B0AE9FE9067
:10269C0006CBE0FAA3E0FBEE29F8E433F9748D28BD
:1026AC00F582748E39F583E02AF508A3E03BF50931
:1026BC007808121CB5908F2E1219041224F874028B
:1026CC00121A448A088B098C0A8D0B741078081224
:1026DC001801AA08AB097F04021BB674F1121B0A7D
:1026EC008A0C8B0D8C0E8D0F7411121A7A121CD051
:1026FC007411121A7AE02401F508A3E03400F509EC
:10270C00E4F50AF50B780C7908121712908F1678ED
:10271C00081218E6780C7908121712AA0CAB0DAC3B
:10272C000EAD0F1224F87402121A448B09EA4509F3
:10273C0060047A0180027A00EC2AFCE43DFD7413FB
:10274C00121A7AE0F8A3E0F9E8FEE9FFECF8EDF9EB
:10275C007A717B021219A388088909E4F50AF50B32
:10276C008E828F8378081218F5ECF8EDF97A717B6C
:10277C00021219A38A088B0974057808121A1B8E89
:10278C00828F83A3A3A3A3E508F0A3E509F07F0838
:10279C00021BB6C082C083E9906000F0D083D08267
:1027AC0022C0E074F2121BF6A2AFE433FED2AFE506
:1027BC008AA2E25007900E18E0D2E0F0E58AA2E37C
:1027CC005007900E18E0D2E1F0758A00C2EB7A1037
:1027DC007B00900E14E0F9121296EEA2E092AF7FFD
:1027EC0001021C55C0E0C0D0E8C0E0E9C0E0A9A8D7
:1027FC00D2AFC2C7E9A2E7E433F8E9A2E792AFD0BF
:10280C00E0F9D0E0F8D0D0D0E032C2AF0200002224
:10281C00C0E074EF121BF6A2AFE433FCD2AF7480AD
:10282C00659E70FA90620F7403F0E0A2E750FB9083
:10283C006206E0FA74065A7006E58BA2E55042EA8D
:10284C00A2E25033901B29E0F8A3E0E890620B124F
:10285C0028E874047808121A0CE50890620712280C
:10286C00E874097808121A0CE508543E906209F0D5
:10287C00906201E0D2E0F0EAD2E1FA901B2BE48006
:10288C0016EAA2E0501290620FE0C2E1F0E0A2E77B
:10289C0040FB901B2B7401F0906202E0F5089062F3
:1028AC0004E0F50A75090074047808121A1BEA454D
:1028BC0008FA750B007409780A121A1BEAF8E50974
:1028CC00450BF9901B27E048F0A3E049F0758B000D
:1028DC00C2E8ECA2E092AF7F04021C55F0901B29D9
:1028EC00E0F508A3E0F50922FFFFFFFFFFFFFFFF64
:1028FC00C082C0839061907404F0A37448F0A3E488
:10290C00F09061807440F09061BC7407F090618726
:10291C007469F09061B67416F07900120A3279027B
:10292C00120A389028F4E493F46006E493F9120A3E
:10293C000E7905120E16022FF2C082C083E9540FD5
:10294C00F9906185E0696012E5C654B84441F5C65A
:10295C00E59E5447644170F8E9F053C6B8E59E54BF
:10296C004770FA022FF274F7121A9EAEA853A87E83
:10297C00120A1AC2BA539AFEC289759B00C2C212BD
:10298C000A2075A91175B905120A26D2BA439A0103
:10299C0074805E42A8023696C082C083906181E446
:1029AC00F0A3801D75E90075910075BF0002011F31
:1029BC00C082C083906181E4F0A374C0F0A3E48072
:1029CC0002F0A3F0022FF2C082C08374F8121A2E08
:1029DC0090035412458F7003022AA6900354E054BE
:1029EC004060177908AA18AB19120B8EAA18AB19EC
:1029FC00120732900354E054BFF0E0548060107919
:102A0C000C7A637B07120B8E900354E0547FF0E03A
:102A1C00A2E0500F7900120A32120738900354E0EA
:102A2C0054FEF0E05402600F7901120A321207389A
:102A3C00900354E054FDF0E05404600F7900120A46
:102A4C003812073E900354E054FBF0E05408600F3A
:102A5C007901120A3812073E900354E054F7F0E063
:102A6C005410600F7902120A3812073E900354E09A
:102A7C0054EFF0E05420600F7903120A3812073E2D
:102A8C00900354E054DFF0A3E05401600D120A44AB
:102A9C00120744900355E054FEF07408121A4402D5
:102AAC002FF2C082C083E9600514602A804F9061C8
:102ABC009A7433F0A37455F09061A0743AF09007B7
:102ACC003DE064017009C2919003567467802D90AB
:102ADC0003567461802690619A743FF0A3745AF087
:102AEC009061A0747FF090073DE064017009D29171
:102AFC0090035674718005900356746AF0022FF29D
:102B0C00C082C083E9600B14600D14601714600C54
:102B1C0080209028F880159028F9801090073DE0CF
:102B2C00640170059028FA80039028FBE49390616F
:102B3C0086F0022FF274EE121A9E74F4121A2E9072
:102B4C008ED6AC18AD1974041219419028F893F470
:102B5C006003022C59907808E0C394025003022CB5
:102B6C003D908EB67404121A9474081219417F00A9
:102B7C00750CFF750DFF750EFF7E00EFFC800F745A
:102B8C00086E606D74096E6068740A6E60638E08FE
:102B9C0075090074027808121A1B122C631218E6BD
:102BAC00A909E50AC9F8881074187808121801E503
:102BBC00104508FAE9FBEC2CF8E433F97404121A0A
:102BCC007AE58228F582E583391236C2C3E89AE9A0
:102BDC009B4008E8C39AF8E99B8006EAC398F8EB97
:102BEC0099F9C3E8950CE9950D5006880C890D8E62
:102BFC000E0EEEC39413408774FF650C700474FFC3
:102C0C00650D6023850E0874027808121A1B122CAD
:102C1C00631218E6851882851983E5822CF582E407
:102C2C003583F583E508F00FEFC394045003022BB2
:102C3C007C7508017509007808121CB57402121A0B
:102C4C00947A3E7B0A1211827402121A44740C128A
:102C5C001A447F0A021B7074482508F58274783573
:102C6C0009F583780822C082C083906186E0F890D1
:102C7C0028FBE4936870099028FAE493906186F03D
:102C8C009061AE7468F0A3746AF090624574FBF0C6
:102C9C00A304F053F4FD43FE0290073D7401F09041
:102CAC0061A0E0643A7004790080027901120A3262
:102CBC00022FF2C082C08390071BE0640170139056
:102CCC000721E0F87401686027E87006A3E064014E
:102CDC00601E900732E064017008900738E06401D0
:102CEC00600E9006C5E06401700A9006CAE06004AC
:102CFC00790C80027900022FF2C082C08375E1F159
:102D0C009006C8E0604C14600914605014604814BC
:102D1C00704F120A569006B7E0F97AB87B06120D7E
:102D2C0068908EDE121904120DB6908F0E121904D3
:102D3C00120D749006C9E0F9120D807901120E0A79
:102D4C009006B5122FE17486F0A3740AF079000294
:102D5C002FF2120A5C80BE120A6280B9120A6880D5
:102D6C00B4791280EA74F4121A9E75D90D9006BECD
:102D7C00E0A2E0E4331313F8122E77484401F5D99E
:102D8C007A00122E8140FB7A00EAF874BF123C4E96
:102D9C003406122E8B40F275E1959006BEE0F97A5E
:102DAC00BF7B06120D6E901BF674E4F0A37409122F
:102DBC002E911231027402F0A3740A12311590068E
:102DCC00C8E064019006B5700B122E0F1218E69035
:102DDC008EE28009122E0F1218E6908EE6780812F9
:102DEC00184C908EEE78081218AD122EBC78081282
:102DFC0018F59006B51230E97413122F967402F080
:102E0C00023E60123F6F78082274F7121A9E122E3F
:102E1C006DFC8CD97A00122E8140FB7A0080061250
:102E2C002F091234BDEAC39B40F5122F84122E8158
:102E3C0040FB7A008008123C4A34061234BDEAC3C7
:102E4C009B40F375E195901BF674F0F0A374091296
:102E5C002E91122E9B7412122F967401F0FF021BEE
:102E6C00709006CEE0FB74072BF5D99006B7E0C442
:102E7C00333354C022EAF874B828F582E4340612CD
:102E8C0035FB94062212327774EAF0A374092212ED
:102E9C003108F0A37402F0A3740A123119122EBC7B
:102EAC0074FFF0A3F0A3F0A3F09006B51230ED225E
:102EBC009006B51230E3240EF582E438F5832274C3
:102ECC00F7121A9E122E6D4402F5D97A00122E8139
:102EDC0040FB7A008006122F091234BDEAC39B40D6
:102EEC00F575E195901BF6122F14F0A3122F141206
:102EFC002E9E7414122F967404F0023696EAF8740F
:102F0C00CF28F582E434062274FC122F21122F21D3
:102F1C00F0A3740922F0A37409F0A374FC2274F7D3
:102F2C00121A9E122E6DFC74064CF5D97A00122ED4
:102F3C008140FB7A008006122F091234BDEAC39B34
:102F4C0040F5122F84122E8140FB7A008008123C2F
:102F5C004A34061234BDEAC39B40F375E195901BCD
:102F6C00F674F6F0A37409123270122E9B741512BB
:102F7C002F967403F00236969006EEE0FB74072B46
:102F8C00F5D974044CF5D97A0022F090035222C082
:102F9C0082C0839007257425F09007237401F0A359
:102FAC00E4F07A01FB120D92900711122FE174924A
:102FBC00F0A3740AF0900722E064017016900721C8
:102FCC00E070107901120DF2120DC2120DEC7900A5
:102FDC00120DFE80111230E3241AF582E438F583C9
:102FEC0022E0F912279FD083D08202011FC082C039
:102FFC008374FA121A2E90071AE064017008120AF0
:10300C006E90071AE4F075E1F19007111230E32489
:10301C0015F582E438F5837401F090071CE0640127
:10302C007046908ED0AC18AD19740612194175D932
:10303C000D900713122E7A4403F5D97A00EAF8742E
:10304C0014123C4E3407122E8B40F27A00EAF885AB
:10305C001882851983E582123C4E3583122E8B40E3
:10306C00EC75E195790180027900120D98901BF6B0
:10307C007430F0A3740CF0A37436F0A3740C1230FB
:10308C00F91230F912310212310EF0A3743CF0A394
:10309C00740C123115900713E0F97A147B07120D9A
:1030AC0068900725E0F912279F7901120D9E908EEA
:1030BC00DE121904120DB6908F0E121904120D7433
:1030CC007900120E0A9007111230E97416122F961D
:1030DC007405F004022AA8E0F8A3E0C8221230ED2F
:1030EC00221230E32414F582E438F58322F0A37421
:1030FC0030F0A3740C22123108F0A32212310C22EE
:10310C00F0A374FAF0A3740B2212311922F0901C64
:10311C000412310E12327B12310E12310CF0227469
:10312C00F7121A9E8908A808123F5490072AE0F952
:10313C007A2B7B07120D68900738E0702579001206
:10314C000DD4EE2406FAEF3401FBEE240CF582EFDD
:10315C003401F583E07004790080027901120D6E60
:10316C0080057901120DD475E1F175D92390072AE8
:10317C00122E7A4405F5D97A00EAF8742B123C4EDB
:10318C003407122E8B40F275D90075D90075D90011
:10319C0075D90075D90075D9007A001232662422CF
:1031AC001235F140F67A001232662426F582E439A3
:1031BC001234BDEAC3940340EEEE242B1235E62400
:1031CC002C1235E6242D1235E6242E1235E6242F4A
:1031DC001235E624301235E624311235E62432124B
:1031EC0035E624331235DA123266245DF582E43981
:1031FC0012372040F2EE24371237E5541FF8EE2434
:10320C002A1237E5C43354E048F5D975E195901B83
:10321C00F67400F0A3740CF0A37406F0A3740C12F3
:10322C003270F0A3740CF0A3740C123115900737A4
:10323C00E0F912279F908EDE121904120DB6908FB2
:10324C000E121904120D7490600DE4F07901120E37
:10325C000A9003527406F0023696EAF8EE28F8E467
:10326C003FF9E82212327712310E2212327B2212EF
:10327C00328874FAF0A3740B12328822F0A374FA19
:10328C00F0A3740BF0A32274EC121A9E9007281270
:10329C003F6B78101218E6900739E0FAF875F00DCC
:1032AC00A4C8ACF02CF9124101EE2EFEEF33FF8EC8
:1032BC000CF50D750E00750F00851008851109852C
:1032CC00120A85130B908EE6780812184C780812A7
:1032DC001CAD85100885110985120A85130B780819
:1032EC00790C1218397810790C121792E4F50EF546
:1032FC000F7808790C1218728A0C750D007403780B
:10330C000C121A1B7808790C121839908EEE78086A
:10331C001218ADAA08AB09AC0AAD0B1225A57404A2
:10332C00121A448A088B09A808A909C3EE98EF99C8
:10333C005006E82EF8E93FF9E890600EF0E9A3F0AA
:10334C00EEA3F0EFA3F090600D74C1F07F0C021BA4
:10335C0070C082C0839006B51233D30229CD74F7A6
:10336C00121A9E900380124111748228F87403394A
:10337C00F9E82405FAE43912442EA3A3A3A3A3A3CA
:10338C00A3A3A3ECF0A3ED123EE8A3E024FFF8A363
:10339C00E034FFF98A828B83E8F0A3E9F0023696D9
:1033AC00C082C0839007111233CC900725022FEDF9
:1033BC00C082C0839007281233CC900737022FEDC0
:1033CC001233D3F0A3F0221230E32406F582E43852
:1033DC00F583E42202011F74F2121A9E1234ACFA25
:1033EC00EE2483F50AE43FF50B850A82F583E06051
:1033FC0004780480027800E8240EF8EAC39850039D
:10340C000234A775080C900743E4F0EE24761237CB
:10341C00E5900744F07902EE2477FCE43FFD7A4511
:10342C007B07120B7C7902EE2479FCE43FFD120B36
:10343C007C7902EE247BFCE43FFD120B7C7902EEDE
:10344C00247DFCE43FFD120B7CEE247412354D12EE
:10345C000B7C850A82850B83E0601E750843750919
:10346C00077808121CB57C0C7903EEFAEFFB120BF3
:10347C00EE7402121A4475081074012508F5D975FA
:10348C00D9037A0080031234BAEAC3950840F77561
:10349C00E1957904120DBC79018002790002399E04
:1034AC00EAFEEBFF9061D0E0F87480C398221234EE
:1034BC00C4F583E0F5D90A22EAF8744328F582E4CE
:1034CC0034072274F2121A9E1239A3600478048015
:1034DC00027800E8240AF8EAC3984060750A08905C
:1034EC0007437401F079057CA97D067A447B0712A9
:1034FC000B7CEE248012354D120B7C8508828509DD
:10350C0083E0601E7508437509077808121CB57CAA
:10351C00087903EEFAEFFB120BEE7402121A4475E3
:10352C000A0C1238FD80031234BAEAC3950A40F72C
:10353C0075E1957904120DBC79018002790002398C
:10354C009EFCE43FFD8E828F83A3A3A3A3A312450D
:10355C009C8C828D83E028F0A3E039F079022274F0
:10356C00F7121A9EEAFEEBFF9061D0E0705B75D902
:10357C001875D90375D9037A00123266249C123659
:10358C008A40F6EE24A41235E624A51235DA12325E
:10359C0066249412368A40F67A0012326624881217
:1035AC0035F140F675E1957908EE2494FAE43FFB89
:1035BC00120B827904EE2488FAE43FFB120B827919
:1035CC0004120DBC1237F080027900023696F58297
:1035DC00E43FF583E0F5D97A0022F582E43FF583E8
:1035EC00E0F5D9EE221235F7940422F582E439F590
:1035FC0083E0F5D90AEAC32274F7121A9EEAFEEBAD
:10360C00FF9061D0E0707375D90E75D90375D9042C
:10361C007A00123266248C12368A40F67A00123204
:10362C006624841235F140F675E1957908EE248C08
:10363C00FAE43FFB120B827904EE2484FAE43FFB9C
:10364C00120B827C00ECF8C3E498FA95E0FBEE2AAE
:10365C00FAEF3BFBEA248BF582E43BF583E0C0E018
:10366C0012326824ABF582E439F583D0E0F00CEC2F
:10367C00C3940840D01237F080027900800C1235C8
:10368C00F7940822A2E092AF79007F01021B70C070
:10369C0082C08375D90275D90375D90575E195EA90
:1036AC00246FF582E43B1236C2EA2471F582E43BC6
:1036BC00123803022FF2F58312459C2274F6121A6B
:1036CC009EEAFEEBFF9007437406123763121CB59B
:1036DC007C017903120BEE7402121A4475D906752B
:1036EC00D9037A0012371D40FB75E195900352E027
:1036FC0064087018EE246FF582E43F1236C2EE2493
:10370C0071F582E43FF583E8F0A3E9F07901023A20
:10371C003B1234C41235FB94052274F6121A9EEA3D
:10372C00FEEBFF9061D0E07029900743740A1237CA
:10373C0063121CB57C017903120BEE7402121A444D
:10374C0075D90675D9037A0012371D40FB1237ED77
:10375C0080027900023A3BF0750843750907780836
:10376C002274F6121A9EEAFEEBFF9061D0E0703CD8
:10377C007A01900743740B122F96E06407701B7547
:10378C0008437509077808121CB57C017903EEFA19
:10379C00120BEE7402121A447A05123A4E8003127E
:1037AC003A59EBC39A40F81237ED80027900023A8D
:1037BC003B74F7121A9EEAFEEBFF75D90375D90319
:1037CC0075D90DEE24DE1237E5F5D975E19579043E
:1037DC00120DBC1237F0023696F582E43FF583E009
:1037EC002275E195EE246FF582E43FF58312459C3A
:1037FC00EE2471F582E43FF583E8F0A3E9F079015A
:10380C002274F5121A9E1239096004780480027829
:10381C0000E8240BF8EAC3984052750A0990074354
:10382C007408F0F91238F1120B7C85088285098333
:10383C00E0601E7508437509077808121CB57C09F1
:10384C007903EEFAEFFB120BEE7402121A44750AAE
:10385C000D1238FD80031234BAEAC3950A40F7758D
:10386C00E1957904120DBC1237F0800279007F03C8
:10387C00021B7074F5121A9E1239096004780480C8
:10388C00027800E8240BF8EAC3984055750A0990B1
:10389C0007437409F079081238F1120B7C85088201
:1038AC00850983E0601E7508437509077808121CAA
:1038BC00B57C097903EEFAEFFB120BEE7402121AC7
:1038CC0044750A0D1238FD80031234BAEAC3950A06
:1038DC0040F775E1957904120DBC123A40790180DC
:1038EC000279008089EE24E5FCE43FFD7A447B07F5
:1038FC00227401250AF5D975D9037A00221239B33D
:10390C00F8E43FF9880889098882F583E02274F28B
:10391C00121A9E1239A36004780480027800E824FD
:10392C0008F8EAC3984069750A06900743740CF0CE
:10393C0090036FE0900744F079027C707D037A4528
:10394C007B07120B7C79027C727D03120B7C850841
:10395C0082850983E0601E75084375090778081293
:10396C001CB57C067903EEFAEFFB120BEE74021217
:10397C001A44750A0A1238FD80031234BAEAC39548
:10398C000A40F775E1957904120DBC1237F08002EC
:10399C0079007F06021B701239B3F508E43FF50974
:1039AC00850882F583E022EAFEEBFF9061D0E0F817
:1039BC007480C398FAEE24832274F6121A9E123481
:1039CC00ACFCEE2483F8E43FF988828983E0600440
:1039DC007A0480027A00EA2404FAECC39A404E7A04
:1039EC0002900743EAF0EE24F7F582E43F123AD551
:1039FC00601B7508437509077808121CB57C0279A1
:103A0C0003EEFA120BEE7402121A447A06123A4EB4
:103A1C008003123A59EBC39A40F875E195123A407B
:103A2C007904120DBCEE240D1237F3800279007F5D
:103A3C0002021B70EE241DF582E43FF583E4F0A333
:103A4C00F02274012AF5D975D9037B0022EB1234CC
:103A5C00C5F583E0F5D90B2274F6121A9E1234B018
:103A6C00FEEA2483F8E43BF988828983E060047CD5
:103A7C000480027C00EC2404FCEEC39C40467C02D7
:103A8C009007437407F0EA24F8F582E43B123AD528
:103A9C0060177508437509077808121CB57903126D
:103AAC000BEE7402121A447C0674012CF5D975D9EC
:103ABC00037A0080031234BAEAC39C40F875E1958E
:103ACC00790180027900023A3BF583E0900744F0DB
:103ADC0088828983E02274F7121A9E8908A2AFE4C7
:103AEC0033FFC2AF7E00123B7480010E8C828D833B
:103AFC00E0F8EEC398500CEEF8123B22E06508702B
:103B0C00EA800B123B22E5081245A2E004F0EFA27A
:103B1C00E092AF023696123B851242162274F712CF
:103B2C001A9EA2AFE433FFC2AF123B748C828D831A
:103B3C00E014F07E008016EE123B80246BF582E4DC
:103B4C0039F583E0C0E0124211D0E0F00E8C828D8A
:103B5C0083E0F8EEC39840DFEA246DF582E43BF590
:103B6C008374FF123BAB80A6EA246EF8E43BF9E8C1
:103B7C00FCE9FD22F8123B8522EA28F8E43BF9E83F
:103B8C0022C082C083A8A8C2AFEA123E1FE9123B32
:103B9C00ABE8A2E7E433FAE8A2E792AF022FF2F027
:103BAC00EA2469123BB322F582E43BF583E4F0226C
:103BBC0074F2121A9E8C828D83A3A3A3A3E0541FCC
:103BCC00F0EA24361242D88E828F83E4F0750C0012
:103BDC00A80CEC28F508E43DF509850882F583E08E
:103BEC00C0E0123E38D0E0F0750D008508828509E2
:103BFC0083E0F50A750B00E50D780A1219FCE50A4D
:103C0C00A2E05025E50C33333354F8250DC0E08E7B
:103C1C00828F83E0123B802438F582E439F583D01F
:103C2C00E0F08E828F83E004F0050DE50DC394085F
:103C3C0040B9050CE50CC39405409502399EEAF891
:103C4C0074EF28F582E42274F4121A9E90037EE03D
:103C5C0064037003023E197C00ECF875F00DA4C8E7
:103C6C00AAF02A123EDAE06003023E0FE82404FABE
:103C7C00E439FB8A828B83A3A3740112453BA3A373
:103C8C00A3E4F0EA24041242D8EC8E828F83F01263
:103C9C0044DA7401F0EA2467F582E43BF58374019D
:103CAC00123E44E4F0A3123E44A3A3123E56240F4A
:103CBC00F582E43BF5837401F0EA2435123BB3F54D
:103CCC0008F509F50AF50BEA2418F582E43BF583AF
:103CDC0078081218F5EA241C123E28241D123E4FB7
:103CEC00247F123E282473123E282482123E28245C
:103CFC0068F582E43BF5837480123BABEA246E12C8
:103D0C003E2824ED123E2824EE123E2824EF123ECB
:103D1C002824F0123E2824F1123E4F24F3123E4F79
:103D2C0024F6123BB31244E4E4F0EA24D3123E2806
:103D3C0024D4123E2824D5F582E43BF5837808126E
:103D4C0018F5EA24D9F582E43BF58378081218F5C6
:103D5C00EA24DF123E2824E1123E2824DD123E28FC
:103D6C0024E2123E2824E3123E2824F9123E4F246A
:103D7C00FB123E4F24FD123E4F24FF123E4F240CEB
:103D8C00123E2D2406123E2D2407123E2D2408121D
:103D9C003E2D2409123E2D240A123E2D240B123ED8
:103DAC002D123E1F74FF7804F0A3D8FC7C00ECF8B5
:103DBC0074A9123C4E3406F583E0C0E0123E38D0B4
:103DCC00E0F00CECC3940540E57C00ECF874661252
:103DDC003C4E3403F583E0C0E0123B8124E5F582D0
:103DEC00E439F583D0E0F00CECC3940840DD90038B
:103DFC007EE004F0640170198E828F83E090038062
:103E0C00F0800E0CECC394035003023C657A007BEB
:103E1C00008041246AF582E43BF58322123BB3EA2D
:103E2C0022F582EB3401F583E4F0EA22123B85247F
:103E3C005DF582E439F58322F08A828B83A3A3A3F8
:103E4C00A3A322F582E43BF583E4F0A3F0EA227409
:103E5C0004121A447F04021B70C082C083EA24033C
:103E6C00F582E43BF583E06008E4F090037FE01416
:103E7C00F090037EE014F0700690038074FFF08ADB
:103E8C00828B83A3A3E4F09006AEE0700D90037FC9
:103E9C00E0640170057900120D86022FF2C082C019
:103EAC00837A00EAF875F00DA4C8ABF02B123EDA59
:103EBC00A3E4123EE8F00AEAC3940340E690037EC2
:103ECC00E4F0A3F0A374FFF075E1F1022FF2F974A2
:103EDC007E28F87403124207A3A3A322F0888289D8
:103EEC0083A3A3A3A3A3A32274F5121A9E7508009F
:103EFC00750900750A00A80A123F548E828F83A39D
:103F0C00A3A3E0602BE5084509601D85088285099F
:103F1C0083123F6B121CC8123F67121904122549F9
:103F2C007404121A44E97008EEF8EFF9880889094C
:103F3C00050AE50AC3940340BD850882850983A35D
:103F4C00A3A3A3E0F902387AE875F00DA4C8AAF08F
:103F5C002AF9748228FE740339FF228E828F831211
:103F6C003F6F22E0F8A3E0F5838882A3A32274F7C5
:103F7C00121A9E78FF79FF7E00EEFC75F00DA4CC32
:103F8C00AFF02FFD74822CFC74033DFD8C828D836D
:103F9C00A3A3A3E06040EC2473F582E43DF583E039
:103FAC00FF74FF68700374FF69700774016F701CF5
:103FBC00800D74016F700DEC2479123FF75017ECE3
:103FCC002479800BEC242E123FF7500AEC242EF5AA
:103FDC0082E43D1236C20EEEC39403409CC3EA98B1
:103FEC00EB994004E8FAE9FB023696F582E43DF5DC
:103FFC0083C3E098A3E0992274F0121A9E8C088D6A
:10400C0009890EEA2AF50AEB33850A0CF50D9003A3
:10401C007FE0F8E9C39850117AFF7BFF120B288AD6
:10402C000A8B0BAE0AAF0B8010E96009A312411189
:10403C001241018004AE0CAF0D90037FE0F50F8EA2
:10404C000A8F0B7403780A121A0CA80FC3E50A988E
:10405C00E50B940050030240ED850C0A850D0BE531
:10406C000825E0F508E50933F509AC0AAD0B800726
:10407C00EC2402FCE43DFDC3E5089CE5099D404FA2
:10408C00C3EC9EED9F402FECF8EDF9EEFAEFFB122E
:10409C0019A38A0C8B0DA80CA90DE8496006EEFA41
:1040AC00EFFB80047A007B00EC98F8ED99F9E82A94
:1040BC00FCE93BFD8019E50EC3950F5012EEF8EFAD
:1040CC00F9ECFAEDFB1219A38B0DEA450D70A1C3A7
:1040DC00EC950AED950B4009C3E5089CE5099D504C
:1040EC00067AFF7BFF8009ECFAEDC313FBEA13FAA7
:1040FC007F08021B7074B028F582740339F583E0D5
:10410C00FEA3E0FF22E0F875F00DA4C8AAF02AF98E
:10411C002274F4121A9E74FC121A2EEAFEEBFFEEB5
:10412C002463F508E43FF5098016AA08AB09120BC5
:10413C00701212C69006AFE004F09006B0E004F0E6
:10414C0085088285098312458F70DF9006B0E06088
:10415C00358E828F83A3A3A3A3E085188285198350
:10416C00F0A3E4F09006B0E0F87402121A7AE8F0CA
:10417C00A3E4F07402121A94AA18AB19790112076D
:10418C00AA9006B0E4F0EEFAEFFB120B16EEFAEF83
:10419C00FB120C78023E5B74F7121A9EEAFEEBFFE0
:1041AC008E828F83A3A3A3A3E0FA7B0012077AEE7F
:1041BC00FAEFFB120B34120C5A023696C082C083F3
:1041CC007A00EAF875F00DA4C8ABF02BF9748228CC
:1041DC00F87403124207E06016E8246EF582E439A5
:1041EC00F583E0600A124211E07004790180090A3B
:1041FC00EAC3940340CC7900022FF239F988828902
:10420C0083A3A3A322E812421622246AF582E4397E
:10421C00F58322C082C083E49003667808F0A3D8AB
:10422C00FC900366040229CF74F7121A9E74FC12D8
:10423C001A2E851882851983E4F0A3F0A3F0A3F05D
:10424C00120B88E9851882851983F0120B8874018A
:10425C00121A7AE9F0120B887402121A7AE9F085B4
:10426C0018828519831219047404121A44023696A2
:10427C0074F6121A9EEA240D1242D8EC2403F8E4C8
:10428C003DF988088909EC2407F8E43DF9E8FCE9D4
:10429C00FD8C828D831236C4850882850983E0FAF1
:1042AC00A3E0FB1219A38E828F83E8F0A3E91245D9
:1042BC0095850882850983E0FAA3E0FB1219A38B8C
:1042CC0009EA450960031242E1023A3BF8E43BF982
:1042DC00E8FEE9FF228E828F83E02401F0A3E03414
:1042EC0000F02274F6121A9EEA242EF582E43BF5B5
:1042FC0083E0FCA3E0FDEA246F1242D8780079FA3F
:10430C00ECFAEDFB1219A38E828F83E8F0A3E9F08F
:10431C00780079FAECFAEDFB1219A38B09EA45093E
:10432C0060031242E1023A3B74F4121A9EEAFEEB6D
:10433C00FF120D388A088B098C0A8D0B908EEA7847
:10434C000812184C908EEE78081218AD7808121CD2
:10435C00AD123F671219041225497404121A44E96C
:10436C0060030244208E828F83E02402F8A3E034A1
:10437C0000F9E8FAE9FB740C121A7A78081218E6BC
:10438C008A828B83780812185F908EEE7808121848
:10439C00E68A828B8378081218C0EE240BF582E42F
:1043AC003FF583C082C0838E828F83A3A3A3A3A374
:1043BC00E02401F8A3E03400F9D083D082E06870E7
:1043CC0003A3E06970047901804CEE2407F8E43F04
:1043DC00F9888289831242E5EE24731237E5640171
:1043EC007014EE24741244257003A3E06D70078AD8
:1043FC00828B831242E5EE247F1237E56401701440
:10440C00EE24801244257003A3E06D70078A828B22
:10441C00831242E57900023E60FAE43F12442EE03A
:10442C006C22FB8A828B83E0FCA3E0FD888289836B
:10443C002274F4121A9EE9FEECFF1244DAE06401D5
:10444C0060030244D59061D0E0F81244E4E0F50832
:10445C006005750A048003750A007480C398FC9586
:10446C00E0FDEF250AF8E43400F9E82402F85001E5
:10447C0009C3EC98ED99A2D265D0334048740C1264
:10448C001A7AE0F50AA3E0F50BE5086015780A1234
:10449C001CB5EFFCEEF9120BEE7402121A44740404
:1044AC002FFF74012FF5D98ED97A00800CEAF8E52C
:1044BC000A123C4E350B1234BDEAC39F40EF75E136
:1044CC0095790080067907800279FF023E60EA2424
:1044DC0062F582E43BF58322EA2483F582E43BF522
:1044EC00832274F7121A9EA2AFE433F508C2AFEA26
:1044FC002402F8E43BF98A828B83E0FEA3E0FFEE12
:10450C004F600E88828983E0FAA3E0F5838A82806B
:10451C00048A828B83ECF0A3EDF0888289831245A8
:10452C0041F0E5080236908C828D83E8F0A3E9F027
:10453C008A828B8322ECF0A3ED1245A2E4F0A32235
:10454C0074F7121A9EEAFCEBFD7A007B00A2AFE432
:10455C0033FEC2AF8C828D8312458F6022E8FAE95C
:10456C00FB8A828B831236C4124533E4F0A31245C6
:10457C0095E849700A8C828D83A3A3E4F0A3F0EE36
:10458C00023B1B12459CE849221245A212459C2273
:10459C00E0F8A3E0F922F08C828D8322C082C083E4
:1045AC0080031245D6E9F874FF28F90470F4ECFA8C
:1045BC00EDFB022FF2C082C08380031245D6E9F8CE
:1045CC0074FF28F90470F4022FF28C828D83E08A38
:1045DC00828B831245A2A3AC82AD838A828B83A388
:1045EC00AA82AB832274F4121A9EE9900351F01242
:1045FC000D4A907800E0C4540F540764037004799A
:10460C003F8002797F7508067509007808121CB581
:10461C007C3F7D037AEA7B0712117C7402121A44E8
:10462C0090033FE0F47049A3E0F47044A3E0F4700D
:10463C003FA3E0F4703AA3E0F47035A3E0F47030DB
:10464C0090780EE090033FF090780FE0900340F0EC
:10465C00907810E0900341F0907811E0900342F0D4
:10466C00907812E0900343F0907813E0900344F0BC
:10467C009003451247D81260F290036F7406F0A3B2
:10468C00740D1251A87442F0A37401F09006B81284
:10469C0047D89006B7E4F09006C5F0A374A0125169
:1046AC00A87403F0A374071251A874281251A8041B
:1046BC00F0A3E4F09006EEF09007141247D89007A0
:1046CC0013E4F090071A041251A81247C6E4F0A3A1
:1046DC0004F0A31251A81251A6F090072B1247D840
:1046EC0090072AE4F090073104F0A3E41247C612B5
:1046FC0051A6F0A37405F090073B74FFF0A3E4F00F
:10470C0090073DF090073F04F09007407490F0A3A1
:10471C007401F0120A3E12090C120CF079017A4263
:10472C007B07120B8E900742E075F01484E5F004C1
:10473C00F0790C7A637B07120B8E120BAC7A00901B
:10474C000351E0F912132C907803E06442705690F8
:10475C000742E014F0704EC2AF12476800782AD0BE
:10476C00E0F618D0E0F6E59F5407F870057509FFE0
:10477C00800375097FC4C0E07829E6F50808E65582
:10478C0009F509740B7808121A0CD0E02508F8907A
:10479C006270E0A2E740F8E8C333906272F0906276
:1047AC0070E0D2E0F090037CE4F0A3F07A80FB9010
:1047BC000351E0F9121296024D7F1247CF1247CFE8
:1047CC00F0A322F0A37480F0A37402221247DFF04E
:1047DC00A3F02274FFF0A3F0A3F0A3F0A32274F4CF
:1047EC00121A9EEAFEEBFFEEA2E05040900353E05B
:1047FC00C39480E0500F25E0F8E433F974F628F503
:10480C0082741B800EF425E0F8E433F9740428F567
:10481C0082741C39F583125619121A9C7A00900373
:10482C0051E0F912132CEE6401024A7754086056D9
:10483C00900739124ABE7508007808121CB9124A42
:10484C0097121A0C7808121CB5124A903BF5831279
:10485C001CD0124AA8121CB5124A83121CB5EA24A9
:10486C000CF582EB126266FD7C008A828B83A3A31B
:10487C00A3A3E0FA7B0079001207747409121A449E
:10488C00EE6408024A77EE54106037750800780819
:10489C00121CB9E4F5097808121CB57808121CB57D
:1048AC007808121CB57808121CB57D007C007A00C3
:1048BC007B0079021207747409121A44EE64100218
:1048CC004A77EE540260377508007808121CB9E478
:1048DC00F5097808121CB57808121CB57808121C5A
:1048EC00B57808121CB57D007C017A007B00793C00
:1048FC001207747409121A44EE6402024A77EE54D9
:10490C0004605E900380124ABEEA242A124DE6F53A
:10491C00087808121CB9124A97121A0C7808121C43
:10492C00B5EA2420F582E43BF583121CD0124AA888
:10493C00121CB5124A83121CB5EA240CF582EB1238
:10494C006266FD7C018A828B83A3A3A3A3E0FA7B1E
:10495C000079001207747409121A44EE6404024AB6
:10496C0077EE544060377508007808121CB9E4F5EE
:10497C00097808121CB57808121CB57808121CB5F9
:10498C007808121CB57D007C017A007B00793B1203
:10499C0007747409121A44EE6440024A77EE54808C
:1049AC0060309007401251A0496021790012132603
:1049BC009007401256217808121CAD7A007B0190AA
:1049CC000351E0F91213A47404121A44EE64800229
:1049DC004A77EF5401600D7901121326EEFAEF6459
:1049EC0001024A79EF5402600AC2AF75C9AB75C9AE
:1049FC005B80FEEF5404600A122816EEFAEF640492
:104A0C00806B900358E064017066EE5420606190F6
:104A1C000352E014601514601214600F14600C142F
:104A2C00601524FE6027146024803D79001209541F
:104A3C0079011209548031900722E0FA79001209A9
:104A4C0060900722E0FA7901120960801B793F908F
:104A5C000380E0FA75F00DA4CAA8F028FB74822A32
:104A6C00FA74033BFB120B3AEE6420FAEFFB800462
:104A7C007A007B00024D7FEA2406F508EB3401F541
:104A8C0009780822EA2430F582E422EA2432F582FD
:104A9C00E43BF583125B397404780822EA242E1265
:104AAC004DE6F508A3E0C313F509E50813F50878FE
:104ABC000822E0F875F00DA4C8AAF0124ACB222AFD
:104ACC00F9748228FA740339FB2274F6121A9EEADE
:104ADC00540F6004780180027800E8F98A088B0989
:104AEC0074047808121A0CE50829F5087509007485
:104AFC00047808121A1BE5082408FAE43509FB129D
:104B0C0012C08A088B09A808A909E8496009E82499
:104B1C0004FAE439FB80047A007B000251B974F684
:104B2C00121A9EEA2405FA50010B1212C08A088B45
:104B3C0009A808A909E8496009E82405FAE439FB41
:104B4C0080047A007B000251B9C082C083C2AF12CC
:104B5C000D26E5E170FC75E101120A1475E1F11204
:104B6C000D62120A087907120E047901120E0A79E5
:104B7C0002120D8C120DC2120DEC7900120DFE7981
:104B8C0001120DFE908F0E121904120D749006C5B1
:104B9C00E4F0A3F0A3F09006C97407F09006C87473
:104BAC0003F09006CEE4F09006CDF09006EEF09077
:104BBC00071BF0900732F0120B1C120C54120B4610
:104BCC007900120E109006A91247DF741FF0906046
:104BDC0012E4F0A3F0906063F0752100900352F0A2
:104BEC009006AEF09006AF740CF09006B0E4F09026
:104BFC0006B104F09006B2E4F09006B304F090060F
:104C0C00B4E4F0900354F0A3F0900357F0900358E1
:104C1C0004F090036E7403F090073EE4F0D2AFF909
:104C2C00025C3AC082C08390033F124DBD125421E6
:104C3C008A828B83A312541B8A828B83A3A3125464
:104C4C00158A828B83A3A3A312540F8A828B83A30E
:104C5C00A3A3A3F0900344124DBDA3A3A3A3A3024B
:104C6C005C37C082C0838A828B83E0900345124CF0
:104C7C00A4E0900346124CA4A3E0900347124CA46A
:104C8C00A3A3E0900348124CABE0900349124CAB49
:104C9C00A3E090034A025C37F08A828B83A322F054
:104CAC008A828B83A3A3A3A322C082C083120A4A45
:104CBC00E9F97005120DC27900025C3A74F7121A08
:104CCC009EEAFEEBFF8908120A4AE9F9702CE50806
:104CDC00600A74016508600A7912801E7C007900F4
:104CEC0080047C007901EEFAEFFB120DC8E9F87430
:104CFC000368700479078002790002532E74F6124F
:104D0C001A9EEA4B600EEC4D600A740A121A7A1263
:104D1C005FFD70047912800F7808121CB5120BA677
:104D2C007402121A4479000251B974F4121A9EEAF0
:104D3C00FEEBFF8908900352E064096014E0640AFA
:104D4C00600FE0640B600AE0640C6005E0640D70B9
:104D5C0004790C801E120C7E8B0BEA450B700BA990
:104D6C0008EEFAEFFB120B8E8009900354E04440DE
:104D7C00F0790D7F04021B7074F6121A9EEAFEEB9A
:104D8C00FF8909EE4F6003E97004791280167508EB
:104D9C0000120B88124DB3E9F00508E508C395091C
:104DAC0040EF79000251B9A808EE125F883FF583F5
:104DBC0022E08A828B8322C082C083E9F874016866
:104DCC00700B90073E7401F07900025C3AE87006B3
:104DDC0090073EE480F1791280F0F582E43BF58394
:104DEC00E02274F6121A9EEAFEEBFF8C088D0990F5
:104DFC000352E0640C700590618E8014120978E9FE
:104E0C00F9702F125FC374EA2EF58274033FF58399
:104E1C00E0F8748068700A850882850983747F8045
:104E2C000E900356E0F9E8C399850882850983F052
:104E3C0079000251B974F7121A9EEAFEEBFF890849
:104E4C00740565086028741365086022741465087D
:104E5C00601C741565086016741A65086010742956
:104E6C006508600A743B650860047912803D12097C
:104E7C0078E9F9703612568C241DF8E43BF9EA24D3
:104E8C00F7FCE43BFDEA2469124EBA7016EA246A78
:104E9C00124DE664027004793A8010124EC0120B67
:104EAC00048006124EC0120AF8790002532E124DDD
:104EBC00E66401228C828D83E5081251B3E4F0A3E1
:104ECC00F079022274E8121A9E74FF121A2EE985E8
:104EDC001882851983F08A088B098C0A8D0BEC4596
:104EEC000B6016E0C3941C50107419121A7AE0F57A
:104EFC000C600B7401650C60057912025196120955
:104F0C0078E9F96003025196A808E875F00DA4C879
:104F1C00AAF02AFA75F00DE509A42AF9748228FE84
:104F2C00740339FF9006AFE070057907025196E5DE
:104F3C000A24FEF50AE50B34FFF50B85188285195A
:104F4C0083E0850A82850B83F0E50C700474028083
:104F5C00027401A3F0E50A24FEFCE50B34FFFDEE20
:104F6C002463FAE43FFB120B6AA9A8C2AF9006AF08
:104F7C00E014F0E9A2E7E433F8E9A2E792AF90037A
:104F8C0052E064086008E0640760030251949003E7
:104F9C0080E06508450960030251947900EEFAEF50
:104FAC00FB1221269061D0E070030251949006B35D
:104FBC00E064016003025194EE241DF582E43FF598
:104FCC00831251A0497003025194A2AFE4338518A7
:104FDC0082851983F0C2AF120D3E8A088B09120D1F
:104FEC003EEA65087003EB65097003025188120CE8
:104FFC007E8A148B15120D388A0C8B0D8C0E8D0F2E
:10500C00E5142402F516E43515F5178A088B098C7E
:10501C000A8D0B908F22780812184C7808121CAD50
:10502C008516828517831219041225497404121AE5
:10503C0044E964016003025188EE242EF508E43F34
:10504C00F509850882F583E02406125DF2780C7967
:10505C0010121839780C121CAD8516828517831224
:10506C0019041225497404121A44E96401600302FC
:10507C005188E5142408F50AE43515F50B850A82E8
:10508C00F583121CC8AA0CAB0DAC0EAD0F1225A5E6
:10509C007404121A44850882850983121CD01224C8
:1050AC00F87402121A448A0C8B0D8C0E8D0F74102E
:1050BC00780C1218018D118E828F83A3A3A3A3A346
:1050CC00A3A3A3A31251AE8E828F83A3A3A3A3A3E6
:1050DC00125BA6E82CF8E93511F98E828F83A3A315
:1050EC00A3A3A3A3A3125BA6850882850983E0F57D
:1050FC000CA3E0F50DE4850A82850B838C088D09E1
:10510C00F50AF50B7808790C121712780812184C5E
:10511C00908EEE78081218AD851682851783780864
:10512C001218F57808790C121839908EDA78081262
:10513C00184C908EEE78081218ADE5142416125DFA
:10514C00D678081218F5851482851583A3A3A3A31A
:10515C00A3A3E4F0A3F0EE2435F582E43FF583E05D
:10516C00C0E0EE2434F582E43FF583D0E0F0EEFAB3
:10517C00EFFB121E9BAA14AB15120C6085188285CE
:10518C001983E0F8A2E092AF79007401121A447FFF
:10519C0010021B7012563BF9E8227425F0A3E4F0C0
:1051AC00A32212563BF922F088828983227F0202C5
:1051BC001B7074F4121A9EE9FF900352E06409709C
:1051CC00030252C5E0640A70030252C5E0640B701E
:1051DC00030252C5E0640C70030252C5E0640D700A
:1051EC00030252C59006C8E0F96017740169601299
:1051FC00740369600D7402696008740469600302C9
:10520C00532A9006B7E0F8600874016860030253F3
:10521C002A740369600574026970109006C6C3E0B5
:10522C0094A0A3E09400500302532AEF700302529F
:10523C00BF14600302532A9006C5E06401607AE94A
:10524C00600A74016960057404697008120C8AE9BB
:10525C0054FD70657901120C729006B5125B939037
:10526C0006C57401F0900352E07043120D388A08A1
:10527C008B098C0A8D0B908F26780812184C908E07
:10528C00EE78081218AD9006B5125613780812185D
:10529C00F59006B512562A120A50E9600E7AB57BC3
:1052AC0006120C789006C5E4F0800E120C5A7900A8
:1052BC00024D7F9006C5E07004792180F3A2AFE423
:1052CC0033FEC2AF7AB57B06120C789006C5E4F0BB
:1052DC00120C96E97041120D26906182E0C2E6F044
:1052EC00E5E170FC75E1017591BF75E1F190035832
:1052FC00E0640170187A207B00900351E0F91213DE
:10530C00B07A207B00900351E0F912129C7A009045
:10531C000351E0F912132CEEA2E092AF80907912B7
:10532C00808E7F01021B7074F7121A9EE9FF6005D4
:10533C0074016F70327409121A7AE0FE6005740100
:10534C006E702412560A501FEC24FCF8ED12560F06
:10535C005015C3EA9CEB9D400E740A121A7AE0F8C1
:10536C00600A7401686005791202540C90071BE006
:10537C0064017005790C02540CEFA3F0E89007213E
:10538C00F0EE9007137027E4F090033FE0900714C1
:10539C0012542190071512541B9007161254159095
:1053AC00071712540F900718F0900344802E7401C5
:1053BC00F0900345E0900714F0900346E090071539
:1053CC00F0900347E0900716F0900348E090071721
:1053DC00F0900349E0900718F090034AE090071909
:1053EC00F090071D125B93A3ECF0A3EDF0E87004B2
:1053FC007900800774016870057901120DCE79006F
:10540C0002532EF0900343E022F0900342E022F08E
:10541C00900341E022F0900340E02274F0121A9EB7
:10542C00E9FEEAFF900352E064097003025539E08B
:10543C00640A7003025539E0640B7003025539E0BD
:10544C00640C7003025539E0640D700302553990F9
:10545C00071CE0F8600874016860030256059007A9
:10546C0013E0F86008740168600302560590071D8C
:10547C00125B5212560A4003025605A31251A02485
:10548C00FCFCE934FFFDC3EC94FDED943F400302BA
:10549C005605C3EA98EB995003025605EF60087461
:1054AC00016F6003025605EE607D14600302560521
:1054BC0090071BE0640160757902120C7290071161
:1054CC00125B9390071B7401F090071AF0EF900792
:1054DC0022F0900352E0704A120A74120D388A0CB2
:1054EC008B0D8C0E8D0F908F2A780C12184C908E81
:1054FC00EE780C1218AD900711125613780C121886
:10550C00F590071112562A90071F125621780C7924
:10551C0008121839900711125B58780C1218F512F2
:10552C000C5A7900025FF890071BE0700479218017
:10553C00F3A2AFE433F50AC2AF120C7E8A828B83DE
:10554C00E58245836005E0F50880037508FF900748
:10555C001BE4F07A117B07120C78120C96E9F50912
:10556C0060097402650860030255FC120D269061F7
:10557C0082E0C2E6F0E5E170FC75E1017591BF795E
:10558C0001120E0A75E1F17A017B00900351E0F9EA
:10559C0012129C900721E0F87401687005120DEC52
:1055AC008014A3E06401700EE8700B120DC2120D92
:1055BC00EC7901120DF8E50AA2E092AFE509702D25
:1055CC00900358E0640170187A207B00900351E03E
:1055DC00F91213B07A207B00900351E0F912129C5F
:1055EC007A00900351E0F912132C02552E02552B20
:1055FC00E50AA2E092AF02552E7912025530EA2448
:10560C00FCF8EB125B6F22125619A3A32212563B25
:10561C00F583888222125B39E4F50AF50B221256C7
:10562C003BC82406F582E438F583E4F0A3F022E0CD
:10563C00F8A3E02274F7121A9EEAFEEBFF900352D5
:10564C00E064076004790C8034120978E9F9702D54
:10565C0012568C24DD124EBA7010EA24F7F582E44F
:10566C003BF5837406F07902800EEA24DEF582E4C1
:10567C003BF5837406F0790D120AF8790002532E6B
:10568C00125FE7EA2274E8121A9E74FB121A2E7447
:10569C0003121A7A125B937401121A7AECF0A3EDCE
:1056AC00F0E9851882851983F0900732E064017067
:1056BC00030258127904120C84E964017003025835
:1056CC0012900352E064097003025812E0640A70ED
:1056DC0003025812E0640B7003025812E0640C7061
:1056EC0003025812E0640D70030258127403121A6C
:1056FC007A125B6540030258A27401121A7A125B8B
:10570C006540030258A27403121A7AC082C08374D3
:10571C0001121A7A1251AED083D082C3E098A3E062
:10572C009950030258A2741E121A7A125B3985180A
:10573C0082851983E06009640160030258A2800924
:10574C00E508450970030258A2741D121A7AE0602C
:10575C0007640160030258A27420121A7AE06007F1
:10576C00640160030258A2742B121A7AC082C0839F
:10577C007429121A7A1251AED083D082C3E098A346
:10578C00E09950030258A27421121A7A125E00405A
:10579C00030258A27423121A7A125DEB24FAF8EF62
:1057AC00125DE740030258A27421121A7A1251AE0C
:1057BC00C3EE98EF9950030258A27425121A7AC3BB
:1057CC00E094F4A3E0940140030258A27427121A47
:1057DC007A125FDD24F6F8E50B125DDE4003025809
:1057EC00A27901120C84E9640170119006C8E0F8EA
:1057FC006014740168600F740468600A7940120CBC
:10580C0084E9640170057921025B34850A0C850BEF
:10581C000D7403780C121A1BF50EF50F7425121A61
:10582C007AE02401F514A3E03400F515E4F516F53F
:10583C0017EEF8EFF9E82EF8E933F988108911E43E
:10584C00F512F51378147910121712780C791412CA
:10585C0016A35042120B40E964017005793A025BC1
:10586C00347900EEFCEFFD7421121A7A125B52129D
:10587C000B2E8A0C8B0D74FF650C700474FF650D78
:10588C007005793B025B34851882851983E0700BB7
:10589C00E508450970057912025B34120B108A0E6B
:1058AC008B0FAE0EAF0FEE4F70057909025B34EE25
:1058BC002404F50EE43FF50F850E82F583E0900786
:1058CC0039F07403121A7A1251AE900733125BA698
:1058DC007401121A7A1251AE900735125BA6851814
:1058EC0082851983E0900738F07A00EAF8125E138B
:1058FC00E0C0E0125FA3125B41D0E0F00AEAC3946F
:10590C000540E8EE245DFCE43FFDEEFA120B0AEED6
:10591C002436F582E43FF583E0C39402500AEEFA94
:10592C00EFFB120B160258A2850882850983E0C092
:10593C00E0EE2406125B4AD0E0125B8AE0C0E0EE97
:10594C002407125B4AD0E0125B81E0C0E0EE240831
:10595C00125B4AD0E0125B81A3E0C0E0EE24091296
:10596C005B4AD0E0125B99E0C0E0EE240A125B4A7D
:10597C00D0E0125B99A3E0C0E0EE240B125B4AD09E
:10598C00E0F07420121A7AE090072AF07420121AB0
:10599C007AE0702590033FE090072B12542190077A
:1059AC002C12541B90072D12541590072E12540FC5
:1059BC0090072FF0900344802B900345E090072B29
:1059CC00F0900346E090072CF0900347E090072DF1
:1059DC00F0900348E090072EF0900349E090072FD9
:1059EC00F090034AE0900730F0741D121A7AE0C070
:1059FC00E0EE240C125B4AD0E0F0120B4CEAF8EB10
:105A0C00F9ECFAEDFBEE2426F582E43FF58312194E
:105A1C00281209B4EE2422F582E43FF58312191002
:105A2C00EE242EF582E43FF583E50CF0A3E50DF0B2
:105A3C00EE2432F582E43FF583E50AF0A3E50BF0A2
:105A4C007425121A7A1251AEEE124A913F125BA4CF
:105A5C0090073AE0C0E0EE242AF582E43FF583D0CB
:105A6C00E0F0EE242BF582E43FF5837402F0120B88
:105A7C0088E975F00C84E5F02405C0E0EE2437F5D8
:105A8C0082E43FF583D0E0F09007377425F0900363
:105A9C007FE0C3940240057901120D867904120C43
:105AAC0072900728125B939007327401125B782472
:105ABC001AF582E438F5837498F0A3740A125B78B3
:105ACC002414F582E438F5837417F0900352E070D7
:105ADC0055120D388A108B118C128D13908F027801
:105AEC001012184C908EEE78101218AD90072812E8
:105AFC00561378101218F590072812562A9007356D
:105B0C0012562178107908121839900728125B5810
:105B1C0078101218F5850E82850F83E0F9120A7A37
:105B2C00120A80120C5A79007405025198E0F5089B
