:020000040000FA
:0600000002011A0221A119
:03002B000226FFAB
:030033000226E1C1
:030053000222176F
:03006B000226B8B2
:10008300021FF7E5C754F84401F5C77901220000C0
:100093000080FB120086B90003020104E4791B7897
:1000A30002B800028004F709D8FCE4791D7802B88D
:1000B30000028004F709D8FCE490028178247919BE
:1000C3008002F0A3D8FCD9FA781A90014A7A01BACF
:1000D30000028007E493A3F608DAF97AA47B1A9066
:1000E300014B78DB79018015E493A3AD82AE838A5B
:1000F300828B83F0A3AA82AB838D828E83D8E9D9C6
:10010300E77582437583D7740312012C7582917549
:100113008300740012012C75D00075813F7518811E
:10012300751902759F00020096C09FF59FE473D076
:100133009F22D083D082C09FE493C0E0740193C018
:10014300E0740293F59F2201C903D5030B04050450
:10015300FF0000B4000028002800283075A000A08C
:1001630000A000A00000080008E001F0001000104B
:10017300001000100010001000500050005000103C
:10018300001000D0070000000000000F0001000570
:1001930000307507001000010081FF00000000FF20
:1001A300FFFF020202FC82010000E88202048301D5
:1001B3000000FE1A02F282010000B8020204830169
:1001C3000000FF1A02F082010000CE02FFFF0100CF
:1001D300FF2002FC82010000EB8202048301000085
:1001E3002D1B02EE82000000000002F482030000D7
:1001F300FA021700090C090C090C090C090C090C6B
:10020300090C090C090C090C090C090C090C010E49
:100213001F0EFB0D01E803057710020AFFFFFF0025
:10022300FEFF120135B9BF03120135CCBF03120122
:1002330035EDBF0312013558C00312013599C003D0
:10024300120135BAC003120135DBC0031201351C9C
:10025300C103120135B4C103120135FCC1031201FC
:1002630035A0B003120135B3B003120135E4B00376
:100273001201351EB10312013577B103120135BEE8
:10028300B10312013506B20312013535B20312016F
:100293003564B2031201359BB203120135E2B20396
:1002A300120135FBB20312013550B3031201357E3F
:1002B300B303120135B8B3031201353BAF02120188
:1002C300353EB0021201356BB002120135BCB002EB
:1002D300120135DFB002120135F1B002120135F41B
:1002E300B00212013532B102120135A6B102120178
:1002F3003512B202120135DAB202120135F6B20238
:100303001201352DB30212013567B302120135FE16
:10031300B30212013550B40212013581B402120145
:100323003584B402120135B5B402120135C2B402E8
:10033300120135DAB40212013544B5021201354710
:10034300B50212013554B50212013557B502120137
:1003530035AEB502120135BFB502120135F8B5024B
:10036300120135FBB5021201352FB60212013532E7
:10037300B60212013586B602120135CFB60212015A
:1003830035DFB60212013512B7021201351FB7026B
:1003930012013522B7021201358AB7021201358CD8
:1003A300B80212013530B90212013599B9021201AE
:1003B30035D7B90212013555C4021201354DC502B4
:1003C30012013581C50212013517C60212013562C9
:1003D300C602120135C6C60212013550C702120108
:1003E3003509C8021201352BCB02120135A8CC0204
:1003F300120135CBCC021201358A9C031201352F31
:100403009E031201354F9E03120135709F031201A3
:1004130035C39F03120135D2A403120135FAA40395
:1004230012013527A5031201355FA503120135BD5E
:10043300A50312013509A60312013570A6031201A3
:1004430035B0A603120135EDA6031201351BA70330
:10045300120135C5A703120135CFA703120135DCFD
:10046300A7031201350FA8031201351BA8031201BC
:100473003533A8031201353DA80312013517D30301
:1004830012013525D3031201353DD303120135552E
:10049300D3031201356CD3031201354DD701120179
:1004A30035F7D70112013573D80112013591D901FE
:1004B300120135CDD90112013568DA011201354C2B
:1004C300DB011201350FDC0112013587DC0112015A
:1004D3003515DE0112013586DE0112013540DF01DB
:1004E30012013532E00112013572E00112013526A5
:1004F300E10112013558E1011201354EE301120108
:100503003590E301120135AEE30112013533E40105
:10051300120135F7E40112013516E701120135B86E
:10052300AC03120135CEAC03120135ECAC0312015E
:1005330035FDAD0312013507AE0312013532AF03AA
:1005430012013529B00312013596B0031201350AA1
:100553008503120135AE8503120135E585031201CA
:10056300353C860312013551880312013508830196
:10057300120135B98301120135D583011201359E6C
:100583008401120135A88401120135C284011201CC
:1005930035CD8401120135A3850112013580860111
:1005A300120135DD86011201356D870112013524F3
:1005B3008801120135328B01120135218D0112019F
:1005C30035D38D011201359C8E01120135E1910164
:1005D3001201358B9201120135B49301120135706A
:1005E30095011201351096011201355E9601120133
:1005F300359D9601120135709701120135A49701BB
:1006030012013531980112013518C501120135A4C3
:10061300C50112013508C70112013514C7011201C2
:10062300354FC701120135BEC701120135C7C801D5
:10063300120135D0C90112013597CA01120135F4EF
:10064300CB0112013512CC011201352FCC0112015D
:1006530035FACC0112013522CD01120135ECCF015F
:10066300120135F1CF011201350AD20112013558B9
:10067300D201120135C8D20112013506D30112018C
:1006830035E2D301120135A2D401120135EED401B2
:10069300120135F1D40112013535D5011201357D31
:1006A300D501120135BCD501120135DED501120188
:1006B3003512D60112013575D601120135008003BA
:1006C3001201350980031201351780031201356ABF
:1006D3008003120135898003120135CE8003120194
:1006E30035128203120135AD8203120135F1820303
:1006F3001201351B83031201358A8303120135D09E
:100703008303120135478403120135F88403120170
:1007130035382700120135482700120135E9270033
:100723001201354528001201350229001201351E38
:100733002A00120135502A001201357F2A001201C6
:10074300352C2C00120135A32E0012013513310074
:10075300120135053200120135FE32001201350552
:100763003500120135F9370012013528390012011D
:10077300352C3B001201353C3C00120135CB3D00CA
:10078300120135BC3E001201350A3F0012013579D2
:100793003F001201359D3F00120135EE3F0012016B
:1007A300358F4400120135904500120135F14500A3
:1007B3001201351C4600120135E24600120135CB09
:1007C300A803120135D5A8031201351AA903120192
:1007D300352EA903120135BEA903120135E6A9037B
:1007E30012013521AA031201354AAA031201357EEB
:1007F300AA0312013593AA03120135FEAA031201BB
:10080300351FAB0312013533AB0312013548AB037C
:1008130012013582AB03120135E7AB031201352A0E
:10082300AC0312013554AC0312013590AC03120131
:100833003509D0031201357B99021201355E9A0204
:10084300120135D99A02120135149B021201356542
:100853009C02120135EE9C02120135069F02120121
:100863003598A1021201354AA20212013569A30289
:10087300120135C2A302120135F9F6021201353C09
:10088300F702120135C0F70212013593F802120183
:10089300356AFB02120135AABA0312013557BB03AD
:1008A30012013564BC03120135A3BC03120135FDEB
:1008B300BC03120135D0C70312013533C80312013B
:1008C30035D0C803120135FEC8031201351FC90311
:1008D3001201355AC9031201357AC90312013500D1
:1008E3008A031201358C8A031201354B8B031201E3
:1008F30035638C031201357D8E03120135B0F5018A
:10090300120135D5F501120135A9F601120135168B
:10091300F7011201356CF70112013508F8011201D4
:10092300353CF90112013517FA0112013576FA0146
:1009330012013547FB01120135D3FB01120135D6F4
:10094300FB0112013520FC0112013592FC01120159
:10095300353DFD011201355DFD01120135A5FD0196
:10096300120135C1FD011201353BFE01120135496A
:10097300FE01120135D8FE0112013541FF011201BA
:1009830035669303120135EB93031201352D94035E
:100993001201351195031201357E9503120135C2FB
:1009A300950312013506960312013533960312019E
:1009B300355B9603120135939603120135D19603E5
:1009C300120135F89603120135729703120135BCF3
:1009D3009703120135935F00120135606100120124
:1009E300354E6300120135A26300120135CD630059
:1009F3001201357B6400120135AB6400120135DA54
:100A03006400120135ED64001201352E65001201F8
:100A1300355A6500120135A86500120135DF6500FE
:100A23001201352B66001201358A66001201351D4D
:100A33006700120135076800120135F668001201DC
:100A430035D66A00120135F56F001201354E70007C
:100A53001201353772001201350674001201358810
:100A63007400120135D67500120135E775001201C5
:100A73003548BD0312013533BE0312013576BE037B
:100A8300120135C5BE0312013516BF0312013567C6
:100A9300BF031201354E4700120135CF4700120143
:100AA30035FC47001201354548001201354649001F
:100AB300120135954900120135114B00120135938E
:100AC3004B00120135F04B00120135434C0012016B
:100AD30035324D00120135C74E00120135914F00DA
:100AE300120135A14F00120135CB4F00120135CE53
:100AF3004F00120135B150001201359C5100120113
:100B030035495200120135A65200120135FF520039
:100B13001201356353001201350B5400120135A73E
:100B23005400120135345500120135A95500120144
:100B3300350556001201356456001201358B5600F7
:100B43001201354957001201353A59001201358314
:100B53005900120135B35900120135265A0012010A
:100B630035AC5B001201355C5C00120135815C0021
:100B7300120135C05C00120135D55C001201351835
:100B83005D00120135885D00120135D25D0012014E
:100B930035DC5E001201355D5F001201350A760017
:100BA3001201355576001201356176001201353593
:100BB30077001201354C7700120135897700120155
:100BC30035BA7700120135F2770012013548780003
:100BD3001201355E78001201359A7800120135ADA5
:100BE3007800120135D4780012013508790012011A
:100BF300352E7A00120135787B00120135747C00A2
:100C0300120135917D00120135FBFF01120135CC34
:100C1300F1021201357AF502120135AEF602120124
:100C230035888D021201354B900212013551900225
:100C33001201350E9302120135689502120135B483
:100C43008E031201354B8F031201350990031201F4
:100C53003533900312013569920312013527990147
:100C6300120135629901120135B6A3011201352231
:100C7300A5011201351FA601120135A4A901120114
:100C8300358AAA01120135D6AA01120135F0AA014B
:100C930012013531AB011201353AAB01120135EACC
:100CA300AB01120135BAAC0112013501AD011201DC
:100CB3003567AD01120135D9AD011201351CFC02B6
:100CC300120135B2FC02120135C8FC0212013521B2
:100CD300FD0212013565FD021201359FFD0212016D
:100CE3003537FE02120135A6FE02120135AFFE02B0
:100CF300120135BBFE02120135D5FE02120135FF8A
:100D0300FE0212013514FF0212013576FF021201B1
:100D1300359DFF02120135CBE502120135D8E502FC
:100D2300120135F2E50212013525E602120135639F
:100D3300E602120135C8E602120135DDE6021201B0
:100D430035F4E60212013502E70212013511E7021A
:100D530012013526E7021201353BE702120135463F
:100D6300E70212013552E7021201355FE702120171
:100D7300356EE70212013579E7021201359EE7026B
:100D830012013542E80212013557E8021201356CAF
:100D9300E80212013586E802120135A3E8021201C6
:100DA30035C0E802120135CBE80212013577E902BA
:100DB30012013558EA021201357DEA021201358823
:100DC300EA021201359DEA02120135B1EA0212016B
:100DD3003512EB0212013518EB021201351EEB023C
:100DE30012013524EB021201353CEB021201356F7F
:100DF300EB02120135FDB9021201351FBA021201CD
:100E030035E7BA02120135A1BD02120135B7BE02A0
:100E1300120135D8BF02120135B2C0021201356189
:100E2300C1021201350580021201359C80021201B4
:100E3300353481021201352482021201355B8202AC
:100E43001201356E8202120135DC820212013577FE
:100E530084021201359E840212013540850212017B
:100E630035758502120135868502120135FF85022B
:100E7300120135208602120135388602120135909F
:100E83008702120135998902120135E98B02120199
:100E930035EC8C021201353B8D0212013523E7013B
:100EA30012013520E8011201350BE9011201351554
:100EB300E90112013537E90112013543E901120154
:100EC3003595EA01120135C4EA01120135F4EB014B
:100ED30012013536EC0112013562ED01120135388C
:100EE300EE011201358AEE01120135E9EE0112011C
:100EF3003520EF011201355BEF01120135F6F201E6
:100F03001201350FF30112013591F3011201359FDF
:100F1300F301120135F4F30112013502F401120158
:100F2300356FF401120135E1F40112013527F501A2
:100F330012013588C903120135ADC9031201351EEB
:100F4300CA03120135EECD02120135F7CD021201AB
:100F53003500CE0212013531CF0212013550D102D4
:100F630012013586D102120135C0D102120135F6C4
:100F7300D10212013530D20212013564D2021201BC
:100F83003590D202120135D9D20212013513D302A0
:100F93001201355BD302120135B1D302120135E6DA
:100FA300D30212013541D4021201357BD40212015E
:100FB30035CCD40212013502D5021201353CD502DB
:100FC3001201355FD50212013592D503120135BEE8
:100FD300D50312013519D60312013523D6031201A5
:100FE3003533D603120135F1EB0212013530EC0231
:100FF300120135B9EC02120135CEEC02120135199A
:10100300ED021201354DED021201358CED02120194
:10101300359BED0212013550EE02120135A9EE02A5
:10102300120135F8EE0212013551EF021201355E5D
:10103300F00212013557F10212013594F102120147
:101043003564FF0112013525AF01120135A5B10148
:1010530012013519B30112013576B3011201351F9F
:10106300B4011201351CB501120135A4B5011201F9
:101073003529B6011201354EB6011201359EB6016E
:1010830012013557B901120135C8B901120135B43E
:10109300BA01120135EEBA011201352EBB0112015C
:1010A30035D4BC0112013505BD011201355ABD010C
:1010B300120135A7BD0112013518BE011201353CDD
:1010C300BE0112013556BE011201356CBF0112017A
:1010D300357CBF01120135FAC0011201351AC10175
:1010E30012013550C10112013507C30112013580C8
:1010F300C301120135BFC301120135EAC401120154
:101103003503C60312013567C60312013516C7033B
:1011130012013535C70312013589C703120135DEC4
:10112300D403120135EFD4031201359BD703120107
:1011330035DAD70312013502D803120135FCD30384
:101143001201350CD40312013524D403120135D80E
:10115300D4031201351DD103120135A1D1031201AC
:101163003507D2031201353ECB0312013567CB039A
:10117300120135CDCB03120135ECCB0312013540FF
:10118300CC0312013599CC03120135D4CC031201DF
:1011930035D7CC031201357BB70312013590B70362
:1011A300120135B4B8031201351EB9031201359289
:1011B300B903120135ACB903120135C3B9031201E6
:1011C30035D6B903120135EEB90312013503BA035B
:1011D30012013524BA0312013575BA03120135D051
:1011E300A003120135E7A00312013560A103120128
:1011F3003535A20312013507A4031201356CA4038C
:10120300120135BFA403120135F87F0012013529FD
:10121300C4031201359FC50312013500C603120131
:10122300357FCE03120135A8CE03120135D1CE038B
:101233001201356ACF0312013582CF03120135C47F
:10124300CF03120135EDD502120135F7D502120194
:101253003537D60212013580D602120135BAD602CD
:1012630012013510D7021201352FD702120135B4FE
:10127300D902120135BDD9021201350EDA0212016B
:101283003537DA021201354CDA02120135BCDA02C3
:101293001201354ADB021201358EDB02120135B62B
:1012A300DB0212013535DC0212013578DC02120152
:1012B30035B5DC02120135C7DC02120135E6DC026A
:1012C300120135EFDC02120135B9DD02120135E1FD
:1012D300CC0312013532CD03120135BBCD0312010C
:1012E3003521CE0312013520B4031201354AB4036C
:1012F30012013544B50312013569B5031201350AEC
:10130300B60312013590B60312013520D203120140
:101313003527C2031201355DC20312013596C2039C
:10132300120135EFC3031201353DD60312013553C4
:10133300D6031201355DD603120135B3D60312016C
:1013430035E4D603120135E5DD02120135A2DE02D2
:10135300120135DDDE0212013505DF0212013567A8
:10136300DF02120135B3DF0212013513E00212016D
:1013730035A4E002120135A0E1021201352DE3028A
:10138300120135B0E30212013514E4021201352BC8
:10139300E40212013521E5021201356DE502120165
:1013A30035FC9703120135119803120135C19803D7
:1013B3001201350199031201351A99031201354DB2
:1013C30099031201359A9903120135CE990312013B
:1013D30035109A03120135179C031201357D9C03C6
:1013E3001201356BA40212013560A50212013528E2
:1013F300A602120135A5A80212013591A902120114
:1014030035B4A902120135F5AB0212013547AC021E
:10141300120135DAAC0212013526AE02120135C1D2
:10142300AE02120135CA7F00120135C4FF01120159
:1014330035CBFF02120135E4D703E066701008A331
:10144300E066700A08A3E066700408A3E06622C39E
:10145300E7960809E7960809E7960809E79622C37D
:10146300E09608A3E09608A3E09608A3E09622C0BE
:1014730008C3E096F50808A3E096420808A3E0969F
:10148300420808A3E09645087001D3D00822080853
:1014930008EAC0E0EBC0E086F0E7A4FA180986F09A
:1014A300E7A42AFA180986F0E7A42AFA180986F0AD
:1014B300E7A42AFA1986F0E7A4FBE5F02AFA19084B
:1014C30086F0E7A42BFBE5F03AFA190886F0E7A4C7
:1014D3002BFBE5F03AFA18180986F0E7A4C5F02BC0
:1014E300FBE43AFA1908E7C5F0C6A426F6E5F03B93
:1014F300FBE43AFA1886F0E7A4F6E5F00826F6E4EA
:101503003B08F6E43A08F6D0E0FBD0E0FA22E4CF59
:10151300C0E0E4CEC0E0E4CDC0E0E4CCC0E075F0D0
:1015230020E626F608E633F608E633F608E633F651
:10153300181818EC33FCED33FDEE33FEEF33FFC325
:10154300EC9709ED9709EE9709EF97191919400FD1
:10155300FFEC97FC09ED97FD09EE97FE191906D5E7
:10156300F0BFECF709EDF709EEF709EFF7191919D1
:10157300D0E0FCD0E0FDD0E0FED0E0FF2260160812
:101583000808C6C313C618C613C618C613C618C69A
:1015930013C6D5E0EA227009080808226016181855
:1015A30018C6C333C608C633C608C633C608C6330F
:1015B300C6D5E0EA22E627F60809E637F60809E683
:1015C30037F60809E637F622E026F608A3E036F6F2
:1015D30008A3E036F608A3E036F622E026F008A3D7
:1015E300E036F008A3E036F008A3E036F022C3E6C5
:1015F30097F60809E697F60809E697F60809E697C5
:10160300F622C3E096F008A3E096F008A3E096F074
:1016130008A3E096F022E657F60809E657F608090C
:10162300E657F60809E657F622E056F608A3E05611
:10163300F608A3E056F608A3E056F622E056F008B3
:10164300A3E056F008A3E056F008A3E056F022E02A
:1016530066F608A3E066F608A3E066F608A3E0666C
:10166300F622E0F608A3E0F608A3E0F608A3E0F606
:1016730022E6F008A3E6F008A3E6F008A3E6F022CA
:10168300E0FAA3E0FBA3E0FCA3E0FD22EAF0A3EB76
:10169300F0A3ECF0A3EDF022E0F8A3E0F9A3E0FA65
:1016A300A3E0FB22E8F0A3E9F0A3EAF0A3EBF02226
:1016B300CAC0E0E6F0A308DAFAD0E0FA22CAC0E032
:1016C300E0A3C582CCC582C583CDC583F0A3C58203
:1016D300CCC582C583CDC583DAE6D0E0CA22C3E494
:1016E30098F8E499F91217228026C3E49AFAE49B46
:1016F300FBE920E7E9121722E498F8E499F922C3F9
:10170300E498F8E499F9121722E498F8E499F9C3F4
:10171300E49AFAE49BFB22EB20E7CFE920E7E0B968
:101723000010BB0008E88AF084F8AAF022E4FBC8A2
:10173300FA22EB70227B10C833C8C933C933500770
:10174300C39AC3DBF280069A50012ADBEAC833F45A
:10175300C8C933F4C9FA2275F008E4C833C8C933D9
:10176300C933C99AC99B5004C92AC93BD5F0ECFBBC
:10177300C833F4C8E4C9FA22600D08C6A2E713C649
:1017830018C613C6D5E0F322600C08C6C313C618E7
:10179300C613C6D5E0F422700422600D18C6C33305
:1017A300C608C633C6D5E0F41822251810AF08F5CD
:1017B30018400C15198008F51840021519D2AF22EC
:1017C30000C0D0251810AF08F518500C0519800873
:1017D300F51850020519D2AFD0D0222518F5821082
:1017E300AF08F518400C15198008F51840021519B3
:1017F300D2AF851983222518F582E43519F58322A2
:101803002518F8E43519F9222518FAE43519FB22CD
:101813002518FCE43519FD22E4732518C582C0E0C0
:10182300E51934FFC583C0E0E518C3958224F81099
:10183300AF088583198582188008858319858218E6
:10184300D2AFCEF0A3E520F0A37808E608F0A3DE3C
:10185300FAEFF0A3E58124FAF8E608F0A3E608F02E
:10186300A3E608F0A30808E608F0A3E608F0A3152A
:10187300811581D0E0FED0E0F8158115811581E84E
:10188300C0E0EEC0E0222518C582C0E0E51934FFB0
:10189300C583C0E0E518C3958224F910AF0885839A
:1018A300198582188008858319858218D2AFCEF0F6
:1018B300A3E520F0A37808E608F0A3DEFAEFF0A38F
:1018C300E58124FBF8E608F0A3E608F0A30808E6A0
:1018D30008F0A3E608F0A315811581D0E0FED0E05F
:1018E300F815811581E8C0E0EEC0E02285198385F3
:1018F3001882E0A3FEE0A3F5207808E0A3F608DF52
:10190300FAE0A3FFE0A3C0E0E0A3C0E0E0A3C0E0EF
:10191300E0A3C0E0E0A3C0E010AF08858218858390
:10192300198008858218858319D2AFD083D08202AB
:101933000132851983851882E0A3FEE0A3F52078A0
:1019430008E0A3F608DFFAE0A3FFE0A3C0E0E0A30A
:10195300C0E0E0A3C0E0E0A3C0E010AF08858218B8
:101963008583198008858218858319D2AFD083D0E7
:101973008222C0D02518C582C0E0E51934FFC58393
:10198300C0E0E518C3958224F310AF088583198559
:1019930082188008858319858218D2AFC8F0A3E91D
:1019A300F0A3EAF0A3EBF0A37908E709F0A3D8FAD0
:1019B300ECF0A3EDF0A3EEF0A3EFF0A3D0E0F0A3DF
:1019C300D0E0F0A3D0E0F0A3E520F0A3E5F0F0A38E
:1019D30022851983851882E0C0E0A3E0F9A3E0FA29
:1019E300A3E0FBA37808E0F608A3DFFAE0FCA3E09A
:1019F300FDA3E0FEA3E0FFA3E0C0E0A3E0C0E0A3FB
:101A0300E0F5D0A3E0F520A3E0A3F5F010AF08853F
:101A130083198582188008858319858218D2AFD0EF
:101A230082D083D0E0F8D0E0327404800674028060
:101A3300027401C0E0F4041217DED0E01216B322E0
:101A43007404800474028000CCC0E0EDC0E0E518AB
:101A5300C39CCCAD1950011D10AF068C188D198095
:101A6300068C188D19D2AF1216C0D0E0FDD0E0FC61
:101A730022D083D082E9C0E0E493A3C386F0C5F00B
:101A830095F0F908E493A386F0C5F095F0700BE4A4
:101A930093A3C3994005E9048002A3E475F002A46B
:101AA3002582F582E5F03583F583D0E0F9E493A34D
:101AB300C0E0E493C0E022D083D082ECC0E0EDC06C
:101AC300E0E493A3FCE493A3FDED4C600D121B062D
:101AD300EC24FFFCED34FFFD80EFE493A3FCE493DF
:101AE300A3FDED4C600D121B45EC24FFFCED34FF10
:101AF300FD80EFD0E0FDD0E0FCE493A3C0E0E493ED
:101B0300C0E022C0E0C3E4939608740193961840A2
:101B13000FE49366700808740193661870007019D7
:101B2300A3A3C3E49396087401939618A3A3400D4B
:101B3300D0E0D0E0D0E0021AF6A3A3A3A3A3A3D0DE
:101B4300E022C0E0C0F088F0E493667008087401F6
:101B53009366187000A8F0A3A3700BD0F0D0E0D068
:101B6300E0D0E0021AF6A3A3D0F0D0E02274F6127C
:101B73001889EAFEEBFF8C088D09EE2434F8E43F64
:101B8300F9E8FCE9FDEE2435121E3CFAEE24371287
:101B93001E3CF88508F0A4C885F00A8509F0A42541
:101BA3000AF9EA28F8E439F97A257B00121722EAC0
:101BB3008C828D83F0FA131313541FF8EE28F8E484
:101BC3003FF9E8245DF582E439F583E0C0E074076A
:101BD3005AF8D0E0B800028004C313D8FCA2E0EEA8
:101BE30050082434F582E43F80182436121E3CF555
:101BF300F0EA84A8F0EE28F8E43FF9E82438F58207
:101C0300E439F583E0F97F0302193574F712188973
:101C1300EAFEEBFFEE2434121E3CC0E0EE2435F561
:101C230082E43FF583D0E0F08E828F83A3A3A3A346
:101C3300A3A3A3C082C0838E828F83A3A3A3A3A3E2
:101C4300E0F8A3E0F9D083D082E0C398F508A3E0DD
:101C530099F509EE247F121E3C6401703EEE248048
:101C6300F582E43FF583C082C0838E828F83A3A372
:101C7300A3A3A3E0240108A3E03400F9D083D08216
:101C8300E0687003A3E06970127CC07D06120B3D0F
:101C9300EE247FF582E43FF583E4F0AC08AD09EE72
:101CA300FAEFFB121B70E9F91226AA7F020219351B
:101CB30074EF121889900369E064086005E0640713
:101CC300702A9061C8E06024900397E0F4601DE0FF
:101CD300F875F00DA4C8AAF02AF9749928FE7403C4
:101CE30039FF8E828F83A3A3A3E07003021DC190EB
:101CF3006060E0C0E0EE2468F582E43FF583D0E065
:101D0300F0750CFC750D06750800750900E5D9140E
:101D1300F50AE5D95403F50E60127403650E6043AA
:101D2300E50A600AEE2467121E3C70028075900675
:101D3300F7E06401601F121E3960047A0480027A9E
:101D430000E50AC39AFA95E0FB1209E78A088B09B2
:101D5300EA45097005120DD78064121E3970048A92
:101D63000C8B0DE50A6012850C82850D83F50BE55E
:101D7300D9F0A3150BE50B70F6121E39604474FC01
:101D8300250AF50A780C121A30AC0AA90EEEFAEFFE
:101D9300FB120C0374021217C3E97026AA08AB09DD
:101DA3001212D5793D8E828F83A3A3A3A3E0FA7B7E
:101DB30000120861EEFAEFFB120B61120C6379005B
:101DC300806F7403650E6051850A107511007810D9
:101DD300121A30AC0CAD0DAA08AB09120BC7740272
:101DE3001217C3EE2468121E3C64807004747F8053
:101DF30001E0F50C780C121A34E50EF50C780C1290
:101E03001A34A90AAC08AD09900397E0FA7B0012D3
:101E1300083174021217C38013900369E0640870D9
:101E23000BAC0CAD0DEEFAEFFB120C33120DE37994
:101E3300017F0A021935EE2483F582E43FF583E03E
:101E43002274F212188974FC1217ADEAFEEBFF89B3
:101E530009A2AFE433F508C2AF021F0EE0601B789E
:101E63000C121A30AC0BA90EEEFAEFFB120BFD7439
:101E7300021217C37404250BF50B7401250BF5D956
:101E8300850ED9E50B6018F50A850C82850D83E074
:101E9300F5D9A385820C85830D150AE50A70EA75C9
:101EA300E195EE2463F8E43FF97A007B00A2AFE406
:101EB30033F50BC2AF88828983E0FCA3E0FDEC4DD0
:101EC300603A88828983E0FAA3E0FB8A828B83E00D
:101ED300FCA3E0FD88828983ECF0A3EDF08A828B7A
:101EE30083E4F0A3F088828983E0FCA3E0FDEC4D5A
:101EF300700A88828983A3A3E4F0A3F0E50BA2E030
:101F030092AF1212D59006C7E004F0EE2463121EBE
:101F13003CF8A3E0F9E8496064EE2463121E3C2414
:101F230002F8A3E03400F988828983E5822402F56C
:101F33000CE43583F50DE0F50BA3E0F50EEE24621A
:101F4300121E3C640170369061D0E0F8121E3960B5
:101F5300047C0480027C007480C398FA95E0FBE55E
:101F63000B2CF8E43400F9E82402F8500109C3EA21
:101F730098EB99A2D265D0334003021E5F9006C747
:101F8300E0604D9006C8E0F89006C7E0C398500C97
:101F930074026509703A9006C9E060348E828F83BB
:101FA300A3A3A3A3E0851882851983121FE37402F8
:101FB3001217F9E8121FE39006C6E028F074021224
:101FC3001813AA18AB19790112088B9006C7E4F00D
:101FD300E508A2E092AF74041217C37F0702193514
:101FE300F0A3E4F09006C7E0F822000000851B8709
:101FF300851CC622C0E074EB121975A2AFE433F559
:1020030008C2AF759B00906182E0A2E05030E59179
:10201300A2E0502A7591FE7401651B702112218A7A
:10202300120CFF122178121A431225E674041217B8
:10203300C3E9640170057901120D3B121CB3906171
:1020430082E0A2E5505DE591A2E550577591DF90DE
:102053000369E064076005E06408702F12218A7445
:1020630001651B703E120CFF122178121A431225D0
:10207300E674041217C3E9640170057901120D3B7C
:102083007901EEFAEFFB121E448018E0640D701321
:1020930090038BE004F064287002E4F07A00E0F926
:1020A300120DE9906182E0A2E6400302214DE59121
:1020B300A2E6400302214D7591BF900369E06405D8
:1020C3007008120CE7120CF38003120CED751B0061
:1020D300120D59E990036AF07900120D3B120AA719
:1020E3007A017B00900368E0F91212A5907803E06F
:1020F300644270569006FBE014F0704EC2AF12219A
:102103000400781ED0E0F618D0E0F6E59F5407F8F7
:102113007005750DFF8003750D7FC4C0E0781DE663
:10212300F50A08E6550DF50B740B780A12178BD0D8
:10213300E0250AF8906270E0A2E740F8E8C3339024
:102143006272F0906270E0D2E0F0906181E0A2E30D
:102153005009E5E9A2E3500375E9F7A3E0A2E750CC
:1021630009E591A2E7500375917FE508A2E092AFDC
:102173007F080219D48E828F83E0F8A3E0C8241667
:10218300F582E438F58322900397E0F875F00DA407
:10219300C8AAF02AF9749928FE740339FF22C0E013
:1021A300C0D0C082C083906183E0A2E05009E5BF44
:1021B300A2E0500375BFFEE0A2E15009E5BFA2E132
:1021C300500375BFFDE0A2E25009E5BFA2E2500350
:1021D30075BFFBE0A2E35009E5BFA2E3500375BF5F
:1021E300F7E0A2E45009E5BFA2E4500375BFEFE0B6
:1021F300A2E55009E5BFA2E5500375BFDFE0A2E603
:102203005009E5BFA2E6500375BFBFD083D082D08B
:10221300D0D0E032C0E074F2121975E5A7A2E650FF
:102223000FE5A1A2E6500953A7BF75A1BF12226B08
:10223300E5A7A2E5500CE5A1A2E5500653A7DF757B
:10224300A1DFE5A7A2E15009E5A1A2E1500375A131
:10225300FDE5A7A2E2500CE5A1A2E2500653A7FBBD
:1022630075A1FB7F010219D474F7121889751B013C
:10227300900369E064067015120C878A828B83A32E
:10228300A3A3A3A3A3E0FAA3E0FB120CD5A2AFE49C
:1022930033FED2AF90036FE0640170187A207B00A5
:1022A300900368E0F91213C57A207B00900368E07D
:1022B300F91212AB906182E0D2E6F09006F8E0608A
:1022C3002185C61C801690036EE064017008E5C684
:1022D30054F84405F5C653BEFC121FF07401651B88
:1022E30060E4EEA2E092AF7F0202193574E912189E
:1022F3008974FA1217ADEAFEEBFF8C0A8D0B120DEF
:102303000BEAF8EBF9ECFAEDFB8E828F831216A73A
:10231300900369E024F7C394055006751401022461
:1023230056120C878A088B09EA4509700302245365
:10233300EEFCEFFDAA18AB19120D0585088285097D
:1023430083A3A3780C1216659082C4780C12162C02
:1023530085188285198378101216659082C47810C7
:1023630012162C780C7910121452501F780C791015
:102373001215F1908258780C1214724047850C1490
:10238300850D15850E16850F17804590825885108B
:10239300148511158512168513177814790C1215E7
:1023A300F17814121472501C75140075150075160B
:1023B30000751701781479101215F17814790C123D
:1023C30015B8800C75140175150075160075170086
:1023D30074097814121599908264780C1216657832
:1023E30014790C121511850882850983A3A3A3A36D
:1023F300A3A3122474121722880C890DE4F50EF599
:102403000F7814790C1215B874041217F912247486
:10241300121722E8FA8A0CE4F50D7814790C1214D9
:102423005250077814790C1215F1900369E064088F
:10243300600AE064066005E06405702090825078CD
:1024430014121472501690824C78141215CB800C0F
:10245300751400751500751600751700850A8285B9
:102463000B83781412167474061217C37F100219A3
:1024730035E0F8A3E0F97AD07B032274F7121889C8
:10248300120D1D9006F6E064017010906245E4F0B1
:10249300A3F053F4F343FE0C5390F3120CC3E5C6BD
:1024A30054B84441F5C6E59E5447644170F89061C1
:1024B30085740FF09006F4E0F47002A3E0604E9090
:1024C30006F5E0600814601B14602E804075080157
:1024D3007509009006F4E0780812179AE508F4529B
:1024E30080802A7508017509009006F4E0780812C7
:1024F300179AE508F4529080147508017509009045
:1025030006F4E0780812179AE508F452A079007FE0
:102513000202193574F7121889E9FEEAFF120D1D3C
:1025230074016E700C7A807B00900368E0F91212DC
:10253300A5902730E493F46008E493F9120A9B8092
:102543000953C6B8E59E544770FA120CC99006F6B3
:10255300E064017003120AB99006F4E0F47002A378
:10256300E0604B9006F5E0600814601A14602C805C
:102573003D7508017509009006F4E0780812179A72
:10258300E508428080287508017509009006F4E08B
:10259300780812179AE508429080137508017509A7
:1025A300009006F4E0780812179AE50842A0120C8E
:1025B300878A088B09A808A909E8496014E5E1702E
:1025C300FCE82414F582E439F583E0F46003E0F5D4
:1025D300E174016F700A7A01900368E0F912133510
:1025E30002251274F11218898A088B098C0A8D0B43
:1025F3009082C4780812162C740F1217F9780C12F3
:1026030016659082C4780C12162C7808790C121473
:102613005290825850107808790C1215F1780812EC
:1026230014724014800E780C79081215F1780C128C
:10263300147250047901800279007F0802193574FD
:10264300ED1218898A088B098C0A8D0B9082C47845
:102653000812162C74131217F9780C12166590824F
:10266300C4780C12162C780C790812145240117885
:1026730008790C1215F1AA08AB09AC0AAD0B80223C
:102683007510007511007512007513017810790C1F
:102693001215F1781079081215B8AA10AB11AC1203
:1026A300AD137F0C021935C082C083E9906000F03E
:1026B300D083D08222C0E074F2121975A2AFE43342
:1026C300FED2AFE589A2E15003121185758900C2DC
:1026D300C5751A00EEA2E092AF7F010219D4C0E0E3
:1026E30074F2121975A2AFE433FED2AFE58BA2E008
:1026F3005003121185758B00C2E880D5C0E0C0D0AD
:10270300E8C0E0E9C0E0A9A8D2AFC2C7751A00E9E2
:10271300A2E7E433F8E9A2E792AFD0E0F9D0E0F81A
:0B272300D0D0D0E032C2AF0200002294
:10273000FFFFFFFFFFFFFFFFC082C083E9901B2C5C
:10274000F0D083D08202013274F612181DE9900293
:10275000DCF090033BE0F50875090074027808127C
:10276000179AAA08AB0912131D9002DD1230FB90D4
:1027700002DD1234E8606F90033BE075F003A4FAC9
:10278000ABF012131D9002FA1230FB9002FA1234D1
:10279000E8700B9002DD1234B912132380489002C6
:1027A000FA12444D7AFF7BFF1211017A0080198AD8
:1027B000087509007402780812179A123EF574FF22
:1027C0001228FBE4F0A3F00A90033BE0F8EAC39878
:1027D00040DD79051207299002DCE0F91206157A2E
:1027E000B37B07120987023F9874F412181D8A08F8
:1027F0008B09EB548060479002DCE0F912128D8A5D
:102800000A8B0BAE0AAF0BEE4F602A8E828F83E0ED
:1028100064B0701A12073BE960148E828F83A3A301
:10282000A3A3E0F9EE2405FAE43FFB12070BEEFA4E
:10283000EFFB12127BAA08E5096480FB80047A0092
:102840007B00022A4B74F212181D74FB1217ADEABA
:10285000FEEBFFEE4F604574031217F9EEF0A3EFA5
:10286000F0851882851983ECF0A3EDF0740212173D
:10287000F9E9F0AA18AB1912060FE9F5087075749A
:10288000131217F9E0F50AA3E0F50BE50A450B6012
:10289000638E828F83122E84EE4F7005750802803E
:1028A000537A067B0012131D8A0C8B0DA80CA90D00
:1028B000E8497005750813803B88828983E41228F3
:1028C000FBEEF0A3EF122A17E50AF0A3E50BF09058
:1028D00002E0122A109002E06017E0FCA3E08003FF
:1028E000EAFCEBFD8C828D83122A1070F38C828DB2
:1028F00083123B10A90874050246CDF0A312442FA1
:10290000A32274F212181D8908890C750D00740336
:10291000780C12179A850C0A850D0B9002DFF09047
:1029200002DD12391B122A0E602E12132379008049
:102930001D890C750D007402780C12179A9002DD37
:10294000123DB48882F583A3A3E4F0A3F0099003B9
:102950003BE0F8E9C39840D990033BE0FA850AF0E0
:10296000A4CAA8F0850BF0A428FB12131D8A0C8BB7
:102970000DAE0CAF0DEE4F7003022A0490033BE046
:10298000FC850AF0A4CCA8F0850BF0A428FD790002
:102990001212637C0080318D0C750D007403780C6D
:1029A00012179A8A828B83122A0988828983E4F01B
:1029B000122A16A3A3F0A3F00DEDC3950840D8EE9C
:1029C000250AFEEF350BFF0C90033BE0F8ECC398B3
:1029D00050288C0C750D007402780C12179A900216
:1029E000DD122A09E82402500109FAE9FB8A828BE8
:1029F00083EEF0A3EFF07D0080BFE5089002DFF0EA
:102A00007900800279130246D0123DB8F922A3A3BF
:102A10001234BDEA4B22A312442FA3A3A32274F4C1
:102A200012181D7900EAA2E0501F75082E75098260
:102A30007808121A3079107C047D007A2E7B1B12E4
:102A4000072374021217C3E9F980007F040218EF0C
:102A5000C082C0839002E01234E8601C88828983BF
:102A6000A3A3E06A7003A3E06B8882898370E8A364
:102A7000A3A3A31234B980047A007B000227417417
:102A8000F212181D74FD1217ADEAFEEBFF851882D5
:102A9000851983E4F0A3F074021217F97401F0129F
:102AA00034E570141208D912131D9002E31230FBA2
:102AB0001234E57003022C111231FBEE2404F50AE6
:102AC000E43FF50B850A82F583E024FE603C24FC9C
:102AD000607424FE607E24FE7003022B6124FE706D
:102AE00003022B6E24FE7003022B7B24FE70030274
:102AF0002B8824FE7003022B9524FC7003022BB656
:102B000024FE7003022BCE022C0A1208D99002E593
:102B1000EAF0A3EB122C1D12026DE96003022C0AED
:102B20009002E5121A478E828F83A3A3A3A3A31258
:102B3000444D8508828509831234B91206F3740264
:102B40001217C3022C0AAC18AD19EEFAEFFB1207EC
:102B500041022BD9AC18AD19EEFAEFFB12074780F2
:102B600078AC18AD19EEFAEFFB12074D806BAC187C
:102B7000AD19EEFAEFFB120753805EAC18AD19EEFB
:102B8000FAEFFB1207598051AC18AD19EEFAEFFBC2
:102B900012075F80447402121803880C890D780CA8
:102BA000121A307402121813EEFAEFFB1207657452
:102BB000021217C38023AC18AD19EEFAEFFB12070F
:102BC0006BE9F8701674021217F9E4F0803CAC1847
:102BD000AD19EEFAEFFB120771E9F8E8602C8E826E
:102BE0008F83A3E064146022850A82850B83E090C2
:102BF00002E5F08518828519831234B99002E61235
:102C000030FBE8A3122C1D120267EEFAEFFB12064E
:102C1000C974021217F9E0F974030246CDF07CE59D
:102C20007D028508828509831234BD2274E812185A
:102C30001D74FA1217AD74041217F9ECF0A3EDF03D
:102C40008A128B13EA2405F50EE43513F50FEA24F6
:102C500002F510E43513F511851082F5831234B9AD
:102C60001203B18A0A8B0B7508007C037D00790082
:102C70007AE57B02121263E50E2402F516E4350FA5
:102C8000F5177402121803880C890D780C121A308B
:102C9000850E82850F83A3A3A3A3E0F50C750D0019
:102CA000780C121A30E50E2405F50CE4350FF50DFD
:102CB000780C121A308516828517831237C01206D7
:102CC0002D74061217C38A0C8B0DE50C450D70038D
:102CD000022E4D8020851882851983E088828983A1
:102CE000F00508851882851983A3E0C0E0122E8EB6
:102CF000D0E0F00508E50A24FBFAE50B34FFFBC33E
:102D0000E5089AE49B4003022E4D7E007F00851269
:102D100082851383A3A3A3A3E0F5097809121A34CB
:102D2000E4F514F5157814121A307514E2751502CD
:102D30007814121A309002E3121A4774091217F924
:102D4000121A47E50A24F9F9AC0CAD0D85108285FD
:102D500011831234B912079B74091217C3E9600377
:102D6000022DEE850E82850F83A3A3A3A3A3A3A3A5
:102D7000E0F89002E2E0687075E0F5148E157814C2
:102D8000121A3012444A850E82850F83A3A3A3A38F
:102D9000A3A3A3A31234B912125D74021217C3E9DC
:102DA000604C9002E61234E8703BE4F5147814129B
:102DB0001A307CFF7DFF79078510828511831234DC
:102DC000B912070574021217C31234EE7017850E7C
:102DD00082850F831245E774041217F9123EA81278
:102DE00037F1022E81850C82850D83122E84A8185E
:102DF000A919881489157814121A3074041217F955
:102E0000121A478516828517831230F1120639741B
:102E1000041217C38A0C8B0DEE4F7003022CCA12DA
:102E20002E8EEE122E991237A7EF122E99F8A3E0EC
:102E30003400F9E50C450D6003022CD588828983A6
:102E400074FFF00508122E8E74FFF00508E5086087
:102E50001A1313543F123101120279E960099002EA
:102E6000E61234B91212D579008016850E82850FCC
:102E7000831245E774041217F9123EA8123B107929
:102E80000A02377AA3A3A3A3E0FEA3E0FF22A808C7
:102E90009002E6E0281237A722F00508089002E623
:102EA000E0282274E812181D74FA1217AD74021289
:102EB00017F91230FB74041217F9ECF0A3EDF0745B
:102EC000021217F9E02405123790E0F50CA3E0F5A3
:102ED0000D74021217F9E02402F510A3E03400F596
:102EE00011851082F5831234B91203B1750800758B
:102EF0000900EA24FCFEEB34FFFF8008050CE50C1A
:102F00007002050DA808C3EE98EF9400500302303C
:102F1000ADA818A919880E890F780E121A308514D9
:102F200082851583A3A3A3A3124451121A30E5147A
:102F30002405F50EE43515F50F780E121A308514B8
:102F4000828515831230EF12062D74061217C38A7C
:102F50000E8B0FEA450F70030230ADEA2404F5161C
:102F6000E4350FF517851682F583E0F50CA3E0F53F
:102F70000D85188285198312444D8A828B83A3A301
:102F8000A3E0F98510828511831234B912061BE97A
:102F9000F50960030230AD74021217F91237B7F564
:102FA000097809121A34E4F512F5137812121A305E
:102FB0007512E27513027812121A309002E3121A97
:102FC0004774071217F9121A47EEF9AC0EAD0F85C8
:102FD00010828511831234B912079B74091217C32A
:102FE000E9F50960030230ADE508703FE4F50EF540
:102FF0000F780E121A307CFF7DFF790985108285CB
:1030000011831234B912070574021217C31237DD87
:10301000700D74041217F91230E479110230E19046
:1030200002E2E024029002E6F080149002E6E0FA68
:103030009002E2E0790024025001096A497072A806
:10304000089002E2E0FAE82AFAE43400FBEE9AEF94
:103050009B405A851682851783E0C0E09002E712F4
:103060002E93D0E0F00508851682851783A3E0C073
:10307000E0089002E7122E93D0E0F005089002E2FB
:10308000124451121A3012444AA8081237841212FC
:103090004B74021217C39002E2E02508F50874FF92
:1030A000650C700474FF650D6003022EFCE508607A
:1030B0001F9002E6E0F5F0E5088412310112027F6C
:1030C000E960099002E71234B91212D57900801133
:1030D000E509700375090A74041217F91230E4A99E
:1030E0000902377A12391FE50CF0A3E50DF022A38F
:1030F000A31246DCAA0CAB0D22A3A3EAF0A3EBF0CB
:10310000229002E5F07CE57D028510828511831214
:1031100034BD2274EC12181D74FC1217AD123C2041
:1031200074021218131234B31206338A0C8B0DEA90
:10313000450D70030231EB1231FBA818A919881054
:1031400089117810121A307CFF7DFF790B85088277
:103150008509831234B912070574021217C312329B
:10316000F1700C850A82850B831237EE0231F88EDE
:10317000828F83A3A3A3A3E0F5127812121A34E47A
:10318000F512F5137812121A307512E575130278DC
:1031900012121A307810121A3074091217F9121A12
:1031A0004774091217F9E0F9AC0CAD0D850882855A
:1031B00009831234B912079B74091217C3E9FE7010
:1031C000157CE57D028508828509831234B91202D7
:1031D00085E97009802074166E70027E009002E608
:1031E0001234B91212D5EE7004800B7E01850A826A
:1031F000850B83123B0DEEF9023B22EE2402F5080B
:10320000E43FF5092274EC12181D74FC1217ADEAA4
:10321000FEEBFF8C0E8D0FEE2405F508E43FF5095B
:1032200074021218138508828509831234B91206B4
:10323000338A0C8B0DEA450D70030232E1EE240255
:10324000F50AE43FF50BA818A91988108911781020
:10325000121A307CFF7DFF790D1234B3120705740A
:10326000021217C31232F1700B850882850983128E
:1032700037EE807A8E828F83A3A3A3A3E0F5127822
:1032800012121A34850882850983A3A3121A47757E
:1032900012E57513027812121A307810121A30746F
:1032A000091217F9121A4774091217F9E0F91234C2
:1032B000AF12079B74091217C3E9FE700F7CE57DFE
:1032C000021234B312028BE97009802074166E70FA
:1032D000027E009002E61234B91212D5EE7004801C
:1032E0000B7E01850882850983123B0DEEF9023BB6
:1032F000221234F8F510A3E0F511EA45112274E822
:1033000012181D74FE1217AD8A168B178C148D15AA
:10331000EA2405F50CE43517F50DEA2402F50EE470
:103320003517F50F850E82F5831234B91203B18A71
:10333000088B09750B007C037D0079007AE57B0220
:10334000121263750A00E50814F5100424FFF5084D
:10335000E50934FFF50980549002E5E0FA9002E2B5
:10336000E0F8EA28F8E43400F9E50898E50999500E
:103370000D9002E5E0F8E510C3989002E2F0E0F568
:10338000127513007812121A3012444A9002E6E0C5
:103390002AFAA3E03400FB12124B74021217C390F6
:1033A00002E2E0F89002E5E028F0050A850C82854B
:1033B0000D83A3A3123DC440030234949002E5E0C0
:1033C000C39508E495094003023494AE0AEE2EFE3C
:1033D000E433FF1234D3AC18AD19124465E439FB61
:1033E0001206338A128B13AC12AD13EC4D701B75A1
:1033F0000B011234C3123B119002E6122A10600333
:103400001212D5A90B740202377C851682851783A8
:10341000A3A3A3A3E0F50B780B121A34E4F512F57D
:10342000137812121A307512E27513027812121AFA
:10343000309002E3121A4774071217F9121A47A9BB
:1034400010850E82850F831234B912079B740912FE
:1034500017C3E9F50B709B9002E61234E860030293
:103460003358E4F512F5137812121A307CFF7DFF01
:10347000790F850E82850F831234B9120705740205
:103480001217C31234EE60030233581234C31237DA
:10349000F20234057CE57D02850E82850F831234AD
:1034A000B9120291E960030233F87900023405ACE5
:1034B0000CAD0D850A82850B831234BD22E0FAA380
:1034C000E0FB221234D3E0FAA3E0F9EA8514828506
:1034D000158322850C82850D83E02EF8A3E03FF949
:1034E00088828983229002E31245EBE84922123454
:1034F000F8F8A3E0F9E849229002E6EAF0A3EBF03D
:103500009002E6E02274E812181D74FA1217AD74E6
:10351000041217F91230FB8C168D1774041217F968
:10352000E02405F50EA3E03400F50F74041217F93A
:10353000E024021237901234B91203B18A0A8B0BBD
:103540007F007E00A818A919880889097808121A2E
:1035500030850E82850F83A3A3A3A3E0F5088E090F
:103560007808121A30E50E2405F508E4350FF50940
:103570007808121A30850E82850F83A3A31237C0F4
:1035800012062D74061217C38A0C8B0D8029123770
:10359000B1F00F1237B1F00F9002E2123AFC121A9A
:1035A0003012444AEFF812378412124B7402121789
:1035B000C39002E2E02FFFE50C450D700302364098
:1035C000851882851983123C32A3A3A3E0F98514E0
:1035D000828515831234B912061BE9FEE50C24041A
:1035E000F510E4350DF511EE705074041217F91250
:1035F00037B7F5087808121A34E4F508F5097808A1
:10360000121A307508E27509027808121A30900211
:10361000E3121A4774071217F9121A47E50A24FA37
:10362000F9AC0CAD0D8514828515831234B91207DF
:103630009B74091217C3E9FE60391237CD123B1093
:10364000EF70030237679002E6E0F5F0EF84900236
:10365000E5F07CE57D028514828515831234B9126C
:103660000297E960099002E71234B91212D5790085
:1036700002377A8F08EF703BE4F512F513781212D7
:103680001A307CFF7DFF79118514828515831234F1
:10369000B912070574021217C31237DD7009123709
:1036A000CD1237F102377A9002E2E024049002E66C
:1036B000F080359002E2E0F89002E6E0FAE82404B7
:1036C000FCE43400FDEC6A4D6003023646E50A2452
:1036D000FAFAE50B34FFFBE50828F8E43400F9EAD0
:1036E00098EB995003023646851082851183E0C01D
:1036F000E09002E7E02FF8A3E034008882F583D061
:10370000E0F00F851082851183A3E0C0E012379EA0
:10371000D0E0F00F740212180388088909780812A3
:103720001A3074021217F9121A47850E82850F8318
:103730001230EF12063974041217C38A0C8B0DEA8B
:10374000450D700302358E74021217F9E0C0E012C5
:10375000379ED0E0F00F74021217F9A3E0C0E01218
:10376000379ED0E0023596EE70027E0A850E828585
:103770000F831237D3123B10EEF974061217C37F72
:10378000100218EF9002E7E028FAA3E03400FB22D1
:10379000F514A3E03400F515851482F58322123761
:1037A000A2229002E7E02FFAA3E034008A82F58398
:1037B000221237A274FF2212391FA3A3A3A3E0226F
:1037C0001246DC850E82850F831234BD228510825D
:1037D0008511831245EB851682851783229002E7B7
:1037E000EAF0A3EBF09002E71245EBE84922123B26
:1037F00016E8F0A3E9F079112274EA12181D74FE9C
:103800001217AD8A088B098C128D13EA2405FEE489
:103810003509FFAC18AD198E828F831234B91206A8
:10382000338A0C8B0DEE2406F50EE43FF50FEA45C6
:103830000D70030238F1E5082402F50AE43509F5B4
:103840000B8A828B83A3A3A3E0A2E550288518826C
:103850008519831234B912078F8A108B11EA45112A
:10386000602079121234AF85108285118312181BE3
:10387000E9F50C707F850E82850F83E0600979522F
:103880008011750C0E806D850882850983A3A3A322
:10389000A3E0F9E4F508F5097808121A308E828F52
:1038A00083A3A3E0F5087808121A308E828F83A3D1
:1038B000A3A3121A478E828F8312444D1234B3127F
:1038C00007A174061217C3E9F50C7011850E8285E5
:1038D0000F83E0702D1234B312029D80257416659B
:1038E0000C7011750C0074181217F912391BE48052
:1038F00010750C011245E3851282851383E8F0A34D
:10390000E9F0850E82850F83E0600479008002A9CA
:103910000C74021217C37F0E0218EF12391F22E037
:10392000F8A3E0F58388822274EC12181D74F71254
:1039300017AD8A0A8B0B8C108D11EA2405FEE43535
:103940000BFF750C00AC18AD198E828F831234B941
:103950001206338A088B09EA45097003023AE7E543
:103960000A2402F50A5002050B8A828B83A3A3A3C3
:10397000E0A2E5502F8518828519831234B9120709
:103980008F8A0C8B0DEA450D604F7912AC08AD099A
:103990001234B3850C82850D8312181BE9F50C6077
:1039A00003023AEA850A82850B83E0F508A3E0F575
:1039B00009AA08FB120783EA4B70197AFF7BFF12F2
:1039C0000783EA4B7003023ADD8A828B83E508F0B5
:1039D000A3E509F07508008008750C0E023AEA05A7
:1039E000089002DFE0F8E508C3984003023ADD855D
:1039F000080E750F007403780E12179A8A828B8353
:103A0000A3A3E0250EF8A3E0350F123EB170D08ECF
:103A1000828F83123B051230FB8E828F83A3A31209
:103A20003B051230F9EE2404F508E43FF50985085A
:103A300082F583E088828983A3A3A3A3F0A3E4F0A3
:103A4000EE2405F50EE43FF50F850E82F583123B5B
:103A500005A3A3A3A31230F97512077513007812FA
:103A6000121A30EEFCEFFD740412180B12124B7494
:103A7000021217C3E4F5127812121A3085088285F3
:103A80000983E0FC7D0079171234B3120705740234
:103A90001217C374071217F91230FB74071217F9C3
:103AA000E0FA4B603D850882850983123AFC121AC0
:103AB00030850E82850F8312444D12124B74021210
:103AC00017C374021218131234B31202A3E960264A
:103AD00074071217F91234B91212D58019750C092E
:103AE0008008750C118003750C011245E385108266
:103AF000851183123B10A90C74098028E0F5087524
:103B000009007808221234BD8882898322123B166C
:103B1000E8F0A3E9F022E0F8A3E0F9850E82850F32
:103B2000832274041217C37F0C0218EF74EC12186E
:103B30001D123C20751000EE2402F50CE43FF50D3B
:103B4000850C82F5831234B91207838A088B09EA3F
:103B500045097003023C04850A82850B83E06401F9
:103B60006003023BF9AC08AD09AA0AAB0B12077758
:103B7000E9606E850882850983122E86EE2406F59B
:103B80000AE43FF50B8E828F83A3A3121A478E821D
:103B90008F83A3A3A3A3121A47850A82850B8312DE
:103BA0001A4779188E828F83123C321234B9120769
:103BB000A174061217C3E9F8741668700B850A829F
:103BC000850B83E4F0A38014E860128E828F831249
:103BD00034B9850E82850F83EAF0A3EBF08810805C
:103BE00018780E121A30AC08AD09EEFAEFFB120786
:103BF0007D74021217C3E9F510AA08AB09120789F0
:103C0000E510700E850C82850D831234B91202A95D
:103C10008009741665107003751000A910023B2707
:103C2000EAFEEBFF8C0E8D0FEE2405F50AE43FF55E
:103C30000B221246DC850C82850D832274EA121851
:103C40001D7508007509007E007F00750A00EC24D0
:103C500002F510E43DF5118035EC65087003ED6563
:103C6000096003023CF188828983A3A3E06A7003A0
:103C7000A3E06B707C88828983A3A3A3A31245E78A
:103C8000EE28FEEF39FFEA28FAEB39FB050A123D70
:103C9000C1503A850A0C750D007403780C12179AFE
:103CA000851082851183123DB4123EB1601FE50874
:103CB000450970A58C088D0988828983122E848815
:103CC000828983A3A3E02EFAA3E03F80BEE50AC366
:103CD00094025003023DAF750800750900EE4F6075
:103CE00010EEFAEFFB1212CF8A0E8B0FEA450F701F
:103CF000057900023DB1750B00023D84850B0C7502
:103D00000D007403780C12179A851082851183E0D8
:103D1000250CF50CA3E0350DF50DE50C2406F51486
:103D2000E4350DF515851482F583123EB66042E543
:103D30000C2404F512E4350DF513851282F5831277
:103D40001A47E50E2508FAE50F3509FB12124B74E8
:103D5000021217C3851282851383E02508F508A394
:103D6000E03509F5098514828515831234B91212DC
:103D7000D5E50B600D7C087D007900AA0CAB0D1217
:103D80001263050BE50BC3950A5003023CFC85103A
:103D9000828511831245E788828983A3A3A3A3A305
:103DA000A3E50EF0A3E50F122A17EEF0A3EFF079CA
:103DB00001023916123DB822E0250CF8A3E0350DBA
:103DC000229002DFE0F8E50AC3982274F012181D71
:103DD0008A0E8B0F8C0A8D0B750D00750C008050B0
:103DE0007916EE2406F508E43FF5098E828F83A349
:103DF000A3121A478E828F83A3A3A3A3121A478507
:103E00000882850983121A47850E82850F83A3A332
:103E10001234B91207A174061217C3E9F50D74160E
:103E2000650D706C850882850983E4F0A3F0050CAC
:103E30009002DFE0F8E50CC3985066AA0C8A08757A
:103E400009007403780812179A850A82850B83A3E8
:103E5000A3123F00E8FEE9FF8E828F83123EB66018
:103E600040EA2401F508E43400F5099002DFE0653A
:103E7000087002E509601488828983A3A3A3A3A321
:103E8000A3A3A31234E86003023DE07918023DE2E7
:103E9000E9609B1245E374101217F9123EA8123B19
:103EA00010A90D7F080218EFE0FAA3E0F5838A82DB
:103EB00022F9888289831246DCEC4D2274F61218AE
:103EC0001D7C0080010C90033BE0F8ECC398501E71
:103ED0008C087509007402780812179A123EF5E0F2
:103EE0006A7003A3E06B70DDE8FAE9FB80047A00F6
:103EF0007B00023F989002DD123F00888289832276
:103F0000E02508F8A3E03509F92274F212181D8A99
:103F1000088B09750A0080278E828F83A3A3A3A331
:103F2000122A0E60031212D57C087D007900EEFA89
:103F3000EFFB1212638E828F83E4F0A3F0050A1266
:103F40003DC15027850A0C750D007403780C1217BB
:103F50009A850882850983A3A3E0250CFEA3E0359A
:103F60000DFF8E828F831234E870AD85088285093B
:103F70008374FFF0A3F00246D074F612181D1207E6
:103F8000358A828B83E582458370067A007B0080C8
:103F900007A3A3A3A31234B97F020218EF74F4128B
:103FA000181D89088C828D83E06402703C1245865E
:103FB000FEA3E0F9EEF874026870037429697029B1
:103FC000750A02750B00780A121A3074101217F96C
:103FD000121A4774101217F9121A47A9081211077A
:103FE00074061217C3E9F980027901022A4B74E8BA
:103FF00012181D74FB1217ADE9851882851983F01C
:104000008A168B17ECFEEDFF7510008E828F83A34E
:10401000A3A3E0A2E4502D741D1217F91234B912B3
:10402000078F8A828B83E58245837003024425795A
:104030000AEEFCEFFDAA16AB1712181BE9F510608B
:1040400003024428741F1217F9E0F508A3E0F509EC
:1040500074211217F9E0F50AA3E0F50B7423121787
:10406000F9E0F50EA3E0F50F8E828F83E064026025
:10407000030243C6A31245E7850882850983A38509
:104080008212858313EE2406F50CE43FF50D888239
:104090008983124465F514E439F5157814121ABAB7
:1040A000010000280128C840070002288D4103288C
:1040B000FB400029BC420129E7420229884203292A
:1040C000BC4204296043C643E50E450F600302432A
:1040D000C1850C82850D831245E7E8FAE9FB8A82E7
:1040E0008B83E0850A82850B83124470121A308A12
:1040F000828B83A3E0FCA3E002434AE50E450F60F8
:10410000030243C1850A82850B837401F012445A6D
:10411000850882850983F07C007D008E828F83A3D1
:10412000A3A3A3E02401FAA3E03400FB120633EAC0
:104130004B60408A828B83E02402F8850A82850BDB
:1041400083E028F0EA2404F8E43BF988828983E0DC
:1041500085128285138312447E124470121A308AAB
:10416000828B83A312444DE5082403FAE43509FB4E
:1041700002434F850A82850B83E02404F07C047D92
:10418000007900AA12AB13121263024428E50E450F
:104190000F60030243C112445AFEA3E0FF850A8266
:1041A000850B837404F0EE850882850983F0EF8522
:1041B0001282851383F07403121813EEFAEFFB12C8
:1041C00006338A0C8B0DEA450D700302426B8A821E
:1041D0008B83A3A3122E847401121803880E890FF7
:1041E000780E121A3074051217F9121A477CFF7DE7
:1041F000FF12063974041217C38B0FEA450F703390
:10420000850C82850D83124451121A30850C8285EB
:104210000D83A3121A477C027D007AFA7B82120377
:104220009F74041217C3E9700A74011217F974FF1E
:10423000F0A3F08E828F83E064027039750C0275F2
:104240000D00780C121A308E828F83A312444DE534
:10425000082404FAE43509FB12124B74021217C346
:10426000850A82850B83E02402800974011217F904
:10427000EEF0A3EFF074011217F912443F7401122B
:1042800017F91244360243BBE50E450F60030243A3
:10429000C1850C82850D831246D5AA16AB17121163
:1042A0000D850A82850B837402F085088285098357
:1042B000EAF0851282851383EB0243BEE50E450FBB
:1042C00060030243C112445AF8A3E0F9850A8285CB
:1042D0000B837402F0E8850882850983F0E9851272
:1042E000828513830243BE850C82850D831234B907
:1042F000121245EAFAF8C3950EE4950F405CE865A2
:104300000E450F70047A008021851882851983E09C
:10431000FCE50E2CFCE4350FFDC3EC98ED94005049
:1043200003E08005E50ECAC39AFAEA850A82850B86
:1043300083F08A0A750B00780A121A30850C828580
:104340000D83E0250EFCA3E0350FFDAA08AB091292
:10435000124B74021217C302442875100702442836
:10436000E50E450F705B850C82850D831245E78550
:104370000A82850B837407F088828983124437127E
:10438000442FE0851282851383F0E82402FAE43991
:10439000FB8A828B8312443F8A828B83124436A32A
:1043A000A3122A16124444F0E82405F850010988A3
:1043B000828983124444A312447EA3A3A3A3F08062
:1043C0006775100B8062741D1217F91234B9120749
:1043D000358A828B83E5824583604A1245E7880CE3
:1043E000890DE8450D603E74251217F9E0F5107847
:1043F00010121A34780E121A30780A121A3078080D
:10440000121A3074071217F9E0F9EEFCEFFDAA1644
:10441000AB17850C82850D8312181B74071217C306
:10442000E9F510800375100EA910740502377CF0B1
:1044300088828983A322A3E08508828509832212CA
:104440004485F022124485A3A3229002E31246DCA5
:1044500022E0F50E750F00780E22850C82850D8303
:1044600012391FE022E0FAA3E0F8E4C8F9EA2822B2
:10447000F08A828B83E0F50A750B00780A221244D9
:104480002F12448522E0850882850983A3A3227424
:10449000EE12181D74FE1217AD8A088B09ECFEEDA2
:1044A000FF890AAC18AD19EEFAEFFB1206338A0C3D
:1044B0008B0DEA450D7003024577851882851983B7
:1044C0001234B91207358A828B83E58245837003E3
:1044D000024572A3A31245E7880E890FE8450F70C5
:1044E0000302457274141217F9E0F510A3E0F511F8
:1044F000E50AF50B780B121A3474191217F9121A0F
:10450000477810121A30741B1217F9E0F9AC0CAD91
:104510000DAA08AB09850E82850F8312181B74053E
:104520001217C3E9F50B705274FE650A604C850CD6
:1045300082850D83E064027041124586FAA3E0F99A
:10454000EAF87402687003742969702E85108285F8
:104550001183124465F50CE439F50D780C121A300C
:10456000EEFCEFFDAA08AB091207B974021217C3DB
:104570008008750B0E8003750B01A90B74021217CE
:10458000C37F0A0218EFA31245EB88828983E022D9
:1045900074F612181D74FE1217AD740C1217F9126E
:1045A00045E7E8851882851983F074011217F9E947
:1045B000F0E4F508F5097808121A30750802780851
:1045C000121A307404121803880889097808121A1C
:1045D0003079FE1207A174061217C374021217C3B2
:1045E000023F988E828F831245EB22E0F8A3E0F918
:1045F0002274F712181DEAFEEBFF89089002FA12E6
:10460000444D12110DEA5402600BA908EEFAEFFBBB
:10461000120627800279017F010218EF74F2121846
:104620001D74FE1217ADEAFEEBFF890A7401650ADC
:1046300060147402650A60030246CB79011209A571
:10464000E960030246CBEEFAEFFB120783EA4B6008
:1046500003120789A818A919880889097808121A65
:10466000307508027509007808121A307508F4755B
:1046700009827808121A307CFF7DFF7A017B0012D4
:10468000062D74061217C38038850882850983A316
:10469000A3A3A3A3A31246D5EEFAEFFB121101E4E4
:1046A000F50CF50D780C121A3074021217F9121A63
:1046B000477CFF7DFFAA08AB091206397404121764
:1046C000C38A088B09E508450970BE74021217C336
:1046D0007F060218EF12391F1246DC22E0FCA3E02D
:1046E000FD2274F412181D8A088B09ECFEEDFF9070
:1046F0001B2CE0F4604B7A097B00121275EA4B60C8
:10470000408A828B8374B1F0A3E4124744F08A821A
:104710008B83A3A3E508F0A3E509124744A3EEF0B9
:10472000A3EFF0740C1217F91245E78A828B83A36A
:10473000A3A3A3A3A3A3123B10901B2CE0F9121276
:1047400081022A4BF08A828B83A3A3A3A322C08277
:10475000C0839061907404F0A37448F0A37402F0D5
:104760009061807440F09061BC7403F09061877434
:1047700019F0906265741BF0906249E0C394139045
:10478000619C40107409F09060667401F090619F24
:104790007428800D740BF0906066E4F090619F7453
:1047A0002CF01249397009C29190036D746780052D
:1047B00090036D7461F012498B902730E493F4609C
:1047C00006E493F9120A9B7905120DCB024BCDC07A
:1047D00082C083E9540FF9906185E0696012E5C6F3
:1047E00054B84441F5C6E59E5447644170F8E9F079
:1047F00053C6B8E59E544770FA024BCDC082C083C1
:10480000A8A853A87E906181E4F0A3F0A3F0C2BAF7
:10481000539AFEC289759B00C2C275E9007591006A
:1048200075BF0075A91175B905906181F0A374C0B9
:10483000F0A3E4F0D2BA439A0174805842A8024B24
:10484000CDF0024BCDC082C08374F81217AD900337
:104850006B125F4B700302493190036BE054406070
:10486000177908AA18AB19120BA9AA18AB191208C4
:104870001990036BE054BFF0E054806010790C7A1B
:104880001C7B07120BA990036BE0547FF0E0A2E0C1
:10489000501E1249397009C29190036D74678005EA
:1048A00090036D7461F012081F90036BE054FEF0EA
:1048B000E05402601E12497E7009D29190036D741B
:1048C00071800590036D746AF012081F90036BE00D
:1048D00054FDF0E05404601090273412498E120801
:1048E0002590036BE054FBF0E054086010902735EE
:1048F00012498E12082590036BE054F7F0E0541033
:10490000600D12498B12082590036BE054EFF0E024
:104910005420600A12082590036BE054DFF0A3E0F6
:104920005401600D120AB912082B90036CE054FE7A
:10493000F074081217C3024BCD90619A124B80900D
:1049400006F6E0640122C082C083E96005146017A6
:1049500080291249397009C29190036D7467801AD9
:1049600090036D7461801312497E7009D291900397
:104970006D7471800590036D746AF0024BCD906187
:104980009A124B729006F6E0640122902736E49367
:10499000906186F02274EA12181D74F41217AD901B
:1049A00082D8AC18AD1974041216C090273493F451
:1049B0006003024B07907808E0C394025003024A58
:1049C000EB90821F740412181374081216C0A818F2
:1049D000A91988148915740412180388088909AE66
:1049E00008AF097510FF7511FF750EFF7C00750C7F
:1049F00048750D78801274086C7003024A8174093E
:104A00006C607E740A6C6079850C82850D837808F1
:104A10001216658E828F83A909E50AC9F888127477
:104A2000187808121580E5124508F8C3E098A3E04D
:104A300099850C82850D83780812166540188E8240
:104A40008F8374187808121580E5124508F8E0C3C2
:104A500098F8A3E0801A74187808121580E51245BA
:104A600008FAE9FB8E828F831252A2EAC398F8EB10
:104A700099F9C3E89510E995115006881089118CB1
:104A80000E0CE50C2404F50C5002050DECC3941338
:104A900050030249F674FF6510700474FF651160DD
:104AA00024850E087402780812179A74482508F5B0
:104AB0008274783509F58378081216658514828525
:104AC0001583E508F0EE2402FE50010F851482855F
:104AD0001583A3858214858315740C1217F9E5825A
:104AE0006E7003E5836F60030249E3750801750981
:104AF000007808121A3074021218137ACD7B09124A
:104B0000115B74021217C3740C1217C37F0E0218C4
:104B1000EFC082C0839061AE7468F0A3746AF090B5
:104B2000624574FBF0A304F053F4FD43FE029006CB
:104B3000F67401F09061A0E0643A90619A701912E5
:104B40004B80740164017009C29190036D74678099
:104B50001E90036D74618017124B727401640170B2
:104B600009D29190036D7471800590036D746A028F
:104B70004841743FF0A3745AF09061A0747FF02212
:104B80007433F0A37455F09061A0743AF0227F045E
:104B90000218EFC082C0839006D4E06401701190C7
:104BA00006DAE064016019E07006A3E064016010B9
:104BB0009006EBE06401700C9006F1E06401700473
:104BC000790C800279008005E0F91226AAD083D002
:104BD00082020132E0C4333354C0228882898312B6
:104BE0005163A882A983222414F582E438F5832234
:104BF000C082C0839006DE7425F09006DC7401F05C
:104C0000A3E4F07A01FB120D47124C3C241AF58202
:104C1000E438F58374DDF0A3740AF09006DBE064F9
:104C20000170169006DAE070107901120DA7120DCE
:104C300077120DA17900120DB3024BCD9006CA1266
:104C40004FC52274F612181D74FA1217AD9006D3D0
:104C5000E064017008120AC59006D3E4F075E1F132
:104C6000124C3C2415F582E438F5837401F090066B
:104C7000D5E06401704B90823AAC18AD19740612FD
:104C800016C075D90D9006CC124BD44403F5D975D6
:104C900082CD75830612515FE58264D37004E5838B
:104CA000640670F1A818A919124BDB74061217F9E3
:104CB000E582687003E5836970EE75E1957901809E
:104CC000027900120D4D901B50124D297445F0A32E
:104CD000740CF0A3124D29124D29124E97744BF00B
:104CE000A3740C124EAC9006CCE0F97ACD7B061280
:104CF0000D299006DEE0F91226AA7901120D5390D3
:104D000082DC121683120D6B9082C0121683120D74
:104D1000357900120DBF124C3C124BE77416F0901F
:104D200003697405F0040253C4743FF0A3740CF0DB
:104D3000A32274F712181D8908A808E875F00DA4BD
:104D4000C8AAF02AF9749928FE740339FF9006E383
:104D5000E0F97AE47B06120D299006F1E0702579DE
:104D600000120D89EE240CF582EF3401F583E0701A
:104D700004790080027901EE2406FAEF3401FB1277
:104D80000D2F80057901120D8975E1F175D92390F8
:104D900006E3124BD44405F5D97582E475830612F7
:104DA000515FE58264EA7004E583640670F175D9A9
:104DB0000075D90075D90075D90075D90075D9006D
:104DC000EE24221252181252377003E9658370F6EE
:104DD000EE24261252232403F8E43583F9125237C5
:104DE0007003E9658370F6EE242B12522C242C12EA
:104DF000522C242D12522C242E12522C242F1252BB
:104E00002C243012522C243112522C243212522CC7
:104E1000243312522C245D1252232405F8E43583E6
:104E2000F91252377003E9658370F6EE2437125D8C
:104E3000CA541FF8EE242A125DCAC43354E048F560
:104E4000D975E195901B50740FF0A3740CF0A37406
:104E500015F0A3740C124E8E741BF0A3740C124E3A
:104E6000AC9006F0E0F91226AA9082DC12168312AA
:104E70000D6B9082C0121683120D3590600DE4F018
:104E80007901120DBF9003697406F0025600F0A379
:104E9000124E97124E9722124E9B227409F0A37461
:104EA0000CF0A37409F0A3740CF0A322124EB022EC
:104EB000F0901B5E124EBCA3124EBC22124E9B748D
:104EC00009F0A3740CF02274EC12181D9006E11284
:104ED0005A2078101216659006F2E0FAF875F00D77
:104EE000A4C8ACF02C125B9CFFEE2EFEEF33FF8EBD
:104EF0000CF50D750E00750F0085100885110985DC
:104F0000120A85130B9082CC78081215CB78081200
:104F10001A2C85100885110985120A85130B78084B
:104F2000790C1215B87810790C121511E4F50EF5FC
:104F30000F7808790C1215F18A0C750D007403783E
:104F40000C12179A7808790C1215B89082C4780858
:104F500012162CAA08AB09AC0AAD0B122642740437
:104F60001217C38A088B09A808A909C3EE98EF99FC
:104F70005006E82EF8E93FF9E890600EF0E9A3F05A
:104F8000EEA3F0EFA3F090600D74C1F07F0C021857
:104F9000EFC082C0839006CA124FB19006DE024B6A
:104FA000C8C082C0839006E1124FB19006F0024B58
:104FB000C8124FC5124FBBF0A3F0222406F582E4BD
:104FC00038F583E422E0F8A3E0C82202013274F647
:104FD00012181D1251686004780480027800E824D9
:104FE0000EF8ECC398500302509C7C0C9006FCE435
:104FF000F0EA2476F582E43BF583E09006FDF0EAE2
:1050000024771250A19006FE1250AB9006FFF0EAF2
:1050100024791250A19007001250AB900701F0EADA
:10502000247B1250A19007021250AB900703F0EAC4
:10503000247D1250A19007041250AB900705F0EAAE
:105040002474F8E43BF98A828B83A3A3A3A3A3E08F
:10505000FEA3E0FF88828983E02EF0A3E03F125791
:105060003E9007061250AB90070712518C601775DF
:1050700008FC7509067808121A307903120BFD74C2
:10508000021217C37C101253D2ECFE12515FDEFBEA
:1050900075E1957904120D7179018002790002534E
:1050A000C7F8E43BF988828983E022125743A3E0E2
:1050B0002274F612181D1251686004780480027878
:1050C00000E8240AF8ECC398500302515A7E089075
:1050D00006FC7401F07CC07D0678FD79067F051220
:1050E0005176A882A983DFF7EA2480FCE43BFD8A9D
:1050F000828B83A3A3A3A3A3E0F508A3E0F5098C07
:10510000828D83E02508F0A3E03509F0125176087E
:10511000A9838C828D83E08882898312518C6019E7
:105120007508FC7509067808121A307C0879031294
:105130000BFD74021217C37E0C74012EF5D975D9BC
:10514000037582FC758306EEFF12515FDFFB75E18C
:10515000957904120D717901800279000253C7120A
:10516000516322E0F5D9A3229061D0E0F87480C3A6
:1051700098FC1251912212517A228C828D83E08800
:10518000828983125F8888828983A322F0125191D9
:1051900022EA2483F582E43BF583E02274F71218B7
:1051A0001DEAFEEBFF9061D0E0706875D91875D9E3
:1051B0000375D903EE249C12523E1252377003E954
:1051C000658370F6EE24A412522C24A512522C24CE
:1051D0009412523E1252377003E9658370F6EE2442
:1051E000881252181252377003E9658370F675E120
:1051F000957908EE2494FAE43FFB120B9D7904EEB6
:105200002488FAE43FFB120B9D7904120D711253AE
:105210004C800279000256001252232404F8E4352F
:1052200083F922F582E43FF583E58222F582E43FAB
:10523000F583E0F5D9EE22125163E865822212521D
:10524000232408F8E43583F92274F612181DEAFEC7
:10525000EBFF9006FC74061252F5121A307C0179AD
:1052600003120BFD74021217C375D90675D90375A5
:1052700082FC7583061252ED7004E583640770F5B5
:1052800075E195900369E064087010EE246FF58273
:10529000E43F1252A0EE2471125D5979010253C706
:1052A000F583125F572274F612181DEAFEEBFF9089
:1052B00061D0E070339006FC740A1252F5121A3075
:1052C0007C017903120BFD74021217C375D90675A0
:1052D000D9037582FC7583061252ED7004E5836470
:1052E0000770F5125349800279000253C7125163C7
:1052F000E582640122F07508FC75090678082274BD
:10530000F612181DEAFEEBFF9061D0E070367801CE
:105310009006FC740BF0900369E06407701975083F
:10532000FC7509067808121A307C017903120BFD0E
:1053300074021217C3780512559412515FDAFB12EA
:105340005349800279000253C775E195EE246F122C
:105350005F51EE2471F582E43FF583E8F0A3E9F0B4
:1053600079012274F612181D125495600478048095
:10537000027800E8240BF8EAC39840447C099006C0
:10538000FC74081253E11253F0DDFB125DC7601B81
:105390007508FC7509067808121A307903EEFAEFE1
:1053A000FB120BFD74021217C37C0D1253CC125466
:1053B0008D70FB75E1957904120D7112534C8002CA
:1053C000790080031217C37F020218EF1253D28CA8
:1053D000082274012CF5D975D9037582FC758306F2
:1053E00022F0EE24E5F8E43FF97AFD7B067D082201
:1053F00088828983E08A828B83125743A3A882A97B
:10540000838A828B83A3AA82AB832274F612181D2F
:105410001254956004780480027800E82408F8EAC1
:10542000C398406478069006FC740CF0900386E004
:105430009006FDF0900387E09006FEF0900388E070
:105440009006FFF0900389E0900700F090038AE057
:10545000900701125524601B7508FC750906780831
:10546000121A307C067903EEFA120BFD7402121741
:10547000C3780A12551E12548D70FB75E19579049C
:10548000120D7112534C800279000253C7125163FE
:105490001508E50822EAFEEBFF9061D0E0F8748081
:1054A000C398FA1255292274F612181D12549560E9
:1054B00004780480027800E82404F8EAC398404B9A
:1054C00078029006FCE8F0EE24F7125DCA9006FD23
:1054D000125524601B7508FC7509067808121A30ED
:1054E0007C027903EEFA120BFD74021217C37806E0
:1054F00012551E12548D70FB75E1951255107904EA
:10550000120D71EE240D12534F800279000253C721
:10551000EE241DF582E43FF583E4F0A3F02212555A
:105520009A880822F012552922EE2483F582E43F5E
:10553000F583E02274F612181D1251686004780495
:1055400080027800E82404F8ECC398404278029086
:1055500006FC7407F0EA24F8F582E43BF583E0905A
:1055600006FD12518C60197508FC75090678081241
:105570001A307C027903120BFD74021217C37806ED
:1055800012559412515FDAFB75E195790180027929
:10559000000253C712559AE8FA22740128F5D9750A
:1055A000D9037582FC7583062274F712181DE9FF72
:1055B000A2AFE433FEC2AF7C0080010C1256515002
:1055C00010ECF8EA28F8E43BF9125CB56F70EC8057
:1055D00016EA246EF8E43BF9E0FCEA2CFAE43BFB23
:1055E0001255EEEF125738EEA2E092AF8012EA2485
:1055F0006AF582E43BF58322F0EEA2E092AF7900F7
:105600007F010218EFC082C083A2AFE433FDC2AFB6
:1056100012565914F07C00801DECF8EA28F8E43B9F
:10562000F9E8246B125CB8C0E0E8246AF582E4393A
:10563000F583D0E0F00C12565140DEEA246DF5827D
:10564000E43BF58374FF12567EEDA2E092AF024B6D
:10565000CD125659F8ECC39822EA246EF582E43B49
:10566000F583E022C082C083A8A8C2AF1255EEE93C
:1056700012567EE8A2E7E433FAE8A2E780CEF0EA29
:105680002469F582E43BF583E4F02274F312181DDB
:10569000EAFEEBFFECFAEDFB8A828B83A3A3A3A3C4
:1056A000E0541FF0EE2436F582E43FF583E4F07514
:1056B0000A00EE245DFCE43FFD8A828B83E08C824D
:1056C0008D83F0750B00E50A33333354F8F50C8AFB
:1056D000828B83E0F508750900E50B780812177BCB
:1056E000E508A2E05027EE2436F8E43FF9888289E5
:1056F00083E0F508EE2508F508E43FF509E5082400
:1057000038F582E43509F583E50C125738050B05A9
:105710000CE50BC3940840B7050A8A828B83A3AAC1
:1057200082AB838C828D83A3AC82AD83E50AC39464
:105730000540867F050218EF12573E04F0221257EB
:1057400043E022F0888289832274F712181D9003A7
:1057500095E0640370030258E67C0075829B7583B4
:1057600003E060030258D0ECF875F00DA4C8AAF06D
:105770002AF9749928FA740339FB8A828B83A3A3CC
:105780007401125908E4F0EC8A828B83A3A3A3A3CB
:10579000F0125ED27401F0EA2467F582E43BF583EF
:1057A0007401125902E4F0A3125902A3A31259186A
:1057B000240FF582E43BF5837401F0EA2435125896
:1057C000ED241812591D241C1258ED241D125911D4
:1057D000247F1258ED24731258ED24821258ED24C0
:1057E00068F582E43BF583748012567EEA246E12DB
:1057F00058ED24ED1258ED24EE1258ED24EF125816
:10580000ED24F01258ED24F112591124F31259111C
:1058100024F61258ED24831258ED24D31258ED24A7
:10582000D41258ED24D512591D24D912591D24DF44
:105830001258ED24E11258ED24DD1258ED24E21245
:1058400058ED24E31258ED24F912591124FB125992
:105850001124FD12591124FF125911240C1258F76A
:1058600024061258F724071258F724081258F72470
:10587000091258F7240A1258F7240B1258F7125538
:10588000EF74FF7804F0A3D8FCEA245DF8E43BF958
:105890007CC07D0612593164C57003ED640670F456
:1058A000EA24E5F8E43BF97C7D7D031259316485F7
:1058B0007003ED640370F4900395E004F0640170EC
:1058C000298A828B83A3A3A3A3E0900397F0801A75
:1058D0000CE582240DF582E5833401F583ECC39455
:1058E0000350030257617A007B00025600F582E400
:1058F0003BF583E4F0EA22F582EB3401F583E4F032
:10590000EA22125908A3A322F08A828B83A3A3A3BD
:1059100022F582E43BF583E4F0A3F0EA22F582E489
:105920003BF583125928EA22E4F0A3F0A3F0A3F098
:105930002212517AA882A983EC22C082C0838A8273
:105940008B83A3A3A3E0600F8A828B83A3A3A3E42A
:10595000F0900396E014F0900395E014F070069038
:10596000039774FFF08A828B83A3A3E4F09006C5AB
:10597000E0700D900396E0640170057900120D3B14
:10598000024BCDC082C083789B790388828983A330
:10599000E4125743F0125B86E864C27003E96406C0
:1059A00070E9900395E4F0A3F0A374FFF075E1F1C2
:1059B000024BCD74F512181D750800750900750AA3
:1059C000007E997F038E828F83A3A3A3E0602BE5E3
:1059D000084509601D850882850983125A20121A1C
:1059E00043125A1C1216831225E674041217C3E9D7
:1059F0007008EEF8EFF988088909050AEE240DFE13
:105A0000EF3401FFE50AC3940340BA850882850993
:105A100083A3A3A3A3E0F97F030218EF8E828F83F1
:105A2000125EF5A3A32274EE12181D8A0A8B0B8C4A
:105A300008890C900396E0F8E9C39850627AFF7BDE
:105A4000FF7C007899790388828983A3A3A3E0600F
:105A50003F74FF6A700374FF6B700CE82473125C70
:105A6000B8640170218012E82473125CB86401707C
:105A70000DE82479125B8F5017E82479800BE82415
:105A80002E125B8F500AE8242E125CB8FAA3E0FBBA
:105A90000C125B86ECC3940340ADEAFEEB8018E980
:105AA0006010A3E0F875F00DA4C8AAF02A125B9C60
:105AB0008005EA2AFEEB33FF8E0E8F0F7403780EFB
:105AC00012178B900396E0F8C3E50E98E50F94004B
:105AD0005003025B72E50A25E0F50AE50B33F50B8E
:105AE000E50825E0F508ED33F509AC0AAD0B8007B4
:105AF000EC2402FCE43DFDC3E5089CE5099D406003
:105B0000C3EC9EED9F403FECF8EDF9EEFAEFFB128F
:105B100017228B0FEA450F60068E0E8F0F800675D9
:105B20000E00750F00ECF8EDF9EEFAEFFB121722FC
:105B30008A108B11EC9510F8ED9511F9E8250EFC03
