:020000040000FA
:0600000002011A0221F5C5
:03002B000228990F
:0300530002226B1B
:03006B0002286701
:1000830002204BE5C754F84401F5C779012200006B
:100093000080FB120086B90003020104E479217891
:1000A30008B800028004F709D8FCE479297802B87B
:1000B30000028004F709D8FCE490028178C0791328
:1000C3008002F0A3D8FCD9FA781A90014A7A01BACF
:1000D30000028007E493A3F608DAF97A407B1590CF
:1000E300014B784179048015E493A3AD82AE838AF2
:1000F300828B83F0A3AA82AB838D828E83D8E9D9C6
:10010300E775829D75837F740012012C758291754A
:100113008300740012012C75D00075813F7518811E
:10012300751902759F00020096C09FF59FE473D076
:100133009F22D083D082C09FE493C0E0740193C018
:10014300E0740293F59F2201FF0000B40000280031
:100153002800283075A000A000A000A0000008001F
:1001630008E001F000100010001000100010001053
:100173000050005000500010001000D00700000095
:100183000000000F0001000500307507001000019A
:100193000081FF00000000FFFFFFAD06CB06B306A2
:1001A300EF06FF02020208025000A0000000E8036D
:1001B300022A90010000F08F0206900100009B15B7
:1001C30002F68F010000BF020206900100009C1599
:1001D30002F88F010000D5020206900100009D1570
:1001E30002FA8F010000D7020206900100009E155B
:1001F30002FC8F080000D8020206900100009F1540
:1002030002FE8F010000A015FF0100FF20022A90CB
:10021300010000ED8F020690010000041602149005
:100223000000000000020090030000060317009D79
:100233000D9D0D9D0D9D0D9D0D9D0D9D0D9D0D9D6B
:100243000D9D0D9D0D9D0D9D0D851097107F100229
:100253000202020202020202010D0000001001026A
:100263002A90010000EA8F0206900100004716025F
:100273001C9001000040070206900100004816028E
:100283001A90010000138F02069001000049160224
:100293001890010000058F0206900100004A160223
:1002A30016900100007F8E0206900100004B16029B
:1002B3001290010000918E0206900100004C16027C
:1002C3001090010000A38E0206900100004D16025B
:1002D3000E90010000B58E0206900100004E16023A
:1002E3000C90010000F78E0206900100004F1602E9
:1002F3000A90010000501601E8030577100AFFFF7A
:10030300FF00013075030201060000000000000039
:1003130000000000000000000000000000000000DA
:100323000000000000FFFF0600800CE803140953DF
:10033300696D706C65424C45506572697068657291
:10034300616C051250002003020A0002010503023A
:10035300F0FF53696D706C6520424C452050657207
:100363006970686572616CE7140000ED140A4368F4
:100373006172616374657269737469632031000229
:10038300436861726163746572697374696320326F
:1003930000084368617261637465726973746963A9
:1003A300203300104368617261637465726973740A
:1003B3006963203400024368617261637465726922
:1003C30073746963203500022A90010000E78F02ED
:1003D3000690010000651702209003000032150209
:1003E30004900100006617020690010000771702CF
:1003F30022900100003315020490010000781702D7
:1004030006900100008917022490020000341502AF
:1004130004900100008A170206900100009B170256
:1004230026900000003515020090030000361502E7
:1004330004900100009C17020690010000AD170212
:1004430028900400003815020490010000AE171034
:100453004B65792050726573732053746174650022
:10046300022A90010000F38F020690010000471852
:100473000230900000003D150200900300003E157D
:100483000204900100004818120135909C031201E8
:1004930035A39C03120135D49C031201350E9D0331
:1004A300120135679D03120135AE9D03120135F626
:1004B3009D03120135259E03120135549E0312013B
:1004C300358B9E03120135D29E03120135EB9E0339
:1004D300120135409F03120135599F03120135A7BD
:1004E3009F03120135E19F03120135F8B602120191
:1004F30035FBB70212013534B80212013557B80281
:1005030012013569B802120135A7B8021201352369
:10051300B902120135EBB9021201350DBA0212010B
:1005230035A4BA02120135F6BA0212013527BB020D
:1005330012013534BB021201359EBB02120135F59F
:10054300BB02120135F8BB0212013531BC021201A4
:100553003534BC021201353EBC0212013592BC0295
:10056300120135D3BC0212013506BD021201354317
:10057300BD0212013545BE02120135E9BE02120168
:100583003552BF0212013590BF02120135DC9003D0
:1005930012013504910312013531910312013569BA
:1005A3009103120135C7910312013513920312010E
:1005B300357A9203120135BA9203120135F7920389
:1005C300120135259303120135CF9303120135D957
:1005D3009303120135E693031201351994031201B3
:1005E300352594031201353D9403120135479403D5
:1005F30012013594BC03120135A2BC03120135BAB2
:10060300BC03120135D1BC03120135C0C70112016D
:10061300356AC8011201357DC901120135F9C901D5
:1006230012013517CB0112013553CB01120135EEFF
:10063300CB01120135D2CC011201359ECD0112013D
:10064300352CCF011201359DCF0112013557D00151
:1006530012013549D10112013589D1011201353D0C
:10066300D2011201356FD20112013565D401120195
:1006730035A7D401120135C5D4011201352BD5019B
:10068300120135FAD501120135BED601120135DD4D
:10069300D801120135C9CF02120135B3D0021201BC
:1006A300355ED102120135AFD1021201355FD2029C
:1006B300120135D0D202120135B5D302120135E948
:1006C300D302120135E2D4021201351FD502120101
:1006D30035FBD5021201353AD60212013556D60240
:1006E300120135E1AB0312013565AC0312013590FC
:1006F300AC03120135AAAD03120135D594031201DF
:1007030035EB94031201350995031201351A96034B
:100713001201352496031201354F97031201354612
:100723009803120135B39803120135B7D6021201AB
:1007330035EDD70212013524D8021201357BD802D8
:1007430012013590DA0212013534A301120135C0CA
:10075300A30112013524A50112013530A5011201AF
:10076300356BA501120135DAA501120135E3A601A6
:10077300120135ECA701120135B3A801120135109E
:10078300AA011201352EAA011201354BAA01120149
:1007930035F8AA0112013575AB011201359DAB0184
:1007A30012013567AE011201356CAE0112013585B8
:1007B300B001120135D3B00112013543B101120169
:1007C3003581B1011201355DB2011201351DB3014D
:1007D30012013569B3011201356CB301120135B051
:1007E300B301120135F8B30112013537B401120117
:1007F3003559B4011201358DB401120135F0B4013C
:10080300120135CAE102120135D8E1021201352B7A
:10081300E2021201354AE2021201358FE2021201AD
:1008230035D3E3021201356EE402120135B2E4025C
:10083300120135DCE4021201354BE5021201359158
:10084300E50212013508E602120135B9E60212018A
:1008530035D02800120135E0280012013581290026
:10086300120135DD29001201359A2A00120135B62D
:100873002B00120135E82B00120135172C00120151
:1008830035C42D001201353B3000120135AB320067
:100893001201359D33001201359634001201359D46
:1008A3003600120135913900120135C03A001201A8
:1008B30035C43C00120135D43D00120135633F00BD
:1008C300120135544000120135A2400012013511C6
:1008D30041001201353541001201358641001201F4
:1008E3003527460012013528470012013589470094
:1008F300120135B447001201357A4800120135A3BD
:100903008803120135AD8803120135F28803120101
:1009130035068903120135968903120135CF890300
:100923001201350A8A03120135338A03120135870E
:100933008A031201359C8A03120135BE8A03120110
:1009430035D38A03120135E78A03120135FC8A0382
:10095300120135368B03120135628B03120135AB5D
:100963008B031201351D8C03120135608C031201B8
:10097300358A8C03120135B58C03120135B6B703E2
:10098300120135B2F50112013595F6011201351048
:10099300F7011201354BF7011201359CF8011201E1
:1009A300352AF901120135BCFB011201356EFC0138
:1009B3001201357AFD01120135EDFE0112013546B2
:1009C300FF0112013553840312013596840312018A
:1009D300351A8503120135F187031201356FA90317
:1009E30012013521AA031201351DAB031201355C37
:1009F300AB03120135B6AB03120135B3AF031201DA
:100A03003516B003120135B3B003120135E8B00354
:100A130012013518B10312013553B10312013573B5
:100A2300B1031201358AEB0212013516EC021201F1
:100A330035D5EC02120135EDED0212013507F00256
:100A4300120135668D021201358B8D021201355864
:100A53008E021201352C8F02120135998F02120179
:100A630035D98F02120135759002120135A9910211
:100A7300120135849202120135E392021201356F9D
:100A83009302120135DD93021201356994021201BA
:100A930035AF9402120135219502120135B3950247
:100AA300120135549602120135749602120135BCB7
:100AB30096021201350597021201352197021201A0
:100AC30035479702120135C19702120135CF9702BC
:100AD3001201355E9802120135C798021201353EA4
:100AE300F002120135C3F00212013505F1021201C1
:100AF30035E9F10212013556F2021201359AF2027A
:100B0300120135DEF2021201350BF3021201353305
:100B1300F3021201356BF302120135A9F30212013C
:100B230035D0F3021201354AF40212013594F4026E
:100B3300120135C8B50112013570B7011201359D97
:100B4300B901120135F1B9011201351CBA011201C3
:100B530035EEBA0112013532BB0112013576BB0104
:100B630012013589BB01120135CABB01120135F7E8
:100B7300BB0112013545BC0112013586BC011201CE
:100B830035B4BC0112013507BD011201359EBD010B
:100B930012013588C0011201359EC201120135DCF4
:100BA300C2011201356FC401120135B4C40112012F
:100BB3003526C50112013577C501120135B1C501CD
:100BC300120135B6C50112013556C6011201358C25
:100BD300C7011201359DC701120135FAA3021201A3
:100BE3003579A40212013572AA0212013578AB02DB
:100BF300120135EBAC0212013582AD02120135B39D
:100C03005D00120135FC5D00120135295E00120101
:100C1300355B5E00120135685E00120135745E00BB
:100C2300120135865E00120135615F00120135BF86
:100C33005F00120135F45F001201352B61001201D0
:100C4300357861001201359C61001201350C620098
:100C5300120135CD6200120135906300120135FE99
:100C63006300120135BB6400120135CE640012012A
:100C7300354C6500120135DF65001201350666004B
:100C83001201356E6600120135BF6600120135147C
:100C93006700120135AF67001201355A680012016F
:100CA30035066900120135786900120135CC6900F7
:100CB3001201352C6A001201355C6A00120135F20B
:100CC3006A001201351B6C00120135636C001201BE
:100CD30035806C001201359F6C00120135CE6C001B
:100CE300120135E36D00120135696E001201358E74
:100CF3006E00120135A36E00120135166F0012014A
:100D030035576F00120135737000120135147100ED
:100D1300120135627100120135CC7100120135E503
:100D23007100120135ACAD0212013500AE021201A1
:100D3300350CAE02120135D6AE0212013503AF02F5
:100D430012013531AF021201359DAF02120135D3C5
:100D5300AF021201350CB00212013524B0021201A8
:100D63003579B00212013592B002120135D7B002C3
:100D7300120135EAB00212013504B1021201351A2B
:100D8300B10212013538B20212013563B302120106
:100D9300354DB4021201353EB502120135F57F001F
:100DA300120135008002120135328002120135F83A
:100DB300830212013553850212013519860212018D
:100DC300359887021201356F8802120135BE8802F9
:100DD300120135D888021201351A8902120135250C
:100DE30089021201356C89021201357589021201DB
:100DF30035218A02120135FA8A02120135418B022A
:100E0300120135A98B02120135EB8B021201351940
:100E13008C02120135568C021201353590011201F4
:100E230035FB9301120135019401120135A59A0195
:100E3300120135F99E01120135E2A201120135BDFD
:100E430098031201353399031201354999031201AD
:100E530035D99903120135169A03120135509A03B5
:100E63001201358A9A03120135FD9A031201353EA8
:100E73009B03120135479B03120135539B03120158
:100E830035729B031201359C9B03120135B19B0301
:100E9300120135D99B031201353B9C0312013562C4
:100EA3009C03120135CBE602120135DEE602120184
:100EB30035F8E60212013525E7021201356BE70228
:100EC3001201359EE702120135DCE70212013541BA
:100ED300E80212013556E80212013561E8021201F7
:100EE300356EE80212013585E80212013593E802F6
:100EF3001201359EE802120135AAE802120135BD3E
:100F0300E802120135C8E802120135EBE8021201CA
:100F1300358FE9021201359FE902120135B9E90261
:100F2300120135D6E902120135F1E9021201351633
:100F3300EA0212013521EA0212013536EA021201F0
:100F4300354AEA02120135ABEA02120135B1EA026F
:100F5300120135B7EA02120135BDEA02120135D595
:100F6300EA0212013508EB021201351A720012016E
:100F730035B172001201354973001201353974001D
:100F8300120135707400120135837400120135F1BA
:100F930074001201358C7600120135B3760012010C
:100FA300355577001201358A77001201359B77009A
:100FB3001201351478001201353578001201354DD0
:100FC3007800120135A57900120135AE7B001201BC
:100FD30035FE7D00120135017F00120135507F007F
:100FE300120135EAD801120135E7D901120135D2D0
:100FF300DA01120135DCDA01120135FEDA011201E0
:10100300350ADB011201355CDC011201358BDC0191
:10101300120135BBDD01120135FDDD011201352958
:10102300DF01120135FFDF0112013551E001120129
:1010330035B0E001120135E7E00112013522E1018B
:10104300120135BDE401120135D6E4011201355810
:10105300E50112013566E501120135BBE501120117
:1010630035C9E50112013536E601120135A8E6015D
:10107300120135EEE601120135EA98021201350C30
:101083009902120135F69A021201359B9E02120152
:1010930035DE9F02120135B8A00212013581B1037A
:1010A300120135A6B10312013517B203120135B689
:1010B300BF02120135BFBF02120135C8BF021201C0
:1010C30035F9C00212013518C3021201354EC302AD
:1010D30012013588C302120135BEC302120135F86D
:1010E300C3021201352CC40212013558C402120185
:1010F30035A1C402120135DBC40212013523C50236
:1011030012013579C502120135AEC5021201350946
:10111300C60212013543C60212013594C6021201FA
:1011230035CAC60212013504C70212013532C7029D
:1011330012013555C70212013561BD031201358D08
:10114300BD03120135E8BD03120135F2BD031201DF
:101153003502BE03120135DDA30312013504A403D6
:101163001201352EA40312013512BF03120135E615
:1011730048001201354E4B00120135014D0012019A
:10118300355E4D001201355B4E00120135EB4E000A
:10119300120135704F00120135954F001201358D44
:1011A3005200120135035300120135F453001201AA
:1011B300352E54001201356E5400120135145600B9
:1011C300120135695600120135B656001201352455
:1011D30057001201354B57001201356557001201B4
:1011E300357B58001201358B5800120135175A0010
:1011F300120135395A001201356F5A001201351D9B
:101203005C001201355C5C001201358E5D00120139
:101213003562F902120135BAF90212013502FB02F5
:1012230012013571FB0212013520FC021201353F18
:10123300FC0212013593FC02120135D1FC021201AA
:1012430035EEFF021201355CBF031201359BBF036C
:10125300120135EFFF01120135B5BB03120135C58C
:10126300BB03120135DABB031201358EBC03120135
:1012730035CAB8031201354EB903120135B4B903A7
:1012830012013589B603120135B0B60312013506D2
:10129300B70312013519B7031201356BB7031201F6
:1012A30035AAB703120135ADB703120135DD8C033F
:1012B300120135F18C031201356A8D031201353F9A
:1012C3008E0312013511900312013576900312013A
:1012D30035C99003120135F87F00120135D9AD03EA
:1012E3001201354FAF03120135B0AF03120135C4FC
:1012F300BA03120135EDBA0312013516BB0312010D
:10130300352EBB0312013570BB0312013557DC02C6
:1013130012013561DC02120135A1DC02120135EA4A
:10132300DC0212013524DD021201357ADD021201DD
:101333003599DD02120135A2DD02120135F3DD021A
:101343001201351CDE0212013531DE02120135A114
:10135300DE021201352FDF0212013573DF021201A3
:10136300359BDF021201351AE0021201355DE002FE
:101373001201359AE002120135ACE002120135CBBD
:10138300E002120135D4E0021201359EE10212019E
:1013930035EBB4031201353CB503120135C5B50372
:1013A3001201352BB603120135ABA603120135D555
:1013B300A603120135CFA703120135FEA7031201BD
:1013C3003584A803120135CDB903120135ECFD02B2
:1013D30012013522FE021201355BFE02120135B401
:1013E300FF021201350CBE0312013522BE031201A6
:1013F300352CBE0312013582BE03120135B3BE0381
:10140300120135E3C702120135A0C802120135DB10
:10141300C80212013503C90212013565C90212015E
:1014230035B1C90212013511CA02120135A2CA022D
:101433001201359ECB021201352BCD02120135AEBE
:10144300CD0212013512CE0212013529CE0212014C
:10145300351FCF021201356BCF02120135D4F402CE
:10146300120135E9F40212013599F502120135D959
:10147300F502120135F2F50212013525F6021201C9
:101483003572F602120135A6F602120135E8F602AC
:10149300120135EFF80212013555F90212013577C1
:1014A300E7011201352EEB01120135C0EC011201E7
:1014B3003517ED0112013536ED01120135B4ED0199
:1014C30012013546EF011201352AF0011201353BB5
:1014D300F4011201350FF5011201350080031201E9
:1014E300355C82031201358A83031201352A840392
:1014F30012013549A003120135B1A003120135CE03
:10150300A00312013599A103120135ECA1031201C5
:1015130035CFA20312013537B3031201359EB3034E
:1015230012013503B4031201358AB403120135A540
:10153300BF03120135EBBF0312013517C003E06689
:10154300701008A3E066700A08A3E066700408A39D
:10155300E06622C3E7960809E7960809E7960809B3
:10156300E79622C3E09608A3E09608A3E09608A3B3
:10157300E09622C008C3E096F50808A3E096420867
:1015830008A3E096420808A3E09645087001D3D06B
:101593000822080808EAC0E0EBC0E086F0E7A4FAF6
:1015A300180986F0E7A42AFA180986F0E7A42AFAAC
:1015B300180986F0E7A42AFA1986F0E7A4FBE5F0F8
:1015C3002AFA190886F0E7A42BFBE5F03AFA190882
:1015D30086F0E7A42BFBE5F03AFA18180986F0E742
:1015E300A4C5F02BFBE43AFA1908E7C5F0C6A42614
:1015F300F6E5F03BFBE43AFA1886F0E7A4F6E5F0EB
:101603000826F6E43B08F6E43A08F6D0E0FBD0E01F
:10161300FA22E4CFC0E0E4CEC0E0E4CDC0E0E4CC05
:10162300C0E075F020E626F608E633F608E633F662
:1016330008E633F6181818EC33FCED33FDEE33FEF1
:10164300EF33FFC3EC9709ED9709EE9709EF97196D
:101653001919400FFFEC97FC09ED97FD09EE97FE72
:10166300191906D5F0BFECF709EDF709EEF709EF05
:10167300F7191919D0E0FCD0E0FDD0E0FED0E0FF6F
:10168300226016080808C6C313C618C613C618C6B0
:1016930013C618C613C6D5E0EA2270090808082243
:1016A3006016181818C6C333C608C633C608C6332F
:1016B300C608C633C6D5E0EA22E627F60809E637A8
:1016C300F60809E637F60809E637F622E026F608B3
:1016D300A3E036F608A3E036F608A3E036F622E0E8
:1016E30026F008A3E036F008A3E036F008A3E036BE
:1016F300F022C3E697F60809E697F60809E697F697
:101703000809E697F622C3E096F008A3E096F008EE
:10171300A3E096F008A3E096F022E056F608A3E0D3
:1017230056F608A3E056F608A3E056F622E056F074
:1017330008A3E056F008A3E056F008A3E056F02211
:10174300E0F608A3E0F608A3E0F608A3E0F622E635
:10175300F008A3E6F008A3E6F008A3E6F022E0FA17
:10176300A3E0FBA3E0FCA3E0FD22E0F8A3E0F9A3E0
:10177300E0FAA3E0FB22E8F0A3E9F0A3EAF0A3EB8D
:10178300F022CAC0E0E6F0A308DAFAD0E0FA22CAEF
:10179300C0E0E0A3C582CCC582C583CDC583F0A3D9
:1017A300C582CCC582C583CDC583DAE6D0E0CA2223
:1017B300C3E498F8E499F91217F48026C3E49AFA7B
:1017C300E49BFBE920E7E91217F4E498F8E499F9BC
:1017D30022C3E498F8E499F91217F4E498F8E49929
:1017E300F9C3E49AFAE49BFB22EB20E7CFE920E775
:1017F300E0B90010BB0008E88AF084F8AAF022E4FC
:10180300FBC8FA22EB70227B10C833C8C933C93333
:101813005007C39AC3DBF280069A50012ADBEAC859
:1018230033F4C8C933F4C9FA2275F008E4C833C8DD
:10183300C933C933C99AC99B5004C92AC93BD5F0D6
:10184300ECFBC833F4C8E4C9FA22600D08C6A2E76A
:1018530013C618C613C6D5E0F322600C08C6C3131B
:10186300C618C613C6D5E0F422700422600D18C64C
:10187300C333C608C633C6D5E0F41822251810AF03
:1018830008F518400C15198008F51840021519D2EF
:10189300AF2200C0D0251810AF08F518500C051959
:1018A3008008F51850020519D2AFD0D0222518F5BB
:1018B3008210AF08F518400C15198008F51840027E
:1018C3001519D2AF851983222518F582E43519F548
:1018D30083222518F8E43519F9222518FAE4351975
:1018E300FB222518FCE43519FD22E4732518C58273
:1018F300C0E0E51934FFC583C0E0E518C395822431
:10190300F810AF08858319858218800885831985A7
:101913008218D2AFCEF0A3E520F0A37808E608F052
:10192300A3DEFAEFF0A3E58124FAF8E608F0A3E6D4
:1019330008F0A3E608F0A30808E608F0A3E608F019
:10194300A315811581D0E0FED0E0F815811581152E
:1019530081E8C0E0EEC0E0222518C582C0E0E519A9
:1019630034FFC583C0E0E518C3958224F910AF089E
:101973008583198582188008858319858218D2AFDB
:10198300CEF0A3E520F0A37808E608F0A3DEFAEF93
:10199300F0A3E58124FBF8E608F0A3E608F0A3082A
:1019A30008E608F0A3E608F0A315811581D0E0FE50
:1019B300D0E0F815811581E8C0E0EEC0E02285197A
:1019C30083851882E0A3FEE0A3F5207808E0A3F660
:1019D30008DFFAE0A3FFE0A3C0E0E0A3C0E0E0A3D8
:1019E300C0E0E0A3C0E0E0A3C0E010AF0885821828
:1019F3008583198008858218858319D2AFD083D057
:101A030082020132851983851882E0A3FEE0A3F5E3
:101A1300207808E0A3F608DFFAE0A3FFE0A3C0E024
:101A2300E0A3C0E0E0A3C0E0E0A3C0E010AF0885FE
:101A330082188583198008858218858319D2AFD0CF
:101A430083D08222C0D02518C582C0E0E51934FFB7
:101A5300C583C0E0E518C3958224F310AF088583DE
:101A6300198582188008858319858218D2AFC8F03A
:101A7300A3E9F0A3EAF0A3EBF0A37908E709F0A345
:101A8300D8FAECF0A3EDF0A3EEF0A3EFF0A3D0E0CF
:101A9300F0A3D0E0F0A3D0E0F0A3E520F0A3E5F0BD
:101AA300F0A322851983851882E0C0E0A3E0F9A39F
:101AB300E0FAA3E0FBA37808E0F608A3DFFAE0FC72
:101AC300A3E0FDA3E0FEA3E0FFA3E0C0E0A3E0C02A
:101AD300E0A3E0F5D0A3E0F520A3E0A3F5F010AF79
:101AE300088583198582188008858319858218D211
:101AF300AFD082D083D0E0F8D0E032740480067493
:101B03000280027401C0E0F4041218B0D0E012178E
:101B130085227404800474028000CCC0E0EDC0E030
:101B2300E518C39CCCAD1950011D10AF068C188D60
:101B33001980068C188D19D2AF121792D0E0FDD000
:101B4300E0FC22D083D082E9C0E0E493A3C386F013
:101B5300C5F095F0F908E493A386F0C5F095F0700D
:101B63000BE493A3C3994005E9048002A3E475F051
:101B730002A42582F582E5F03583F583D0E0F9E40C
:101B830093A3C0E0E493C0E022D083D082ECC0E012
:101B9300EDC0E0E493A3FCE493A3FDED4C600D12D0
:101BA3001BD8EC24FFFCED34FFFD80EFE493A3FC92
:101BB300E493A3FDED4C600D121C17EC24FFFCED28
:101BC30034FFFD80EFD0E0FDD0E0FCE493A3C0E060
:101BD300E493C0E022C0E0C3E493960874019396B3
:101BE30018400FE493667008087401936618700038
:101BF3007019A3A3C3E49396087401939618A3A33F
:101C0300400DD0E0D0E0D0E0021BC8A3A3A3A3A360
:101C1300A3D0E022C0E0C0F088F0E4936670080827
:101C230074019366187000A8F0A3A3700BD0F0D0D2
:0F1C3300E0D0E0D0E0021BC8A3A3D0F0D0E022A5
:101C440074F612195BEAFEEBFF8C088D09EE24345E
:101C5400F8E43FF9E8FCE9FD121D76E0FAEE2437DA
:101C6400F582E43FF583E0F88508F0A4C885F00A1E
:101C74008509F0A4250AF9EA28F8E439F97A257BDC
:101C8400001217F4EA8C828D83F0FA131313541F95
:101C9400F8EE28F8E43FF9E8245DF582E439F583A9
:101CA400E0C0E074075AF8D0E0B800028004C3131F
:101CB400D8FCA2E05003EA8020EE2436F582E43F0B
:101CC400F583E0F5F0EA84A8F0EE28F8E43FF9E8BB
:101CD4002438F582E439F583E0F97F03021A0774A6
:101CE400F512195BEAFEEBFFEE2434F582E43FF5CE
:101CF40083E0C0E0121D76D0E0F08E828F83A3A330
:101D0400A3A3A3E0FAA3E0FB8E828F83A3A3A3A3E0
:101D1400A3A3A3E0C39AF508A3E09BF509EE247FEF
:101D2400F8E43FF9880A890B8882F583E06401703E
:101D34002CEE2480F582E43FF583EA2401F8E43BA9
:101D4400F9E0687003A3E06970137CB17D04EEFAD6
:101D5400EFFB120CB9850A82850B83E4F0AC08AD65
:101D640009EEFAEFFB121C44E9F91228597F040228
:101D74001A07EE2435F582E43FF58322C082C0833E
:101D8400851882851983E0F8A3E0F9C3EA9CEB9DEA
:101D94005010C3EC98ED99401BC3EA98EB9950148A
:101DA400800EC3EA98EB994007C3EC98ED99400480
:101DB400790180027900D083D08222EAC39CFAEBB5
:101DC4009DFB2274ED12195B900376E064086005B4
:101DD400E06407702C9061C8E060269003A4E0F8EA
:101DE40074FF68601CE875F00BA4C8AAF02AF974A3
:101DF400A628FE740339FF8E828F83A3A3A3E07009
:101E0400057900021F60EE2468F50EE43FF50F909B
:101E14006060E0850E82850F83F0751021751105D1
:101E2400750800750900E5D914F50AE5D95403F5D8
:101E34000B601FEE2483F50CE43FF50D7403650B72
:101E44006059E50A6017EE2467F582E43FF583E004
:101E5400700B793DEEFAEFFB120CE980A490051C9F
:101E6400E064016023850C82850D83E060047A04BC
:101E740080027A00E50AC39AFA95E0FB120B458AC0
:101E8400088B09EA45097006120F4D021E05850CE0
:101E940082850D83E070048A108B117A008014E52A
:101EA400D9C0E0EAF8E51028F582E43511F583D0CD
:101EB400E0F00AEAC3950A40E6850C82850D83E0CA
:101EC400602874FC250AF50A7810121B02AC0AA9D2
:101ED4000BEEFAEFFB120D977402121895E9700AD3
:101EE400AA08AB09121397021E567403650B6054BB
:101EF400850A0C750D00780C121B02AC10AD11AAEA
:101F040008AB09120D5B7402121895850E82850FB9
:101F140083E0F87480687005750C7F8002880CE596
:101F24000CF50D780D121B06780B121B06A90AACD2
:101F340008AD099003A4E0FA7B0012097D74021233
:101F440018958013900376E06408600BAC10AD1113
:101F5400EEFAEFFB120E2D120F5979017F0C021AC3
:101F64000774F312195B74FC12187FEAFEEBFF8905
:101F740009A2AFE433F508C2AFEE2463F50AE43FE7
:101F8400F50B8010AA0AAB0B120D131213979004D1
:101F9400B8E004F0850A82850B83E0F8A3E0F9E851
:101FA40049602DE82402FAE439FBEA2402F50CE442
:101FB4003BF50D780C121B028A828B83E0FCA3E0B4
:101FC400F9EEFAEFFB120D077402121895E960B4EA
:101FD4009004B8E0604D9004B9E0F89004B8E0C310
:101FE40098500C74026509703A9004BAE060348E1B
:101FF400828F83A3A3A3A3E085188285198312206B
:102004003774021218CBE81220379004B7E028F096
:1020140074021218E5AA18AB1979011209D19004B7
:10202400B8E4F0E508A2E092AF74041218957F06B4
:10203400021A07F0A3E4F09004B8E0F822000000CC
:102044008521878522C622C0E074EB121A47A2AF0D
:10205400E433F508C2AF759B00906182E0A2E050C2
:1020640030E591A2E0502A7591FE7401652170213A
:102074001221DE120E871221CC121B1512260374B4
:1020840004121895E9640170057901120EE1121D1C
:10209400C7906182E0A2E5505DE591A2E5505775D5
:1020A40091DF900376E064076005E06408702F1206
:1020B40021DE74016521703E120E871221CC121BA1
:1020C400151226037404121895E964017005790148
:1020D400120EE17901EEFAEFFB121F658018E0643D
:1020E4000D7013900398E004F064287002E4F07A11
:1020F40000E0F9120F5F906182E0A2E64003022142
:10210400A1E591A2E640030221A17591BF90037657
:10211400E064057008120E6F120E7B8003120E75B8
:10212400752100120EEDE9900377F07900120EE1AB
:10213400120C237A017B00900375E0F91213679067
:102144007803E064427056900520E014F0704EC2AB
:10215400AF12215800782AD0E0F618D0E0F6E59FB7
:102164005407F87005750DFF8003750D7FC4C0E03A
:102174007829E6F50A08E6550DF50B740B780A1272
:10218400185DD0E0250AF8906270E0A2E740F8E814
:10219400C333906272F0906270E0D2E0F09061819B
:1021A400E0A2E35009E5E9A2E3500375E9F7A3E0EF
:1021B400A2E75009E591A2E7500375917FE508A2D3
:1021C400E092AF7F08021AA68E828F83E0F8A3E024
:1021D400C82416F582E438F583229003A4E0F87548
:1021E400F00BA4C8AAF02AF974A628FE740339FFD8
:1021F40022C0E0C0D0C082C083906183E0A2E050DE
:1022040009E5BFA2E0500375BFFEE0A2E15009E575
:10221400BFA2E1500375BFFDE0A2E25009E5BFA2F1
:10222400E2500375BFFBE0A2E35009E5BFA2E3500F
:102234000375BFF7E0A2E45009E5BFA2E4500375BB
:10224400BFEFE0A2E55009E5BFA2E5500375BFDF8B
:10225400E0A2E65009E5BFA2E6500375BFBFD083F4
:10226400D082D0D0D0E032C0E074F2121A47E5A791
:10227400A2E4500FE5A1A2E4500953A7EF75A1EF22
:102284001222BFE5A7A2E5500CE5A1A2E550065332
:10229400A7DF75A1DFE5A7A2E15009E5A1A2E150FE
:1022A4000375A1FDE5A7A2E2500CE5A1A2E2500648
:1022B40053A7FB75A1FB7F01021AA674F812195BE0
:1022C400752101900376E0640670077A007B0012A2
:1022D4000E57A2AFE433FED2AF90037CE0640170EA
:1022E400187A207B00900375E0F91214817A207B20
:1022F40000900375E0F912136D906182E0D2E6F06C
:1023040090051DE0602185C622801690037BE06461
:10231400017008E5C654F84405F5C653BEFC122006
:10232400447401652160E4EEA2E092AF7F01021AD9
:10233400070000008E238F24858228858327851833
:1023440082851983E0CEA3E0CF852882852783EB9D
:10235400C9EAC8EDCBECCA75F010C3E833C8E93359
:10236400C9EA33CAEB33CBC3EA9EF526EB9FF525C6
:10237400B35004AB25AA26EC33CCED33CDD5F0DA3B
:10238400AE23AF242274E912195B74FA12187FEA9F
:10239400FEEBFF8C088D09120E99EAF8EBF9ECFAC2
:1023A400EDFB8E828F83121779900376E024F7C3B6
:1023B400940550067510010224C0120DCD8A0A8BB3
:1023C4000BEA450B70030224BD120E8D8A0C8B0D93
:1023D400120E8DEA650C7003EB650D60ECEEFCEFFC
:1023E400FDAA18AB19120E93850A82850B83A3A349
:1023F400780C121743908F83780C12171D8518825E
:102404008519837814121743908F83781412171D3B
:10241400780C7914121556501F780C79141216F58D
:10242400908F67780C1215764047850C10850D1136
:10243400850E12850F138045908F678514108515BE
:10244400118516128517137810790C1216F5781069
:10245400121576501C751000751100751200751355
:1024640001781079141216F57810790C1216BC80C4
:102474000C7510017511007512007513007409783C
:102484001012169D908FC3780C1217437810790C94
:10249400121615900376E06408600AE0640660058D
:1024A400E064057020908F6B7810121576501690AA
:1024B4008F6F78101216CF800C751000751100758F
:1024C400120075130085088285098378101217524B
:1024D40074061218957F10021A0774F712195B120A
:1024E4000EAB90051BE064017010906245E4F0A30C
:1024F400F053F4F343FE0C5390F3120E45E5C65427
:10250400B84441F5C6E59E5447644170F89061852E
:10251400740FF0900519E0F47002A3E0602C7508C4
:1025240001750900900519E0780812186CE508F4A3
:10253400FAA3E0600814600A14600C800DEA52806B
:102544008008EA52908003EA52A079007F02021ABE
:102554000774F712195BE9FEEAFF74016E700C7AD6
:10256400807B00900375E0F91213679028C8E49308
:10257400F46008E493F9120C05800953C6B8E59E8B
:10258400544770FA120E4B90051BE064017003125D
:102594000C3B900519E0F47002A3E0602B75080170
:1025A400750900900519E0780812186CE508FAA37B
:1025B400E0600814600A14600C800DEA4280800810
:1025C400EA42908003EA42A0120DCD8A088B09A842
:1025D40008A909E8496016E5E170FCE82414F582CD
:1025E400E439F583E0F874FF68600288E174016FF0
:1025F400700A7A01900375E0F91213F10225507400
:10260400F112195B8A088B098C0A8D0B908F8378E1
:102614000812171D740F1218CB780C121743908FE1
:1026240083780C12171D7808790C121556908F6751
:1026340050107808790C1216F578081215764014A3
:10264400800E780C79081216F5780C121576500461
:102654007901800279007F08021A0774ED12195B70
:102664008A088B098C0A8D0B908F83780812171DAA
:1026740074131218CB780C121743908F83780C12B2
:10268400171D780C790812155640117808790C1228
:1026940016F5AA08AB09AC0AAD0B802275100075BB
:1026A40011007512007513017810790C1216F57863
:1026B4001079081216BCAA10AB11AC12AD137F0C22
:1026C400021A07908F8378081217438A828B8378C3
:1026D400081217307F04021A0774F512195B8C82F2
:1026E4008D8378081217438A828B8378081217091E
:1026F400122731C3E098F0A3E099122723401E90DB
:102704008F9778081217438A828B8378081216E20F
:102714008E828F83E02420F0A3E0344EF080A4F076
:102724008E828F83C3E09420A3E0944E22EA240493
:10273400F8E43BF9E8FEE9FF8C828D83A3A3A3A30D
:10274400E0F8A3E0F98E828F832274F512195BE915
:10275400FE9004D3E0FAA3E0FBEE29F8E433F97425
:10276400D728F582748E39F583E02AF508A3E03B77
:10277400F5097808121B02908FDB121761122338B7
:1027840074021218958A088B098C0A8D0B741078C0
:1027940008121684AA08AB097F04021A0774F112FE
:1027A400195B8A0C8B0D8C0E8D0F74111218CB12C1
:1027B4001B1974111218CBE02401F508A3E03400AE
:1027C400F509E4F50AF50B780C7908121595908F44
:1027D4007B7808121743780C7908121595AA0CAB6C
:1027E4000DAC0EAD0F12233874021218958B09EA42
:1027F400450960047A0180027A00EC2AFCE43DFD7C
:1028040074131218CBE0F8A3E0F9E8FEE9FFECF842
:10281400EDF97A717B021217F488088909E4F50A44
:10282400F50B8E828F837808121752ECF8EDF97A43
:10283400717B021217F48A088B0974057808121840
:102844006C8E828F83A3A3A3A3E508F0A3E509F00C
:102854007F08021A07C082C083E9906000F0D08329
:10286400D08222C0E074F2121A47A2AFE433FED23F
:10287400AFE589A2E04006E589A2E1500312129B6C
:10288400758900758900C2C5751A00EEA2E092AF81
:102894007F01021AA6C0E0C0D0E8C0E0E9C0E0A908
:1028A400A8D2AFC2C7751A00E9A2E7E433F8E9A2D7
:1028B400E792AFD0E0F9D0E0F8D0D0D0E032C2AFA8
:1028C40002000022FFFFFFFFFFFFFFFFC082C08363
:1028D400E9901603F0D083D08202013274F6121804
:1028E400EFE99002E8F0900348E0F50875090074F8
:1028F40002780812186CAA08AB091213D99002E9DD
:102904001232939002E9123680606F900348E075AA
:10291400F003A4FAABF01213D99003061232939089
:102924000306123680700B9002E91236511213DF3F
:1029340080489003061245E57AFF7BFF1212117A54
:102944000080198A087509007402780812186C123C
:10295400408D74FF122A93E4F0A3F00A900348E038
:10296400F8EAC39840DD79051208699002E8E0F9B5
:102974001207557AF37B08120AE502413074F41207
:1029840018EF8A088B09EB548060479002E8E0F95D
:1029940012134F8A0A8B0BAE0AAF0BEE4F602A8ECE
:1029A400828F83E064B0701A12087BE960148E820F
:1029B4008F83A3A3A3A3E0F9EE2405FAE43FFB125B
:1029C400084BEEFAEFFB12133DAA08E5096480FBFD
:1029D40080047A007B00022BE374F21218EF74FB7C
:1029E40012187FEAFEEBFFEE4F604574031218CB1A
:1029F400EEF0A3EFF0851882851983ECF0A3EDF0D7
:102A040074021218CBE9F0AA18AB1912074FE9F5B2
:102A140008707574131218CBE0F50AA3E0F50BE502
:102A24000A450B60638E828F8312301CEE4F700553
:102A340075080280537A067B001213D98A0C8B0D19
:102A4400A80CA90DE8497005750813803B88828994
:102A540083E4122A93EEF0A3EF122BAFE50AF0A35E
:102A6400E50BF09002EC122BA89002EC6017E0FC4E
:102A7400A3E08003EAFCEBFD8C828D83122BA8700B
:102A8400F38C828D83123CA8A9087405024865F072
:102A9400A31245C7A32274F21218EF8908890C7592
:102AA4000D007403780C12186C850C0A850D0B90BC
:102AB40002EBF09002E9123AB3122BA6602E121325
:102AC400DF7900801D890C750D007402780C1218D2
:102AD4006C9002E9123F4C8882F583A3A3E4F0A32F
:102AE400F009900348E0F8E9C39840D9900348E01E
:102AF400FA850AF0A4CAA8F0850BF0A428FB1213E7
:102B0400D98A0C8B0DAE0CAF0DEE4F7003022B9CCB
:102B1400900348E0FC850AF0A4CCA8F0850BF0A44F
:102B240028FD790012132B7C0080318D0C750D006B
:102B34007403780C12186C8A828B83122BA18882FE
:102B44008983E4F0122BAEA3A3F0A3F00DEDC3959B
:102B54000840D8EE250AFEEF350BFF0C900348E041
:102B6400F8ECC39850288C0C750D007402780C1284
:102B7400186C9002E9122BA1E82402500109FAE929
:102B8400FB8A828B83EEF0A3EFF07D0080BFE50823
:102B94009002EBF0790080027913024868123F50EA
:102BA400F922A3A3123655EA4B22A31245C7A3A3C5
:102BB400A32274F41218EF7900EAA2E0501F7508FA
:102BC4003A75098F7808121B0279107C047D007A0B
:102BD400057B161208637402121895E9F980007FC8
:102BE400040219C1C082C0839002EC123680601CBA
:102BF40088828983A3A3E06A7003A3E06B88828937
:102C04008370E8A3A3A3A312365180047A007B0047
:102C14000228D974F21218EF74FD12187FEAFEEB41
:102C2400FF851882851983E4F0A3F074021218CB8F
:102C34007401F012367D7014120A1F1213D9900217
:102C4400EF12329312367D7003022DA9123393EEE4
:102C54002404F50AE43FF50B850A82F583E024FE9B
:102C6400603C24FC607424FE607E24FE7003022C0D
:102C7400F924FE7003022D0624FE7003022D132492
:102C8400FE7003022D2024FE7003022D2D24FC70FF
:102C940003022D4E24FE7003022D66022DA2120A99
:102CA4001F9002F1EAF0A3EB122DB5120497E9602C
:102CB40003022DA29002F1121B198E828F83A3A30B
:102CC400A3A3A31245E58508828509831236511210
:102CD40008337402121895022DA2AC18AD19EEFA3D
:102CE400EFFB120881022D71AC18AD19EEFAEFFB5F
:102CF4001208878078AC18AD19EEFAEFFB12088D34
:102D0400806BAC18AD19EEFAEFFB120893805EAC41
:102D140018AD19EEFAEFFB1208998051AC18AD19F1
:102D2400EEFAEFFB12089F804474021218D5880C47
:102D3400890D780C121B0274021218E5EEFAEFFBEF
:102D44001208A574021218958023AC18AD19EEFA76
:102D5400EFFB1208ABE9F8701674021218CBE4F01A
:102D6400803CAC18AD19EEFAEFFB1208B1E9F8E8B3
:102D7400602C8E828F83A3E064146022850A82858E
:102D84000B83E09002F1F085188285198312365185
:102D94009002F2123293E8A3122DB5120491EEFAC6
:102DA400EFFB12080974021218CBE0F9740302480D
:102DB40065F07CF17D0285088285098312365522EF
:102DC40074E81218EF74FA12187F74041218CBEC1A
:102DD400F0A3EDF08A128B13EA2405F50EE4351303
:102DE400F50FEA2402F510E43513F511851082F588
:102DF400831236511205878A0A8B0B7508007C03EF
:102E04007D0079007AF17B0212132BE50E2402F582
:102E140016E4350FF51774021218D5880C890D784D
:102E24000C121B02850E82850F83A3A3A3A3E0F5D6
:102E34000C750D00780C121B02E50E2405F50CE44C
:102E4400350FF50D780C121B028516828517831237
:102E5400395812076D74061218958A0C8B0DE50CFF
:102E6400450D7003022FE58020851882851983E0C3
:102E740088828983F00508851882851983A3E0C0B8
:102E8400E0123026D0E0F00508E50A24FBFAE50B51
:102E940034FFFBC3E5089AE49B4003022FE57E0060
:102EA4007F00851282851383A3A3A3A3E0F5097889
:102EB40009121B06E4F514F5157814121B02751497
:102EC400EE7515027814121B029002EF121B19748E
:102ED400091218CB121B19E50A24F9F9AC0CAD0D33
:102EE4008510828511831236511208DB7409121879
:102EF40095E96003022F86850E82850F83A3A3A321
:102F0400A3A3A3A3E0F89002EEE0687075E0F514C3
:102F14008E157814121B021245E2850E82850F83EA
:102F2400A3A3A3A3A3A3A3A312365112132574022C
:102F3400121895E9604C9002F2123680703BE4F569
:102F4400147814121B027CFF7DFF7907851082859B
:102F540011831236511208457402121895123686DE
:102F64007017850E82850F8312477F74041218CB65
:102F7400124040123989023019850C82850D831262
:102F8400301CA818A919881489157814121B027406
:102F9400041218CB121B19851682851783123289E5
:102FA40012077974041218958A0C8B0DEE4F700376
:102FB400022E62123026EE12303112393FEF1230F7
:102FC40031F8A3E03400F9E50C450D6003022E6DE1
:102FD4008882898374FFF0050812302674FFF00597
:102FE40008E508601A1313543F1232991204A3E936
:102FF40060099002F21236511213977900801685F7
:103004000E82850F8312477F74041218CB1240403E
:10301400123CA8790A023912A3A3A3A3E0FEA3E0F9
:10302400FF22A8089002F2E02812393F22F0050896
:10303400089002F2E0282274E81218EF74FA1218C9
:103044007F74021218CB12329374041218CBECF072
:10305400A3EDF074021218CBE02405123928E0F530
:103064000CA3E0F50D74021218CBE02402F510A3B2
:10307400E03400F511851082F5831236511205876C
:10308400750800750900EA24FCFEEB34FFFF800894
:10309400050CE50C7002050DA808C3EE98EF94002A
:1030A4005003023245A818A919880E890F780E1208
:1030B4001B02851482851583A3A3A3A31245E912D9
:1030C4001B02E5142405F50EE43515F50F780E12F0
:1030D4001B0285148285158312328712076D7406CC
:1030E4001218958A0E8B0FEA450F7003023245EAD7
:1030F4002404F516E4350FF517851682F583E0F5FB
:103104000CA3E0F50D8518828519831245E58A82A2
:103114008B83A3A3A3E0F985108285118312365112
:1031240012075BE9F509600302324574021218CBF9
:1031340012394FF5097809121B06E4F512F51378D4
:1031440012121B027512EE7513027812121B0290F2
:1031540002EF121B1974071218CB121B19EEF9ACEB
:103164000EAD0F8510828511831236511208DB745F
:1031740009121895E9F5096003023245E508703F24
:10318400E4F50EF50F780E121B027CFF7DFF790922
:103194008510828511831236511208457402121863
:1031A40095123975700D74041218CB12327C791192
:1031B4000232799002EEE024029002F2F080149040
:1031C40002F2E0FA9002EEE0790024025001096A6A
:1031D400497072A8089002EEE0FAE82AFAE4340092
:1031E400FBEE9AEF9B405A851682851783E0C0E078
:1031F4009002F312302BD0E0F00508851682851773
:1032040083A3E0C0E0089002F312302BD0E0F00575
:10321400089002EE1245E9121B021245E2A80812B8
:10322400391C12131374021218959002EEE025084B
:10323400F50874FF650C700474FF650D60030230BB
:1032440094E508601F9002F2E0F5F0E5088412327C
:10325400991204A9E960099002F3123651121397E6
:1032640079008011E509700375090A74041218CBFA
:1032740012327CA909023912123AB7E50CF0A3E51F
:103284000DF022A3A3124874AA0CAB0D22A3A3EA47
:10329400F0A3EBF0229002F1F07CF17D0285108224
:1032A4008511831236552274EC1218EF74FC12182F
:1032B4007F123DB874021218E512364B1207738A56
:1032C4000C8B0DEA450D7003023383123393A81857
:1032D400A919881089117810121B027CFF7DFF79CF
:1032E4000B8508828509831236511208457402122F
:1032F4001895123489700C850A82850B83123986DD
:103304000233908E828F83A3A3A3A3E0F5127812D5
:10331400121B06E4F512F5137812121B027512F152
:103324007513027812121B027810121B0274091210
:1033340018CB121B1974091218CBE0F9AC0CAD0DA3
:103344008508828509831236511208DB7409121824
:1033540095E9FE70157CF17D02850882850983124A
:1033640036511204AFE97009802074166E70027E23
:10337400009002F2123651121397EE7004800B7E05
:1033840001850A82850B83123CA5EEF9023CBAEE54
:103394002402F508E43FF5092274EC1218EF74FCDA
:1033A40012187FEAFEEBFF8C0E8D0FEE2405F50854
:1033B400E43FF50974021218E58508828509831231
:1033C40036511207738A0C8B0DEA450D70030234D3
:1033D40079EE2402F50AE43FF50BA818A919881020
:1033E40089117810121B027CFF7DFF790D12364B78
:1033F4001208457402121895123489700B850882DC
:10340400850983123986807A8E828F83A3A3A3A32E
:10341400E0F5127812121B06850882850983A3A39E
:10342400121B197512F17513027812121B0278100F
:10343400121B0274091218CB121B1974091218CB2F
:10344400E0F91236471208DB7409121895E9FE7088
:103454000F7CF17D0212364B1204B5E9700980200D
:1034640074166E70027E009002F212365112139797
:10347400EE7004800B7E01850882850983123CA5C9
:10348400EEF9023CBA123690F510A3E0F511EA45C4
:10349400112274E81218EF74FE12187F8A168B1723
:1034A4008C148D15EA2405F50CE43517F50DEA2482
:1034B40002F50EE43517F50F850E82F583123651A9
:1034C4001205878A088B09750B007C037D0079003F
:1034D4007AF17B0212132B750A00E50814F5100427
:1034E40024FFF508E50934FFF50980549002F1E062
:1034F400FA9002EEE0F8EA28F8E43400F9E50898D6
:10350400E50999500D9002F1E0F8E510C398900296
:10351400EEF0E0F5127513007812121B021245E268
:103524009002F2E02AFAA3E03400FB1213137402AF
:103534001218959002EEE0F89002F1E028F0050AE6
:10354400850C82850D83A3A3123F5C400302362CB5
:103554009002F1E0C39508E49509400302362CAECD
:103564000AEE2EFEE433FF12366BAC18AD19124589
:10357400FDE439FB1207738A128B13AC12AD13EC02
:103584004D701B750B0112365B123CA99002F212AE
:103594002BA86003121397A90B7402023914851621
:1035A40082851783A3A3A3A3E0F50B780B121B0654
:1035B400E4F512F5137812121B027512EE7513025C
:1035C4007812121B029002EF121B1974071218CB07
:1035D400121B19A910850E82850F83123651120809
:1035E400DB7409121895E9F50B709B9002F2123600
:1035F4008060030234F0E4F512F5137812121B0212
:103604007CFF7DFF790F850E82850F831236511260
:103614000845740212189512368660030234F012BB
:10362400365B12398A02359D7CF17D02850E8285D6
:103634000F831236511204BBE960030235907900FE
:1036440002359DAC0CAD0D850A82850B831236556F
:1036540022E0FAA3E0FB2212366BE0FAA3E0F9EAD7
:1036640085148285158322850C82850D83E02EF8CE
:10367400A3E03FF988828983229002EF124783E80E
:103684004922123690F8A3E0F9E849229002F2EABE
:10369400F0A3EBF09002F2E02274E81218EF74FA4F
:1036A40012187F74041218CB1232938C168D17746F
:1036B400041218CBE02405F50EA3E03400F50F74D2
:1036C400041218CBE024021239281236511205874D
:1036D4008A0A8B0B7F007E00A818A919880889091B
:1036E4007808121B02850E82850F83A3A3A3A3E08F
:1036F400F5088E097808121B02E50E2405F508E486
:10370400350FF5097808121B02850E82850F83A3F5
:10371400A312395812076D74061218958A0C8B0D72
:103724008029123949F00F123949F00F9002EE1234
:103734003C94121B021245E2EFF812391C121313C7
:1037440074021218959002EEE02FFFE50C450D70FF
:10375400030237D8851882851983123DCAA3A3A30F
:10376400E0F985148285158312365112075BE9FE50
:10377400E50C2404F510E4350DF511EE70507404D5
:103784001218CB12394FF5087808121B06E4F50815
:10379400F5097808121B027508EE750902780812FB
:1037A4001B029002EF121B1974071218CB121B197B
:1037B400E50A24FAF9AC0CAD0D8514828515831243
:1037C40036511208DB7409121895E9FE6039123972
:1037D40065123CA8EF70030238FF9002F2E0F5F0A6
:1037E400EF849002F1F07CF17D02851482851583CB
:1037F4001236511204C1E960099002F312365112D3
:10380400139779000239128F08EF703BE4F512F533
:10381400137812121B027CFF7DFF791185148285B7
:10382400158312365112084574021218951239750F
:1038340070091239651239890239129002EEE024B6
:10384400049002F2F080359002EEE0F89002F2E08B
:10385400FAE82404FCE43400FDEC6A4D600302370A
:10386400DEE50A24FAFAE50B34FFFBE50828F8E460
:103874003400F9EA98EB9950030237DE851082850B
:103884001183E0C0E09002F3E02FF8A3E034008855
:1038940082F583D0E0F00F851082851183A3E0C008
:1038A400E0123936D0E0F00F74021218D588088976
:1038B400097808121B0274021218CB121B19850E08
:1038C40082850F8312328712077974041218958A3D
:1038D4000C8B0DEA450D700302372674021218CBC7
:1038E400E0C0E0123936D0E0F00F74021218CBA316
:1038F400E0C0E0123936D0E002372EEE70027E0AC4
:10390400850E82850F8312396B123CA8EEF974067A
:103914001218957F100219C19002F3E028FAA3E06F
:103924003400FB22F514A3E03400F515851482F568
:10393400832212393A229002F3E02FFAA3E03400F2
:103944008A82F5832212393A74FF22123AB7A3A36A
:10395400A3A3E022124874850E82850F8312365584
:1039640022851082851183124783851682851783E9
:10397400229002F3EAF0A3EBF09002F3124783E8FB
:103984004922123CAEE8F0A3E9F079112274EA125C
:1039940018EF74FE12187F8A088B098C128D13EAB3
:1039A4002405FEE43509FFAC18AD198E828F83120D
:1039B40036511207738A0C8B0DEE2406F50EE43F84
:1039C400F50FEA450D7003023A89E5082402F50A69
:1039D400E43509F50B8A828B83A3A3A3E0A2E55007
:1039E400288518828519831236511208CF8A108BC4
:1039F40011EA45116020791212364785108285112B
:103A0400831218EDE9F50C707F850E82850F83E033
:103A1400600979528011750C0E806D8508828509C4
:103A240083A3A3A3A3E0F9E4F508F5097808121B1E
:103A3400028E828F83A3A3E0F5087808121B028EFE
:103A4400828F83A3A3A3121B198E828F831245E551
:103A540012364B1208E17406121895E9F50C701130
:103A6400850E82850F83E0702D12364B1204C780B9
:103A7400257416650C7011750C0074181218CB128D
:103A84003AB3E48010750C0112477B8512828513CA
:103A940083E8F0A3E9F0850E82850F83E060047962
:103AA400008002A90C74021218957F0E0219C1122B
:103AB4003AB722E0F8A3E0F58388822274EC121866
:103AC400EF74F712187F8A0A8B0B8C108D11EA247D
:103AD40005FEE4350BFF750C00AC18AD198E828F12
:103AE400831236511207738A088B09EA4509700359
:103AF400023C7FE50A2402F50A5002050B8A828BF8
:103B040083A3A3A3E0A2E5502F851882851983120D
:103B140036511208CF8A0C8B0DEA450D604F79128D
:103B2400AC08AD0912364B850C82850D831218ED55
:103B3400E9F50C6003023C82850A82850B83E0F57B
:103B440008A3E0F509AA08FB1208C3EA4B70197A26
:103B5400FF7BFF1208C3EA4B7003023C758A828B19
:103B640083E508F0A3E509F07508008008750C0EDC
:103B7400023C8205089002EBE0F8E508C398400394
:103B8400023C7585080E750F007403780E12186CCC
:103B94008A828B83A3A3E0250EF8A3E0350F12409D
:103BA4004970D08E828F83123C9D1232938E828F05
:103BB40083A3A3123C9D123291EE2404F508E43F42
:103BC400F509850882F583E088828983A3A3A3A3EA
:103BD400F0A3E4F0EE2405F50EE43FF50F850E8224
:103BE400F583123C9DA3A3A3A3123291751207750A
:103BF40013007812121B02EEFCEFFD74041218DDA0
:103C04001213137402121895E4F5127812121B029F
:103C1400850882850983E0FC7D00791712364B12F2
:103C24000845740212189574071218CB1232937453
:103C3400071218CBE0FA4B603D8508828509831290
:103C44003C94121B02850E82850F831245E51213E4
:103C540013740212189574021218E512364B1204EA
:103C6400CDE9602674071218CB12365112139780CF
:103C740019750C098008750C118003750C01124725
:103C84007B851082851183123CA8A90C74098028B5
:103C9400E0F5087509007808221236558882898370
:103CA40022123CAEE8F0A3E9F022E0F8A3E0F985A3
:103CB4000E82850F832274041218957F0C0219C199
:103CC40074EC1218EF123DB8751000EE2402F50CD6
:103CD400E43FF50D850C82F5831236511208C38A30
:103CE400088B09EA45097003023D9C850A82850B0D
:103CF40083E064016003023D91AC08AD09AA0AABFC
:103D04000B1208B7E9606E85088285098312301E9C
:103D1400EE2406F50AE43FF50B8E828F83A3A312EB
:103D24001B198E828F83A3A3A3A3121B19850A8256
:103D3400850B83121B1979188E828F83123DCA1248
:103D440036511208E17406121895E9F87416687071
:103D54000B850A82850B83E4F0A38014E860128E3D
:103D6400828F83123651850E82850F83EAF0A3EB8E
:103D7400F088108018780E121B02AC08AD09EEFA18
:103D8400EFFB1208BD7402121895E9F510AA08ABEE
:103D9400091208C9E510700E850C82850D83123650
:103DA400511204D38009741665107003751000A9AC
:103DB40010023CBFEAFEEBFF8C0E8D0FEE2405F5DE
:103DC4000AE43FF50B22124874850C82850D832288
:103DD40074EA1218EF7508007509007E007F0075FB
:103DE4000A00EC2402F510E43DF5118035EC650879
:103DF4007003ED65096003023E8988828983A3A369
:103E0400E06A7003A3E06B707C88828983A3A3A318
:103E1400A312477FEE28FEEF39FFEA28FAEB39FBBD
:103E2400050A123F59503A850A0C750D007403783F
:103E34000C12186C851082851183123F4C12404974
:103E4400601FE508450970A58C088D09888289835F
:103E540012301C88828983A3A3E02EFAA3E03F805A
:103E6400BEE50AC394025003023F47750800750972
:103E740000EE4F6010EEFAEFFB1213918A0E8B0FD7
:103E8400EA450F70057900023F49750B00023F1C9B
:103E9400850B0C750D007403780C12186C85108258
:103EA400851183E0250CF50CA3E0350DF50DE50C2B
:103EB4002406F514E4350DF515851482F5831240B6
:103EC4004E6042E50C2404F512E4350DF513851219
:103ED40082F583121B19E50E2508FAE50F3509FB57
:103EE4001213137402121895851282851383E02528
:103EF40008F508A3E03509F50985148285158312B0
:103F04003651121397E50B600D7C087D007900AAE9
:103F14000CAB0D12132B050BE50BC3950A500302D2
:103F24003E9485108285118312477F88828983A3FA
:103F3400A3A3A3A3A3E50EF0A3E50F122BAFEEF00A
:103F4400A3EFF07901023AAE123F5022E0250CF8BB
:103F5400A3E0350D229002EBE0F8E50AC398227441
:103F6400F01218EF8A0E8B0F8C0A8D0B750D0075ED
:103F74000C0080507916EE2406F508E43FF5098E0E
:103F8400828F83A3A3121B198E828F83A3A3A3A35F
:103F9400121B19850882850983121B19850E8285D7
:103FA4000F83A3A31236511208E17406121895E97F
:103FB400F50D7416650D706C850882850983E4F02F
:103FC400A3F0050C9002EBE0F8E50CC3985066AA48
:103FD4000C8A087509007403780812186C850A8223
:103FE400850B83A3A3124098E8FEE9FF8E828F839A
:103FF40012404E6040EA2401F508E43400F50990CB
:1040040002EBE065087002E509601488828983A3E5
:10401400A3A3A3A3A3A3A31236806003023F7879CA
:1040240018023F7AE9609B12477B74101218CB1276
:104034004040123CA8A90D7F080219C1E0FAA3E090
:10404400F5838A8222F988828983124874EC4D228E
:1040540074F61218EF7C0080010C900348E0F8EC31
:10406400C398501E8C087509007402780812186CE5
:1040740012408DE06A7003A3E06B70DDE8FAE9FB9F
:1040840080047A007B000241309002E91240988853
:1040940082898322E02508F8A3E03509F92274F225
:1040A4001218EF8A088B09750A0080278E828F8385
:1040B400A3A3A3A3122BA660031213977C087D006D
:1040C4007900EEFAEFFB12132B8E828F83E4F0A3B8
:1040D400F0050A123F595027850A0C750D00740328
:1040E400780C12186C850882850983A3A3E0250C3B
:1040F400FEA3E0350DFF8E828F8312368070AD856E
:10410400088285098374FFF0A3F002486874F612EC
:1041140018EF1208758A828B83E582458370067ACC
:10412400007B008007A3A3A3A31236517F020219C8
:10413400C174F41218EF89088C828D83E0640270D4
:104144003C12471EFEA3E0F9EEF874026870037493
:1041540029697029750A02750B00780A121B02740A
:10416400101218CB121B1974101218CB121B19A998
:10417400081212237406121895E9F98002790102D3
:104184002BE374E81218EF74FB12187FE985188288
:10419400851983F08A168B17ECFEEDFF7510008EDF
:1041A400828F83A3A3A3E0A2E4502D741D1218CB25
:1041B4001236511208CF8A828B83E58245837003BD
:1041C4000245BD790AEEFCEFFDAA16AB171218EDF5
:1041D400E9F51060030245C0741F1218CBE0F5081E
:1041E400A3E0F50974211218CBE0F50AA3E0F50B5E
:1041F40074231218CBE0F50EA3E0F50F8E828F83A3
:10420400E06402600302455EA312477F850882854D
:104214000983A3858212858313EE2406F50CE43FFB
:10422400F50D888289831245FDF514E439F5157876
:1042340014121B8C01000028012860420700022888
:104244002543032893420029544401297F44022929
:104254002044032954440429F8445E45E50E450FDF
:104264006003024559850C82850D8312477FE8FA65
:10427400E9FB8A828B83E0850A82850B83124608D8
:10428400121B028A828B83A3E0FCA3E00244E2E5D2
:104294000E450F6003024559850A82850B8374011C
:1042A400F01245F2850882850983F07C007D008E3A
:1042B400828F83A3A3A3A3E02401FAA3E03400FB29
:1042C400120773EA4B60408A828B83E02402F885EC
:1042D4000A82850B83E028F0EA2404F8E43BF98899
:1042E400828983E08512828513831246161246085A
:1042F400121B028A828B83A31245E5E5082403FA84
:10430400E43509FB0244E7850A82850B83E0240433
:10431400F07C047D007900AA12AB1312132B024522
:10432400C0E50E450F60030245591245F2FEA3E0B5
:10433400FF850A82850B837404F0EE850882850963
:1043440083F0EF851282851383F074031218E5EE6F
:10435400FAEFFB1207738A0C8B0DEA450D7003020A
:1043640044038A828B83A3A312301C74011218D5D0
:10437400880E890F780E121B0274051218CB121BBB
:10438400197CFF7DFF12077974041218958B0FEACC
:10439400450F7033850C82850D831245E9121B028B
:1043A400850C82850D83A3121B197C027D007A087B
:1043B4007B901205757404121895E9700A74011241
:1043C40018CB74FFF0A3F08E828F83E064027039FF
:1043D400750C02750D00780C121B028E828F83A35C
:1043E4001245E5E5082404FAE43509FB12131374B5
:1043F40002121895850A82850B83E02402800974D1
:10440400011218CBEEF0A3EFF074011218CB124591
:10441400D774011218CB1245CE024553E50E450F51
:104424006003024559850C82850D8312486DAA16D6
:10443400AB17121229850A82850B837402F0850852
:1044440082850983EAF0851282851383EB0245563F
:10445400E50E450F60030245591245F2F8A3E0F951
:10446400850A82850B837402F0E8850882850983B6
:10447400F0E9851282851383024556850C82850DE9
:104484008312365112130DEAFAF8C3950EE4950F10
:10449400405CE8650E450F70047A0080218518821F
:1044A400851983E0FCE50E2CFCE4350FFDC3EC9884
:1044B400ED94005003E08005E50ECAC39AFAEA853C
:1044C4000A82850B83F08A0A750B00780A121B0294
:1044D400850C82850D83E0250EFCA3E0350FFDAA33
:1044E40008AB0912131374021218950245C0751013
:1044F400070245C0E50E450F705B850C82850D8370
:1045040012477F850A82850B837407F0888289832A
:104514001245CF1245C7E0851282851383F0E82443
:1045240002FAE439FB8A828B831245D78A828B8311
:104534001245CEA3A3122BAE1245DCF0E82405F8F5
:10454400500109888289831245DCA3124616A3A36D
:10455400A3A3F0806775100B8062741D1218CB1230
:1045640036511208758A828B83E5824583604A122C
:10457400477F880C890DE8450D603E74251218CBE1
:10458400E0F5107810121B06780E121B02780A123E
:104594001B027808121B0274071218CBE0F9EEFC18
:1045A400EFFDAA16AB17850C82850D831218ED74E6
:1045B40007121895E9F510800375100EA9107405FB
:1045C400023914F088828983A322A3E085088285B6
:1045D40009832212461DF02212461DA3A322900233
:1045E400EF12487422E0F50E750F00780E22850C48
:1045F40082850D83123AB7E022E0FAA3E0F8E4C81A
:10460400F9EA2822F08A828B83E0F50A750B007898
:104614000A221245C712461D22E0850882850983B5
:10462400A3A32274EE1218EF74FE12187F8A088B6B
:1046340009ECFEEDFF890AAC18AD19EEFAEFFB1296
:1046440007738A0C8B0DEA450D700302470F85181A
:10465400828519831236511208758A828B83E5820A
:104664004583700302470AA3A312477F880E890F6C
:10467400E8450F700302470A74141218CBE0F510D2
:10468400A3E0F511E50AF50B780B121B0674191259
:1046940018CB121B197810121B02741B1218CBE0D2
:1046A400F9AC0CAD0DAA08AB09850E82850F8312F7
:1046B40018ED7405121895E9F50B705274FE650A2D
:1046C400604C850C82850D83E06402704112471EA4
:1046D400FAA3E0F9EAF87402687003742969702E89
:1046E4008510828511831245FDF50CE439F50D78AA
:1046F4000C121B02EEFCEFFDAA08AB091208F974B8
:10470400021218958008750B0E8003750B01A90B16
:1047140074021218957F0A0219C1A3124783888272
:104724008983E02274F61218EF74FE12187F740C59
:104734001218CB12477FE8851882851983F074011B
:104744001218CBE9F0E4F508F5097808121B027594
:1047540008027808121B0274041218D58808890903
:104764007808121B0279FE1208E174061218957477
:10477400021218950241308E828F8312478322E001
:10478400F8A3E0F92274F71218EFEAFEEBFF8908A8
:104794009003061245E5121229EA5402600BA90897
:1047A400EEFAEFFB120767800279017F010219C15B
:1047B40074F21218EF74FE12187FEAFEEBFF890AF6
:1047C4007401650A60147402650A6003024863791F
:1047D40001120B03E96003024863EEFAEFFB1208CF
:1047E400C3EA4B60031208C9A818A91988088909E3
:1047F4007808121B027508027509007808121B025A
:104804007508007509907808121B027CFF7DFF7AF9
:10481400017B0012076D7406121895803885088292
:10482400850983A3A3A3A3A3A312486DEEFAEFFB08
:10483400121211E4F50CF50D780C121B027402121D
:1048440018CB121B197CFF7DFFAA08AB091207794C
:1048540074041218958A088B09E508450970BE741A
:10486400021218957F060219C1123AB7124874222F
:10487400E0FCA3E0FD2274F41218EF8A088B09EC23
:10488400FEEDFF901603E0F4604B7A097B001213EF
:1048940037EA4B60408A828B8374B1F0A3E41248F8
:1048A400DCF08A828B83A3A3E508F0A3E509124810
:1048B400DCA3EEF0A3EFF0740C1218CB12477F8A3E
:1048C400828B83A3A3A3A3A3A3A3123CA890160340
:1048D400E0F9121343022BE3F08A828B83A3A3A390
:1048E400A32274F01218EF74FA12187F8909ECFEEF
:1048F400EDFF7508008A0A8B0B780A121B46000428
:10490400100C4B29494749614979499749AF49D224
:1049140049EA49FE49284AA34AB44ACB4AE64A0C22
:104924004B0C4B3E4A740165096003024B078E82AF
:104934008F83E0F8C394034003024B07E89016EF1B
:10494400024AE3740265096003024B078E828F8377
:10495400124B489016F0E8F0A3E9024AE3740165AB
:10496400096003024B07124B394003024B07E890DE
:104974000749024AE3740165096003024B078E820A
:104984008F83E0F8C394054003024B07E890074A7D
:10499400024AE3740165096003024B07124B394074
:1049A40003024B07E890074B024AE3741065096061
:1049B40003024B07750A10750B00780A121B027A62
:1049C4004C7B071213137402121895024B2D7401B9
:1049D40065096003024B07124B394003024B07E899
:1049E40090075C024AE3740165096003024B078E79
:1049F400828F83E09016F3024AE37404650960032E
:104A0400024B078E828F83780C121743908FDB78CA
:104A14000C1215765003024B0790075E780C1217A0
:104A240052024B2DE96003024B0712070DE9700592
:104A34001211D580559007F18061740765096003F0
:104A4400024B07750A06750B00780A121B028E8248
:104A54008F83A3AC82AD8374021218DD1213197410
:104A6400021218957C007D00AA18AB198E828F83E0
:104A7400E0F9121181E9FEC3940A4003024B2A12A1
:104A8400070DE9700CEEF91211DB795012145780FE
:104A94006D74F22EF582E43407F58374018040745A
:104AA400016509705E124B395059E890075D802FFB
:104AB40074016509704D8E828F83E0F8C3940A50A7
:104AC40042E89016F280187401650970368E828F60
:104AD40083E0F874F928C3940A5028E89016F4F097
:104AE400804774016509701B9007F0E0F88E828F8F
:104AF40083E09007F0F0E87030E06401702B12114D
:104B0400C980267508188021C3EA9427EB940050C5
:104B14001574026509700F8E828F8312560E12056A
:104B24008DE9F5088003750802A908740612189522
:104B34007F080219C18E828F83E0F8C3940222A9F0
:104B440008024EE6E0F8A3E0F92274F01218EF74BC
:104B5400B112187F8C0C8D0D908F4074201218E5C3
:104B6400740612179274201218E5121181E9F508DF
:104B7400745F1218CBE0F50AE9C3940A4003024CAF
:104B8400CC75F006E9A4F50974411218E57A0E749F
:104B9400202509F9121451E97009744D1218CBE05B
:104BA400FF80027F009016EFE064027005750E012D
:104BB4008003750E007408650A7004742280027400
:104BC400212509F50F7C1B7D00790074261218DD60
:104BD40012132BEFA2E0E433FE74261218E57A1BBD
:104BE400A90F121451E9702574401218CBE024F96E
:104BF400C3940A5018780E121B0674271218E5EE97
:104C0400F9AA0CAB0D12062F74011218957C147DB1
:104C1400007900740C1218DD12132B740C1218E5B1
:104C24007A1074242509F9121451E970307C107932
:104C3400FF740C1218DD12138BE97021741C121806
:104C4400CBAC82AD837A0474252509F9121451740E
:104C54000C1218E5EEF9AA0CAB0D120617AC18AD40
:104C6400197A0C74702508F9121451E97049AA18BC
:104C7400AB191211B17E00EE75F003A4F8A9F0850A
:104C84001882851983E58228F8E583125427125681
:104C940008601D88828983A3A3E0F508750900785C
:104CA40008121B02AA0CAB0D1208E7740212189525
:104CB4000EEEC3940440C0EFA2E1500C900748E00C
:104CC400F9AA0CAB0D1208ED7404650A702890164D
:104CD400EFE0640270207A0090075CE060027A01E1
:104CE400900749E06004780480027800E84AF9AA51
:104CF4000CAB0D1206E37900744F024B3174F712BA
:104D040018EF12070DE9704F9007F1E06401701578
:104D14001211D59007F1E4F07C0AFDF97AF27B07D1
:104D240012132B802A750800A80874F228FEE434B4
:104D340007FF8E828F83E06401700BA9081211DBD8
:104D44008E828F83E4F00508E508C3940A40D9797C
:104D5400501214571211C902574674F01218EF7406
:104D6400F012187FEAFEEBFF8C088D09750A0AE938
:104D7400600C14600914603B14607D024E541211DF
:104D8400C3E9F50AC3940A4003024E54E5084509F1
:104D94007003024E54750C06750D00780C121B023C
:104DA400EEFCEFFDAA08AB09121313740212189556
:104DB400024E54750C00750E06750F00780E121B0A
:104DC40002EEFCEFFDE50C75F00EA4F8A9F0746A90
:104DD40028FA740739FB1213257402121895E97026
:104DE4000B050CE50CC3940A506680CA850C0AE5D1
:104DF4000AC3940A505A8049750C00AC18AD197A4C
:104E04001075F006E50CA42423F9121451E9701C62
:104E14007C1079FFAA18AB1912138BE9700EEEFC03
:104E2400EFFDAA18AB191205F3E9600B050CE50CAC
:104E3400C3940A501B80C4850C0AE50AC3940A5023
:104E44000FE50845096009AA08AB09A90A1211BDB2
:104E5400A90A7410024B3174F41218EF8909750809
:104E64001574FF6A700374FF6B70277E00AC097AB7
:104E7400027B00EEF912119FE960037508000EEE43
:104E8400C3940A40E8E50960537AED7B11120B27BD
:104E9400804A120AF78A0A8B0BAE0AAF0BEE4F60F8
:104EA400387C007D00EE2405FAE43FFB8E828F837C
:104EB400A3A3A3A3E0F9121181E9F9C3940A500C46
:104EC400AC097A027B0012119F750800E509600C99
:104ED400EEFAEFFB1211ED8003750814024B431236
:104EE40018957F040219C174F21218EFECFEEDFF5D
:104EF400750815740E1218CBE0F50AA3E0F50B74CF
:104F0400FF6A700374FF6B7021750900AC0AAD0B66
:104F1400EEFAEFFBA9091211A5E960037508000573
:104F240009E509C3940A503F80E2120AF78A828B8A
:104F340083E5824583602D7C007D00E5822405FAAB
:104F4400E43583FBA3A3A3A3E0F9121181E9F9C318
:104F5400940A5013AC0AAD0BEEFAEFFB1211A575CF
:104F640008008003750814A9080253EFC082C083A7
:104F7400900762EAF0A3EBF0900748E0FC7D007A2A
:104F8400267B0012058D900748E0F9120851025A59
:104F94006874EF1218EF74EC12187FEAFEEBFFEE60
:104FA400240CF50CE43FF50DEE2405F50EE43FF575
:104FB4000FEE2409F50AE43FF50BEE2403F508E4AB
:104FC4003FF5098E828F83A3A3E024FA7003025273
:104FD4006B24FD700302518D14700302506B146036
:104FE4001024FD70030251611470030251C4025273
:104FF40071125D836049E0F5838882124B48880E04
:10500400890FE8450F6038850C82850D83E0F50C27
:10501400780C121B06EE240BF582E43FF583E0F9CD
:10502400850A82850B8312560E0A0A0AAB09850E7D
:1050340082850F831218ED7401121895025271853E
:105044000A82850B83121B1990075E1217611206E0
:10505400297402121895E970030252717901850AC4
:1050640082850B8302523B7510008E828F83A38549
:10507400820A85830BE0600302512E850E82850F20
:1050840083E0A2E0400302512E9007FC125D86608B
:105094000302512E7C0E7D007900AA18AB1912135D
:1050A4002B850C82850D83125A33EA4B6010750CE4
:1050B40006750D00780C121B02EA2410801B125A8C
:1050C4002D120AF7EA4B7003025271750C06750D26
:1050D40000780C121B02EA2405FCE43BFD74021266
:1050E40018DD1213137402121895850E82850F832E
:1050F400E0A2E25004D2F08002C2F0A2F0E433F85D
:10510400740C1218CBE048F0EEFCEFFDAA18AB19B2
:105114001211B7E970117A027B00900748E0F91286
:1051240013677900025273751015125D83700302C0
:1051340052711259F77003025271850A82850B83EA
:10514400E0FC790112527D1218EDE5107003025251
:1051540071FC7903125A2D1259DD025266125D83D5
:105164007003025271125A0A124B48890BE8450B1C
:1051740070030252718E828F83A3E0FC7902125A6B
:105184002D8882850B830252667C007D00EE240408
:10519400FAE43FFB850882850983E0F9121181E96D
:1051A400F8C3940A4003025271EE240AFCE43FFD62
:1051B4007A0475F006E8A42425F912144B025271FE
:1051C400125A2D90075DE060079016F2E0F9806AAC
:1051D4009016EFE0700479058060120AF78A0C8B50
:1051E4000DA80CA90DE8497003025271E82404F5D6
:1051F4000CE439F50D8E828F83A3A3A3A3A3A3A3E9
:10520400E0A2E0503A850C82850D83E0FE60308593
:105214000A82850B83A3E054027024740E1218E5ED
:10522400E82405FAE439FBEEF9121181E9701079EA
:1052340003850882850983125A33120623802EAC13
:105244000EAD0F850C82850D83E0F9125A2D1211D3
:10525400F9125D8360171259F760127C007900120D
:10526400527D1218ED8006125A2D12117B790174A9
:10527400141218957F090219C1850882850983E0F3
:10528400FAA3E0FB8E828F832274F51218EF74F276
:1052940012187FEAFE8C0A75F006E9A42420F508AA
:1052A400AC18AD197A0EF9121451E970467C0679DE
:1052B400FFAA18AB1912138BE97038740C1218CBAF
:1052C400125A33EAF8E50A6005EEC8488004EEF4A1
:1052D400C858F8EA687001EB6015740C1218CBE832
:1052E400F0A3E4F0AC18AD197A0EA90812144B79A6
:1052F4000180027900740E1218957F030219C1749B
:10530400F21218EF74E612187F890A8A088B09ECE6
:10531400FEEDFF740C1218E57A0E75F006E9A4246C
:1053240020F9121451E960030253E87C0679FF74F2
:105334000C1218DD12138BE960030253E874702514
:105344000AF50BAC18AD197A0CF9121451E9600383
:105354000253E4AA18AB191211B1E5084509701DEE
:105364007C0C7900AA18AB1912138BE970727C0CAF
:105374007D007900AA18AB1912132B8051AC18AD1B
:1053840019AA08AB091211AB8A0C8B0DA80CA90D34
:10539400E8497022EE4F604CAC18AD197A007B00DE
:1053A4001211ABEAF8EBF9EA4B603988828983E59C
:1053B40008F0A3E509F0125463FAEE6A7001EF6095
:1053C4001FEEF04F700888828983E4F0A3F0AA18D6
:1053D400AB191211B1AC18AD197A0CA90B12144BFC
:1053E400790180027900741A1218957F060219C196
:1053F40074F71218EF7E00EE75F003A4F8A9F0EC30
:1054040028F8ED125427E06A7003A3E06B7006E8F5
:10541400FAE9FB800B0EEEC3940440DB7A007B00B8
:1054240002574639F9888289832274F71218EF7C6F
:1054340000EC75F003A4F8A9F0EA28F8EB1254275D
:10544400E0F4FEA3E0F4FF88828983EEF0A3EFF09A
:10545400125463F4F00CECC3940440D5025746E8AC
:105464002402F582E439F583E02274F41218EF740F
:10547400F412187FEAFEEBFF8C088D099007FC12EA
:105484005D86704FEE4F70030255E7EC45097003DB
:105494000255E71211C3E99016F5F0C3940A40339C
:1054A400750B007C0679FFE50B75F00EA4FAABF0E2
:1054B40074642AFA74073BFB12138BE960030255E8
:1054C40048050BE50BC3940A40D9750A0AE50A900E
:1054D40016F5F09016F5E0C3940A40030255E775FB
:1054E400F006E0A4FB9007FC125D86705CEEFCEF16
:1054F400FD7A0E74202BF912144B7C0C7D0079FF7D
:10550400AA18AB1912132BAC18AD197A0C9016F516
:10551400E02470F912144B750A0E750B00780A1208
:105524001B02EEFCEFFD9016F5E01256A6121313C3
:1055340074021218959007FCE508F0A3E509F079C8
:10554400000255E9850B0A8084E0C824061256023D
:1055540060197A1B74212BF912144B1255EE240690
:10556400F582E438F583E4F0A380D31255EE240ADF
:1055740012560260107A1B74222BF912144B125526
:10558400EE240A80DB1255EE240C12560260107AC7
:105594001074232BF912144B1255EE240C80C112F3
:1055A40055F712560260307A1074242BF912144BFA
:1055B4001255F7F582E438F583E02410FCA3E034B7
:1055C40000FD7A0475F0069016F5E0A42425F9127E
:1055D400144B1255F780899007F0E060031211FF15
:1055E4001211F37901740C024EE39007FCE0F8A366
:1055F400E0C8229007FCE0F8A3E0C8240822F58262
:10560400E438F58312560EEC4D22E0FCA3E0FD22B3
:1056140074F41218EF74F212187FEAFEEBFFE9C378
:10562400940A5004EE4F700479028034AC18AD191A
:105634007A0E75F006E9A42420F9121451E9F5084C
:10564400701C750A06750B00780A121B027402128C
:1056540018E5EEFAEFFB1213137402121895A90859
:10566400740E024EE374F41218EFEAFEEBFF7508B1
:1056740000750A06750B00780A121B02EEFCEFFD9A
:10568400E5081256A61213257402121895E960044F
:10569400A908800B0508E508C3940A40D4790A02D6
:1056A4004EE675F00EA4F8A9F0746428FA7407396C
:1056B400FB2274F71218EF750800E50875F00EA4C4
:1056C400F8A9F0746428FE740739FFEEFCEFFD7A44
:1056D4000E75F006E508A42420F9121451E9602996
:1056E4007C067D0079FFEEFAEFFB12132B7C067D1E
:1056F4000079FFEE2CFAE43FFB12132BEE240CF599
:1057040082E43FF583E4F0A3F00508E508C3940AB6
:1057140040A89007F0E060031211FF1211F38022F9
:1057240074F71218EF7E007F007C06EF1256A67401
:10573400FFF912138BE970010E0FEFC3940A40E9CD
:10574400EEF97F010219C174F71218EF7E00EEF929
:105754001211DBE9F90EEEC3940A5003E960EF80FD
:10576400E174F31218EF74CB12187F89089016F5C0
:10577400E06508701B7A017B00900748E0F912137A
:105784006D7A027B00900748E0F912136D12120B38
:1057940075F006E508A4FF74202FFE74271218E59F
:1057A4007A0EEEF9121451E9600302586D7C067901
:1057B400FF74271218DD12138BE9600302586D7C05
:1057C4000E7D0079FF74271218DD12132B7C1B7DCC
:1057D4000079FF740C1218DD12132B7C0C7D0079F8
:1057E400FFAA18AB1912132B74271218E57A0EEEC0
:1057F400F912144BE9FE740C1218E57A1B74212F6C
:10580400F912144BE9F509740C1218E57A1B742289
:105814002FF912144BE9F50A740C1218E57A107476
:10582400232FF912144BE9F50B740C1218E57A10B6
:1058340074242FF912144BE9F50C740C1218E57A40
:105844000474252FF912144BE9FFAC18AD197A0C26
:1058540074702508F912144BE9F8E509450A450B5B
:10586400450C4F48CE4EFE80027E00EEF974351290
:1058740018957F050219C174F71218EFE9900748CB
:10588400F01211C902574674F41218EFEAFEEBFF46
:105894005480700302594E900748E0F912134F8A5E
:1058A400088B09EA450970030259477A01E508247F
:1058B40004F8E43509F9880A890B8508828B83E0AA
:1058C4002450604014600624E16067806C888289FB
:1058D40083E070688508828B83A3A3A3A3A3A3A3F7
:1058E400121B198508828B83A3A3A3A3A312560EAC
:1058F4008508828B83A3A3125A3312118D7402126A
:105904001895803888828983E0641E700F79008539
:1059140008828B83A3A3125A33121187850A8285C6
:105924000B83E0F9E5082405FAE43509FB12084B7A
:10593400800AAA08121199E9FAEA6007AA08AB09D1
:1059440012133DEEFAEF6480802AEE54026028EED2
:105954006402FE7C007D007A007B001211B7E960CE
:10596400047A0180027A027B00900748E0F912135E
:1059740067EEFAEFFB805FEEA2E0504C6401F5089D
:10598400EFF5091259EB121205E9602A125D8360E2
:10599400201259F7601B7C0079011259EB8E828F1B
:1059A400831218ED7C0079031259EB1259DD121899
:1059B400ED12120B800C7A017B00900748E0F9127B
:1059C4001367AA08AB09800E54046006EE6404FA57
:1059D40080047A007B00024EE6900762E0F8A3128E
:1059E4005A02F5838882229007FC125D73E0FAA3C1
:1059F400E0FB22125A02F9E8FEE9FFEE4F22125AA6
:105A04000AE0F8A3E022E0F5838882A3A3227F02C0
:105A14000219C1C082C083900748E0F98A828B834F
:105A2400A3125A331208ED803B850882850983E06E
:105A3400FAA3E0FB22C082C08374FF12187F121104
:105A4400CFE9C394028518828519834004740280C7
:105A540002740AF0AC18AD197A01790512072B7497
:105A640001121895D083D08202013274F21218EF19
:105A740074E812187FEAFEEBFF890A8C088D097C12
:105A8400187D007900AA18AB1912132B851882858A
:105A94001983EEF0A3EFF090074AE0C0E07402121D
:105AA40018CBD0E0F090074BE0C0E074031218CBA1
:105AB400D0E0F09016F4E0C0E074171218CBD0E0F8
:105AC400F074151218CBE054FEFAA3E0FB9016F321
:105AD400E0A2E0E433F8EA48F8EBF974151218CBC5
:105AE400125C13A2E15004D2F08002C2F0E854FD2B
:105AF400FAA2F0E43325E0F8EA48F874151218CB5A
:105B0400125C13A2E45004D2F08002C2F0E8FAE975
:105B140054FEFBA2F0E433F9EB49F974151218CBE7
:105B2400125C13A2E55004D2F08002C2F0E954FDE5
:105B3400FBA2F0E433F50C750D007409780C12180F
