:020000040000FA
:0600000002011A02224D6C
:03002B0002297A2D
:030053000222C3C3
:03006B000229481F
:100083000220A3E5C754F84401F5C7790122000013
:100093000080FB120086B90003020104E479217891
:1000A30008B800028004F709D8FCE479297802B87B
:1000B30000028004F709D8FCE490028178C0791328
:1000C3008002F0A3D8FCD9FA781A90014A7A01BACF
:1000D30000028007E493A3F608DAF97A407B1590CF
:1000E300014B784179048015E493A3AD82AE838AF2
:1000F300828B83F0A3AA82AB838D828E83D8E9D9C6
:10010300E77582A57583FF740212012C75829175C0
:100113008300740012012C75D00075813F7518811E
:10012300751902759F00020096C09FF59FE473D076
:100133009F22D083D082C09FE493C0E0740193C018
:10014300E0740293F59F2201FF0000B40000280031
:100153002800283075A000A000A000A0000008001F
:1001630008E001F000100010001000100010001053
:100173000050005000500010001000D00700000095
:100183000000000F0001000500307507001000019A
:100193000081FF00000000FFFFFFAD06CB06B306A2
:1001A300EF06FF02020208025000A0000000E8036D
:1001B300023082010000F0810204820100009B15DD
:1001C300022A81010000BF020204820100009C1583
:1001D30002F681010000D5020204820100009D1590
:1001E30002F881010000D7020204820100009E157B
:1001F30002FA81080000D8020204820100009F1560
:1002030002FC81010000A015FF0100FF20023082E3
:10021300010000ED81020482010000041602128233
:10022300000000000002FE81030000060317005BCC
:100233000D5B0D5B0D5B0D5B0D5B0D5B0D5B0D5B7B
:100243000D5B0D5B0D5B0D5B0D19102B1013100275
:100253000202020202020202010D0000001001026A
:100263003082010000EA8102048201000047160285
:100273001A820100004007020482010000481602AE
:100283001882010000158102048201000049160250
:10029300168201000007810204820100004A16024F
:1002A300148201000093800204820100004B1602B5
:1002B300108201000081800204820100004C1602BA
:1002C3000E82010000A5800204820100004D160287
:1002D3000C82010000B7800204820100004E160266
:1002E3000A82010000F9800204820100004F160215
:1002F3000882010000501601E8030577100AFFFF8A
:10030300FF00013075030201060000000000000039
:1003130000000000000000000000000000000000DA
:100323000000000000FFFF0600800CE803140953DF
:10033300696D706C65424C45506572697068657291
:10034300616C051250002003020A0002010503023A
:10035300F0FF53696D706C6520424C452050657207
:100363006970686572616C7B14000081140A4368CC
:100373006172616374657269737469632031000229
:10038300436861726163746572697374696320326F
:1003930000084368617261637465726973746963A9
:1003A300203300104368617261637465726973740A
:1003B3006963203400024368617261637465726922
:1003C30073746963203500023082010000E7810203
:1003D30004820100006517021E8203000032150229
:1003E30002820100006617020482010000771702EF
:1003F30020820100003315020282010000781702F7
:1004030004820100008917022282020000341502CF
:1004130002820100008A170204820100009B170276
:100423002482000000351502FE8103000036150208
:1004330002820100009C17020482010000AD170232
:1004430026820400003815020282010000AE171054
:100453004B65792050726573732053746174650022
:10046300023082010000F381020482010000471878
:10047300022E820000003D1502FE810300003E159E
:100483000202820100004818120135E08B031201B9
:1004930035F38B03120135248C031201355E8C0373
:1004A300120135B78C03120135FE8C031201354658
:1004B3008D03120135758D03120135A48D031201CD
:1004C30035DB8D03120135228E031201353B8E037A
:1004D300120135908E03120135A98E03120135F7EF
:1004E3008E03120135318F0312013524AB02120141
:1004F3003527AC0212013560AC0212013583AC0220
:1005030012013595AC02120135D3AC021201354FFD
:10051300AD0212013517AE0212013539AE021201D6
:1005230035D0AE0212013522AF0212013553AF02AC
:1005330012013560AF02120135CAAF021201352133
:10054300B00212013524B0021201355DB00212016E
:100553003560B0021201356AB002120135BEB00235
:10056300120135FFB00212013532B1021201356FAB
:10057300B10212013571B20212013515B302120133
:10058300357EB302120135BCB302120135FF83037A
:100593001201352784031201355484031201358C6B
:1005A3008403120135EA84031201353685031201EF
:1005B300359D8503120135DD85031201351A860346
:1005C300120135488603120135F28603120135FC08
:1005D30086031201350987031201353C8703120193
:1005E300354887031201356087031201356A870393
:1005F300120135B2AE03120135C0AE03120135D874
:10060300AE03120135EFAE03120135E9A601120163
:100613003593A701120135A6A80112013522A901BC
:1006230012013540AA011201357CAA0112013517C6
:10063300AB01120135FBAB01120135C7AC0112014D
:100643003555AE01120135C6AE0112013580AF0139
:1006530012013572B001120135B2B00112013566D3
:10066300B10112013598B1011201358EB3011201A6
:1006730035D0B301120135EEB30112013554B40183
:1006830012013523B501120135E7B5011201350613
:10069300B801120135F5C302120135DFC40212019C
:1006A300358AC502120135DBC5021201358BC6023C
:1006B300120135FCC602120135E1C70212013515DC
:1006C300C8021201350EC9021201354BC9021201CB
:1006D3003527CA0212013566CA0212013582CA02DF
:1006E300120135E2A00312013566A103120135910F
:1006F300A103120135ABA203120135F887031201DE
:10070300350E88031201352C88031201353D890308
:10071300120135478903120135728A0312013569C3
:100723008B03120135D68B03120135E3CA02120182
:100733003519CC0212013550CC02120135A7CC0277
:10074300120135BCCE02120135338201120135BFCD
:1007530082011201352384011201352F8401120114
:10076300356A8401120135D98401120135E285010C
:10077300120135EB8601120135B287011201350FE3
:1007830089011201352D89011201354A89011201AE
:1007930035F78901120135748A011201359C8A01EA
:1007A300120135668D011201356B8D0112013584FD
:1007B3008F01120135D28F011201354290011201CE
:1007C300358090011201355C91011201351C9201B3
:1007D3001201356892011201356B9201120135AF96
:1007E3009201120135F7920112013536930112017C
:1007F300355893011201358C9301120135EF9301A2
:10080300120135F6D50212013504D602120135570D
:10081300D60212013576D602120135BBD602120179
:1008230035FFD7021201359AD802120135DED802FC
:1008330012013508D90212013577D902120135BDEB
:10084300D90212013534DA02120135E5DA02120156
:1008530035B42900120135C42900120135652A0077
:10086300120135C12A001201357E2B001201359A7F
:100873002C00120135CC2C00120135FB2C00120187
:1008830035A82E001201351F31001201358F3300B8
:100893001201358134001201357A35001201358198
:1008A3003700120135753A00120135A43B001201DD
:1008B30035A83D00120135B83E001201354740000E
:1008C300120135384100120135864100120135F518
:1008D30041001201351942001201356A420012012A
:1008E300350B47001201350C48001201356D4800E5
:1008F3001201359848001201355E49001201353E58
:10090300FA0212013548FA021201358DFA02120178
:1009130035A1FA0212013531FB021201356AFB02DD
:10092300120135A5FB02120135CEFB02120135225D
:10093300FC0212013537FC0212013559FC02120187
:10094300356EFC0212013582FC0212013597FC025E
:10095300120135D1FC02120135FDFC0212013546AC
:10096300FD02120135B8FD02120135FBFD02120131
:100973003525FE0212013550FE02120135D4A903BA
:10098300120135888D021201356B8E02120135E694
:100993008E02120135218F0212013572900212016B
:1009A30035009102120135929302120135449402EB
:1009B300120135509502120135C396021201351CFE
:1009C3009702120135ACF102120135EFF102120167
:1009D3003573F2021201354AF5021201356E9C039A
:1009E300120135209D031201351C9E031201355B54
:1009F3009E03120135B59E03120135B4A4031201FF
:100A03003517A503120135B4A503120135E9A50372
:100A130012013519A60312013554A60312013574C8
:100A2300A603120135F7DA0212013583DB02120144
:100A33003542DC021201355ADD0212013574DF0240
:100A4300120135AA7200120135CF72001201359CD2
:100A53007300120135707400120135DD7400120148
:100A6300351D7500120135B97500120135ED76009B
:100A7300120135C87700120135277800120135B30A
:100A83007800120135217900120135AD7900120188
:100A930035F37900120135657A00120135F77A00D2
:100AA300120135987B00120135B87B001201350025
:100AB3007C00120135497C00120135657C0012016E
:100AC300358B7C00120135057D00120135137D0045
:100AD300120135A27D001201350B7E00120135ABE8
:100AE300DF0212013530E00212013572E002120119
:100AF3003556E102120135C3E10212013507E20264
:100B03001201354BE20212013578E202120135A0DF
:100B1300E202120135D8E20212013516E302120194
:100B2300353DE302120135B7E30212013501E40258
:100B330012013513B801120135B2B901120135EAB8
:100B4300BB011201353EBC0112013569BC01120122
:100B53003545BD0112013575BD01120135A4BD0135
:100B6300120135B7BD01120135F8BD01120135255A
:100B7300BE0112013573BE01120135AFBE01120170
:100B830035F4BE0112013541BF01120135BBBF016E
:100B9300120135FCC101120135E6C30112013522F0
:100BA300C401120135B1C501120135F6C5011201A7
:100BB3003569C601120135BEC601120135C3C6012E
:100BC3001201354DC7011201356CC8011201357D83
:100BD300C80112013585A102120135FEA1021201DD
:100BE30035B8A702120135C3A8021201356CAA0257
:100BF300120135FAAA02120135975E001201351867
:100C03005F00120135455F001201358E5F0012014E
:100C1300358F6000120135E860001201356462000F
:100C2300120135E6620012013501630012013572CB
:100C330063001201352F6400120135F264001201C2
:100C4300358065001201353766001201354A6600AA
:100C5300120135E366001201357A6700120135A1EE
:100C630067001201350A6800120135546800120149
:100C730035A26800120135476900120135E56900A4
:100C8300120135726A00120135E36A001201352A36
:100C93006B00120135826B00120135B46B00120137
:100CA300356E6C00120135756D00120135BE6D0095
:100CB300120135DB6D00120135FA6D001201352D7D
:100CC3006F00120135E46F00120135097000120143
:100CD300351E70001201358E7000120135CF700081
:100CE300120135F37100120135747200120135C51A
:100CF30097021201351098021201351C9802120155
:100D030035F0980212013507990212013544990210
:100D1300120135759902120135AD9902120135039D
:100D23009A02120135199A02120135559A021201DB
:100D330035689A021201358F9A02120135C39A025D
:100D4300120135E99B02120135339D021201352F41
:100D53009E021201354C9F02120135A9290012018E
:100D630035A0C801120135DBC8011201352DCC01B4
:100D730012013589CD0112013548CE01120135AF7B
:100D8300D10112013599D201120135E5D2011201C7
:100D930035FFD2011201353CD30112013547D3018E
:100DA30012013586D3011201358FD3011201353972
:100DB300D40112013510D50112013564D501120198
:100DC30035C1D50112013533D601120135C794015E
:100DD3001201352698011201352C98011201355D57
:100DE3009F0112013564A301120135998F0312018A
:100DF300352F90031201354590031201359E900360
:100E0300120135E290031201351C9103120135B42E
:100E130091031201352392031201352C920312011F
:100E2300353892031201355292031201357C920335
:100E3300120135919203120135F392031201351A0F
:100E43009303120135FCF50212013509F602120172
:100E53003523F60212013556F60212013594F602D5
:100E6300120135F9F6021201350EF7021201351996
:100E7300F70212013526F7021201353DF70212017E
:100E8300354BF70212013556F70212013562F702AC
:100E930012013571F7021201357CF7021201359FF9
:100EA300F70212013543F80212013553F802120119
:100EB300356DF8021201358AF802120135A5F802E0
:100EC300120135CAF802120135D5F802120135EACA
:100ED300F802120135FEF8021201355FF902120120
:100EE3003565F9021201356BF90212013571F90208
:100EF30012013589F902120135BCF90212013505D7
:100F030080021201359C80021201353481021201E4
:100F1300352482021201355B82021201356E820290
:100F2300120135DC82021201357784021201359EEB
:100F330084021201354085021201357585021201C2
:100F430035868502120135FF85021201352086029E
:100F53001201353886021201359087021201359944
:100F63008902120135E98B02120135EC8C02120160
:100F7300353B8D0212013582D7011201357FD8012D
:100F83001201356AD90112013574D901120135965E
:100F9300D901120135A2D901120135F4DA01120186
:100FA3003523DB0112013553DC0112013595DC01D8
:100FB300120135C1DD0112013597DE01120135E958
:100FC300DE0112013548DF011201357FDF01120115
:100FD30035BADF0112013555E3011201356EE30124
:100FE300120135F0E301120135FEE301120135531D
:100FF300E40112013561E401120135CEE40112016D
:101003003540E50112013586E5011201354AF40147
:101013001201356CF40112013556F601120135FB4C
:10102300F9011201353EFB0112013518FC011201D1
:10103300352E7E00120135537E00120135C47E0029
:10104300120135E2B302120135EBB302120135F49A
:10105300B30212013525B50212013544B70212015C
:10106300357AB702120135B4B702120135EAB70275
:1010730012013524B80212013558B8021201358421
:10108300B802120135CDB80212013507B9021201B7
:10109300354FB902120135A5B902120135DAB90289
:1010A30012013535BA021201356FBA02120135C089
:1010B300BA02120135F6BA0212013530BB0212012F
:1010C300355EBB0212013581BB021201357FAF03CE
:1010D300120135ABAF0312013506B003120135100F
:1010E300B00312013520B003120135DC960312015F
:1010F300350397031201352D9703120135D1B00340
:10110300120135CA4900120135324C00120135E58E
:101113004D00120135424E001201353F4F001201BE
:1011230035CF4F001201355450001201357950006C
:10113300120135715300120135E75300120135D8FE
:101143005400120135125500120135525500120197
:1011530035F856001201354D57001201359A5700E4
:101163001201350858001201352F58001201354974
:1011730058001201355F59001201356F59001201F1
:1011830035FB5A001201351D5B00120135535B001C
:10119300120135015D00120135405D001201357207
:1011A3005E00120135CFE80212013527E902120170
:1011B300356FEA02120135DEEA021201358DEB02C8
:1011C300120135ACEB0212013500EC021201353E7F
:1011D300EC02120135AEB1031201351BB10312014A
:1011E300355AB103120135E47F00120135D3AD0343
:1011F300120135E3AD03120135F8AD03120135AC2D
:10120300AE03120135E8AA031201356CAB031201D8
:1012130035D2AB0312013578FE021201359FFE026F
:10122300120135F5FE0212013508FF021201355A8B
:10123300FF0212013599FF021201359CFF021201D0
:10124300350080031201351480031201358D8003AC
:10125300120135628103120135348303120135997A
:101263008303120135EC8303120135F87F00120169
:1012730035DAA20312013550A403120135B1A403D8
:10128300120135E2AC031201350BAD031201353403
:10129300AD031201354CAD031201358EAD031201BE
:1012A3003583D0021201358DD002120135CDD00223
:1012B30012013516D10212013550D102120135A6A1
:1012C300D102120135C5D102120135CED10212016C
:1012D300351FD20212013548D2021201355DD20206
:1012E300120135CDD2021201355BD3021201359FB3
:1012F300D302120135C7D30212013546D4021201BB
:101303003589D402120135C6D402120135D8D4026C
:10131300120135F7D40212013500D502120135CA84
:10132300D50212013536A80312013587A80312012D
:101333003510A90312013576A903120135AA9903C1
:10134300120135D49903120135CE9A03120135FDEA
:101353009A03120135839B03120135EBAB03120190
:1013630035E09E03120135169F031201354F9F038B
:10137300120135A8A0031201352AB003120135402A
:10138300B0031201354AB003120135A0B0031201B4
:10139300355AFF011201350FBC02120135CCBC02D4
:1013A30012013507BD021201352FBD02120135911D
:1013B300BD02120135DDBD021201353DBE0212012F
:1013C30035CEBE02120135CABF0212013557C10222
:1013D300120135DAC1021201353EC202120135553E
:1013E300C2021201354BC30212013597C302120127
:1013F3003541E40212013556E40212013506E502D5
:1014030012013546E5021201355FE50212013592FC
:10141300E502120135DFE50212013513E60212017E
:101423003555E6021201355CE802120135C2E802C5
:101433001201350FE601120135C6E90112013558D3
:10144300EB01120135AFEB01120135CEEB011201B5
:10145300354CEC01120135DEED01120135C2EE010E
:10146300120135D3F201120135A7F30112013559E7
:10147300ED02120135B5EF02120135E3F00212015C
:101483003583F102120135489303120135B09303FA
:10149300120135CD9303120135989403120135EBF4
:1014A3009403120135CE950312013582A60312016E
:1014B30035E9A6031201354EA703120135D5A7035B
:1014C300120135B9FF0112013564B10312013590E0
:1014D300B103E066701008A3E066700A08A3E06633
:1014E300700408A3E06622C3E7960809E796080993
:1014F300E7960809E79622C3E09608A3E09608A3B7
:10150300E09608A3E09622C008C3E096F50808A376
:10151300E096420808A3E096420808A3E09645082F
:101523007001D3D00822080808EAC0E0EBC0E086C7
:10153300F0E7A4FA180986F0E7A42AFA180986F056
:10154300E7A42AFA180986F0E7A42AFA1986F0E72D
:10155300A4FBE5F02AFA190886F0E7A42BFBE5F0D3
:101563003AFA190886F0E7A42BFBE5F03AFA1818C3
:101573000986F0E7A4C5F02BFBE43AFA1908E7C59E
:10158300F0C6A426F6E5F03BFBE43AFA1886F0E74A
:10159300A4F6E5F00826F6E43B08F6E43A08F6D0AC
:1015A300E0FBD0E0FA22E4CFC0E0E4CEC0E0E4CD3B
:1015B300C0E0E4CCC0E075F020E626F608E633F69A
:1015C30008E633F608E633F6181818EC33FCED3367
:1015D300FDEE33FEEF33FFC3EC9709ED9709EE976A
:1015E30009EF97191919400FFFEC97FC09ED97FDC7
:1015F30009EE97FE191906D5F0BFECF709EDF709C7
:10160300EEF709EFF7191919D0E0FCD0E0FDD0E0AF
:10161300FED0E0FF226016080808C6C313C618C62A
:1016230013C618C613C618C613C6D5E0EA22700936
:10163300080808226016181818C6C333C608C6332C
:10164300C608C633C608C633C6D5E0EA22E627F67F
:101653000809E637F60809E637F60809E637F622F9
:10166300E026F608A3E036F608A3E036F608A3E082
:1016730036F622E026F008A3E036F008A3E036F0C1
:1016830008A3E036F022C3E697F60809E697F608C2
:1016930009E697F60809E697F622C3E096F008A351
:1016A300E096F008A3E096F008A3E096F022E05657
:1016B300F608A3E056F608A3E056F608A3E056F6AC
:1016C30022E056F008A3E056F008A3E056F008A382
:1016D300E056F022E0F608A3E0F608A3E0F608A33C
:1016E300E0F622E6F008A3E6F008A3E6F008A3E696
:1016F300F022E0FAA3E0FBA3E0FCA3E0FD22E0F884
:10170300A3E0F9A3E0FAA3E0FB22E8F0A3E9F0A346
:10171300EAF0A3EBF022CAC0E0E6F0A308DAFAD0BD
:10172300E0FA22CAC0E0E0A3C582CCC582C583CD5E
:10173300C583F0A3C582CCC582C583CDC583DAE654
:10174300D0E0CA22C3E498F8E499F91217888026F6
:10175300C3E49AFAE49BFBE920E7E9121788E498CB
:10176300F8E499F922C3E498F8E499F9121788E4A4
:1017730098F8E499F9C3E49AFAE49BFB22EB20E797
:10178300CFE920E7E0B90010BB0008E88AF084F84D
:10179300AAF022E4FBC8FA22EB70227B10C833C8FC
:1017A300C933C9335007C39AC3DBF280069A500189
:1017B3002ADBEAC833F4C8C933F4C9FA2275F0083E
:1017C300E4C833C8C933C933C99AC99B5004C92A69
:1017D300C93BD5F0ECFBC833F4C8E4C9FA22600D69
:1017E30008C6A2E713C618C613C6D5E0F322600CD9
:1017F30008C6C313C618C613C6D5E0F42270042264
:10180300600D18C6C333C608C633C6D5E0F4182224
:10181300251810AF08F518400C15198008F5184065
:10182300021519D2AF2200C0D0251810AF08F51841
:10183300500C05198008F51850020519D2AFD0D005
:10184300222518F58210AF08F518400C15198008E9
:10185300F51840021519D2AF851983222518F58290
:10186300E43519F583222518F8E43519F9222518EA
:10187300FAE43519FB222518FCE43519FD22E4733B
:101883002518C582C0E0E51934FFC583C0E0E5181B
:10189300C3958224F810AF088583198582188008C0
:1018A300858319858218D2AFCEF0A3E520F0A37803
:1018B30008E608F0A3DEFAEFF0A3E58124FAF8E6E0
:1018C30008F0A3E608F0A3E608F0A30808E608F08A
:1018D300A3E608F0A315811581D0E0FED0E0F8154A
:1018E3008115811581E8C0E0EEC0E0222518C5828C
:1018F300C0E0E51934FFC583C0E0E518C395822431
:10190300F910AF08858319858218800885831985A6
:101913008218D2AFCEF0A3E520F0A37808E608F052
:10192300A3DEFAEFF0A3E58124FBF8E608F0A3E6D3
:1019330008F0A30808E608F0A3E608F0A31581154C
:1019430081D0E0FED0E0F815811581E8C0E0EEC05B
:10195300E022851983851882E0A3FEE0A3F52078B1
:1019630008E0A3F608DFFAE0A3FFE0A3C0E0E0A3EA
:10197300C0E0E0A3C0E0E0A3C0E0E0A3C0E010AF9C
:10198300088582188583198008858218858319D272
:10199300AFD083D082020132851983851882E0A3F8
:1019A300FEE0A3F5207808E0A3F608DFFAE0A3FF42
:1019B300E0A3C0E0E0A3C0E0E0A3C0E0E0A3C0E098
:1019C30010AF08858218858319800885821885835E
:1019D30019D2AFD083D08222C0D02518C582C0E0EF
:1019E300E51934FFC583C0E0E518C3958224F310DD
:1019F300AF08858319858218800885831985821825
:101A0300D2AFC8F0A3E9F0A3EAF0A3EBF0A37908FF
:101A1300E709F0A3D8FAECF0A3EDF0A3EEF0A3EFFF
:101A2300F0A3D0E0F0A3D0E0F0A3D0E0F0A3E52052
:101A3300F0A3E5F0F0A322851983851882E0C0E0C6
:101A4300A3E0F9A3E0FAA3E0FBA37808E0F608A378
:101A5300DFFAE0FCA3E0FDA3E0FEA3E0FFA3E0C008
:101A6300E0A3E0C0E0A3E0F5D0A3E0F520A3E0A36A
:101A7300F5F010AF088583198582188008858319CE
:101A8300858218D2AFD082D083D0E0F8D0E0327410
:101A9300048006740280027401C0E0F40412184446
:101AA300D0E0121719227404800474028000CCC0A1
:101AB300E0EDC0E0E518C39CCCAD1950011D10AF9B
:101AC300068C188D1980068C188D19D2AF12172623
:101AD300D0E0FDD0E0FC22D083D082E9C0E0E493E3
:101AE300A3C386F0C5F095F0F908E493A386F0C587
:101AF300F095F0700BE493A3C3994005E9048002C9
:101B0300A3E475F002A42582F582E5F03583F5831D
:101B1300D0E0F9E493A3C0E0E493C0E022D083D003
:101B230082ECC0E0EDC0E0E493A3FCE493A3FDEDFD
:101B33004C600D121B6CEC24FFFCED34FFFD80EFB9
:101B4300E493A3FCE493A3FDED4C600D121BABECFB
:101B530024FFFCED34FFFD80EFD0E0FDD0E0FCE49A
:101B630093A3C0E0E493C0E022C0E0C3E4939608EB
:101B73007401939618400FE49366700808740193F8
:101B8300661870007019A3A3C3E4939608740193B5
:101B93009618A3A3400DD0E0D0E0D0E0021B5CA3D5
:101BA300A3A3A3A3A3D0E022C0E0C0F088F0E493F2
:101BB3006670080874019366187000A8F0A3A370F8
:101BC3000BD0F0D0E0D0E0D0E0021B5CA3A3D0F0B8
:031BD300D0E0223D
:101BD80074F61218EFEAFEEBFF8C088D09EE243438
:101BE800F8E43FF9E8FCE9FDEE2435121EEBFAEEC5
:101BF8002437121EEBF88508F0A4C885F00A850979
:101C0800F0A4250AF9EA28F8E439F97A257B0012C4
:101C18001788EA8C828D83F0FA131313541FF8EE99
:101C280028F8E43FF9E8245DF582E439F583E0C05B
:101C3800E074075AF8D0E0B800028004C313D8FC57
:101C4800A2E0EE50082434F582E43F8018243612CE
:101C58001EEBF5F0EA84A8F0EE28F8E43FF9E82452
:101C680038F582E439F583E0F97F0302199B74F7AC
:101C78001218EFEAFEEBFFEE2434121EEBC0E0EE82
:101C88002435F582E43FF583D0E0F08E828F83A37C
:101C9800A3A3A3A3A3A3C082C0838E828F83A3A37D
:101CA800A3A3A3E0F8A3E0F9D083D082E0C398F51A
:101CB80008A3E099F509EE247F121EEB6401703E3B
:101CC800EE2480F582E43FF583C082C0838E828F44
:101CD80083A3A3A3A3A3E0240108A3E03400F9D0BD
:101CE80083D082E0687003A3E06970127CB17D0440
:101CF800120C9BEE247FF582E43FF583E4F0AC08F8
:101D0800AD09EEFAEFFB121BD8E9F912293A7F0266
:101D180002199BC082C083851882851983E0F8A3C5
:101D2800E0F9C3EA9CEB9D5010C3EC98ED99401B79
:101D3800C3EA98EB995014800EC3EA98EB994007D0
:101D4800C3EC98ED994004790180027900D083D0E2
:101D58008222EAC39CFAEB9DFB2274EF1218EF90E3
:101D68000376E064086005E06407702A9061C8E0C3
:101D780060249003A4E0F4601DE0F875F00BA4C89B
:101D8800AAF02AF974A628FE740339FF8E828F837D
:101D9800A3A3A3E07003021E70906060E0C0E0EEB1
:101DA8002468F582E43FF583D0E0F0750C21750DC9
:101DB80005750800750900E5D914F50AE5D9540335
:101DC800F50E60127403650E6043E50A600AEE249E
:101DD80067121EEB7002807590051CE06401601F9D
:101DE800121EE860047A0480027A00E50AC39AFAAF
:101DF80095E0FB120B458A088B09EA450970051224
:101E08000EE18064121EE870048A0C8B0DE50A60EE
:101E180012850C82850D83F50BE5D9F0A3150BE52A
:101E28000B70F6121EE8604474FC250AF50A780C5B
:101E3800121A96AC0AA90EEEFAEFFB120D557402AF
:101E4800121829E97026AA08AB0912132B793D8EBE
:101E5800828F83A3A3A3A3E0FA7B001209A7EEFA5B
:101E6800EFFB120CBF120D677900806F7403650ECB
:101E78006051850A107511007810121A96AC0CADD5
:101E88000DAA08AB09120D197402121829EE24685C
:101E9800121EEB64807004747F8001E0F50C780CEE
:101EA800121A9AE50EF50C780C121A9AA90AAC08BF
:101EB800AD099003A4E0FA7B0012097D74021218A0
:101EC800298013900376E06408600BAC0CAD0DEE2E
:101ED800FAEFFB120DDF120EED79017F0A02199B52
:101EE800EE2483F582E43FF583E02274F21218EFC2
:101EF80074FC121813EAFEEBFF8909A2AFE433F56C
:101F080008C2AF021FBDE0601B780C121A96AC0B1A
:101F1800A90EEEFAEFFB120D4F7402121829740481
:101F2800250BF50B7401250BF5D9850ED9E50B604A
:101F380018F50A850C82850D83E0F5D9A385820CF6
:101F480085830D150AE50A70EA75E195EE2463F8B4
:101F5800E43FF97A007B00A2AFE433F50BC2AF8807
:101F6800828983E0FCA3E0FDEC4D603A8882898396
:101F7800E0FAA3E0FB8A828B83E0FCA3E0FD888281
:101F88008983ECF0A3EDF08A828B83E4F0A3F088D8
:101F9800828983E0FCA3E0FDEC4D700A8882898386
:101FA800A3A3E4F0A3F0E50BA2E092AF12132B90E9
:101FB80004B8E004F0EE2463121EEBF8A3E0F9E89D
:101FC800496064EE2463121EEB2402F8A3E0340097
:101FD800F988828983E5822402F50CE43583F50DBE
:101FE800E0F50BA3E0F50EEE2462121EEB6401701F
:101FF800369061D0E0F8121EE860047C0480027C10
:10200800007480C398FA95E0FBE50B2CF8E43400E3
:10201800F9E82402F8500109C3EA98EB99A2D265BD
:10202800D0334003021F0E9004B8E0604D9004B90D
:10203800E0F89004B8E0C398500C74026509703A4F
:102048009004BAE060348E828F83A3A3A3A3E085B3
:102058001882851983122092740212185FE81220E0
:10206800929004B7E028F07402121879AA18AB19F4
:1020780079011209D19004B8E4F0E508A2E092AF22
:1020880074041218297F0702199BF0A3E4F0900446
:10209800B8E0F8228521878522C622C0E074EB12B9
:1020A80019DBA2AFE433F508C2AF759B00906182DB
:1020B800E0A2E05030E591A2E0502A7591FE74014B
:1020C80065217021122236120E2D122224121AA90D
:1020D8001226E47404121829E964017005790112C2
:1020E8000E75121D62906182E0A2E5505DE591A235
:1020F800E550577591DF900376E064076005E0646A
:1021080008702F12223674016521703E120E2D12AE
:102118002224121AA91226E47404121829E9640167
:1021280070057901120E757901EEFAEFFB121EF3B4
:102138008018E0640D7013900398E004F064287030
:1021480002E4F07A00E0F9120EF3906182E0A2E670
:1021580040030221F9E591A2E640030221F97591B5
:10216800BF900376E064057008120E15120E2180E8
:1021780003120E1B752100120E81E9900377F07986
:1021880000120E75120C0B7A017B00900375E0F9B2
:102198001212FB907803E064427056900520E01418
:1021A800F0704EC2AF1221B000782AD0E0F618D0F5
:1021B800E0F6E59F5407F87005750DFF8003750D6F
:1021C8007FC4C0E07829E6F50A08E6550DF50B74DA
:1021D8000B780A1217F1D0E0250AF8906270E0A295
:1021E800E740F8E8C333906272F0906270E0D2E0A2
:1021F800F0906181E0A2E35009E5E9A2E35003759C
:10220800E9F7A3E0A2E75009E591A2E75003759129
:102218007FE508A2E092AF7F08021A3A8E828F8388
:10222800E0F8A3E0C82416F582E438F58322900389
:10223800A4E0F875F00BA4C8AAF02AF974A628FE41
:10224800740339FF22C0E0C0D0C082C0839061838C
:10225800E0A2E05009E5BFA2E0500375BFFEE0A28E
:10226800E15009E5BFA2E1500375BFFDE0A2E250CD
:1022780009E5BFA2E2500375BFFBE0A2E35009E500
:10228800BFA2E3500375BFF7E0A2E45009E5BFA27F
:10229800E4500375BFEFE0A2E55009E5BFA2E550A1
:1022A8000375BFDFE0A2E65009E5BFA2E65003755B
:1022B800BFBFD083D082D0D0D0E032C0E074F21259
:1022C80019DBE5A7A2E6500FE5A1A2E6500953A73E
:1022D800BF75A1BF122317E5A7A2E5500CE5A1A27F
:1022E800E5500653A7DF75A1DFE5A7A2E15009E590
:1022F800A1A2E1500375A1FDE5A7A2E2500CE5A15A
:10230800A2E2500653A7FB75A1FB7F01021A3A749B
:10231800F71218EF752101900376E0640670151224
:102328000D8B8A828B83A3A3A3A3A3A3E0FAA3E0C4
:10233800FB120E03A2AFE433FED2AF90037CE0643D
:102348000170187A207B00900375E0F91214157A51
:10235800207B00900375E0F9121301906182E0D2AE
:10236800E6F090051DE0602185C622801690037B6B
:10237800E064017008E5C654F84405F5C653BEFC90
:1023880012209C7401652160E4EEA2E092AF7F0206
:1023980002199B008E238F24858228858327851820
:1023A80082851983E0CEA3E0CF852882852783EB39
:1023B800C9EAC8EDCBECCA75F010C3E833C8E933F5
:1023C800C9EA33CAEB33CBC3EA9EF526EB9FF52562
:1023D800B35004AB25AA26EC33CCED33CDD5F0DAD7
:1023E800AE23AF242274E91218EF74FA121813EA14
:1023F800FEEBFF8C0A8D0B120E39EAF8EBF9ECFABA
:10240800EDFB8E828F8312170D900376E024F7C3BD
:1024180094055006751401022554120D8B8A088BF9
:1024280009EA45097003022551EEFCEFFDAA18AB35
:1024380019120E33850882850983A3A3780C121616
:10244800D7908177780C1216B18518828519837810
:10245800101216D790817778101216B1780C79106F
:102468001214EA501F780C791012168990816B7833
:102478000C12150A4047850C14850D15850E168516
:102488000F17804590816B851014851115851216DC
:102498008513177814790C121689781412150A50B6
:1024A8001C751400751500751600751701781479D8
:1024B800101216897814790C121650800C751401B4
:1024C8007515007516007517007409781412163101
:1024D8009081C3780C1216D77814790C1215A98537
:1024E8000882850983A3A3A3A3A3A31225721217A5
:1024F80088880C890DE4F50EF50F7814790C1216FE
:1025080050740412185F122572121788E8FA8A0CA0
:10251800E4F50D7814790C1214EA50077814790C44
:10252800121689900376E06408600AE06406600584
:10253800E06405702090816F781412150A50169087
:1025480081737814121663800C7514007515007564
:102558001600751700850A82850B8378141216E613
:1025680074061218297F1002199BE0F8A3E0F97A83
:10257800D07B032274F71218EF120E4B90051BE064
:1025880064017010906245E4F0A3F053F4F343FE45
:102598000C5390F3120DF1E5C654B84441F5C6E565
:1025A8009E5447644170F8906185740FF090051946
:1025B800E0F47002A3E0604E90051AE06008146031
:1025C8001B14602E8040750801750900900519E0FC
:1025D8007808121800E508F45280802A75080175F9
:1025E8000900900519E07808121800E508F45290DF
:1025F8008014750801750900900519E0780812180B
:1026080000E508F452A079007F0202199B74F712C2
:1026180018EFE9FEEAFF120E4B74016E700C7A8017
:102628007B00900375E0F91212FB9029ACE493F457
:102638006008E493F9120BFF800953C6B8E59E546D
:102648004770FA120DF790051BE064017003120C35
:102658001D900519E0F47002A3E0604B90051AE0A4
:10266800600814601A14602C803D75080175090013
:10267800900519E07808121800E50842808028754E
:102688000801750900900519E07808121800E50896
:1026980042908013750801750900900519E07808C3
:1026A800121800E50842A0120D8B8A088B09A808A9
:1026B800A909E8496014E5E170FCE82414F582E40E
:1026C80039F583E0F46003E0F5E174016F700A7A8C
:1026D80001900375E0F912138502261074F112189F
:1026E800EF8A088B098C0A8D0B908177780812166F
:1026F800B1740F12185F780C1216D7908177780C86
:102708001216B17808790C1214EA90816B5010787F
:1027180008790C121689780812150A4014800E7868
:102728000C7908121689780C12150A500479018060
:102738000279007F0802199B74ED1218EF8A088B42
:10274800098C0A8D0B90817778081216B1741312D0
:10275800185F780C1216D7908177780C1216B1781A
:102768000C79081214EA40117808790C121689AA13
:1027780008AB09AC0AAD0B80227510007511007505
:1027880012007513017810790C12168978107908DF
:10279800121650AA10AB11AC12AD137F0C02199B84
:1027A80090817778081216D78A828B837808121658
:1027B800C47F0402199B74F51218EF8C828D8378FC
:1027C800081216D78A828B83780812169D1228164B
:1027D800C3E09CF0A3E09D122808402290819778DE
:1027E800081216D78A828B8378081216768A828B0B
:1027F80083A3A3A3A3E02420F0A3E0344EF080A099
:10280800F088828983C3E09420A3E0944E22EA24CE
:1028180004F8E43BF98C828D83A3A3A3A3E0FCA373
:10282800E0FD888289832274F51218EFE9FE90048E
:10283800D3E0FAA3E0FBEE29F8E433F974C928F5EC
:1028480082748039F583E02AF508A3E03BF509781E
:1028580008121A969081DB1216F512239C74021244
:1028680018298A088B098C0A8D0B7410780812169F
:1028780018AA08AB097F0402199B74F11218EF8A91
:102888000C8B0D8C0E8D0F741112185F121AAD740B
:102898001112185FE02401F508A3E03400F509E4FB
:1028A800F50AF50B780C790812152990817F7808BC
:1028B8001216D7780C7908121529AA0CAB0DAC0E94
:1028C800AD0F12239C74021218298B09EA4509607E
:1028D800047A0180027A00EC2AFCE43DFD741312AC
:1028E800185FE0F8A3E0F9E8FEE9FFECF8EDF97A03
:1028F800717B0212178888088909E4F50AF50B8E9E
:10290800828F8378081216E6ECF8EDF97A717B026B
:102918001217888A088B09740578081218008E82A5
:102928008F83A3A3A3A3E508F0A3E509F07F08021A
:10293800199BC082C083E9906000F0D083D08222C6
:10294800C0E074F21219DBA2AFE433FED2AFE5891E
:10295800A2E04006E589A2E1500312122F75890012
:10296800758900C2C5751A00EEA2E092AF7F010218
:102978001A3AC0E0C0D0E8C0E0E9C0E0A9A8D2AFE8
:10298800C2C7751A00E9A2E7E433F8E9A2E792AFF3
:10299800D0E0F9D0E0F8D0D0D0E032C2AF020000E9
:1029A80022020132FFFFFFFFFFFFFFFFC082C0834B
:1029B800E9901603F0D083D08202013274F612181F
:1029C80083E99002E8F0900348E0F508750900747F
:1029D800027808121800AA08AB0912136D9002E9D0
:1029E8001233779002E9123764606F900348E075FC
:1029F800F003A4FAABF012136D900306123377902C
:102A08000306123764700B9002E9123735121373FC
:102A180080489003061246C97AFF7BFF1211A57AF7
:102A28000080198A087509007402780812180012C3
:102A3800417174FF122B77E4F0A3F00A900348E089
:102A4800F8EAC39840DD79051208699002E8E0F9D0
:102A58001207557AF37B08120AE502421474F4123D
:102A680018838A088B09EB548060479002E8E0F9E4
:102A78001212E38A0A8B0BAE0AAF0BEE4F602A8E56
:102A8800828F83E064B0701A12087BE960148E822A
:102A98008F83A3A3A3A3E0F9EE2405FAE43FFB1276
:102AA800084BEEFAEFFB1212D1AA08E5096480FB85
:102AB80080047A007B00022CC774F212188374FB1E
:102AC800121813EAFEEBFFEE4F6045740312185F0D
:102AD800EEF0A3EFF0851882851983ECF0A3EDF0F2
:102AE800740212185FE9F0AA18AB1912074FE9F53A
:102AF800087075741312185FE0F50AA3E0F50BE58A
:102B08000A450B60638E828F83123100EE4F700589
:102B180075080280537A067B0012136D8A0C8B0DA0
:102B2800A80CA90DE8497005750813803B888289AF
:102B380083E4122B77EEF0A3EF122C93E50AF0A3AF
:102B4800E50BF09002EC122C8C9002EC6017E0FC84
:102B5800A3E08003EAFCEBFD8C828D83122C8C7041
:102B6800F38C828D83123D8CA9087405024949F0C3
:102B7800A31246ABA32274F21218838908890C7534
:102B88000D007403780C121800850C0A850D0B9043
:102B980002EBF09002E9123B97122C8A602E121376
:102BA800737900801D890C750D007402780C121859
:102BB800009002E91240308882F583A3A3E4F0A3D1
:102BC800F009900348E0F8E9C39840D9900348E039
:102BD800FA850AF0A4CAA8F0850BF0A428FB121302
:102BE8006D8A0C8B0DAE0CAF0DEE4F7003022C806E
:102BF800900348E0FC850AF0A4CCA8F0850BF0A46B
:102C080028FD79001212BF7C0080318D0C750D00F3
:102C18007403780C1218008A828B83122C858882A0
:102C28008983E4F0122C92A3A3F0A3F00DEDC395D1
:102C38000840D8EE250AFEEF350BFF0C900348E05C
:102C4800F8ECC39850288C0C750D007402780C129F
:102C580018009002E9122C85E82402500109FAE9CB
:102C6800FB8A828B83EEF0A3EFF07D0080BFE5083E
:102C78009002EBF079008002791302494C1240343B
:102C8800F922A3A3123739EA4B22A31246ABA3A316
:102C9800A32274F41218837900EAA2E0501F750881
:102CA8004A7509817808121A9679107C047D007A91
:102CB800057B161208637402121829E9F980007F4F
:102CC80004021955C082C0839002EC123764601C5C
:102CD80088828983A3A3E06A7003A3E06B88828952
:102CE8008370E8A3A3A3A312373580047A007B007E
:102CF8000229BD74F212188374FD121813EAFEEB50
:102D0800FF851882851983E4F0A3F0740212185F16
:102D18007401F01237617014120A1F12136D9002B9
:102D2800EF1233771237617003022E8D123477EE6B
:102D38002404F50AE43FF50B850A82F583E024FEB6
:102D4800603C24FC607424FE607E24FE7003022D27
:102D5800DD24FE7003022DEA24FE7003022DF72401
:102D6800FE7003022E0424FE7003022E1124FC7050
:102D780003022E3224FE7003022E4A022E86120A05
:102D88001F9002F1EAF0A3EB122E99120497E96062
:102D980003022E869002F1121AAD8E828F83A3A3AE
:102DA800A3A3A31246C98508828509831237351261
:102DB80008337402121829022E86AC18AD19EEFADF
:102DC800EFFB120881022E55AC18AD19EEFAEFFB95
:102DD8001208878078AC18AD19EEFAEFFB12088D4F
:102DE800806BAC18AD19EEFAEFFB120893805EAC5D
:102DF80018AD19EEFAEFFB1208998051AC18AD190D
:102E0800EEFAEFFB12089F80447402121869880CCE
:102E1800890D780C121A967402121879EEFAEFFBE3
:102E28001208A574021218298023AC18AD19EEFAFD
:102E3800EFFB1208ABE9F87016740212185FE4F0A1
:102E4800803CAC18AD19EEFAEFFB1208B1E9F8E8CE
:102E5800602C8E828F83A3E064146022850A8285A9
:102E68000B83E09002F1F0851882851983123735BB
:102E78009002F2123377E8A3122E99120491EEFA17
:102E8800EFFB120809740212185FE0F97403024993
:102E980049F07CF17D028508828509831237392241
:102EA80074E812188374FA121813740412185FEC79
:102EB800F0A3EDF08A128B13EA2405F50EE435131E
:102EC800F50FEA2402F510E43513F511851082F5A3
:102ED800831237351205878A0A8B0B7508007C0325
:102EE8007D0079007AF17B021212BFE50E2402F50B
:102EF80016E4350FF5177402121869880C890D78D5
:102F08000C121A96850E82850F83A3A3A3A3E0F55E
:102F18000C750D00780C121A96E50E2405F50CE4D4
:102F2800350FF50D780C121A9685168285178312BF
:102F38003A3C12076D74061218298A0C8B0DE50CA1
:102F4800450D70030230C98020851882851983E0F9
:102F580088828983F00508851882851983A3E0C0D3
:102F6800E012310AD0E0F00508E50A24FBFAE50B87
:102F780034FFFBC3E5089AE49B40030230C97E0096
:102F88007F00851282851383A3A3A3A3E0F50978A4
:102F980009121A9AE4F514F5157814121A9675148C
:102FA800EE7515027814121A969002EF121AAD7483
:102FB8000912185F121AADE50A24F9F9AC0CAD0D27
:102FC8008510828511831237351208DB74091218AF
:102FD80029E9600302306A850E82850F83A3A3A3C3
:102FE800A3A3A3A3E0F89002EEE0687075E0F514DF
:102FF8008E157814121A961246C6850E82850F838E
:10300800A3A3A3A3A3A3A3A31237351212B97402CF
:10301800121829E9604C9002F2123764703BE4F50B
:10302800147814121A967CFF7DFF79078510828523
:103038001183123735120845740212182912376A9B
:103048007017850E82850F83124863740412185F07
:10305800124124123A6D0230FD850C82850D8312CF
:103068003100A818A919881489157814121A9674A9
:103078000412185F121AAD85168285178312336DF4
:1030880012077974041218298A0C8B0DEE4F7003FD
:10309800022F4612310AEE123115123A23EF12317D
:1030A80015F8A3E03400F9E50C450D6003022F5133
:1030B8008882898374FFF0050812310A74FFF005CD
:1030C80008E508601A1313543F12337D1204A3E96C
:1030D80060099002F212373512132B790080168599
:1030E8000E82850F83124863740412185F124124FC
:1030F800123D8C790A0239F6A3A3A3A3E0FEA3E04C
:10310800FF22A8089002F2E028123A2322F00508CC
:10311800089002F2E0282274E812188374FA121850
:1031280013740212185F123377740412185FECF0EC
:10313800A3EDF0740212185FE02405123A0CE0F5D2
:103148000CA3E0F50D740212185FE02402F510A339
:10315800E03400F511851082F583123735120587A2
:10316800750800750900EA24FCFEEB34FFFF8008AF
:10317800050CE50C7002050DA808C3EE98EF940045
:103188005003023329A818A919880E890F780E123E
:103198001A96851482851583A3A3A3A31246CD127C
:1031A8001A96E5142405F50EE43515F50F780E1278
:1031B8001A9685148285158312336B12076D74066F
:1031C8001218298A0E8B0FEA450F7003023329EA79
:1031D8002404F516E4350FF517851682F583E0F516
:1031E8000CA3E0F50D8518828519831246C98A82D9
:1031F8008B83A3A3A3E0F985108285118312373549
:1032080012075BE9F5096003023329740212185F9B
:10321800123A33F5097809121A9AE4F512F5137877
:1032280012121A967512EE7513027812121A9690E7
:1032380002EF121AAD740712185F121AADEEF9AC4C
:103248000EAD0F8510828511831237351208DB7495
:1032580009121829E9F5096003023329E508703FC6
:10326800E4F50EF50F780E121A967CFF7DFF7909AA
:103278008510828511831237351208457402121899
:1032880029123A59700D740412185F1233607911BB
:1032980002335D9002EEE024029002F2F080149076
:1032A80002F2E0FA9002EEE0790024025001096A85
:1032B800497072A8089002EEE0FAE82AFAE43400AD
:1032C800FBEE9AEF9B405A851682851783E0C0E093
:1032D8009002F312310FD0E0F005088516828517A9
:1032E80083A3E0C0E0089002F312310FD0E0F005AC
:1032F800089002EE1246CD121A961246C6A8081277
:103308003A001212A774021218299002EEE025085A
:10331800F50874FF650C700474FF650D60030231D5
:1033280078E508601F9002F2E0F5F0E508841233B2
:103338007D1204A9E960099002F312373512132BA4
:1033480079008011E509700375090A740412185F81
:10335800123360A9090239F6123B9BE50CF0A3E58C
:103368000DF022A3A3124958AA0CAB0D22A3A3EA7D
:10337800F0A3EBF0229002F1F07CF17D028510823F
:103388008511831237392274EC12188374FC1218D1
:1033980013123E9C740212187912372F1207738A7F
:1033A8000C8B0DEA450D7003023467123477A818A8
:1033B800A919881089117810121A967CFF7DFF7957
:1033C8000B85088285098312373512084574021265
:1033D800182912356D700C850A82850B83123A6A9A
:1033E8000234748E828F83A3A3A3A3E0F51278120C
:1033F800121A9AE4F512F5137812121A967512F148
:103408007513027812121A967810121A9674091205
:10341800185F121AAD740912185FE0F9AC0CAD0D03
:103428008508828509831237351208DB740912185A
:1034380029E9FE70157CF17D0285088285098312D1
:1034480037351204AFE97009802074166E70027E59
:10345800009002F212373512132BEE7004800B7EA7
:1034680001850A82850B83123D89EEF9023D9EEEA5
:103478002402F508E43FF5092274EC12188374FC61
:10348800121813EAFEEBFF8C0E8D0FEE2405F508DB
:10349800E43FF509740212187985088285098312B8
:1034A80037351207738A0C8B0DEA450D7003023508
:1034B8005DEE2402F50AE43FF50BA818A919881057
:1034C80089117810121A967CFF7DFF790D12372F1B
:1034D800120845740212182912356D700B8508827E
:1034E800850983123A6A807A8E828F83A3A3A3A365
:1034F800E0F5127812121A9A850882850983A3A327
:10350800121AAD7512F17513027812121A96781004
:10351800121A96740912185F121AAD740912185FFC
:10352800E0F912372B1208DB7409121829E9FE702A
:103538000F7CF17D0212372F1204B5E97009802043
:1035480074166E70027E009002F212373512132B39
:10355800EE7004800B7E01850882850983123D89FF
:10356800EEF9023D9E123774F510A3E0F511EA4515
:10357800112274E812188374FE1218138A168B1716
:103588008C148D15EA2405F50CE43517F50DEA249D
:1035980002F50EE43517F50F850E82F583123735DF
:1035A8001205878A088B09750B007C037D0079005A
:1035B8007AF17B021212BF750A00E50814F51004AF
:1035C80024FFF508E50934FFF50980549002F1E07D
:1035D800FA9002EEE0F8EA28F8E43400F9E50898F1
:1035E800E50999500D9002F1E0F8E510C3989002B2
:1035F800EEF0E0F5127513007812121A961246C60C
:103608009002F2E02AFAA3E03400FB1212A7740237
:103618001218299002EEE0F89002F1E028F0050A6D
:10362800850C82850D83A3A3124040400302371006
:103638009002F1E0C39508E495094003023710AE03
:103648000AEE2EFEE433FF12374FAC18AD191246BE
:10365800E1E439FB1207738A128B13AC12AD13EC39
:103668004D701B750B0112373F123D8D9002F212FF
:103678002C8C600312132BA90B74020239F88516DF
:1036880082851783A3A3A3A3E0F50B780B121A9ADC
:10369800E4F512F5137812121A967512EE751302E4
:1036A8007812121A969002EF121AAD740712185F68
:1036B800121AADA910850E82850F831237351208AC
:1036C800DB7409121829E9F50B709B9002F2123786
:1036D8006460030235D4E4F512F5137812121A96D1
:1036E8007CFF7DFF790F850E82850F831237351297
:1036F8000845740212182912376A60030235D41279
:10370800373F123A6E0236817CF17D02850E828542
:103718000F831237351204BBE9600302367479004F
:10372800023681AC0CAD0D850A82850B83123739C0
:1037380022E0FAA3E0FB2212374FE0FAA3E0F9EA0D
:1037480085148285158322850C82850D83E02EF8E9
:10375800A3E03FF988828983229002EF124867E844
:103768004922123774F8A3E0F9E849229002F2EAF4
:10377800F0A3EBF09002F2E02274E812188374FAD6
:10378800121813740412185F1233778C168D17747D
:103798000412185FE02405F50EA3E03400F50F7459
:1037A8000412185FE02402123A0C1237351205870A
:1037B8008A0A8B0B7F007E00A818A9198808890936
:1037C8007808121A96850E82850F83A3A3A3A3E017
:1037D800F5088E097808121A96E50E2405F508E40E
:1037E800350FF5097808121A96850E82850F83A37E
:1037F800A3123A3C12076D74061218298A0C8B0D15
:103808008029123A2DF00F123A2DF00F9002EE1285
:103818003D78121A961246C6EFF8123A001212A70D
:1038280074021218299002EEE02FFFE50C450D7086
:10383800030238BC851882851983123EAEA3A3A360
:10384800E0F985148285158312373512075BE9FE86
:10385800E50C2404F510E4350DF511EE70507404F0
:1038680012185F123A33F5087808121A9AE4F50824
:10387800F5097808121A967508EE75090278081283
:103888001A969002EF121AAD740712185F121AAD49
:10389800E50A24FAF9AC0CAD0D851482851583125E
:1038A80037351208DB7409121829E9FE6039123A13
:1038B80049123D8CEF70030239E39002F2E0F5F013
:1038C800EF849002F1F07CF17D02851482851583E6
:1038D8001237351204C1E960099002F31237351224
:1038E800132B79000239F68F08EF703BE4F512F5D7
:1038F800137812121A967CFF7DFF79118514828540
:1039080015831237351208457402121829123A59CC
:103918007009123A49123A6D0239F69002EEE02423
:10392800049002F2F080359002EEE0F89002F2E0A6
:10393800FAE82404FCE43400FDEC6A4D6003023824
:10394800C2E50A24FAFAE50B34FFFBE50828F8E497
:103958003400F9EA98EB9950030238C28510828541
:103968001183E0C0E09002F3E02FF8A3E034008870
:1039780082F583D0E0F00F851082851183A3E0C023
:10398800E0123A1AD0E0F00F740212186988088918
:10399800097808121A96740212185F121AAD850E69
:1039A80082850F8312336B12077974041218298ADF
:1039B8000C8B0DEA450D700302380A740212185F69
:1039C800E0C0E0123A1AD0E0F00F740212185FA3B8
:1039D800E0C0E0123A1AD0E0023812EE70027E0A15
:1039E800850E82850F83123A4F123D8CEEF97406CC
:1039F8001218297F100219559002F3E028FAA3E063
:103A08003400FB22F514A3E03400F515851482F583
:103A18008322123A1E229002F3E02FFAA3E0340028
:103A28008A82F58322123A1E74FF22123B9BA3A3BB
:103A3800A3A3E022124958850E82850F83123739D5
:103A4800228510828511831248678516828517831F
:103A5800229002F3EAF0A3EBF09002F3124867E831
:103A68004922123D92E8F0A3E9F079112274EA1292
:103A7800188374FE1218138A088B098C128D13EAA6
:103A88002405FEE43509FFAC18AD198E828F831228
:103A980037351207738A0C8B0DEE2406F50EE43FBA
:103AA800F50FEA450D7003023B6DE5082402F50A9F
:103AB800E43509F50B8A828B83A3A3A3E0A2E55022
:103AC800288518828519831237351208CF8A108BFA
:103AD80011EA45116020791212372B851082851161
:103AE80083121881E9F50C707F850E82850F83E0BB
:103AF800600979528011750C0E806D8508828509E0
:103B080083A3A3A3A3E0F9E4F508F5097808121A3A
:103B1800968E828F83A3A3E0F5087808121A968EF2
:103B2800828F83A3A3A3121AAD8E828F831246C9F4
:103B380012372F1208E17406121829E9F50C7011D2
:103B4800850E82850F83E0702D12372F1204C780EF
:103B5800257416650C7011750C00741812185F1214
:103B68003B97E48010750C0112485F85128285131B
:103B780083E8F0A3E9F0850E82850F83E06004797D
:103B8800008002A90C74021218297F0E021955121E
:103B98003B9B22E0F8A3E0F58388822274EC12189C
:103BA8008374F71218138A0A8B0B8C108D11EA2470
:103BB80005FEE4350BFF750C00AC18AD198E828F2D
:103BC800831237351207738A088B09EA450970038F
:103BD800023D63E50A2402F50A5002050B8A828B2E
:103BE80083A3A3A3E0A2E5502F8518828519831229
:103BF80037351208CF8A0C8B0DEA450D604F7912C4
:103C0800AC08AD0912372F850C82850D83121881F7
:103C1800E9F50C6003023D66850A82850B83E0F5B1
:103C280008A3E0F509AA08FB1208C3EA4B70197A41
:103C3800FF7BFF1208C3EA4B7003023D598A828B4F
:103C480083E508F0A3E509F07508008008750C0EF7
:103C5800023D6605089002EBE0F8E508C3984003CA
:103C6800023D5985080E750F007403780E1218006E
:103C78008A828B83A3A3E0250EF8A3E0350F1241B7
:103C88002D70D08E828F83123D811233778E828F72
:103C980083A3A3123D81123375EE2404F508E43F93
:103CA800F509850882F583E088828983A3A3A3A305
:103CB800F0A3E4F0EE2405F50EE43FF50F850E823F
:103CC800F583123D81A3A3A3A3123375751207755B
:103CD80013007812121A96EEFCEFFD740412187194
:103CE8001212A77402121829E4F5127812121A9601
:103CF800850882850983E0FC7D00791712372F1229
:103D080008457402121829740712185F1233777461
:103D18000712185FE0FA4B603D8508828509831217
:103D28003D78121A96850E82850F831246C91212A3
:103D3800A77402121829740212187912372F120464
:103D4800CDE96026740712185F12373512132B80DD
:103D580019750C098008750C118003750C0112483F
:103D68005F851082851183123D8CA90C7409802807
:103D7800E0F50875090078082212373988828983A6
:103D880022123D92E8F0A3E9F022E0F8A3E0F985D9
:103D98000E82850F832274041218297F0C0219558C
:103DA80074EC121883123E9C751000EE2402F50C78
:103DB800E43FF50D850C82F5831237351208C38A66
:103DC800088B09EA45097003023E80850A82850B43
:103DD80083E064016003023E75AC08AD09AA0AAB32
:103DE8000B1208B7E9606E850882850983123102D3
:103DF800EE2406F50AE43FF50B8E828F83A3A31207
:103E08001AAD8E828F83A3A3A3A3121AAD850A824B
:103E1800850B83121AAD79188E828F83123EAE12EB
:103E280037351208E17406121829E9F87416687013
:103E38000B850A82850B83E4F0A38014E860128E58
:103E4800828F83123735850E82850F83EAF0A3EBC4
:103E5800F088108018780E121A96AC08AD09EEFAA0
:103E6800EFFB1208BD7402121829E9F510AA08AB75
:103E7800091208C9E510700E850C82850D8312376A
:103E8800351204D38009741665107003751000A9E3
:103E980010023DA3EAFEEBFF8C0E8D0FEE2405F514
:103EA8000AE43FF50B22124958850C82850D8322BE
:103EB80074EA1218837508007509007E007F007582
:103EC8000A00EC2402F510E43DF5118035EC650894
:103ED8007003ED65096003023F6D88828983A3A39F
:103EE800E06A7003A3E06B707C88828983A3A3A334
:103EF800A3124863EE28FEEF39FFEA28FAEB39FBF4
:103F0800050A12403D503A850A0C750D0074037875
:103F18000C12180085108285118312403012412D31
:103F2800601FE508450970A58C088D09888289837A
:103F380012310088828983A3A3E02EFAA3E03F8090
:103F4800BEE50AC39402500302402B7508007509A8
:103F580000EE4F6010EEFAEFFB1213258A0E8B0F5E
:103F6800EA450F7005790002402D750B00024000EC
:103F7800850B0C750D007403780C121800851082DF
:103F8800851183E0250CF50CA3E0350DF50DE50C46
:103F98002406F514E4350DF515851482F5831241D0
:103FA800326042E50C2404F512E4350DF513851250
:103FB80082F583121AADE50E2508FAE50F3509FBDF
:103FC8001212A77402121829851282851383E0251C
:103FD80008F508A3E03509F50985148285158312CB
:103FE800373512132BE50B600D7C087D007900AA8C
:103FF8000CAB0D1212BF050BE50BC3950A5003025B
:104008003F7885108285118312486388828983A34B
:10401800A3A3A3A3A3E50EF0A3E50F122C93EEF040
:10402800A3EFF07901023B9212403422E0250CF80C
:10403800A3E0350D229002EBE0F8E50AC39822745C
:10404800F01218838A0E8B0F8C0A8D0B750D007574
:104058000C0080507916EE2406F508E43FF5098E29
:10406800828F83A3A3121AAD8E828F83A3A3A3A3E7
:10407800121AAD850882850983121AAD850E8285CC
:104088000F83A3A31237351208E17406121829E921
:10409800F50D7416650D706C850882850983E4F04A
:1040A800A3F0050C9002EBE0F8E50CC3985066AA63
:1040B8000C8A0875090074037808121800850A82AA
:1040C800850B83A3A312417CE8FEE9FF8E828F83D0
:1040D8001241326040EA2401F508E43400F5099001
:1040E80002EBE065087002E509601488828983A301
:1040F800A3A3A3A3A3A3A3123764600302405C791C
:104108001802405EE9609B12485F741012185F1233
:104118004124123D8CA90D7F08021955E0FAA3E04D
:10412800F5838A8222F988828983124958EC4D22C4
:1041380074F61218837C0080010C900348E0F8ECB8
:10414800C398501E8C08750900740278081218006C
:10415800124171E06A7003A3E06B70DDE8FAE9FBD5
:1041680080047A007B000242149002E912417C88A4
:1041780082898322E02508F8A3E03509F92274F240
:104188001218838A088B09750A0080278E828F830C
:10419800A3A3A3A3122C8A600312132B7C087D000F
:1041A8007900EEFAEFFB1212BF8E828F83E4F0A340
:1041B800F0050A12403D5027850A0C750D0074035E
:1041C800780C121800850882850983A3A3E0250CC2
:1041D800FEA3E0350DFF8E828F8312376470AD85A4
:1041E800088285098374FFF0A3F002494C74F61223
:1041F80018831208758A828B83E582458370067A54
:10420800007B008007A3A3A3A31237357F020219FE
:104218005574F412188389088C828D83E0640270C7
:104228003C124802FEA3E0F9EEF8740268700374C9
:1042380029697029750A02750B00780A121A967492
:104248001012185F121AAD741012185F121AADA965
:10425800081211B77406121829E9F98002790102C7
:104268002CC774E812188374FB121813E985188296
:10427800851983F08A168B17ECFEEDFF7510008EFA
:10428800828F83A3A3A3E0A2E4502D741D12185FAC
:104298001237351208CF8A828B83E58245837003F3
:1042A8000246A1790AEEFCEFFDAA16AB1712188197
:1042B800E9F51060030246A4741F12185FE0F508C0
:1042C800A3E0F509742112185FE0F50AA3E0F50BE5
:1042D800742312185FE0F50EA3E0F50F8E828F832A
:1042E800E064026003024642A3124863850882859F
:1042F8000983A3858212858313EE2406F50CE43F17
:10430800F50D888289831246E1F514E439F51578AC
:1043180014121B200100002801284443070002282A
:1043280009440328774300293845012963450229B0
:104338000445032938450429DC454246E50E450F66
:10434800600302463D850C82850D83124863E8FAB6
:10435800E9FB8A828B83E0850A82850B831246EC0F
:10436800121A968A828B83A3E0FCA3E00245C6E575
:104378000E450F600302463D850A82850B83740152
:10438800F01246D6850882850983F07C007D008E70
:10439800828F83A3A3A3A3E02401FAA3E03400FB44
:1043A800120773EA4B60408A828B83E02402F88507
:1043B8000A82850B83E028F0EA2404F8E43BF988B4
:1043C800828983E08512828513831246FA1246ECAD
:1043D800121A968A828B83A31246C9E5082403FA27
:1043E800E43509FB0245CB850A82850B83E024046A
:1043F800F07C047D007900AA12AB131212BF0246AA
:10440800A4E50E450F600302463D1246D6FEA3E022
:10441800FF850A82850B837404F0EE85088285097E
:1044280083F0EF851282851383F07403121879EEF6
:10443800FAEFFB1207738A0C8B0DEA450D70030225
:1044480044E78A828B83A3A312310074011218698E
:10445800880E890F780E121A96740512185F121AB0
:10446800AD7CFF7DFF12077974041218298B0FEABF
:10447800450F7033850C82850D831246CD121A962E
:10448800850C82850D83A3121AAD7C027D007A0605
:104498007B821205757404121829E9700A740112D6
:1044A800185F74FFF0A3F08E828F83E06402703986
:1044B800750C02750D00780C121A968E828F83A3E4
:1044C8001246C9E5082404FAE43509FB1212A77458
:1044D80002121829850A82850B83E0240280097458
:1044E8000112185FEEF0A3EFF0740112185F124684
:1044F800BB740112185F1246B2024637E50E450F2B
:10450800600302463D850C82850D83124951AA1627
:10451800AB171211BD850A82850B837402F08508DA
:1045280082850983EAF0851282851383EB02463A75
:10453800E50E450F600302463D1246D6F8A3E0F9A2
:10454800850A82850B837402F0E8850882850983D1
:10455800F0E985128285138302463A850C82850D1F
:10456800831237351212A1EAFAF8C3950EE4950FB3
:10457800405CE8650E450F70047A0080218518823A
:10458800851983E0FCE50E2CFCE4350FFDC3EC989F
:10459800ED94005003E08005E50ECAC39AFAEA8557
:1045A8000A82850B83F08A0A750B00780A121A961C
:1045B800850C82850D83E0250EFCA3E0350FFDAA4E
:1045C80008AB091212A774021218290246A4751022
:1045D800070246A4E50E450F705B850C82850D83A6
:1045E800124863850A82850B837407F08882898361
:1045F8001246B31246ABE0851282851383F0E82495
:1046080002FAE439FB8A828B831246BB8A828B8347
:104618001246B2A3A3122C921246C0F0E82405F861
:10462800500109888289831246C0A31246FAA3A3BF
:10463800A3A3F0806775100B8062741D12185F12B7
:1046480037351208758A828B83E5824583604A1262
:104658004863880C890DE8450D603E742512185F83
:10466800E0F5107810121A9A780E121A96780A1233
:104678001A967808121A96740712185FE0F9EEFC79
:10468800EFFDAA16AB17850C82850D83121881746D
:1046980007121829E9F510800375100EA910740582
:1046A8000239F8F088828983A322A3E085088285ED
:1046B800098322124701F022124701A3A322900284
:1046C800EF12495822E0F50E750F00780E22850C7E
:1046D80082850D83123B9BE022E0FAA3E0F8E4C850
:1046E800F9EA2822F08A828B83E0F50A750B0078B4
:1046F8000A221246AB12470122E085088285098307
:10470800A3A32274EE12188374FE1218138A088B5E
:1047180009ECFEEDFF890AAC18AD19EEFAEFFB12B1
:1047280007738A0C8B0DEA450D70030247F3851851
:10473800828519831237351208758A828B83E58240
:10474800458370030247EEA3A3124863880E890FBE
:10475800E8450F70030247EE741412185FE0F51075
:10476800A3E0F511E50AF50B780B121A9A741912E1
:10477800185F121AAD7810121A96741B12185FE09F
:10478800F9AC0CAD0DAA08AB09850E82850F831212
:1047980018817405121829E9F50B705274FE650A20
:1047A800604C850C82850D83E064027041124802DA
:1047B800FAA3E0F9EAF87402687003742969702EA4
:1047C8008510828511831246E1F50CE439F50D78E0
:1047D8000C121A96EEFCEFFDAA08AB091208F97440
:1047E800021218298008750B0E8003750B01A90B9E
:1047F80074021218297F0A021955A3124867888281
:104808008983E02274F612188374FE121813740C4C
:1048180012185F124863E8851882851983F07401BD
:1048280012185FE9F0E4F508F5097808121A967588
:1048380008027808121A96740412186988088909F7
:104848007808121A9679FE1208E17406121829746B
:10485800021218290242148E828F8312486722E0BE
:10486800F8A3E0F92274F7121883EAFEEBFF89082F
:104878009003061246C91211BDEA5402600BA9083A
:10488800EEFAEFFB120767800279017F01021955E2
:1048980074F212188374FE121813EAFEEBFF890AE9
:1048A8007401650A60147402650A60030249477955
:1048B80001120B03E96003024947EEFAEFFB120805
:1048C800C3EA4B60031208C9A818A91988088909FE
:1048D8007808121A967508027509007808121A964F
:1048E8007508FE7509817808121A967CFF7DFF7A93
:1048F800017B0012076D740612182980388508821A
:10490800850983A3A3A3A3A3A3124951EEFAEFFB3E
:104918001211A5E4F50CF50D780C121A9674021212
:10492800185F121AAD7CFF7DFFAA08AB0912077940
:1049380074041218298A088B09E508450970BE74A1
:10494800021218297F06021955123B9B1249582258
:10495800E0FCA3E0FD2274F41218838A088B09ECAA
:10496800FEEDFF901603E0F4604B7A097B0012120B
:10497800CBEA4B60408A828B8374B1F0A3E412497E
:10498800C0F08A828B83A3A3E508F0A3E509124946
:10499800C0A3EEF0A3EFF0740C12185F1248638AFC
:1049A800828B83A3A3A3A3A3A3A3123D8C90160376
:1049B800E0F91212D7022CC7F08A828B83A3A3A333
:1049C800A32274F012188374FA1218138909ECFEE2
:1049D800EDFF7508008A0A8B0B780A121ADA0004B0
:1049E80010F04B0D4A2B4A454A5D4A7B4A934AB61A
:1049F8004ACE4AE24A0C4B874B984BAF4BCA4BF016
:104A08004BF04B224B740165096003024BEB8E821D
:104A18008F83E0F8C394034003024BEBE89016EF52
:104A2800024BC7740265096003024BEB8E828F83C9
:104A3800124C2C9016F0E8F0A3E9024BC7740165FC
:104A4800096003024BEB124C1D4003024BEBE8904C
:104A58000749024BC7740165096003024BEB8E825C
:104A68008F83E0F8C394054003024BEBE890074AB4
:104A7800024BC7740165096003024BEB124C1D40E1
:104A880003024BEBE890074B024BC77410650960B3
:104A980003024BEB750A10750B00780A121A967A06
:104AA8004C7B071212A77402121829024C117401C8
:104AB80065096003024BEB124C1D4003024BEBE807
:104AC80090075C024BC7740165096003024BEB8ECB
:104AD800828F83E09016F3024BC774046509600364
:104AE800024BEB8E828F83780C1216D79081DB787D
:104AF8000C12150A5003024BEB90075E780C121645
:104B0800E6024C11E96003024BEB12070DE9700550
:104B180012116980559007F1806174076509600377
:104B2800024BEB750A06750B00780A121A968E82EC
:104B38008F83A3AC82AD8374021218711212AD7404
:104B4800021218297C007D00AA18AB198E828F8367
:104B5800E0F9121115E9FEC3940A4003024C0E1243
:104B6800070DE9700CEEF912116F79501213EB80F2
:104B78006D74F22EF582E43407F583740180407475
:104B8800016509705E124C1D5059E890075D802F31
:104B980074016509704D8E828F83E0F8C3940A50C2
:104BA80042E89016F280187401650970368E828F7B
:104BB80083E0F874F928C3940A5028E89016F4F0B2
:104BC800804774016509701B9007F0E0F88E828FAA
:104BD80083E09007F0F0E87030E06401702B121168
:104BE8005D80267508188021C3EA9427EB9400504D
:104BF8001574026509700F8E828F831256F21205A2
:104C08008DE9F5088003750802A9087406121829A9
:104C18007F080219558E828F83E0F8C3940222A977
:104C280008024FCAE0F8A3E0F92274F0121883745E
:104C3800B11218138C0C8D0D9081507420121879B4
:104C480074061217267420121879121115E9F5083E
:104C5800745F12185FE0F50AE9C3940A4003024D35
:104C6800B075F006E9A4F50974411218797A0E7442
:104C7800202509F91213E5E97009744D12185FE04F
:104C8800FF80027F009016EFE064027005750E0148
:104C98008003750E007408650A700474228002741B
:104CA800212509F50F7C1B7D0079007426121871E7
:104CB8001212BFEFA2E0E433FE74261218797A1BB1
:104CC800A90F1213E5E97025744012185FE024F962
:104CD800C3940A5018780E121A9A7427121879EE8B
:104CE800F9AA0CAB0D12062F74011218297C147D39
:104CF800007900740C1218711212BF740C12187912
:104D08007A1074242509F91213E5E970307C1079BA
:104D1800FF740C12187112131FE97021741C1218F9
:104D28005FAC82AD837A0474252509F91213E57402
:104D38000C121879EEF9AA0CAB0D120617AC18ADC7
:104D4800197A0C74702508F91213E5E97049AA1844
:104D5800AB191211457E00EE75F003A4F8A9F08591
:104D68001882851983E58228F8E58312550B1256B7
:104D7800EC601D88828983A3A3E0F5087509007893
:104D880008121A96AA0CAB0D1208E7740212182919
:104D98000EEEC3940440C0EFA2E1500C900748E027
:104DA800F9AA0CAB0D1208ED7404650A7028901668
:104DB800EFE0640270207A0090075CE060027A01FC
:104DC800900749E06004780480027800E84AF9AA6C
:104DD8000CAB0D1206E37900744F024C1574F712F0
:104DE800188312070DE9704F9007F1E06401701500
:104DF8001211699007F1E4F07C0AFDF97AF27B0759
:104E08001212BF802A750800A80874F228FEE4343C
:104E180007FF8E828F83E06401700BA90812116F5F
:104E28008E828F83E4F00508E508C3940A40D97997
:104E3800501213EB12115D02582A74F01218837481
:104E4800F0121813EAFEEBFF8C088D09750A0AE9BF
:104E5800600C14600914603B14607D024F38121115
:104E680057E9F50AC3940A4003024F38E508450993
:104E78007003024F38750C06750D00780C121A96DF
:104E8800EEFCEFFDAA08AB091212A774021218294A
:104E9800024F38750C00750E06750F00780E121A41
:104EA80096EEFCEFFDE50C75F00EA4F8A9F0746A17
:104EB80028FA740739FB1212B97402121829E9701A
:104EC8000B050CE50CC3940A506680CA850C0AE5EC
:104ED8000AC3940A505A8049750C00AC18AD197A67
:104EE8001075F006E50CA42423F91213E5E9701CEB
:104EF8007C1079FFAA18AB1912131FE9700EEEFC8B
:104F0800EFFDAA18AB191205F3E9600B050CE50CC7
:104F1800C3940A501B80C4850C0AE50AC3940A503E
:104F28000FE50845096009AA08AB09A90A12115139
:104F3800A90A7410024C1574F412188389097508AB
:104F48001574FF6A700374FF6B70277E00AC097AD2
:104F5800027B00EEF9121133E960037508000EEECA
:104F6800C3940A40E8E50960537A817B11120B2744
:104F7800804A120AF78A0A8B0BAE0AAF0BEE4F6013
:104F8800387C007D00EE2405FAE43FFB8E828F8397
:104F9800A3A3A3A3E0F9121115E9F9C3940A500CCD
:104FA800AC097A027B00121133750800E509600C20
:104FB800EEFAEFFB1211818003750814024C2712D8
:104FC80018297F0402195574F2121883ECFEEDFFBC
:104FD800750815740E12185FE0F50AA3E0F50B7456
:104FE800FF6A700374FF6B7021750900AC0AAD0B82
:104FF800EEFAEFFBA909121139E9600375080005FB
:1050080009E509C3940A503F80E2120AF78A828BA5
:1050180083E5824583602D7C007D00E5822405FAC6
:10502800E43583FBA3A3A3A3E0F9121115E9F9C39F
:10503800940A5013AC0AAD0BEEFAEFFB1211397556
:1050480008008003750814A9080254D3C082C083DD
:10505800900762EAF0A3EBF0900748E0FC7D007A45
:10506800267B0012058D900748E0F9120851025B73
:105078004C74EF12188374EC121813EAFEEBFFEE6F
:10508800240CF50CE43FF50DEE2405F50EE43FF590
:105098000FEE2409F50AE43FF50BEE2403F508E4C6
:1050A8003FF5098E828F83A3A3E024FA700302538D
:1050B8004F24FD700302527114700302514F1460A3
:1050C8001024FD70030252451470030252A80253C3
:1050D80055125E676049E0F5838882124C2C880E71
:1050E800890FE8450F6038850C82850D83E0F50C43
:1050F800780C121A9AEE240BF582E43FF583E0F956
:10510800850A82850B831256F20A0A0AAB09850EB4
:1051180082850F831218817401121829025355854C
:105128000A82850B83121AAD90075E1216F51206D5
:10513800297402121829E970030253557901850A66
:1051480082850B8302531F7510008E828F83A3857F
:10515800820A85830BE06003025212850E82850F56
:1051680083E0A2E040030252129007FC125E6A60DC
:10517800030252127C0E7D007900AA18AB19121294
:10518800BF850C82850D83125B17EA4B6010750C86
:1051980006750D00780C121A96EA2410801B125B13
:1051A80011120AF7EA4B7003025355750C06750D78
:1051B80000780C121A96EA2405FCE43BFD740212EE
:1051C80018711212A77402121829850E82850F838E
:1051D800E0A2E25004D2F08002C2F0A2F0E433F878
:1051E800740C12185FE048F0EEFCEFFDAA18AB193A
:1051F80012114BE970117A027B00900748E0F9120E
:1052080012FB7900025357751015125E677003027E
:105218005355125ADB7003025355850A82850B8356
:10522800E0FC7901125361121881E51070030253F2
:1052380055FC7903125B11125AC102534A125E6778
:105248007003025355125AEE124C2C890BE8450B89
:1052580070030253558E828F83A3E0FC7902125BA0
:10526800118882850B8302534A7C007D00EE24045A
:10527800FAE43FFB850882850983E0F9121115E9F4
:10528800F8C3940A4003025355EE240AFCE43FFD98
:105298007A0475F006E8A42425F91213DF025355A1
:1052A800125B1190075DE060079016F2E0F9806AE2
:1052B8009016EFE0700479058060120AF78A0C8B6B
:1052C8000DA80CA90DE8497003025355E82404F50C
:1052D8000CE439F50D8E828F83A3A3A3A3A3A3A304
:1052E800E0A2E0503A850C82850D83E0FE603085AF
:1052F8000A82850B83A3E054027024740E12187975
:10530800E82405FAE439FBEEF9121115E970107971
:1053180003850882850983125B17120623802EAC49
:105328000EAD0F850C82850D83E0F9125B11121109
:105338008D125E676017125ADB60127C00790012CA
:1053480053611218818006125B1112110F790174D2
:10535800141218297F09021955850882850983E0E6
:10536800FAA3E0FB8E828F832274F512188374F2FD
:10537800121813EAFE8C0A75F006E9A42420F50831
:10538800AC18AD197A0EF91213E5E970467C067966
:10539800FFAA18AB1912131FE97038740C12185FA2
:1053A800125B17EAF8E50A6005EEC8488004EEF4D7
:1053B800C858F8EA687001EB6015740C12185FE8B9
:1053C800F0A3E4F0AC18AD197A0EA9081213DF792E
:1053D8000180027900740E1218297F03021955748E
:1053E800F212188374E6121813890A8A088B09ECDA
:1053F800FEEDFF740C1218797A0E75F006E9A424F4
:1054080020F91213E5E960030254CC7C0679FF7495
:105418000C12187112131FE960030254CC74702522
:105428000AF50BAC18AD197A0CF91213E5E960030B
:105438000254C8AA18AB19121145E5084509701D90
:105448007C0C7900AA18AB1912131FE970727C0C36
:105458007D007900AA18AB191212BF8051AC18ADA3
:1054680019AA08AB0912113F8A0C8B0DA80CA90DBB
:10547800E8497022EE4F604CAC18AD197A007B00F9
:1054880012113FEAF8EBF9EA4B603988828983E523
:1054980008F0A3E509F0125547FAEE6A7001EF60CB
:1054A8001FEEF04F700888828983E4F0A3F0AA18F1
:1054B800AB19121145AC18AD197A0CA90B1213DFF0
:1054C800790180027900741A1218297F0602195589
:1054D80074F71218837E00EE75F003A4F8A9F0ECB7
:1054E80028F8ED12550BE06A7003A3E06B7006E82C
:1054F800FAE9FB800B0EEEC3940440DB7A007B00D4
:1055080002582A39F9888289832274F71218837C11
:1055180000EC75F003A4F8A9F0EA28F8EB12550B93
:10552800E0F4FEA3E0F4FF88828983EEF0A3EFF0B5
:10553800125547F4F00CECC3940440D502582AE8FD
:105548002402F582E439F583E02274F41218837496
:10555800F4121813EAFEEBFF8C088D099007FC1271
:105568005E6A704FEE4F70030256CBEC450970032C
:105578000256CB121157E99016F5F0C3940A40333E
:10558800750B007C0679FFE50B75F00EA4FAABF0FD
:1055980074642AFA74073BFB12131FE9600302566E
:1055A8002C050BE50BC3940A40D9750A0AE50A9045
:1055B80016F5F09016F5E0C3940A40030256CB7531
:1055C800F006E0A4FB9007FC125E6A705CEEFCEF4C
:1055D800FD7A0E74202BF91213DF7C0C7D0079FF05
:1055E800AA18AB191212BFAC18AD197A0C9016F59F
:1055F800E02470F91213DF750A0E750B00780A1291
:105608001A96EEFCEFFD9016F5E012578A1212A7D3
:1056180074021218299007FCE508F0A3E509F0794F
:10562800000256CD850B0A8084E0C824061256E68F
:1056380060197A1B74212BF91213DF1256D2240633
:10564800F582E438F583E4F0A380D31256D2240A15
:105658001256E660107A1B74222BF91213DF1256C9
:10566800D2240A80DB1256D2240C1256E660107A35
:105678001074232BF91213DF1256D2240C80C11296
:1056880056DB1256E660307A1074242BF91213DFB9
:105698001256DBF582E438F583E02410FCA3E034ED
:1056A80000FD7A0475F0069016F5E0A42425F91299
:1056B80013DF1256DB80899007F0E0600312119324
:1056C8001211877901740C024FC79007FCE0F8A308
:1056D800E0C8229007FCE0F8A3E0C8240822F5827D
:1056E800E438F5831256F2EC4D22E0FCA3E0FD22EB
:1056F80074F412188374F2121813EAFEEBFFE9C36C
:10570800940A5004EE4F700479028034AC18AD1935
:105718007A0E75F006E9A42420F91213E5E9F508D4
:10572800701C750A06750B00780A121A9674021214
:105738001879EEFAEFFB1212A77402121829A908B9
:10574800740E024FC774F4121883EAFEEBFF750853
:1057580000750A06750B00780A121A96EEFCEFFD22
:10576800E50812578A1212B97402121829E960045E
:10577800A908800B0508E508C3940A40D4790A02F1
:105788004FCA75F00EA4F8A9F0746428FA740739A2
:10579800FB2274F7121883750800E50875F00EA44B
:1057A800F8A9F0746428FE740739FFEEFCEFFD7A5F
:1057B8000E75F006E508A42420F91213E5E960291E
:1057C8007C067D0079FFEEFAEFFB1212BF7C067DA6
:1057D8000079FFEE2CFAE43FFB1212BFEE240CF521
:1057E80082E43FF583E4F0A3F00508E508C3940AD2
:1057F80040A89007F0E060031211931211878022ED
:1058080074F71218837E007F007C06EF12578A74A3
:10581800FFF912131FE970010E0FEFC3940A40E954
:10582800EEF97F0102195574F71218837E00EEF91C
:1058380012116FE9F90EEEC3940A5003E960EF8084
:10584800E174F312188374CB12181389089016F5B3
:10585800E06508701B7A017B00900748E0F9121395
:10586800017A027B00900748E0F912130112119F98
:1058780075F006E508A4FF74202FFE742712187926
:105888007A0EEEF91213E5E960030259517C0679A4
:10589800FF742712187112131FE960030259517C13
:1058A8000E7D0079FF74271218711212BF7C1B7DC0
:1058B8000079FF740C1218711212BF7C0C7D0079EC
:1058C800FFAA18AB191212BF74271218797A0EEEB4
:1058D800F91213DFE9FE740C1218797A1B74212F60
:1058E800F91213DFE9F509740C1218797A1B74227E
:1058F8002FF91213DFE9F50A740C1218797A10746B
:10590800232FF91213DFE9F50B740C1218797A10AA
:1059180074242FF91213DFE9F50C740C1218797A34
:105928000474252FF91213DFE9FFAC18AD197A0CAE
:1059380074702508F91213DFE9F8E509450A450BE3
:10594800450C4F48CE4EFE80027E00EEF9743512AB
:1059580018297F0502195574F7121883E99007482A
:10596800F012115D02582A74F4121883EAFEEBFF54
:1059780054807003025A32900748E0F91212E38A01
:10598800088B09EA45097003025A2B7A01E50824B5
:1059980004F8E43509F9880A890B8508828B83E0C5
:1059A8002450604014600624E16067806C88828916
:1059B80083E070688508828B83A3A3A3A3A3A3A312
:1059C800121AAD8508828B83A3A3A3A3A31256F250
:1059D8008508828B83A3A3125B171211217402120C
:1059E8001829803888828983E0641E700F790085C1
:1059F80008828B83A3A3125B1712111B850A828569
:105A08000B83E0F9E5082405FAE43509FB12084B95
:105A1800800AAA0812112DE9FAEA6007AA08AB0958
:105A28001212D1EEFAEF6480802AEE54026028EE5A
:105A38006402FE7C007D007A007B0012114BE96055
:105A4800047A0180027A027B00900748E0F912127A
:105A5800FBEEFAEFFB805FEEA2E0504C6401F50824
:105A6800EFF509125ACF121199E9602A125E6760A0
:105A780020125ADB601B7C007901125ACF8E828F6C
:105A8800831218817C007903125ACF125AC1121856
:105A98008112119F800C7A017B00900748E0F9126F
:105AA80012FBAA08AB09800E54046006EE6404FADF
:105AB80080047A007B00024FCA900762E0F8A312C4
:105AC8005AE6F5838882229007FC125E57E0FAA313
:105AD800E0FB22125AE6F9E8FEE9FFEE4F22125ADD
:105AE800EEE0F8A3E022E0F5838882A3A3227F02F8
:105AF800021955C082C083900748E0F98A828B83D7
:105B0800A3125B171208ED803B850882850983E0A4
:105B1800FAA3E0FB22C082C08374FF12181312118B
:105B280063E9C3940285188285198340047402804E
:105B380002740AF0AC18AD197A01790512072B74B2
