:020000040000FA
:06000000020107022901C4
:03002B00022D2B78
:03003B00022D5142
:03004300022D0586
:0300530002297708
:10008300022757E5C754F84401F5C7790122000058
:100093000080FB120086B900030200F1E4792178A5
:1000A30008B800028004F709D8FCE479297802B87B
:1000B30000028004F709D8FCE49002817822791ABF
:1000C3008002F0A3D8FCD9FA7AA27B1B900137787F
:1000D3003179028015E493A3AD82AE838A828B8348
:1000E300F0A3AA82AB838D828E83D8E9D9E7758288
:1000F3000B7583DF74041201197582917583007483
:100103000012011975D00075813F751881751902A8
:10011300759F00020096C09FF59FE473D09F22D085
:1001230083D082C09FE493C0E0740193C0E0740263
:1001330093F59F22590465049B049504FF0000B4C2
:10014300000028002800283075A000A000A000A00F
:100153000000080008E001F000100010001000107B
:10016300001000100050005000500010001000D08C
:10017300070000000000000F0001000500307507B4
:10018300001000010081FF00000000FFFFFFF705E2
:100193001506FD055706FF02020208025000A000E3
:1001A3000000E8030252830100004183025A8301E5
:1001B3000000051C025C83010000C802025A83018F
:1001C3000000061C025883010000DE02025A83016C
:1001D3000000071C024C83010000E002025A830165
:1001E3000000081C024483080000E102025A830154
:1001F3000000091C0246830100000A1CFFFF0100E6
:10020300FF200252830100003E83025A8301000053
:100213006F1C0248830000000000024A83030000B1
:1002230011031700191119111911191119111911A4
:100233001911191119111911191119111911591329
:10024300771353139D14AF149714544920424C450C
:1002530020416C6C00000000000000000000001151
:1002630000FFFF0012012225C00412012238C0043E
:1002730012012292C004120122B3C0041201221EF1
:10028300C1041201225FC10412012280C1041201C0
:1002930022A1C104120122F1C10412012232C204BB
:1002A300120122CAC20412012212C3041201223D06
:1002B300C304120122D0B804120122E3B8041201CC
:1002C3002214B9041201224EB904120122A7B9045F
:1002D300120122EEB90412012236BA041201226578
:1002E300BA0412012294BA04120122CBBA041201F5
:1002F3002212BB041201222BBB0412012280BB0475
:1003030012012299BB04120122E7BB04120122212C
:10031300BC04120122F5F302120122F8F4021201C5
:100323002225F5021201226AF50212012276F50254
:1003330012012299F5021201229BF502120122D029
:10034300F502120122D3F50212012211F602120163
:100353002247F602120122DEF6021201224AF702B6
:1003630012012212F8021201222EF8021201226552
:10037300F8021201229FF80212012236F902120139
:100383002288F902120122B9F902120122BCF902F0
:10039300120122EDF902120122FAF90212012212CC
:1003A300FA021201227CFA021201227FFA021201DE
:1003B300228CFA021201228FFA02120122E6FA02B9
:1003C300120122E9FA021201220CFB021201221F7E
:1003D300FB0212012258FB021201225BFB021201F3
:1003E3002270FB0212012273FB02120122D5FB02CF
:1003F300120122D8FB021201222CFC021201222F2D
:10040300FC02120122C2FC02120122D2FC021201DE
:100413002205FD0212012212FD0212012215FD0224
:100423001201227DFD021201228AFD021201228C99
:10043300FE0212012230FF0212012299FF02120171
:1004430022D7FF0212012238D80312012230D90326
:1004530012012264D903120122FAD903120122459F
:10046300DA03120122A9DA0312012233DB03120198
:1004730022ECDB031201220EDF031201228BE003C5
:10048300120122AEE00312012275AC041201221AFA
:10049300AE041201223AAE041201225BAF04120130
:1004A30022AEAF04120122A08504120122C88504E2
:1004B300120122F585041201222D86041201228BDA
:1004C3008604120122E987041201223588041201ED
:1004D300229C8804120122DC880412012219890457
:1004E300120122478904120122F18904120122FB1D
:1004F3008904120122088A041201223B8A04120190
:1005030022478A041201225F8A04120122698A04A3
:100513001201229EDC04120122ACDC04120122C46B
:10052300DC04120122DCDC04120122F3DC041201DC
:100533002239EC01120122E3EC01120122F6ED0152
:1005430012012272EE0112012290EF01120122CC5C
:10055300EF0112012261F001120122FCF0011201EC
:1005630022E0F101120122A3F2011201221BF30185
:10057300120122A9F4011201221AF501120122D457
:10058300F501120122C6F60112012206F70112013A
:1005930022BAF701120122ECF701120122E2F9015A
:1005A30012012229FA0112012247FA01120122AD96
:1005B300FA011201227CFB0112012240FC0112010B
:1005C300225FFE0112012269FE01120122C2AF0362
:1005D300120122ACB00312012257B103120122A16E
:1005E300B1031201223EB20312012257B2031201D8
:1005F3002271B20312012221B30312012292B30327
:1006030012012277B403120122ABB403120122A414
:10061300B503120122E1B503120122A2B6031201AE
:100623002206B70312012270B703120122A2B703F5
:100633001201220AB80312012294B903120122D330
:10064300B903120122EFB9031201225BD60412018E
:1006530022DFD6041201220AD70412012224D8046D
:10066300120122DEB404120122F4B4041201221294
:10067300B50412012223B6041201222DB60412017D
:100683002258B7041201224FB804120122BCB80445
:10069300120122C6B804120122008004120122367C
:1006A30081041201226D8104120122C4810412010A
:1006B30022D9830412012284D00112012235D101EF
:1006C30012012245D101120122A1D10112012237C7
:1006D300D201120122F8D2011201222DD3011201FB
:1006E3002262D30112012279D301120122F2D30132
:1006F300120122FCD3011201220ED4011201224263
:10070300D4011201229FD401120122F2D401120159
:100713002247D50112012252D5011201225DD501D2
:1007230012012278D6011201227BD6011201227E08
:10073300D60112012281D60112012284D6011201AF
:10074300225AD70112012237D80112012294D8016B
:10075300120122F1D8011201226CD9011201227A6D
:10076300DA0112012231DB011201223FDE01120103
:10077300222EE001120122E0E001120122A9E1018F
:10078300120122EEE40112012298E501120122C1B5
:10079300E6011201227DE8011201221DE901120185
:1007A3002270E901120122AFE90112012282EA015A
:1007B300120122B6EA0112012243EB01120122487F
:1007C300AA02120122D4AA0212012238AC02120197
:1007D3002244AC021201227FAC02120122F6AC02C7
:1007E300120122FFAD02120122C6AE021201222320
:1007F300B00212012241B0021201225EB0021201C4
:10080300220BB10212012288B102120122B0B102FD
:100813001201227AB4021201227FB4021201229839
:10082300B602120122E6B60212012256B7021201E3
:100833002294B70212012270B80212012230B902C7
:100843001201227CB9021201227FB902120122C3D2
:10085300B9021201220BBA021201224ABA02120190
:10086300226CBA02120122A0BA0212012203BB02B5
:100873001201224795041201225095041201225EAF
:100883009504120122B19504120122D0950412019C
:1008930022159604120122599704120122F4970497
:1008A300120122389804120122629804120122D103
:1008B30098041201221799041201228E990412013D
:1008C300223F9A04120122ECB001120122FCB00172
:1008D3001201229DB101120122F9B101120122B6C6
:1008E300B201120122D2B30112012204B401120196
:1008F3002233B401120122E0B50112012257B801DB
:10090300120122C7BA01120122B9BB01120122B29C
:10091300BC01120122B9BE01120122ADC1011201B3
:1009230022DCC201120122E0C401120122F0C5013E
:100933001201227FC70112012270C801120122BED7
:10094300C8011201222DC90112012251C90112014C
:1009530022A2C90112012243CE0112012252CF0168
:1009630012012218D001120122DBBB02120122E57F
:10097300BB021201222ABC021201223EBC02120156
:100983002276BC02120122BFBC0212012200BD0268
:1009930012012243BD021201226DBD02120122F691
:1009A300BD02120122A1BE02120122D0BE02120117
:1009B3002209BF0212012244BF0212012279BF029F
:1009C300120122A3BF02120122CCBF021201221A7A
:1009D300C0021201222FC00212012244C0021201DE
:1009E3002259C00212012281C002120122C4C00294
:1009F300120122D9C00212012244C102120122585B
:100A0300C10212012277C1021201228BC10212011B
:100A130022A0C102120122B5C102120122C9C102E0
:100A23001201220DC20212012263C2021201229D8F
:100A3300C202120122C1C202120122EDC20212013C
:100A4300221BC30212012245C3021201225AC3020E
:100A53001201226FC3021201229FC302120122E973
:100A6300C3021201224BC40212012286C4021201E4
:100A730022B1C402120122DCC40212012247C502C0
:100A830012012284C502120122AFC502120122DF24
:100A9300C50212012216C60212012240C602120129
:100AA3002278C602120122A2C602120122DFC60266
:100AB30012012209C70212012239C702120122635D
:100AC300C7021201228DC702120122B8C702120106
:100AD30022E1C70212012232C80212012278C8029F
:100AE300120122A3C80212012203C9021201222EFB
:100AF300C9021201225EC902120122A1C902120116
:100B030022CBC902120122F0C90212012277CA02C2
:100B1300120122BCDF0412012273FE011201220022
:100B23008003120122E380031201225E810312017A
:100B330022998103120122EA8203120122738303A1
:100B43001201228B85031201221D8803120122CF79
:100B53008803120122DB89031201224E8B03120147
:100B630022A78B03120122508C031201222490042A
:100B7300120122679004120122EB9004120122BE9B
:100B83009104120122959404120122B7A3041201C5
:100B93002264A40412012298A404120122AEA40424
:100BA300120122A1A504120122F3A5041201222A93
:100BB300A60412012269A604120122C3A60412018B
:100BC30022F0A6041201222CA7041201227EA704FC
:100BD300120122BFA704120122F0A7041201223C32
:100BE300D2041201229FD2041201223CD304120127
:100BF300225DD3041201229FD304120122CFD30416
:100C0300120122F0D3041201222BD4041201224B2D
:100C1300D404120122519A04120122DD9A04120112
:100C2300229C9B04120122B49C04120122CE9E0436
:100C3300120122888C03120122AD8C031201227A45
:100C43008D031201224E8E03120122BB8E03120169
:100C530022118F03120122AD8F03120122E19003AF
:100C6300120122BC91031201221B9203120122A73B
:100C73009203120122159303120122A1930312017D
:100C830022A49303120122C09303120122C39303EC
:100C9300120122E59303120122849403120122F626
:100CA300940312012288950312012229960312014B
:100CB30022499603120122919603120122DA960326
:100CC300120122F696031201221C970312012296A7
:100CD3009703120122A497031201223398031201EE
:100CE300229C980312012229A804120122AEA8040F
:100CF300120122F0A804120122D4A90412012241F4
:100D0300AA0412012285AA04120122C9AA0412010B
:100D130022F6AA041201221EAB0412012256AB04CE
:100D230012012294AB04120122BBAB04120122353F
:100D3300AC041201225F83011201225885011201C2
:100D430022458801120122998801120122C48801D7
:100D53001201229D8901120122D889011201220860
:100D63008A011201221B8A011201225C8A011201EB
:100D7300229E8A01120122AD8A01120122DA8A011E
:100D8300120122288B01120122578B01120122C763
:100D93008B01120122F58B01120122278C01120112
:100DA300224A8C01120122E98C01120122208D01B9
:100DB300120122A38D01120122028E011201228748
:100DC3008E011201221E910112012254920112017D
:100DD30022C19201120122399301120122219501AC
:100DE3001201225D9501120122DB9601120122FC00
:100DF30096011201224197011201224A9801120120
:100E030022349A01120122B79A01120122269B0170
:100E130012012262A001120122BAA0011201229042
:100E2300A2011201228DA30112012252A501120176
:100E33002290A50112012292A50112012294A5017B
:100E430012012299A5011201229BA501120122463A
:100E5300A60112012214A7011201223CA7011201CB
:100E63002267A70112012292A701120122BFA70143
:100E7300120122E4A70112012203A8011201223068
:100E8300A801120122A6A80112012220A901120120
:100E93002268A9011201228AA90112012295AA013D
:100EA3001201225BAB011201228CAB01120122EB76
:100EB300AB011201220BAC0112012218AD01120188
:100EC3002241AD01120122E7AD0112012271AE01EF
:100ED3001201229CAE01120122E2AE011201221B79
:100EE300AF011201223DAF011201226AAF011201CB
:100EF30022B8B001120122C9B001120122CBCF04E2
:100F0300120122B6D004120122F9D00412012248A0
:100F1300D10412012299D104120122EAD10412014F
:100F23002299CE0312012212CF03120122CCD40341
:100F3300120122D7D50312012280D7031201220EF8
:100F4300D8031201229560001201221661001201DA
:100F5300224361001201228861001201229A61007A
:100F63001201229B6200120122E062001201220C94
:100F730063001201223D6300120122B964001201D1
:100F8300223B65001201228A6500120122F56500E9
:100F9300120122A96600120122466700120122C132
:100FA30067001201224B68001201229E68001201A1
:100FB30022E66900120122656B00120122306C00E7
:100FC3001201223D6C001201228D6C001201229D40
:100FD3006C00120122C16C00120122C46C001201C8
:100FE30022AD6D001201228F6E00120122316F00BB
:100FF300120122CC6F00120122F36F001201225062
:101003007000120122A77000120122F57000120174
:1010130022437100120122AC71001201224C7200B2
:10102300120122E87200120122757300120122EAF2
:1010330073001201223A7400120122997400120102
:1010430022C074001201227A7500120122BD7500BC
:10105300120122AE7700120122F777001201222932
:101063007800120122A078001201222A7A001201CC
:1010730022DE7A00120122037B00120122427B004E
:10108300120122577B001201229A7B001201220ACD
:101093007C001201224B7C00120122607D001201B0
:1010A30022E17D00120122A8C403120122F3C4032A
:1010B300120122FFC403120122D3C503120122EA43
:1010C300C50312012227C60312012258C6031201C7
:1010D3002289C603120122C1C60312012217C703C4
:1010E3001201222DC70312012269C7031201227CB8
:1010F300C703120122A3C703120122D7C703120198
:1011030022FDC80312012247CA0312012243CB0363
:1011130012012260CC03120122FA7F00120122F78E
:101123008A04120122A58E04120122D98F0412010E
:1011330022BF9803120122829B03120122889B0380
:10114300120122459E031201229FA00312012205D0
:101153009F041201229C9F041201225AA00412012F
:101163002284A004120122BAA204120122008002E6
:101173001201223B8002120122808C02120122EC16
:101183008D02120122E98E021201226E92021201D5
:1011930022589302120122A49302120122BE930247
:1011A300120122FB93021201220694021201220F62
:1011B3009402120122BF94021201228F950212019E
:1011C30022D695021201223C9602120122AE960209
:1011D300120122219802120122699B021201226F3D
:1011E3009B02120122C2A202120122CFA602120105
:1011F300220DCA04120122EACA041201222ECB04D0
:1012030012012268CB0412012200CC041201226FC6
:10121300CC0412012278CC0412012284CC041201E2
:10122300229ECC04120122C8CC04120122F8CC0461
:1012330012012286F10312012293F103120122AD5E
:10124300F103120122E0F1031201221EF203120143
:101253002283F20312012298F203120122A3F20362
:10126300120122B0F203120122C7F203120122D5A6
:10127300F203120122E4F203120122F9F203120132
:10128300220EF30312012219F30312012225F303A1
:1012930012012232F30312012241F3031201224C01
:1012A300F30312012271F30312012276F3031201F5
:1012B300220DF40312012275F40312012285F403B3
:1012C3001201229AF403120122AFF403120122C97C
:1012D300F403120122E6F40312012203F5031201BF
:1012E300220EF503120122BAF5031201229BF60323
:1012F300120122B7F603120122CEF603120122D9FC
:10130300F603120122EEF60312012202F703120181
:101313002263F70312012269F7031201226FF70315
:1013230012012275F70312012289F703120122B079
:10133300F703120122EBF70312012204F80312014F
:101343002246F80312012279F80312012250BA034C
:1013530012012272BA031201223ABB03120122F4D0
:10136300BD031201220ABF031201222BC003120183
:101373002205C103120122B4C1031201223BD90287
:10138300120122D2D9021201226ADA021201225A6E
:10139300DB0212012291DB02120122A4DB02120101
:1013A3002212DC02120122ADDD02120122D4DD027F
:1013B30012012276DE02120122ABDE02120122BCEE
:1013C300DE0212012235DF0212012256DF02120170
:1013D300226EDF02120122C6E002120122CFE202D4
:1013E3001201221FE50212012222E60212012271DA
:1013F300E6021201229FCA021201229CCB021201B1
:101403002287CC0212012291CC021201229BCC0230
:10141300120122BDCC02120122C9CC021201221BED
:10142300CE021201224ACE021201227ACF02120107
:1014330022BCCF02120122E8D002120122BED10245
:1014430012012210D2021201226FD202120122A62D
:10145300D202120122E1D2021201227CD60212012F
:101463002295D60212012217D70212012225D70292
:101473001201227AD70212012288D702120122F521
:10148300D70212012267D802120122ADD80212013B
:1014930022B2A403120122D4A403120122BEA60382
:1014A30012012263AA03120122A6AB0312012280B6
:1014B300AC0312012253D80412012278D80412017A
:1014C30022E9D804120122D1E103120122DAE10355
:1014D300120122E3E10312012214E3031201223376
:1014E300E50312012269E503120122A3E5031201B8
:1014F30022D9E50312012213E60312012247E60370
:1015030012012273E603120122BCE603120122F642
:10151300E6031201223EE70312012294E7031201BC
:1015230022C9E70312012224E8031201225EE80321
:10153300120122AFE803120122E5E8031201221F80
:10154300E9031201224DE90312012270E90312019A
:1015530022BEE602120122F1E60212012234E70260
:101563001201223FE7021201224AE7021201225529
:10157300E70212012260E702120122CAEA02120103
:1015830022A9EB0212012222EC0212012299EC029F
:10159300120122A6EC02120122B3EC02120122BDB7
:1015A300EC02120122C7EC02120122D1EC02120159
:1015B30022DEEC02120122EEEC0212012234ED02D1
:1015C30012012258ED0212012265ED021201227569
:1015D300ED021201227FED0212012289ED021201B6
:1015E3002293ED02120122A0ED02120122AAED02C2
:1015F300120122B4ED02120122BEED02120122C831
:10160300ED0212012210EE021201222DEE0212014E
:10161300224AEE021201225AEE0212012264EE0263
:10162300120122BFEE02120122CCEE021201228E1F
:10163300EF0212012298EF02120122A2EF0212011D
:1016430022ACEF02120122C9EF02120122E6EF02DD
:101653001201225DF00212012267F00212012274CC
:10166300F00212012281F002120122A2F002120101
:1016730022ABF002120122F0F002120122FEF0026C
:1016830012012220F10212012229F1021201223851
:10169300F10212012250F10212012259F102120148
:1016A30022E7F102120122FFF1021201220FF202DC
:1016B3001201221FF20212012229F202120122391F
:1016C300F20212012249F20212012268F20212010D
:1016D3002275F20212012282F20212012292F20216
:1016E3001201229FF202120122BCF202120122CC49
:1016F300F202120122DCF202120122ECF2021201C6
:10170300221DF30212012227F30212012237F302F0
:1017130012012247F30212012254F3021201227929
:10172300F30212012286F30212012296F30212013E
:1017330022A0F302120122ADF302120122B7F30237
:10174300120122C7F302120122D1F302120122DB9A
:10175300F302120122EBF30212012287FF011201AD
:1017630022177E001201227B7E001201222A7F00B3
:10177300120122497F001201229D7F00120122865D
:10178300E004120122ADFF03120122ECFF03120158
:1017930022E47F001201221BDE041201222BDE044D
:1017A30012012243DE041201228CDE04120122AA5A
:1017B300FE031201222EFF0312012294FF031201E2
:1017C30022F77F0012012226CD041201223BCD0411
:1017D3001201223FCE04120122B3CE04120122CD04
:1017E300CE04120122E4CE04120122F7CE04120128
:1017F300220FCF0412012224CF0412012245CF0469
:1018030012012296CF0412012289BC04120122A0E4
:10181300BC0412012219BD04120122EEBD041201FF
:1018230022C0BF04120122E1C60412012271C704BF
:10183300120122EFC7041201226FC8041201220110
:10184300C90412012253C9041201225DC904120101
:10185300226CC90412012282C90412012295C9040F
:10186300120122F6C9041201220ACA04120122C477
:101873002D001201225A2E00120122152F001201EF
:1018830022352F00120122703000120122C33100D1
:101893001201227332001201227B3C0012012273D7
:1018A3004400120122B74D00120122214F00120100
:1018B30022C25900120122615A00120122C75B00A1
:1018C300120122395F00120122F75F001201223256
:1018D30060001201224E600012012264DF04120133
:1018E3002283DD04120122EEDD04120122F9DD045C
:1018F30012012209DE0412012214DE041201221055
:10190300E00412012239E004120122FBF803120160
:101913002205F90312012245F9031201228EF9036C
:10192300120122C8F9031201221EFA031201223DF9
:10193300FA0312012246FA0312012297FA03120153
:1019430022C0FA03120122D5FA03120122DEFA039E
:101953001201224EFB03120122DCFB03120122209F
:10196300FC0312012248FC03120122C7FC031201EB
:10197300220AFD0312012247FD0312012266FD0321
:101983001201226FFD0312012234FE031201227E93
:10199300FE0312012209DA041201225ADA041201A7
:1019A30022E3DA0412012249DB0412012286C30472
:1019B300120122B0C304120122AAC404120122CFCD
:1019C300C40412012270C504120122F6C5041201D7
:1019D30022A7DB0412012267DF0412012259D40477
:1019E3001201228FD404120122C8D404120122212D
:1019F300D60412012295DE04120122ABDE04120189
:101A030022B5DE04120122FEE903120122BBEA031E
:101A1300120122F6EA031201221EEB0312012280B5
:101A2300EB03120122CCEB031201222CEC03120173
:101A330022BDEC03120122B9ED0312012246EF038A
:101A4300120122C9EF031201222DF00312012244D5
:101A5300F0031201223AF103120122BBB004120176
:101A630022D0B00412012283B104120122C3B104B3
:101A7300120122DCB1041201220FB2041201225C12
:101A8300B20412012290B204120122D2B204120152
:101A930022D1B4041201223CE00412012268E004C2
:101AA300E066701008A3E066700A08A3E06670049D
:101AB30008A3E06622C3E7960809E7960809E796B4
:101AC3000809E79622C3E09608A3E09608A3E096E8
:101AD30008A3E09622C008C3E096F50808A3E096A1
:101AE300420808A3E096420808A3E096450870015F
:101AF300D3D00822080808EAC0E0EBC0E086F0E78C
:101B0300A4FA180986F0E7A42AFA180986F0E7A4CC
:101B13002AFA180986F0E7A42AFA1986F0E7A4FB43
:101B2300E5F02AFA190886F0E7A42BFBE5F03AFA68
:101B3300190886F0E7A42BFBE5F03AFA1818098692
:101B4300F0E7A4C5F02BFBE43AFA1908E7C5F0C6A1
:101B5300A426F6E5F03BFBE43AFA1886F0E7A4F690
:101B6300E5F00826F6E43B08F6E43A08F6D0E0FB95
:101B7300D0E0FA22E4CFC0E0E4CEC0E0E4CDC0E0A0
:101B8300E4CCC0E075F020E626F608E633F608E676
:101B930033F608E633F6181818EC33FCED33FDEE94
:101BA30033FEEF33FFC3EC9709ED9709EE9709EF87
:101BB30097191919400FFFEC97FC09ED97FD09EEF2
:101BC30097FE191906D5F0BFECF709EDF709EEF703
:101BD30009EFF7191919D0E0FCD0E0FDD0E0FED0F1
:101BE300E0FF226016080808C6C313C618C613C64A
:101BF30018C613C618C613C6D5E0EA22700908082A
:101C030008226016181818C6C333C608C633C60898
:101C1300C633C608C633C6D5E0EA22E627F6080966
:101C2300E637F60809E637F60809E637F622E0262E
:101C3300F608A3E036F608A3E036F608A3E036F686
:101C430022E026F008A3E036F008A3E036F008A36C
:101C5300E036F022C3E697F60809E697F60809E6A8
:101C630097F60809E697F622C3E096F008A3E096F4
:101C7300F008A3E096F008A3E096F022E657F608F2
:101C830009E657F60809E657F60809E657F622E08B
:101C930056F608A3E056F608A3E056F608A3E05666
:101CA300F622E056F008A3E056F008A3E056F00849
:101CB300A3E056F022E046F608A3E046F608A3E0C8
:101CC30046F608A3E046F622E066F608A3E066F6C9
:101CD30008A3E066F608A3E066F622E0F608A3E0B0
:101CE300F608A3E0F608A3E0F622E6F008A3E6F080
:101CF30008A3E6F008A3E6F022E0FAA3E0FBA3E0E2
:101D0300FCA3E0FD22EAF0A3EBF0A3ECF0A3EDF0DB
:101D130022E0F8A3E0F9A3E0FAA3E0FB22E8F0A3B2
:101D2300E9F0A3EAF0A3EBF022CAC0E0E6F0A308CF
:101D3300DAFAD0E0FA22CAC0E0E0A3C582CCC582B9
:101D4300C583CDC583F0A3C582CCC582C583CDC56C
:101D530083DAE6D0E0CA22C3E498F8E499F9121DC5
:101D63009B8026C3E49AFAE49BFBE920E7E9121D72
:101D73009BE498F8E499F922C3E498F8E499F912FA
:101D83001D9BE498F8E499F9C3E49AFAE49BFB22D7
:101D9300EB20E7CFE920E7E0B90010BB0008E88AB1
:101DA300F084F8AAF022E4FBC8FA22EB70227B103D
:101DB300C833C8C933C9335007C39AC3DBF280069B
:101DC3009A50012ADBEAC833F4C8C933F4C9FA22AA
:101DD30075F008E4C833C8C933C933C99AC99B50DD
:101DE30004C92AC93BD5F0ECFBC833F4C8E4C9FAEB
:101DF30022600D08C6A2E713C618C613C6D5E0F3C2
:101E030022600C08C6C313C618C613C6D5E0F42255
:101E1300700422600D18C6C333C608C633C6D5E0A6
:101E2300F41822251810AF08F518400C151980086E
:101E3300F51840021519D2AF2200C0D0251810AFF3
:101E430008F518500C05198008F51850020519D229
:101E5300AFD0D0222518F58210AF08F518400C1525
:101E6300198008F51840021519D2AF851983222568
:101E730018F582E43519F583222518F8E43519F9A4
:101E8300222518FAE43519FB222518FCE43519FD3F
:101E930022E4732518C582C0E0E51934FFC583C069
:101EA300E0E518C3958224F810AF0885831985826D
:101EB300188008858319858218D2AFCEF0A3E52058
:101EC300F0A37808E608F0A3DEFAEFF0A3E5812497
:101ED300FAF8E608F0A3E608F0A3E608F0A308087A
:101EE300E608F0A3E608F0A315811581D0E0FED043
:101EF300E0F8158115811581E8C0E0EEC0E02225E8
:101F030018C582C0E0E51934FFC583C0E0E518C3F6
:101F1300958224F910AF0885831985821880088576
:101F23008319858218D2AFCEF0A3E520F0A37808F9
:101F3300E608F0A3DEFAEFF0A3E58124FBF8E60858
:101F4300F0A3E608F0A30808E608F0A3E608F0A368
:101F530015811581D0E0FED0E0F815811581E8C028
:101F6300E0EEC0E022851983851882E0A3FEE0A39A
:101F7300F5207808E0A3F608DFFAE0A3FFE0A3C0AA
:101F8300E0E0A3C0E0E0A3C0E0E0A3C0E0E0A3C0C2
:101F9300E010AF088582188583198008858218852B
:101FA3008319D2AFD083D08202011F85198385188C
:101FB30082E0A3FEE0A3F5207808E0A3F608DFFAA9
:101FC300E0A3FFE0A3C0E0E0A3C0E0E0A3C0E0E043
:101FD300A3C0E010AF088582188583198008858225
:101FE30018858319D2AFD083D08222C0D02518C5DB
:101FF30082C0E0E51934FFC583C0E0E518C39582CC
:1020030024F310AF08858319858218800885831906
:10201300858218D2AFC8F0A3E9F0A3EAF0A3EBF0EE
:10202300A37908E709F0A3D8FAECF0A3EDF0A3EE47
:10203300F0A3EFF0A3D0E0F0A3D0E0F0A3D0E0F062
:10204300A3E520F0A3E5F0F0A32285198385188288
:10205300E0C0E0A3E0F9A3E0FAA3E0FBA37808E083
:10206300F608A3DFFAE0FCA3E0FDA3E0FEA3E0FF94
:10207300A3E0C0E0A3E0C0E0A3E0F5D0A3E0F52037
:10208300A3E0A3F5F010AF088583198582188008B3
:10209300858319858218D2AFD082D083D0E0F8D05F
:1020A300E03274048006740280027401C0E0F40418
:1020B300121E57D0E0121D2C227404800474028077
:1020C30000CCC0E0EDC0E0E518C39CCCAD195001D5
:1020D3001D10AF068C188D1980068C188D19D2AF80
:1020E300121D39D0E0FDD0E0FC22D083D082C5F0B0
:1020F300E493A3C5F0C395F0F5F0E493A3C395F07F
:102103004005E5F0048001E475F002A42582F58220
:10211300E5F03583F583E493A3C0E0E493C0E022C4
:10212300D083D082E9C0E0E493A3C386F0C5F095E1
:10213300F0F908E493A386F0C5F095F0700BE493EF
:10214300A3C3994005E9048002A3E475F002A42522
:1021530082F582E5F03583F583D0E0F9E493A3C0FB
:10216300E0E493C0E022D083D082CCC0E0E493A328
:1021730060061221931470FAE493A360061221B24D
:102183001470FAD0E0FCE493A3C0E0E493C0E0222F
:10219300C0E0E493A3D39C5010E493A3C39C400AF0
:1021A300D0E0D0E0D0E0022186A3A3A3D0E022C0F8
:1021B300E0E493A36C7009D0E0D0E0D0E002218684
:1021C300A3A3D0E022D083D082ECC0E0EDC0E0E452
:1021D30093A3FCE493A3FDED4C600D122214EC24B5
:1021E300FFFCED34FFFD80EFE493A3FCE493A3FD38
:1021F300ED4C600D122253EC24FFFCED34FFFD8007
:10220300EFD0E0FDD0E0FCE493A3C0E0E493C0E0B2
:1022130022C0E0C3E49396087401939618400FE438
:102223009366700808740193661870007019A3A36D
:10223300C3E49396087401939618A3A3400DD0E0CA
:10224300D0E0D0E0022204A3A3A3A3A3A3D0E0225F
:10225300C0E0C0F088F0E4936670080874019366E8
:10226300187000A8F0A3A3700BD0F0D0E0D0E0D09A
:0B227300E0022204A3A3D0F0D0E02280
:1022800074F6121F02EAFEEBFF8C088D09EE24346F
:10229000F8E43FF9E8FCE9FDEE243512259CFAEE5E
:1022A000243712259CF88508F0A4C885F00A850912
:1022B000F0A4250AF9EA28F8E439F97A257B001216
:1022C0001D9BEA8C828D83F0FA131313541FF8EED2
:1022D00028F8E43FF9E8245DF582E439F583E0C0AD
:1022E000E074075AF8D0E0B800028004C313D8FCA9
:1022F000A2E0EE50082434F582E43F801824361220
:10230000259CF5F0EA84A8F0EE28F8E43FF9E824EB
:1023100038F582E439F583E0F97F03021FAE74F7E4
:10232000121F02EAFEEBFFEE243412259CC0E0EE01
:102330002435F582E43FF583D0E0F08E828F83A3CD
:10234000A3A3A3A3A3A3C082C0838E828F83A3A3CE
:10235000A3A3A3E0F8A3E0F9D083D082E0C398F56B
:1023600008A3E099F509EE247F12259C6401703ED4
:10237000EE2480F582E43FF583C082C0838E828F95
:1023800083A3A3A3A3A3E0240108A3E03400F9D00E
:1023900083D082E0687003A3E06970127CD87D0668
:1023A000121041EE247FF582E43FF583E4F0AC089F
:1023B000AD09EEFAEFFB122280E9F9122CF77F0249
:1023C000021FAEC082C083851882851983E0F8A3FE
:1023D000E0F9C3EA9CEB9D5010C3EC98ED99401BCB
:1023E000C3EA98EB995014800EC3EA98EB99400722
:1023F000C3EC98ED994004790180027900D083D034
:102400008222EAC39CFAEB9DFB2274EF121F02901A
:102410000381E064086005E06407702A9061C8E009
:1024200060249003AFE0F4601DE0F875F00DA4C8DF
:10243000AAF02AF974B128FE740339FF8E828F83C3
:10244000A3A3A3E07003022518906060E0C0E0EE53
:102450002468F582E43FF583D0E0F0750C72750DC9
:1024600007750800750900E5D914F50AE5D9540384
:10247000F50E60127403650E6043E50A600AEE24EF
:102480006712259C7002807590076DE06401601FE3
:1024900012259960047A0480027A00E50AC39AFA48
:1024A00095E0FB120D478A088B09EA450970051271
:1024B0001317806412259970048A0C8B0DE50A604D
:1024C00012850C82850D83F50BE5D9F0A3150BE57C
:1024D0000B70F6122599604474FC250AF50A780CF5
:1024E0001220A9AC0AA90EEEFAEFFB121113740226
:1024F000121E3CE97026AA08AB0912199B793D8E81
:10250000828F83A3A3A3A3E0FA7B00120B49EEFA08
:10251000EFFB12106B121173790080787403650E53
:102520006051850A1075110078101220A9AC0CAD0D
:102530000DAA08AB091210D77402121E3CEE2468D3
:1025400012259C64807004747F8001E0F50C780C87
:102550001220ADE50EF50C780C1220ADA90AAC08DE
:10256000AD099003AFE0FA7B00120B197402121E42
:102570003C801C900381E06408AC0CAD0D7009EE4A
:10258000FAEFFB1211438007EEFAEFFB1211E5128E
:10259000132379017F0A021FAEEE2483F582E43F04
:1025A000F583E02274F2121F0274FC121E26EAFE6A
:1025B000EBFF8909A2AFE433F508C2AF02266EE053
:1025C000601B780C1220A9AC0BA90EEEFAEFFB12DF
:1025D000110D7402121E3C7404250BF50B740125B9
:1025E0000BF5D9850ED9E50B6018F50A850C8285A7
:1025F0000D83E0F5D9A385820C85830D150AE50AC4
:1026000070EA75E195EE2463F8E43FF97A007B0007
:10261000A2AFE433F50BC2AF88828983E0FCA3E06C
:10262000FDEC4D603A88828983E0FAA3E0FB8A8260
:102630008B83E0FCA3E0FD88828983ECF0A3EDF0BE
:102640008A828B83E4F0A3F088828983E0FCA3E094
:10265000FDEC4D700A88828983A3A3E4F0A3F0E522
:102660000BA2E092AF12199B9006DFE004F0EE247B
:102670006312259CF8A3E0F9E8496064EE24631234
:10268000259C2402F8A3E03400F988828983E5823E
:102690002402F50CE43583F50DE0F50BA3E0F50E0F
:1026A000EE246212259C640170369061D0E0F8122D
:1026B000259960047C0480027C007480C398FA959C
:1026C000E0FBE50B2CF8E43400F9E82402F85001B3
:1026D00009C3EA98EB99A2D265D03340030225BF23
:1026E0009006DFE0604D9006E0E0F89006DFE0C382
:1026F00098500C74026509703A9006E1E060348EDF
:10270000828F83A3A3A3A3E0851882851983122750
:10271000437402121E72E81227439006DEE028F08E
:102720007402121E8CAA18AB197901120B7F900645
:10273000DFE4F0E508A2E092AF7404121E3C7F07CC
:10274000021FAEF0A3E4F09006DFE0F822000000E4
:102750008521878522C622C0E074EB121FEEA2AF4E
:10276000E433F508C2AF759B00906182E0A2E050AF
:1027700030E591A2E0502A7591FE74016521702127
:102780001228EA1212271228D81220BC122AA17489
:1027900004121E3CE96401700579011212631224CF
:1027A0000A906182E0A2E5505DE591A2E55057757F
:1027B00091DF900381E064076005E06408702F12E8
:1027C00028EA74016521703E1212271228D81220BF
:1027D000BC122AA17404121E3CE96401700579013F
:1027E0001212637901EEFAEFFB1225A48018E0645F
:1027F0000D70139003A3E004F064287002E4F07AF3
:1028000000E0F9121341906182E0A2E64003022841
:10281000ADE591A2E640030228AD7591BF9003811A
:10282000E06405700812120F12121B8003121215B9
:10283000752100121281E9900382F079001212636F
:10284000120F5D7A017B00900380E0F912196B9002
:102850007803E064427056900771E014F0704EC245
:10286000AF12286400782AD0E0F618D0E0F6E59F91
:102870005407F87005750DFF8003750D7FC4C0E027
:102880007829E6F50A08E6550DF50B740B780A125F
:102890001E04D0E0250AF8906270E0A2E740F8E854
:1028A000C333906272F0906270E0D2E0F090618188
:1028B000E0A2E35009E5E9A2E3500375E9F7A3E0DC
:1028C000A2E75009E591A2E7500375917FE508A2C0
:1028D000E092AF7F0802204D8E828F83E0F8A3E064
:1028E000C82416F582E438F583229003AFE0F8752A
:1028F000F00DA4C8AAF02AF974B128FE740339FFB8
:1029000022C0E0C0D0C082C083906183E0A2E050CA
:1029100009E5BFA2E0500375BFFEE0A2E15009E562
:10292000BFA2E1500375BFFDE0A2E25009E5BFA2DE
:10293000E2500375BFFBE0A2E35009E5BFA2E350FC
:102940000375BFF7E0A2E45009E5BFA2E4500375A8
:10295000BFEFE0A2E55009E5BFA2E5500375BFDF78
:10296000E0A2E65009E5BFA2E6500375BFBFD083E1
:10297000D082D0D0D0E032C0E074F2121FEEE5A7D2
:10298000A2E6500FE5A1A2E6500953A7BF75A1BF6B
:102990001229CBE5A7A2E5500CE5A1A2E55006530C
:1029A000A7DF75A1DFE5A7A2E15009E5A1A2E150EB
:1029B0000375A1FDE5A7A2E2500CE5A1A2E2500635
:1029C00053A7FB75A1FB7F0102204D74F7121F0274
:1029D000752101900381E0640670151211978A82B7
:1029E0008B83A3A3A3A3A3A3E0FAA3E0FB1211FD8F
:1029F000A2AFE433FED2AF900387E0640170187A8F
:102A0000207B00900380E0F9121A7F7A207B0090EF
:102A10000380E0F9121971906182E0D2E6F090072C
:102A20006EE0602185C6228016900386E064017006
:102A300008E5C654F84405F5C653BEFC1227507489
:102A400001652160E4EEA2E092AF7F02021FAE00BA
:102A50008E238F2485822885832785188285198374
:102A6000E0CEA3E0CF852882852783EBC9EAC8EDB5
:102A7000CBECCA75F010C3E833C8E933C9EA33CAEE
:102A8000EB33CBC3EA9EF526EB9FF525B35004ABA1
:102A900025AA26EC33CCED33CDD5F0DAAE23AF2426
:102AA0002274F1121F028A088B098C0A8D0B908305
:102AB000227808121C92740F121E72780C121CDEFF
:102AC000908322780C121C927808790C121AB89014
:102AD00082FE50107808790C121C577808121AD808
:102AE0004014800E780C7908121C57780C121AD8F2
:102AF00050047901800279007F08021FAE74ED1244
:102B00001F028A088B098C0A8D0B90832278081289
:102B10001C927413121E72780C121CDE90832278A1
:102B20000C121C92780C7908121AB84011780879A6
:102B30000C121C57AA08AB09AC0AAD0B8022751009
:102B4000007511007512007513017810790C121CB4
:102B50005778107908121C1EAA10AB11AC12AD13D5
:102B60007F0C021FAE9083227808121CDE8A828BB3
:102B7000837808121CA57F04021FAE74F5121F0291
:102B80008C828D837808121CDE8A828B83780812EF
:102B90001C6B122BD3C3E09CF0A3E09D122BC5400D
:102BA0002290832A7808121CDE8A828B837808128E
:102BB0001C448A828B83A3A3A3A3E02420F0A3E078
:102BC000344EF080A0F088828983C3E09420A3E093
:102BD000944E22EA2404F8E43BF98C828D83A3A36B
:102BE000A3A3E0FCA3E0FD888289832274F5121F71
:102BF00002E9FE9006FAE0FAA3E0FBEE29F8E433DE
:102C0000F9743D28F582748239F583E02AF508A32A
:102C1000E03BF50978081220A990831A121CFC12D7
:102C20002A507402121E3C8A088B098C0A8D0B7480
:102C3000107808121BE6AA08AB097F04021FAE74C5
:102C4000F1121F028A0C8B0D8C0E8D0F7411121E47
:102C5000721220C07411121E72E02401F508A3E064
:102C60003400F509E4F50AF50B780C7908121AF727
:102C700090830A7808121CDE780C7908121AF7AAD9
:102C80000CAB0DAC0EAD0F122A507402121E3C8B11
:102C900009EA450960047A0180027A00EC2AFCE422
:102CA0003DFD7413121E72E0F8A3E0F9E8FEE9FF9F
:102CB000ECF8EDF97A717B02121D9B88088909E412
:102CC000F50AF50B8E828F837808121CEDECF8ED77
:102CD000F97A717B02121D9B8A088B0974057808AA
:102CE000121E138E828F83A3A3A3A3E508F0A3E58E
:102CF00009F07F08021FAEC082C083E9906000F037
:102D0000D083D08222C0E074F2121FEEA2AFE4336F
:102D1000FED2AFC2C0E5D1A2E4500675D10F1218A1
:102D200069EEA2E092AF7F0102204DC0E0C0D0E882
:102D3000C0E0E9C0E0A9A8D2AFC2C7E9A2E7E43386
:102D4000F8E9A2E792AFD0E0F9D0E0F8D0D0D0E037
:102D500032C0E0C0D0E8C0E0E9C0E0EAC0E0C08234
:102D6000C083A2AFE433FAD2AF900EF9E0F8A3E04B
:102D7000687008539AFBA374018022C2E9900EF98F
:102D8000E0F8740128F0747928F582E4340EF583B4
:102D9000E0F5C1900EF9E0C394804002E4F0EAA2AD
:102DA000E092AFD083D082D0E0FAD0E0F9D0E0F862
:0B2DB000D0D0D0E032C2AF0200002201
:102DBC00FFFFFFFFFFFFFFFF74F6121E96E9900E58
:102DCC00FEF012156F900EFEE0F91206631206B7B4
:102DDC00900EFEE0F91206BD900EFEE0F91208C747
:102DEC0090832A121CFC12069F90832A121CFC1240
:102DFC0008E57AB87B1C12190B7CB87D1C79001283
:102E0C0006997CCD7D1C7A02790112069979017A9A
:102E1C006B7B821217CD79027A5D7B821217CD798A
:102E2C00037A787B821217CD7C677D0F7A1079023A
:102E3C00121A557C777D0F7A107903121A557CFF84
:102E4C007D0E7A047904121A557F02021F6874F4FD
:102E5C00121E968A088B09EB54807003022EF59093
:102E6C000EFEE0F91219538A0A8B0BAE0AAF0BEE69
:102E7C004F606E8E828F83E0246F600924FE705445
:102E8C001218818052A3E0F8740E6870208E828F25
:102E9C0083A3A3A3A3A31220C0EE24FDF582EF34D9
:102EAC00FFF583E024F9125B9A790E801D74FF689C
:102EBC0070288E828F83A3A3A3A3A31220C08E821B
:102ECC008F83A3A3E0125B9A79FF120B3174021269
:102EDC001E3C80061218A5E96007EEFAEFFB1219EA
:102EEC003BAA08E50964808016EB544060147CFF13
:102EFC007D0E7A047904121A4FAA08E5096440FB86
:102F0C0080047A007B00024F1CE9790024FE6008E3
:102F1C00146005146009800C74106A7007800774C3
:102F2C00046A6002790202011F74F4121E9674F98D
:102F3C00121E26EAFEEBFF851882851983E4124DDA
:102F4C006212325FC0E07401121E72D0E0125BC0DC
:102F5C00A882A983E0FCA3E0FBECFA7402121E72B7
:102F6C00EAF0A3EBF0E82402F85001098882898387
:102F7C00E0C0E07404121E72D0E0125BC008A9839A
:102F8C007405121E72124D5C7402121E72E0F5086A
:102F9C00A3E085080AF50B7407780A121E04780A58
:102FAC001221230100041C30BE2FD12FE02FF32F50
:102FBC000630AC18AD197401121E84E508547FF963
:102FCC0012188D80467401121E84E508547FF91284
:102FDC0018938037AC18AD197401121E84E508548F
:102FEC007FF91218998024AC18AD197401121E8443
:102FFC00E508547FF912189F8011AC18AD197401B3
:10300C00121E84E508547FF9121887E9F50880032D
:10301C00750801EEFAEFFB12193B900F2F747FF03D
:10302C00A37406F0E508A3F07402121E72E0900F70
:10303C0032F07402121E72A3E044FC900F33F08540
:10304C001882851983E0900F34F07C2F7D0F851842
:10305C0082851983E02406FA79FF120B3779007404
:10306C0007024F1974EB121E968A828B83ECFEEDCD
:10307C00FFA312319B8E828F83E4F0850A82850B2D
:10308C0083A3858208858309E914600C14605114AC
:10309C00700302318B023192850A82850B83E0F535
:1030AC000A850882850983E0F50BC394324003023C
:1030BC00318EAA0BA90A12187BE9600302318E7CAF
:1030CC00357D0FAA0BA90A121A55E9FA60030231D1
:1030DC0094850882850983E08E828F83F002319477
:1030EC00850A82850B83E0F50C850882850983E0CF
:1030FC00F508FAA90C12187BE9600302318EE50A77
:10310C002402FEE4350BFFEEFCEFFDAA08A90C121D
:10311C001A4FE9FA7404650C706E8E828F83E0F599
:10312C000CE4F50DF50EF50F850A82850B83A3A330
:10313C001231B3121BFF780C7910121C1E850A82F7
:10314C00850B83A3A31231A6121BFF780C791012E6
:10315C001C1E850A82850B83A3A3A3A3A3E0F508F9
:10316C00E4F509F50AF50B74187808121BFF780CB6
:10317C007908121C1E900EFF780C121CED8009129F
:10318C0019057A0280027A01EAF97F0D021F68A301
:10319C00A3A3E0F50AA3E0F50B22A3A3E0F510E44A
:1031AC00F5117410781022A3E0F510E4F511F51266
:1031BC00F513740878102274F4121E9674EA121E19
:1031CC002689088A828B8312325CFEA3E0FCE4CC55
:1031DC00FDEE2CE43DFFE82402FCE439FDE5082477
:1031EC00F6602324F870401232481220A97402129F
:1031FC001E84120C757402121E3CE9F9702B1232EB
:10320C003A120BF7801D1232481220A97402121EBA
:10321C0084120C8D7402121E3CE9F9700C12323AB5
:10322C00120BF1E9F9800279017416024F19900E14
:10323C00FEE0F9AC18AD19EEFAEFFB228A828B8313
:10324C00A3A3A3E024FEF50AE434FFF50B780A22CD
:10325C00A3A3A312326DF988828983E022A3A3A3CE
:10326C00A3A3E0F8A3E02274EC121E9674EB121EDA
:10327C0026890BEAF8EBF97E007F00750A40E824FA
:10328C0003F50EE439F50F850E82F583E0FAC3944D
:10329C0002500579400236A18882898312325CF58E
:1032AC0008A3E0FDE5082EE43DF5097512527513EF
:1032BC0083E82403F510E439F511E82402F50CE455
:1032CC0039F50DE50B1220ED011D0F3C1433403385
:1032DC0072339E33E2332334C0340135C935123690
:1032EC004136AB36DC3635378237D6376238A338C1
:1032FC0044390F3C0F3C6C391F3A6A3A113B0F3C76
:10330C00393B0F3C893BE73BA818A919880E890F5C
:10331C00780E1220A9123C321203217402121E3CA8
:10332C00E9600302369CAC18AD19AA08AB0912026D
:10333C00BB0236D7A818A919880E890F780E12204F
:10334C00A9123C2B1220A9AC0CAD0D7A00790012FD
:10335C00032D7404121E3CE9600302369C123C6D72
:10336C001206C30236D7A818A919880E890F780E31
:10337C001220A9123C321203397402121E3CE9606D
:10338C000302369CAC18AD19AA08AB091202C10293
:10339C0036D7A818A919880E890F780E1220A912F1
:1033AC003C2B1220A9AC0CAD0D7A00790012034510
:1033BC007404121E3CE9600302369C7402121E72E5
:1033CC001220C0900EFEE0F97402121E72124469B3
:1033DC001206E70235B8123C321218D58A0C8B0D46
:1033EC00AE0CAF0DEE4F700302369CA818A91988CD
:1033FC000C890D780C1220A9123C5A12035174023C
:10340C00121E3CE96003023695AC18AD19AA08AB44
:10341C00091202C7023607A818A919880E890F7855
:10342C000E1220A9123C2B1220A9AC0CAD0D7A0067
:10343C00790012035D7404121E3CE9600302369C91
:10344C007404121E72123C521220A97407121E72BE
:10345C0085820C85830D780C1220A97C027D00AA34
:10346C0012AB1312042F7404121E3CE97003023BBE
:10347C000B851882851983E064017002A3E0600358
:10348C00023B0B7402121E72E0F47003A3E0F460B2
:10349C0003023B0B12442E1220AD7408121E72E074
:1034AC00F97409121E721244691206CF7401121EAD
:1034BC003C0236D7123C321218D58A0C8B0DAE0C4E
:1034CC00AF0DEE4F700302369CA818A919880C8911
:1034DC000D780C1220A9123C5A1203697402121EA8
:1034EC003CE96003023695AC18AD19AA08AB091279
:1034FC0002CD023607A818A919880E890F780E126A
:10350C0020A9123C2B1220A9AC0CAD0D7A0079002D
:10351C001203757404121E3CE9600302369C740499
:10352C00121E72123C521220A97407121E7285824E
:10353C000C85830D780C1220A97C027D007A4E7BC1
:10354C008312042F7404121E3CE9601A7402121EBA
:10355C00721220C0900EFEE0F97402121E72124418
:10356C00691206D580467404121E72123C52122047
:10357C00A97407121E7285820C85830D780C12209B
:10358C00A97C027D007A5A7B8312042F7404121ECC
:10359C003CE960207402121E721220C0900EFEE0F4
:1035AC00F97402121E721244691206DB7402121EA6
:1035BC003C0236D7123C6D1206F30236D7123C325F
:1035CC001218D58A0C8B0DAE0CAF0DEE4F7003029A
:1035DC00369CA818A919880C890D780C1220A912F0
:1035EC003C5A1203817402121E3CE96003023695A8
:1035FC00AC18AD19AA08AB091202D3E9F50A60039D
:10360C0002369502369CA818A919880E890F780ED7
:10361C001220A9123C2B1220A9AC0CAD0D7A00790A
:10362C000012038D7404121E3CE97064123C6D127E
:10363C0006ED0236D7EAC39403400E123C32121840
:10364C00D58A0C8B0DAE0CAF0D850E82850F83E0E9
:10365C00FA74026A6004EE4F6036A818A919880C37
:10366C00890D780C1220A9123C22120399740212B3
:10367C001E3CE97010AC18AD19AA08AB091202D99E
:10368C00E9F50A600BEE4F6007EEFAEFFB12199B9F
:10369C00A90A1218CF7415121E3C7F0C021F68A8C1
:1036AC0018A919880E890F780E1220A9123C2B121A
:1036BC0020A9AC0CAD0D7A0079001203B77404127A
:1036CC001E3CE970CB123C6D1206F9E9F50A80C07C
:1036DC00EAC39403400E123C321218D58A0C8B0D9F
:1036EC00AE0CAF0D850E82850F83E0FA74026A6012
:1036FC0004EE4F609BA818A919880C890D780C1240
:10370C0020A9123C221203C37402121E3CE960036E
:10371C00023691AC18AD19AA08AB091202DFE9F513
:10372C000A600302369102369C123C321218D58A7A
:10373C000C8B0DAE0CAF0DEE4F700302369CA8181F
:10374C00A919880C890D780C1220A9850E82850F79
:10375C00831244541220A9EEFCEFFD7A007900127A
:10376C0003CF7404121E3CE96003023695123C6DC3
:10377C001206FF023607EAC39403400E123C3212C3
:10378C0018D58A0C8B0DAE0CAF0D850E82850F8370
:10379C00E0FA74026A6007EE4F700302369CA818B8
:1037AC00A919880C890D780C1220A9123C2212033D
:1037BC00DB7402121E3CE96003023691AC18AD19A1
:1037CC00AA08AB091202E502372AA818A919880E13
:1037DC00890F780E1220A9123C2B1220A9AC0CAD2B
:1037EC000D7A0079001203757404121E3CE9600313
:1037FC0002369C7404121E72123C521220A97407D9
:10380C00121E7285820C85830D780C1220A97C0205
:10381C007D00AA12AB1312042F7404121E3CE97023
:10382C0003023B0B851882851983E064017002A3A7
:10383C00E06003023B0B7402121E72E0F47003A3EF
:10384C00E0F46003023B0B900EFEE0F9AA08AB0912
:10385C001206C90236D7123C321218D58A0C8B0DBF
:10386C00AE0CAF0DEE4F700302369CA818A9198848
:10387C000C890D780C1220A9123C5A1203E7740221
:10388C00121E3CE96003023695AC18AD19AA08ABC0
:10389C00091202EB023607EA24FCFCE434FFFDE8D3
:1038AC002404FAE439FB1218D58A128B13AE12AF2A
:1038BC0013EE4F700302369CA818A91988128913AD
:1038CC0078121220A9850E82850F83E024FC123C0D
:1038DC00481220A9EEFCEFFD851082851183E0FAD9
:1038EC00850C82850D83E0F912039F7404121E3C33
:1038FC00E960030236957406121E72E07008123CE1
:10390C006D12071180187405121E72E0AC18AD19F7
:10391C00AA08AB097005120705800312070BE9F51D
:10392C000AE50A60030236957403121E72124447AC
:10393C00700302369502369CA818A919880E890FB7
:10394C00780E1220A9123C321203AB7402121E3CE8
:10395C00E9600302369CAA08AB091202F10236D7C1
:10396C00123C321218D58A088B09AE08AF09EE4FFB
:10397C00700302369CA818A91988088909780812BE
:10398C0020A9850E82850F83E024FEF508E434FF20
:10399C00F50978081220A9EEFCEFFD7A00790012E7
:1039AC0003F37404121E3CE96003023695900F88F1
:1039BC00124447700F7A237B001219E9900F88EAA2
:1039CC00F0A3EBF0900F881244476041900F87E012
:1039DC00C394054003023B0B12443A29F0750807C7
:1039EC0075090078081220A97402121E8CE975F072
:1039FC0007A4F8A9F0900F88E028FAA3E039FB128D
:103A0C0019117402121E3C750A0002369C750A13B9
:103A1C00023695123C321218D58A0C8B0DAE0CAFB7
:103A2C000DEE4F700302369CA818A919880C890D4D
:103A3C00780C1220A9123C5A1203FF7402121E3C7D
:103A4C00E96003023695AC18AD19AA08AB0912024D
:103A5C00F7E9F50A60030236957405023936A818A1
:103A6C00A919880E890F780E1220A9123C2B12204E
:103A7C00A9AC0CAD0D7A00790012040B7404121E63
:103A8C003CE9600302369C900F8812444760701228
:103A9C00442E1220AD7401121E721244311220AD4C
:103AAC00900F87E0F9900F8812446912071D740279
:103ABC00121E3CE9F50A60397E008022EE75F00793
:103ACC00A4F8A9F0900F88E028FAA3E0398A82F5CF
:103ADC0083A3A3125B9FEA4B600312199B0E900FFA
:103AEC0087E0F8EEC39840D4900F88125BA21219AD
:103AFC00EF900F88E4F0A3F0900F87F002369C75DE
:103B0C000A02023691A818A919880E890F780E128C
:103B1C0020A9123C321204117402121E3CE96003FB
:103B2C0002369CAA08AB091202FD0236D7123C15CC
:103B3C001218D58A108B11AE10AF11EE4F70030214
:103B4C00369CA818A9198810891178101220A9126E
:103B5C003C3B1220A9EEFCEFFD7A00790012041D0B
:103B6C007404121E3CE96003023695850C82850DA7
:103B7C0083123C70120801E9F50A02392F123C1528
:103B8C001218D58A108B11AE10AF11EE4F700302C4
:103B9C00369CA818A9198810891178101220A9121E
:103BAC003C3B1220A9EEFCEFFD7A00790012041DBB
:103BBC007404121E3CE9600302369512442E122046
:103BCC00AD850C82850D8312443A121E8CAA08AB6B
:103BDC00091207FB7401121E3C809CA818A91988B5
:103BEC000E890F780E1220A9123C32120423740293
:103BFC00121E3CE9600302369CAA08AB091202AF04
:103C0C000236D7750A0102369CEA24FDFCE434FF27
:103C1C00FDAA10AB1122EA123C65EEFAEFFB22EA88
:103C2C0024FE123C4822EA123C65AA0CAB0D2285FC
:103C3C000E82850F83E024FD123C4822F50EE434FD
:103C4C00FFF50F780E22E0F50C8E0D780C22850E08
:103C5C0082850F83E0123C652224FEFCE434FFFDD8
:103C6C0022900EFEE0F9AC18AD19AA08AB0922742B
:103C7C00E8121E9674EA121E26E9851882851983AD
:103C8C00F0750E00750F00750A40EA2403F510E478
:103C9C003BF511851082F583E0F9C3940250057948
:103CAC004002426D8A828B83A3A3A3A3E0FEA3E010
:103CBC00FF8E828F83E0FCA3E0FAE4CAFBEC2AF5CA
:103CCC0008E43BF509EE2402F50CE43FF50DEE2477
:103CDC0003F512E43FF513851882851983E0122150
:103CEC0069001602333D04413E067B3D08063E0A40
:103CFC008C3E0C023F0E3D3F106E3D122940167E4D
:103D0C00401B4F431DAB4330943D32943D34C73E72
:103D1C0036923F38DE3F3AFF403C7C423EB6424052
:103D2C00ED42427E4008447401121E848A0E8B0FB1
:103D3C00780E1220A9E9123C2C1220A9AC0CAD0D66
:103D4C007A00790012032D7404121E3CE960030200
:103D5C004268124437121E8CAA08AB091206C30221
:103D6C0042B1900EFEE0F9AA081206C90242B11245
:103D7C00442E1220AD1919AC0CAD0DAA081206CFA9
:103D8C007401121E3C0242B1E924FEF8E434FFF93E
:103D9C00740468496003024268850C82850D83E0D7
:103DAC00FA851282851383E0F8E4C8F9EA28FCE46A
:103DBC0039FD8E828F83A3A3A3A3E0FA8E828F8317
:103DCC00A3A3A3A3A3E0F9EAF50AE439F50B85183C
:103DDC0082851983E06430780A70101220A9900E45
:103DEC00FEE0F9AA081206D5023E841220A9900E14
:103DFC00FEE0F9AA081206DB807E7401121E848A8A
:103E0C000E8B0F780E1220A9E9123C2C1220A9ACB3
:103E1C000CAD0D7A0079001203757404121E3CE986
:103E2C006003024268124437121E8CAA08AB0912B6
:103E3C0006E10242B17401121E848A0E8B0F780EB9
:103E4C001220A9E9123C2C1220A9AC0CAD0D7A0061
:103E5C0079001203457404121E3CE96003024268A7
:103E6C007403121E721220C0900EFEE0F97403123D
:103E7C001E721244691206E77402121E3C0242B111
:103E8C007401121E848A0E8B0F780E1220A9E9126F
:103E9C003C2C1220A9AC0CAD0D7A00790012038DCC
:103EAC007404121E3CE96003024268124437121E6D
:103EBC008CAA08AB091206ED0242B17401121E84E1
:103ECC008A0E8B0F780E1220A9E9123C2C1220A915
:103EDC00AC0CAD0D7A0079001203757404121E3C03
:103EEC00E96003024268124437121E8CAA08AB091F
:103EFC001206F30242B17401121E848A0E8B0F78E3
:103F0C000E1220A9E9123C2C1220A9AC0CAD0D7A92
:103F1C000079001203B77404121E3CE960030242DC
:103F2C0068124437121E8CAA08AB091206F9024219
:103F3C00B1E9123C331218D58A0E8B0FEA450F707B
:103F4C00030242687401121E7C880C890D780C12D5
:103F5C0020A912444E1220A9AC0EAD0F7A007900A4
:103F6C001203CF7404121E3CE96003024261124436
:103F7C0037121E8CAA08AB091206FFE9F50A60037A
:103F8C00024261024268E9123C331218D58A0E8B48
:103F9C000FEA450F70030242687401121E7C880CF4
:103FAC00890D780C1220A912444E1220A9AC0EAD2A
:103FBC000F7A01790012039F7404121E3CE960030E
:103FCC000242617401121E8CAA08AB091207050289
:103FDC004073E9123C331218D58A0E8B0FEA450F49
:103FEC0070030242687401121E7C880C890D780CD7
:103FFC001220A912444E1220A9AC0EAD0F7A0179F1
:10400C000112039F7404121E3CE9600302426174A6
:10401C0001121E8CAA08AB0912070B804AE9123C4C
:10402C00331218D58A0E8B0FEA450F7003024268C3
:10403C007401121E7C880C890D780C1220A9124474
:10404C004E1220A9AC0EAD0F7A00790012039F74AA
:10405C0004121E3CE96003024261124437121E8CAA
:10406C00AA08AB09120711E9F50A600302426102C2
:10407C00433FE9123C331218D58A0E8B0FEA450FD9
:10408C0070030242687401121E7C880C890D780C36
:10409C001220A912444E1220A9AC0EAD0F7A007951
:1040AC00001203F37404121E3CE9600302426185A2
:1040BC001882851983E06416900EFE700F12443A34
:1040CC00121E8CAA08AB09120717800D12443A1263
:1040DC001E8CAA08AB09120735E9F50AE50A60033C
:1040EC000242617406121E7212444770030242614E
:1040FC00024268E924FEF8E434FFF9C3E89401E9CC
:10410C009400A2D265D0335003024268850C82859C
:10411C000D83E0F5107003024277C394064003024E
:10412C004277E51075F007A4FEAFF0FAEFFB121919
:10413C00E98A148B15EA45157003024272EEFCEF06
:10414C00FD7900121929AE12AF13750B008034E8FB
:10415C00FEE9FF85160C85170D780C1220A9750C3D
:10416C0004750D00780C1220A9EEFCEFFD7A007995
:10417C00001203F37404121E3CA811EE28FEE43F57
:10418C00FF050BE50BC395105066751104E50B7517
:10419C00F007A4F8A9F0E51428F516E51539F5177C
:1041AC008E828F83A3A882A9838E828F83E0FA608C
:1041BC009E74042AF511E8FEE9FF85110C750D00BB
:1041CC00AC0CAD0DEEFAEFFB1218D58A0E8B0FEA84
:1041DC00450F7005750A13804285161285171378E2
:1041EC00121220A9780C1220A9AC0EAD0F02417945
:1041FC00E510650B702512442E1220AD750A01785E
:10420C000A1220ADA910AC14AD15AA08AB091207FF
:10421C001D7402121E3CE9F50A6034750B008021F6
:10422C00E50B75F007A4F8A9F0E51428F582E5155F
:10423C0039F583A3A3125B9FEA4B600312199B050C
:10424C000BE50BC3951040D8AA14AB151219EFE56A
:10425C000E450F6007AA0EAB0F12199BA90A121874
:10426C00CF7416025F31750A1380F1750A0280EC67
:10427C007401121E848A0E8B0F780E1220A9E9127B
:10428C003C2C1220A9AC0CAD0D7A00790012038DD8
:10429C007404121E3CE970C4124437121E8CAA0816
:1042AC00AB09120723E9F50A80B27401121E848A45
:1042BC000E8B0F780E1220A9E9123C2C1220A9ACFF
:1042CC000CAD0D7A0079001203B77404121E3CE990
:1042DC00708A124437121E8CAA08AB091207298067
:1042EC00C4E9123C331218D58A0E8B0FEA450F70B5
:1042FC00030242687401121E7C880C890D780C1222
:10430C0020A912444E1220A9AC0EAD0F7A007900F0
:10431C0012039F7404121E3CE960030242611244B2
:10432C0037121E8CAA08AB0912072FE9F50A600395
:10433C000242617404121E72124447700302425B03
:10434C0002426812440E1218D58A0E8B0FEA450FE2
:10435C0070030242687401121E7C88128913781251
:10436C001220A912441B1220A9AC0EAD0F7A0079B1
:10437C000012041D7404121E3CE9600302426185A4
:10438C000C82850D8312443A121E8CAA08AB0912BA
:10439C000801E9F50A600302426174040240F1125B
:1043AC00440E1218D58A0E8B0FEA450F7003024289
:1043BC00687401121E7C8812891378121220A912BB
:1043CC00441B1220A9AC0EAD0F7A00790012041D0B
:1043DC007404121E3CE9600302426112442E122046
:1043EC00AD850C82850D83E0F97402121E8CAA082F
:1043FC00AB091207FB7401121E3C8096750A010270
:10440C004268E924FDFCE434FFFDAA12AB132285BB
:10441C001082851183E024FDF510E434FFF511784A
:10442C001022900EFEE0F50A780A22900EFEE0F9BA
:10443C00740122A3A3A3A3A3A3A3A312326EF9E82E
:10444C004922851082851183E024FEF50CE434FFAB
:10445C00F50D780C22A3A3A3A3A3A3A3A3E0FCA311
:10446C00E0FDAA08AB092274EA121E9674A5121E6E
:10447C00268C0C8D0D8A828B83A3A3A3A3E0FEA3B1
:10448C00E0FF750E00EE2402F50AE43FF50B8E8278
:10449C008F83A3858208858309E970030245402434
:1044AC00FD70030246471470030246901470030219
:1044BC0046CF14700302472E1470030247921470F7
:1044CC00030247A91470030246DA1470030247B4BE
:1044DC0014700302481B147003024B811470030206
:1044EC004C1B147003024B02147003024A841470A8
:1044FC0003024A7B1470030247CD24E17003024B84
:10450C00A3147003024BD6147003024B9214700365
:10451C00024C24147003024C95147003024CA71423
:10452C007003024CBA147003024CAF147003024CAB
:10453C00BA024CBF8E828F83E0F5147C107900AAEE
:10454C000AAB0B12198FE9701B750C10750D0078E6
:10455C000C1220A9AC0AAD0B7A677B0F12191174DF
:10456C0002121E3CEE2412F50AE43FF50B7C107986
:10457C0000AA0AFB12198FE9701B750C10750D003F
:10458C00780C1220A9AC0AAD0B7A777B0F1219119B
:10459C007402121E3CEE2422125762F50CE4F50D47
:1045AC00F50FEE2423F582E43FF5831231B4121B90
:1045BC00FF780C7910121C1EEE2424F582E43FF5D2
:1045CC00831231A8121BFF780C7910121C1EEE24DA
:1045DC0025F582E43FF583124CE2121BFF780C792F
:1045EC0010121C1EE50C450D450E450F6008900E73
:1045FC00FF780C121CED750AFF750B0E780A122051
:10460C00A9750A77750B0F780A1220A97C677D0FA4
:10461C00850882850983E0FBAA14900EFEE0F9124E
:10462C00175B7404121E3CE9F50E900EFEE0FC7D47
:10463C00007A267B001204A7024CC2750A00750B87
:10464C00009082AC740A121E8C7406121D39750C03
:10465C0006F50D780C1220A9740C121E8CAA08AB4E
:10466C00091219237402121E3CE9640160068508C4
:10467C000A85090BAA0AAB0B8E828F83E0F9120410
:10468C00BF024CAA900EFEE0C0E07410121E72D055
:10469C00E0124D6FE0C0E07411121E72D0E0124DAA
:1046AC008AC0E07412121E72D0E0124D62E0C0E0BB
:1046BC007413121E72D0E0F07410121E8412044790
:1046CC00024CAA900EFEE0F912044D024CAA900E78
:1046DC00FEE0851882851983124D6FE0C0E07401ED
:1046EC00121E72D0E0124D8AC0E07402121E72D0FB
:1046FC00E0124DABC0E07403121E72D0E0124D9567
:10470C001220A9EEFCEFFD7406121E72AA82AB8376
:10471C001219117402121E3CAA18AB191204890248
:10472C004CAA8E828F83E0851882851983124D8A5C
:10473C00C0E07401121E72D0E0124D951220A9EE49
:10474C00FCEFFD7404121E72AA82AB831219117451
:10475C0002121E3CEE2406FE50010F8E828F83E067
:10476C00C0E07408121E72D0E0124D62E0C0E0741A
:10477C0009121E72D0E0F0AA18AB19900EFEE0F9E7
:10478C001205CD024CAAAC0AAD0BE0FB8E828F83D6
:10479C00E0FA900EFEE0F91205D3024CAA900EFE40
:1047AC00E0F91205D9024CAA850A82850B83E0FC3C
:1047BC00124CFFE439FB900EFEE0F9120531024C6D
:1047CC00AA124CED851882851983124D7CFAA3E050
:1047DC00F9EAF87402121E72124DA150010F124C1C
:1047EC00F37404121E72124DA150010F124CF3748B
:1047FC0006121E72124DA150010F124CF3740812C6
:10480C001E72124D5CAA18AB19120537024CAA7510
:10481C000C00750D007C187D0079007414121E8438
:10482C00121929124CEDF87414121E72E8124D7CF8
:10483C00C0E07416121E72D0E0124D62AE82AF83CD
:10484C00E0C0E07417121E72D0E0124D620EAF83FE
:10485C0075081075090078081220A9EEFCEFFD749C
:10486C001A121E72AA82AB831219117402121E3C08
:10487C00EE2410FE50010F8E828F83E0C0E074286E
:10488C00121E72D0E0124DABC0E0742B121E72D00F
:10489C00E0124D75A30E0EAF83A2E0E433F510E5E4
:1048AC000EA2E15004D2F08002C2F0A2F0E433F880
:1048BC00E50EA2E25004D2F08002C2F0A2F0E43382
:1048CC00F50A750B00E50EA2E35004D2F08002C28B
:1048DC00F0A2F0E433FCE50EA2E45004D2F0800226
:1048EC00C2F0A2F0E433FAE50EA2E55004D2F08057
:1048FC0002C2F0A2F0E433F508E50EA2E65004D2B1
:10490C00F08002C2F0751100E828F8E51048F510A7
:10491C007402780A121E13E510450AF50A8C1074FD
:10492C00037810121E13E50A4510F8EAFBE8FA7436
:10493C00097808121E13EB4509FBA2F0E433F508C5
:10494C00750900740A7808121E13124CCE121E132D
:10495C00EAF8EB4509F97429121E72124D5C8E822D
:10496C008F83E0F50EA30EAF837003024A6CE0C098
:10497C00E0740A121E72D0E0124DABC0E0740B1240
:10498C001E72D0E0124DABC0E0740C121E72D0E05F
:10499C00124DABC0E0740D121E72D0E0124D75A218
:1049AC00E0E433FCE50EA2E15004D2F08002C2F048
:1049BC00A2F0E433F8E50EA2E25004D2F08002C279
:1049CC00F0A2F0E433F508750900E50EA2E35004FB
:1049DC00D2F08002C2F0A2F0E433F50AE50EA2E4B4
:1049EC005004D2F08002C2F0A2F0E433FAE50EA239
:1049FC00E55004D2F08002C2F0A2F0E433F50CE5ED
:104A0C000EA2E65004D2F08002C2F0E828F8EC487E
:104A1C00FC74027808121E13EC4508FC7403780A27
:104A2C00121E13EC450AF8EAFBE8FA7409780C122A
:104A3C001E13EB450DFBA2F0E433F508740A78085D
:104A4C00121E13124CCE121E13EAF8EB4509F97420
:104A5C000E121E72124D5C740A121E7C880C890D8B
:104A6C00AC0CAD0D7414121E84120543024CAA1228
:104A7C004D1B120549024CAA124D341220A9EEFC12
:104A8C00EFFD7442121E841219117402121E3CEEB8
:104A9C002410FE50010F124CF37450121E72124D62
:104AAC00A150010F750C08780C1220A9EEFCEFFD3B
:104ABC007454121E72AA82AB831219117402121E44
:104ACC003C8E828F83A3A3A3A3A3A3A3A3E0C0E0E4
:104ADC00745A121E72D0E0F0750B01780B1220ADD7
:104AEC007441121E8CA90AAA08AB0912055B740149
:104AFC00121E3C024CAA124D341220A9EEFCEFFD02
:104B0C00742E121E841219117402121E3CEE241003
:104B1C00FE50010F8E828F83E0F50CE4F50F1231FD
:104B2C00B3121BFF780C7910121C1E8E828F83120D
:104B3C0031A6121BFF780C7910121C1E8E828F83EB
:104B4C00A3A3A3124CE2121BFF780C7910121C1EAB
:104B5C00743C121E72E50CF0A3E50DF0A3E50EF00B
:104B6C00A3E50FF0742C121E8CA90AAA08AB09122B
:104B7C00053D024CAA124CFFFCE439FDAA0AAB0B12
:104B8C0012054F024CAAEE2410FCE43FFDEEFAEFA6
:104B9C00FB120513024CAA8E828F83E0FA7B0085F0
:104BAC000882850983E0FC850A82850B83E0F9EC99
:104BBC002BE439FDEA64267003024CBAEA942740D0
:104BCC0003024CBA1204A7024CAA78FF79FF8E821A
:104BDC008F83E0FA7B00F46020EA6426601BEAC352
:104BEC00942750151204AD8A088B09A808A90974DA
:104BFC00FF68700374FF697003750E02850C828563
:104C0C000D837402F0E8900F35F0E9A3024CB71253
:104C1C004D1B12064B024CAAE0F50CF50E750F005D
:104C2C002404FAE43400FB1219E98A088B09EA45DA
:104C3C000960518E828F83E08A828B83F0A3E50C0E
:104C4C00F0EA2402E435090A0AFBE5082404F8E436
:104C5C003509F98A828B83124D5C780E1220A9AC2F
:104C6C000AAD0B8A828B83125BA212191174021289
:104C7C001E3CAA08AB091205DFE9F50E6038AA083C
:104C8C00AB098012750E13802D8E828F83E0F91282
:104C9C0005E5EA4B60181219EF801B1205EBE9F5DC
:104CAC000E8013750E028C828D83E4F08008750ED5
:104CBC00028003750E01A90E745B121E3C7F0E025E
:104CCC001F68EB4509FBE50EA2E7E433F50875090F
:104CDC0000740B780822E0F510E4F51274187810C3
:104CEC0022124D0DF9EA228E828F83E0FAA3E0F9AD
:104CFC00EAF822124D0322124D0DF8E4C8F9EA2805
:104D0C00228E828F83E0FA850882850983E02285D2
:104D1C000A82850B83E0F98E828F83E0FC85088202
:104D2C00850983E0FBECFA22124D03F508E439F512
:104D3C00090E0EAF0B8E828F83E0F50AA3AE82AF05
:104D4C0083750C10880D780C22F9851882851983CF
:104D5C00E8F0A3E9F022124D6622124D6A22124DA0
:104D6C006FA322F08E828F8322124D66E0F50E2205
:104D7C00F0A3E9F00E0EAF0B8E828F83E022F0AE23
:104D8C0008AF098E828F83E022124DB0750806752C
:104D9C000900780822E8F0A3E9F0EE2402FE2212C2
:104DAC004DB0E022124D6A0EAF832274F4121E969F
:104DBC0074FD121E26EAFEEBFF851882851983E42A
:104DCC00F0F508F50904121E72E4F07402121E725A
:104DDC007401F07C2C7D0079007A037B0F12192969
:104DEC008E828F83E02460606F24FE605124F27009
:104DFC0003024E8D147003024EBB24E16003024E7D
:104E0C00DC7402121E7C8808890978081220A974A7
:104E1C0003121E7C8808890978081220A9740412D0
:104E2C001E7C8808890978081220A97C037D0FEE66
:104E3C00FAEFFB1218AB7406121E3C024ED8A818DF
:104E4C00A9198808890978081220A97C037D0FEE1E
:104E5C00FAEFFB1218B1806F7401121E7C8808895E
:104E6C000978081220A97402121E7C880889097816
:104E7C00081220A97C037D0FEEFAEFFB1218B78005
:104E8C00277401121E7C8808890978081220A974DD
:104E9C0002121E7C8808890978081220A97C037DDF
:104EAC000FEEFAEFFB1218BD7404121E3C801DA805
:104EBC0018A9198808890978081220A97C037D0F84
:104ECC00EEFAEFFB1218C37402121E3C8A088B090F
:104EDC007402121E72E06007EEFAEFFB12193B85AA
:104EEC001882851983E0600AAC08AD09FA79FF12C3
:104EFC000B37E508450960117401121E72E064015C
:104F0C007007AA08AB091219EF79007403121E3C42
:104F1C007F04021F6874E8121E9674FE121E26EAA5
:104F2C00FEEBFF8C088D09751000750A00750B00DF
:104F3C00741E121E72125F2AEC2406F8E43509F96D
:104F4C00EC240BF50CE43509F50DEC2405FAE435ED
:104F5C0009FB8C828D83A3858214858315EE240333
:104F6C00F50EE43FF50F8E828F83A3858212858325
:104F7C00138E828F83A3A3E0605D147003025073C1
:104F8C0014700302517114700302518914700302DE
:104F9C0051941470030251AE1470030252681470D1
:104FAC000302528E1470030252EA14700302530A65
:104FBC001470030253BA1470030253831470030267
:104FCC00566914700302569E1470030255A914708E
:104FDC00030255BC0257258C828D83E41258D212E1
:104FEC0020A9AC0EAD0FE5082403FAE43509FB1239
:104FFC0019117402121E3C12592F750A10780A12DC
:10500C0020A97C677D0FE508240CFAE43509FB1216
:10501C0019117402121E3C780A1220A97C777D0F9C
:10502C00E508241CFAE43509FB1219117402121E4E
:10503C003C851282851383E070217C677D0F7A108A
:10504C007902121A4F7C777D0F7A107903121A4F5E
:10505C007CFF7D0E7A047904121A4F85080A8509A3
:10506C000B75102C025725851282851383E0600383
:10507C00025143850E82850F83E070030251583331
:10508C00333354F82404F510FA7B001219E98A0A18
:10509C008B0BEA450B700302513A8A828B837401A5
:1050AC00F0A374061258AF8512828513831258A888
:1050BC00850E82850F831258A88E828F8312326AD6
:1050CC00124D557E00804E125BA81258A8125BA898
:1050DC00A31258A875160675170078161220A97415
:1050EC0002121E72E02402FCA3E03400FDAA0CABF9
:1050FC000D1219117402121E3CE50C2406F50C500D
:10510C0002050D0E851882851983E02408F8A3E0AA
:10511C003400124D55850E82850F83E0F8EEC3984E
:10512C0040A5741C121E72125BAE740180088512AD
:10513C00828513837413F0851282851383E0700CBF
:10514C00850E82850F83E0600302572585088285D2
:10515C000983740112583F12577B125FEEA3A3E42C
:10516C001258A080128C828D8374021257E474063C
:10517C001258E08C0A8D0B7510040257258C828D09
:10518C0083740312583F800E8C828D8374041257E3
:10519C00EC8E828F83A312578E1257CD751003029B
:1051AC0057258C828D8374051257E404125973129F
:1051BC0020A912576A1219117402121E3C8E828F8A
:1051CC0083A312591EA3125864850C82850D83F09B
:1051DC0012575FC0E0125753D0E01257D5E0C0E031
:1051EC00125747D0E01257D5A3E0C0E0E508240ED3
:1051FC0012574BD0E0F0EE240FF8E43FF988828987
:10520C0083E0C0E0E508240F12574BD0E0125BBBE3
:10521C00C0E0E508241012574BD0E0F0EE2411F852
:10522C00E43FF988828983E0C0E0E5082411125735
:10523C004BD0E0125BBBC0E0E508241212574BD0F8
:10524C00E0F0EE2413125762C0E0E5082413125765
:10525C004BD0E01258A07510140257258C828D8308
:10526C0074061257E41258E0850E82850F8312578C
:10527C008DA31257F18A828B831257CF75100602B9
:10528C0057258C828D8374071257E41412584A12D6
:10529C00578EA3A3124D62A3A312578D1257F18CF4
:1052AC00828D83A3A3A3A31258158A828B831258D1
:1052BC0026888289831258B81258398C828D83A320
:1052CC00A3A3A3A3A3A3A312583512578E125864F9
:1052DC008C828D83A31257C675100B0257258C82B6
:1052EC008D8374081259701220A912576A12191161
:1052FC007402121E3C85080A85090B0256638C82C7
:10530C008D8374091259701220A912576A1219113F
:10531C007402121E3C8E828F83A3A3A3A3A3A3A308
:10532C00A3A3A37810121CDE850882850983A3A38E
:10533C00A3A3A3A3A3A3A3A3E5101258357810121B
:10534C001CDEE511850C82850D8312585E121CDE65
:10535C007410780C121BE6125753E50C12585E129F
:10536C001CDE7418780C121BE6125747E50C125809
:10537C00A075100E0257258C828D83740B1258D297
:10538C001220A9AC0EAD0FE5082403FAE43509FB95
:10539C001219117402121E3C12592F12575FC0E0E1
:1053AC00125753D0E01258A075100D0257257510E6
:1053BC006A7A6A7B001219E98A0A8B0BEA450B7030
:1053CC0003025582741C121E72125F2A7C6A7D00C5
:1053DC007900121929850A82850B83740A12595691
:1053EC00850E82850F83A3125852125896F9E849FC
:1053FC0060471257FD1259021220A98E828F831218
:10540C0044631219117402121E3CE5082410F508AD
:10541C00500205098E828F831257AA125896125881
:10542C001A1220A98E828F831257941219117402AA
:10543C00121E3CE50824088004E508241CF50850DD
:10544C000205098E828F83A3A312443F6056125724
:10545C00FDA3A3A3A31259021220A98E828F83A3AA
:10546C00A31244611219117402121E3CE508241097
:10547C00F508500205098E828F83A3A31257A81238
:10548C00585212326912581A1220A98E828F83A395
:10549C00A3A3A31257941219117402121E3CE5080F
:1054AC0024088004E508241CF5085002050912574D
:1054BC003912444760448508828509837401125966
:1054CC00121220A9125739124469121911740212BE
:1054DC001E3CE5082410F50850020509750C0678E9
:1054EC000C1220A912575F241012579D1219117417
:1054FC0002121E3CE50824068004E5082417F50872
:10550C00500205098E828F8312443F700302572587
:10551C0085088285098374011259121220A98E8282
:10552C008F831244611219117402121E3CE5082477
:10553C0010F508500205098E828F831257A8780C3B
:10554C00121CDE12598A121CDEE50D8508828509B3
:10555C0083125992121CDE7410780C121BE612592D
:10556C008A121CDE7418780C121BE68508828509D9
:10557C0083E50C025724850882850983740A125727
:10558C00EC850882850983A3A374131258FA125769
:10559C007B1258F9A3125B871258A0800D8C828D58
:1055AC0083740E1259A58C0A8D0B751005025725A4
:1055BC008C828D83740F1259A58E828F83A3A3A323
:1055CC00A3A3E08A828B8312581588828983125890
:1055DC00268C828D83A3A3A3A3A3A3A31258B8A341
:1055EC00125839F8A3E0F9E8A2E0E433F50AE854DC
:1055FC000260047A0280027A00EA420AE8540460EB
:10560C00047A0480027A00EA420AE8540860047AB8
:10561C000880027A00EA420AE9540160047A108098
:10562C00027A00EA420AE9540260047A2080027A83
:10563C0000EA420AE9540460047A4080027A00EAE3
:10564C00420AE954086004788080027800E8450A30
:10565C008C828D831257C675100A0257258C828D49
:10566C0083740C1259A5750A06780A1220A9EE2427
:10567C0005FCE43FFD1219117402121E3CEE240BC2
:10568C00125762850C82850D831258A075100C027E
:10569C00572512575F240DF510FA7B001219E98A71
:1056AC000A8B0BEA450B60688A828B83740D125946
:1056BC00568E828F83A3A3A3125881750C06750D89
:1056CC0000780C1220A9EE2405FCE43FFDAA08ABDF
:1056DC00091219117402121E3CE5082406F5085033
:1056EC00020509EE240B125762125879125879F5FB
:1056FC000C780C1220A91257DA1244691219117481
:10570C0002121E3C741C121E72125BAE74018008D5
:10571C008512828513837413F0741A121E72125B35
:10572C00AEE510F0AA0AAB0B7402025F3112573DC2
:10573C0022EE240CF582E43FF58322E508240DF5D6
:10574C0082E43509F58322E508240CF582E4350959
:10575C00F58322EE240CF582E43FF583E022EE245F
:10576C0004FCE43FFDE50824041AE43509FB22128D
:10577C00577F2212578322E0850882850983A3A3D1
:10578C0022A3E08C828D8322A3A3A3A3A3A3E02452
:10579C0012FCA3E03400FDAA08AB0922A3A3A3A327
:1057AC00A3A31257B222A3A3E0F8A3E01257BC2282
:1057BC00C82410F582E438F58322A3A3A3A3A3A3E2
:1057CC00A3A3A3F08C0A8D0B22F01257DA22EE243D
:1057DC000DF582E43FF58322F08514828515832232
:1057EC0012597CF022A3A3A3124D66A3A3A3A3E09A
:1057FC002285088285098374011258092212580DDA
:10580C002212588D8E828F832212582CE02212572E
:10581C00BC125881750C08780C2212582CA3E0226B
:10582C00124D6AA3A3A3A3A322125873221258C227
:10583C00A3E0221258432212598012584A22F085B2
:10584C00128285138322125927125809A3A3A3A3EA
:10585C00A322125873780C2212586AA3E022A3A335
:10586C00A3A3A3A3A3A3A31258C6A3A32212588332
:10587C0012573DE022A3E085088285098312588DDA
:10588C0022F0A38582088583092212592712599B7D
:10589C0012326E22F085080A85090B22E0850C82F3
:1058AC00850D83F0A385820C85830D221258C212BC
:1058BC0059B7A3A3A3221258C622124D6FA3A3A3B8
:1058CC00A3A3A3A3A3221258431258F2A3F0750A60
:1058DC0006780A221258E42212584A1258F2125828
:1058EC00F91259BCF022E08C828D83A322A3F0859F
:1058FC000E82850F8322A3123269C8241AF582E422
:10590C0038F583125927125889750C10750D0078CB
:10591C000C22A3A3A3A3A3A3A3A3A3E0850882851E
:10592C000983228E828F8312591E12586A125B9140
:10593C00A3A3A3F0EE240BF582E43FF58312594D9B
:10594C0022E0850C82850D83F022F0A37406125898
:10595C0089851282851383125882850E82850F8366
:10596C001258822212597C1258E4750A06780A22BF
:10597C0012598022F08514828515837406228508BD
:10598C0082850983E50C12599B1257B2780C2212AE
:10599C00580DA3A3A3A3A3A32212597C1258E485E8
:1059AC000E82850F83A31259B7F0221259BCA32281
:1059BC001258F2A3A32274F1121E96EAFEEBFF8C8E
:1059CC00088D09EE2405F50CE43FF50D8E828F83CE
:1059DC00A385820A85830B8E828F83A3A31220C09A
:1059EC00850A82850B83E0F9850C82850D83E04462
:1059FC0080FC7D04AA08AB091218C97402121E3C63
:105A0C00E9F50E850A82850B83E07035E50829FAE5
:105A1C00E43509FBEE2406FCE43FFD850C82850D84
:105A2C0083E014600A24F6601024F86007801212D8
:105A3C000C638008120C7B8003120C93EA250EF584
:105A4C000E740F121E72125BAEE50EF0AA08AB09B3
:105A5C007F07021F6874EA121E968A0E8B0F8C1237
:105A6C008D138A828B83A3E0F50A7418121E72E0E0
:105A7C00F510A3E0F511851082F583E4F0EA240813
:105A8C00F50CE4350FF50D850C82F583E02409FE49
:105A9C00A3E03400FFC3EE942DEF94004032EEFAF5
:105AAC00EFFB1219E98A088B09EA4509600B85108E
:105ABC00828511837401F0801B851208851309857A
:105ACC000C82850D83E0F8C3EE98FE750A138004F2
:105ADC008C088D09850E82850F83A3A31220C0A983
:105AEC000A7CF07D04AA08AB091218C97402121EB4
:105AFC003CE50E2404F8E4350FF988828983125BA7
:105B0C0087A3125BBB850882850983A3A3A3A3A3E8
:105B1C00A3F0850C82850D83125B8DF0850C82853C
:105B2C000D83A3125B8DA3F0E50E2406F50E500237
