:020000040000FA
:0600000002011A0225F1C5
:03002B00022DFAA9
:030053000226671B
:03006B00022D5A09
:03007B00022CEC68
:10008300022447E5C754F84401F5C779012200006B
:100093000080FB120086B90003020104E479217891
:1000A30008B800028004F709D8FCE479297802B87B
:1000B30000028004F709D8FCE49003C178A4791105
:1000C3008002F0A3D8FCD9FA781A90014A7A01BACF
:1000D30000028007E493A3F608DAF97A647B1490AC
:1000E300014B78C379058015E493A3AD82AE838A6F
:1000F300828B83F0A3AA82AB838D828E83D8E9D9C6
:10010300E7758299758382740412012C7582917547
:100113008300740012012C75D00075813F7518C1DE
:10012300751903759F00020096C09FF59FE473D075
:100133009F22D083D082C09FE493C0E0740193C018
:10014300E0740293F59F22011F0000000F000000DE
:1001530040000000AFFFFFFFA30000000400000009
:10016300000100000300000080000000A600000062
:1001730034100000050000000C0000001600000011
:100183000800000000000000360000000D01000020
:100193000A000000EC000000910C0000E0E6FFFF05
:1001A30071F3FFFF20190000BD02000056FFFFFF9F
:1001B30000020000260400003AFEFFFFA90500002C
:1001C300480600008F0C000047060000900C00005A
:1001D300B7F9FFFF020000003F00000068000000C5
:1001E3001000000029000000001000001101990117
:1001F3000F12640400AD270111310401023483019D
:1002030000002683023A830100000D150278830162
:1002130000000E15023C830300009904024E830183
:1002230000001615023E830100000F15FF0000B405
:10023300000028002800283075A000A000A000A01E
:100243000000080008E001F000100010001000108A
:10025300001000100050005000500010001000D09B
:10026300070000000000000F0001000500307507C3
:10027300001000010081FF00000000FFFFFFC50820
:10028300E308CB080709FF02020208025000A0009E
:100293000000E8030234830100002083023A830153
:1002A3000000A315024083010000D904023A830130
:1002B3000000A415024283010000EF04023A830107
:1002C3000000A515024483010000F104023A8301F2
:1002D3000000A615024683080000F204023A8301D7
:1002E3000000A715024883010000A815FF0100FFC5
:1002F300200234830100002F83023A830100000CA3
:1003030016024A830000000000023C830300002021
:100313000517007F0F7F0F7F0F7F0F7F0F7F0F7FEB
:100323000F7F0F7F0F7F0F7F0F7F0F7F0F3D124FC9
:10033300123712020202020202020202010D00003F
:100343000010010234830100002C83023A83010070
:10035300004F160274830100005A09023A83010018
:100363000050160272830100005D82023A8301008D
:100373000051160270830100004F82023A8301008C
:10038300005216025C83010000C981023A83010016
:10039300005316025883010000FF81023A830100D3
:1003A300005416025683010000DB81023A830100E8
:1003B300005516025483010000ED81023A830100C7
:1003C3000056160250830100004182023A83010065
:1003D300005716023883010000581601E803057719
:1003E300100A0A87131B001C001D001E101F00208B
:1003F3000021041B801B001D021E301FE020002172
:100403000429195A081B821B00140F180615041619
:10041300190F0F0000000000000890019001000276
:1004230020280101400006010E0948494420416487
:100433007652656D6F74650201050319C0030502E9
:1004430012180F184849442041647652656D6F7441
:10045300650000C00360EA0000014F1555155B15E8
:10046300FFFF01A3150000E60202192A0406011288
:1004730001011202011203010E0002120E120A0000
:10048300030234830100002383027A83010000778F
:100493000B023A830100008417026683400000F4D4
:1004A30082023A830100008817026A838000007980
:1004B3000B023A830100008917026E83C000008A91
:1004C30017023A8301000085170268834000000089
:1004D30080024C830100008617023A830100008BDF
:1004E30017026C834000007A0B023C838100007B7F
:1004F3000B024E830100008C17023A830100008E29
:1005030017026C834000007D0B023C838100007E58
:100513000B024E830100008F17023A830100009102
:1005230017026C83400000800B023C838100008132
:100533000B024E830100009217023A8301000094DC
:1005430017026C83C00000830B024E8301000095E9
:1005530017023A830100009717026083400000846A
:100563000B023C83810000850B023A830100009853
:1005730017026483C00000870B023A8301000099CD
:1005830017026283400000880B023C8381000089CC
:100593000B023A830100009A17026C83C000008BA0
:1005A3000B024E830100009B17FFFFFF0001307514
:1005B300030201060000000000000000000000002C
:1005C3000000000000000000000000000000000028
:1005D300FFFF0600800CE8030410023483010000CF
:1005E3002983023A83010000F418027E838000000D
:1005F3005D14023A83010000F518028083000000B5
:100603006114023C838100006214120135CBDA01CC
:1006130012013516DC0112013562DD011201355874
:10062300DE01120135B4DF011201351CE0011201B4
:10063300356DE101120135C4E401120135CCC30269
:1006430012013572C40212013513C5021201354E6F
:10065300C5021201352EC602120135CDC6021201A2
:100663003565C90212013503BA031201355FBA03B6
:1006730012013572BA03120135A4BA0312013527E8
:10068300BB0312013548BB0312013596BB031201AC
:100693003555BC03120135E3BC03120135B1BD036B
:1006A30012013507D7031201351AD7031201354B4F
:1006B300D70312013585D703120135DED7031201A3
:1006C3003525D8031201356DD8031201359CD803A3
:1006D300120135CBD80312013502D9031201354972
:1006E300D90312013562D903120135B7D9031201B7
:1006F30035D0D9031201351EDA0312013558DA0356
:100703001201359F8903120135A28A03120135DBD9
:100713008A03120135FE8A03120135108B0312017D
:10072300354E8B03120135CA8B03120135928C03AC
:10073300120135B48C031201354B8D031201359D23
:100743008D03120135CE8D03120135DB8D031201AA
:1007530035458E031201359C8E031201359F8E039E
:10076300120135D88E03120135DB8E03120135E5F4
:100773008E03120135398F031201357A8F0312016B
:1007830035AD8F03120135EA8F03120135EC900367
:10079300120135909103120135F991031201353796
:1007A30092031201355DCB0312013585CB03120190
:1007B30035B2CB03120135EACB0312013548CC0322
:1007C30012013594CC03120135FBCC031201353BE6
:1007D300CD0312013578CD03120135A6CD031201E5
:1007E3003550CE031201355ACE0312013567CE03BD
:1007F3001201359ACE03120135A6CE03120135BE7E
:10080300CE03120135C8CE031201350FFF031201C7
:10081300351DFF0312013535FF031201354CFF036C
:100823001201353BA801120135E5A801120135F883
:10083300A90112013574AA0112013592AB0112010B
:1008430035CEAB0112013569AC011201354DAD0155
:1008530012013519AE01120135A7AF011201351886
:10086300B001120135D2B001120135C4B101120138
:100873003504B201120135B8B201120135EAB201F1
:10088300120135E0B40112013522B50112013540E0
:10089300B501120135A6B50112013575B601120174
:1008A3003539B70112013558B90112013553F80230
:1008B3001201353DF902120135E8F9021201353909
:1008C300FA02120135E9FA021201355AFB0212014A
:1008D300353FFC0212013573FC021201356CFD0237
:1008E300120135A9FD0212013585FE02120135C43C
:1008F300FE02120135E0FE02120135BAED031201C8
:10090300353EEE0312013569EE0312013583EF0321
:1009130012013556CF031201356CCF031201358A0C
:10092300CF031201359BD003120135A5D003120169
:1009330035D0D103120135C7D20312013534D303A5
:100943001201355DF90112013593FA011201350DDA
:10095300FB011201353DFB0112013550FB01120170
:1009630035A7FB01120135BCFD0112013585830159
:10097300120135118401120135758501120135818A
:100983008501120135BC85011201352B8601120147
:10099300353487011201353D88011201350489017F
:1009A300120135618A011201357F8A011201359CDA
:1009B3008A01120135498B01120135C68B011201DF
:1009C30035EE8B01120135B88E01120135BD8E0152
:1009D300120135D69001120135249101120135948B
:1009E3009101120135D29101120135AE920112012A
:1009F300356E9301120135BA9301120135BD93018E
:100A0300120135019401120135499401120135880F
:100A13009401120135AA9401120135DE94011201E9
:100A230035419501120135E0A603120135EEA60307
:100A330012013541A70312013560A703120135A541
:100A4300A703120135E9A80312013584A903120192
:100A530035C8A903120135F2A90312013561AA03AE
:100A6300120135A7AA031201351EAB03120135CFBC
:100A7300AB03120135342E00120135442E0012014E
:100A830035E52E00120135412F00120135FE2F00EE
:100A93001201351A31001201354C31001201357B38
:100AA30031001201352833001201359F3500120140
:100AB300350F3800120135013900120135FA3900BA
:100AC300120135013C00120135F53E0012013524B7
:100AD300400012013528420012013538430012014B
:100AE30035C74400120135B84500120135064600EA
:100AF300120135754600120135994600120135EA97
:100B030046001201358B4B001201358C4C0012014B
:100B130035ED4C00120135184D00120135DE4D0044
:100B230012013523C7031201352DC7031201357294
:100B3300C70312013586C70312013516C803120114
:100B4300354FC8031201358AC803120135B3C803F0
:100B530012013507C9031201351CC9031201353EC1
:100B6300C90312013553C90312013567C9031201C1
:100B7300357CC903120135B6C903120135E2C90335
:100B830012013572CA031201359DCA03120135E001
:100B9300CA031201350ACB0312013535CB03120107
:100BA300350FFB0312013532DA0212013515DB0270
:100BB30012013590DB02120135CBDB021201351C29
:100BC300DD02120135AADD021201353CE0021201F9
:100BD30035EEE002120135FAE1021201356DE3024E
:100BE300120135C6E30212013591BE03120135D459
:100BF300BE0312013558BF031201352FC203120180
:100C0300353BE403120135EDE403120135E9E50355
:100C130012013528E60312013582E6031201356D10
:100C2300F303120135D0F3031201356DF4031201FE
:100C330035A2F403120135D2F4031201350DF50385
:100C43001201352DF503120135B9B00312013545F3
:100C5300B10312013504B2031201351CB3031201AF
:100C63003536B50312013548B8021201356DB802A5
:100C73001201353AB9021201350EBA021201357B5F
:100C8300BA02120135BBBA0212013557BB02120177
:100C9300358BBC0212013566BD02120135C5BD029A
:100CA30012013551BE02120135BFBE021201354B8E
:100CB300BF0212013591BF0212013503C0021201B6
:100CC3003595C00212013536C10212013556C102F3
:100CD3001201359EC102120135E7C102120135032B
:100CE300C20212013529C202120135A3C202120146
:100CF30035B1C20212013540C302120135A9C30244
:100D03001201356DB503120135F2B5031201353405
:100D1300B60312013518B70312013585B703120163
:100D230035C9B7031201350DB8031201353AB803BB
:100D330012013562B8031201359AB803120135D88E
:100D4300B803120135FFB80312013579B903120153
:100D530035C3B9031201353ECA01120135DDCB019A
:100D630012013515CE0112013569CE0112013594F8
:100D7300CE0112013570CF01120135A0CF0112014E
:100D830035CFCF01120135E2CF0112013523D00156
:100D930012013550D0011201359ED001120135DA0E
:100DA300D0011201351FD1011201356CD10112019D
:100DB30035E6D10112013527D40112013511D601CF
:100DC3001201354DD601120135DCD701120135214F
:100DD300D80112013594D801120135E9D801120165
:100DE300354DD90112013578D90112013597DA0150
:100DF300120135A8DA011201350080031201357999
:100E030080031201353386031201353E8703120135
:100E130035E7880312013575890312013599680096
:100E23001201351A69001201354769001201359024
:100E33006900120135916A00120135EA6A00120154
:100E430035666C00120135E86C00120135036D0044
:100E5300120135746D00120135316E00120135F443
:100E63006E00120135826F001201353970001201D4
:100E7300354C7000120135E570001201357C7100AC
:100E8300120135A371001201350C7200120135569F
:100E93007200120135A47200120135497300120168
:100EA30035E77300120135747400120135E57400DF
:100EB3001201352C7500120135847500120135B607
:100EC3007500120135707600120135777700120133
:100ED30035C07700120135DD7700120135FC77004C
:100EE3001201352F7900120135E679001201350B15
:100EF3007A00120135207A00120135907A0012012E
:100F030035D17A00120135F57B00120135767C006C
:100F130012013593EE02120135DEEE02120135EABB
:100F2300EE02120135BEEF02120135D5EF021201B6
:100F33003512F00212013543F0021201357BF00243
:100F4300120135D1F002120135E7F0021201352307
:100F5300F10212013536F1021201355DF10212017F
:100F63003591F102120135B7F20212013501F40293
:100F7300120135FDF4021201351AF6021201352968
:100F83002E001201357BEA01120135B6EA01120186
:100F93003508EE0112013564EF0112013523F0012A
:100FA3001201358AF30112013574F401120135C0BF
:100FB300F401120135DAF40112013517F5011201BA
:100FC3003522F50112013561F5011201356AF5018A
:100FD30012013514F601120135EBF6011201353F0A
:100FE300F7011201359CF7011201350EF8011201C8
:100FF300351996011201357899011201357E99014F
:10100300120135AFA001120135B6A401120135C09A
:10101300DA0312013556DB031201356CDB031201CF
:1010230035C5DB0312013509DC0312013543DC034B
:10103300120135DBDC031201354ADD03120135539E
:10104300DD031201355FDD0312013579DD03120182
:1010530035A3DD03120135B8DD031201351ADE03B2
:1010630012013541DE03120135E1C203120135EEEF
:10107300C20312013508C3031201353BC303120136
:101083003579C303120135DEC303120135F3C303FC
:10109300120135FEC3031201350BC40312013522BD
:1010A300C40312013530C4031201353BC4031201DA
:1010B3003547C40312013556C40312013561C40315
:1010C30012013584C40312013528C50312013538D2
:1010D300C50312013552C5031201356FC503120151
:1010E300358AC503120135AFC503120135BAC503ED
:1010F300120135CFC503120135E3C503120135448F
:10110300C6031201354AC60312013550C603120144
:101113003556C6031201356EC603120135A1C60347
:10112300120135C5AA021201355CAB02120135F476
:10113300AB02120135E4AC021201351BAD02120100
:10114300352EAD021201359CAD0212013537AF02C7
:101153001201355EAF0212013500B00212013535BE
:10116300B00212013546B002120135BFB0021201BE
:1011730035E0B002120135F8B00212013550B20267
:1011830012013559B402120135A9B602120135AC68
:10119300B702120135FBB7021201350080021201BA
:1011A30035FD8002120135E88102120135F2810218
:1011B30012013514820212013520820212013572A6
:1011C3008302120135A18302120135D18402120177
:1011D300351385021201353F860212013515870248
:1011E300120135678702120135C68702120135FDE8
:1011F3008702120135388802120135D38B0212019E
:1012030035EC8B021201356E8C021201357C8C0297
:10121300120135D18C02120135DF8C021201354CDB
:101223008D02120135BE8D02120135048E021201A8
:101233003522CF0212013544CF021201352ED102DD
:10124300120135D3D40212013516D602120135F03C
:10125300D6021201353BF50312013560F503120185
:1012630035D1F5031201355D920312013566920300
:101273001201356F9203120135A09303120135BF9A
:101283009503120135F595031201352F96031201CB
:10129300356596031201359F9603120135D39603E4
:1012A300120135FF96031201354897031201358267
:1012B3009703120135CA97031201352098031201CF
:1012C30035559803120135B09803120135EA980396
:1012D3001201353B9903120135719903120135ABA4
:1012E3009903120135D99903120135FC99031201AF
:1012F30035C68004120135F280041201354D810494
:101303001201355781041201356781041201356FCB
:10131300DE0312013596DE03120135F18204120158
:10132300354A4E00120135D45000120135D951000F
:101333001201359B53001201350754001201356128
:1013430055001201352157001201354A5700120189
:10135300359B57001201353E5B00120135965C0048
:10136300120135D45C00120135975F001201357606
:101373006000120135C36100120135DA6100120108
:1013830035196600120135E06700120135ADE60339
:101393001201353FE703120135CBE8031201351F74
:1013A300FE031201353EFE031201355CFE031201FA
:1013B30035B4FE03120135CBFE0312013541FF02A2
:1013C30012013552FF02120135F2FF02120135BE3E
:1013D30083041201351882041201352F820412018D
:1013E30035798204120135ED830412013528FD039A
:1013F3001201353AFD0312013554FD031201356024
:10140300FD031201356CFD031201351CFE031201AD
:101413003523FC03120135A9FC031201350FFD032B
:1014230012013573EB03120135B5EB0312013501DC
:10143300EC0312013571EC03120135A7EC03120121
:10144300351DED031201356DED0312013581ED03F9
:10145300120135F1F60312013510F703120135B00D
:10146300F7031201353CF80312013552F803120158
:1014730035B2EF03120135F3EF0312013559F003CF
:1014830012013514F10312013589F1031201358C70
:10149300F103120135E7FF01120135F7FF011201D4
:1014A30035FAFF011201358A9A03120135A99A030D
:1014B300120135DA9A031201355A9B03120135B32F
:1014C3009B03120135CF9B03120135F49B031201D9
:1014D30035709C03120135689D03120135AB9D03E2
:1014E3001201359FA003120135E1A003120135F863
:1014F3007F001201351AE9031201353FEB03120194
:10150300356FE40212013591E60212013539E70223
:101513001201355BEA02120135A2EB02120135E634
:10152300EB02120135E9EB021201354DEC02120117
:10153300355EEC0212013574EC0212013598EC02AF
:10154300120135A3EC02120135B4EC021201350B82
:10155300EE021201356BEE021201356EEE0212013C
:101563003589EE021201358EEE021201358D8E029F
:10157300120135F48E021201355F90021201357AA1
:1015830090021201358C900212013567910212010B
:10159300354B92021201356D9202120135C094024D
:1015A300120135B8970212013535990212013599A6
:1015B3009902120135019A021201354D9A02120164
:1015C30035509A021201357C9B02120135279C0289
:1015D3001201353ED30312013535D6031201359D71
:1015E300D60312013500800412013529800412014B
:1015F300355780041201352FA10312013539A10398
:101603001201357AA103120135C9A1031201352054
:10161300A2031201357AA20312013599A203120122
:1016230035A3A203120135F4A20312013522A30349
:1016330012013504A4031201352EA50312013571DD
:10164300A503120135BAA503120135CCA503120176
:1016530035EBA503120135F4A503120135B6A60334
:1016630012013568F803120135BEF8031201354B38
:10167300F903120135ABE103120135D5E103120180
:1016830035CCE203120135B1E303120135D0F9037E
:1016930012013583FF01120135AC7C00120135E2E2
:1016A3007C001201355C7E00120135B57F0012010A
:1016B300357181041201358781041201359181044A
:1016C300120135E78104120135ED9C02120135B593
:1016D300A00212013552A1021201356DA4021201BA
:1016E30035DCA702120135F3A70212013590A902D6
:1016F300120135DAA902120135E1AB03120135F605
:10170300AB03120135DEAC0312013511AD03120137
:10171300355EAD03120135BCAD0312013528AE03AE
:101723001201354AB00312013565B9011201358240
:10173300BE0112013517C0011201356EC00112013D
:101743003592C00112013510C10112013501C501E5
:101753001201350FC60112013591F103120135ED66
:10176300F10312013500F2031201359CF203120159
:1017730035A1F2031201353B8304120135C1830401
:10178300120135DCFF03E066701008A3E066700AFF
:1017930008A3E066700408A3E06622C3E09608A3EA
:1017A300E09608A3E09608A3E096A2D265D0332280
:1017B300C008C3E096F50808A3E096420808A3E032
:1017C30096420808A3E0964208A2D265D033E50802
:1017D3007001D3D00822C3E7960809E7960809E702
:1017E300960809E79622C3E09608A3E09608A3E0CB
:1017F3009608A3E09622C008C3E096F50808A3E084
:1018030096420808A3E096420808A3E096450870AC
:1018130001D3D00822080808EAC0E0EBC0E086F054
:10182300E7A4FA180986F0E7A42AFA180986F0E76C
:10183300A42AFA180986F0E7A42AFA1986F0E7A47D
:10184300FBE5F02AFA190886F0E7A42BFBE5F03A4A
:10185300FA190886F0E7A42BFBE5F03AFA18180901
:1018630086F0E7A4C5F02BFBE43AFA1908E7C5F0C4
:10187300C6A426F6E5F03BFBE43AFA1886F0E7A4A3
:10188300F6E5F00826F6E43B08F6E43A08F6D0E07D
:10189300FBD0E0FA22E4CFC0E0E4CEC0E0E4CDC068
:1018A300E0E4CCC0E075F020E626F608E633F6085F
:1018B300E633F608E633F6181818EC33FCED33FD7F
:1018C300EE33FEEF33FFC3EC9709ED9709EE97096B
:1018D300EF97191919400FFFEC97FC09ED97FD09D4
:1018E300EE97FE191906D5F0BFECF709EDF709EEEF
:1018F300F709EFF7191919D0E0FCD0E0FDD0E0FEAD
:10190300D0E0FF2212196F18181812189812195ED6
:101913001919192212195E191919080808E6181855
:101923001820E7E012189812196F181818220909DD
:1019330009E719191920E7DC080808E61818182020
:10194300E70302189812196F181818121898121929
:101953006F18181812195E19191922E4C397F70999
:10196300E497F709E497F709E497F722E4C396F6B7
:1019730008E496F608E496F608E496F6226017085B
:101983000808C6A2E713C618C613C618C613C61896
:10199300C613C6D5E0E9226016080808C6C313C6F5
:1019A30018C613C618C613C618C613C6D5E0EA224E
:1019B3007009080808226016181818C6C333C60829
:1019C300C633C608C633C608C633C6D5E0EA22E620
:1019D30027F60809E637F60809E637F60809E63771
:1019E300F622E026F608A3E036F608A3E036F6086A
:1019F300A3E036F622E026F008A3E036F008A3E0E1
:101A030036F008A3E036F022C3E697F60809E69716
:101A1300F60809E697F60809E697F622C3E0C696A4
:101A2300F608A3E0C696F608A3E0C696F608A3E078
:101A3300C696F622C3E096F008A3E096F008A3E06A
:101A430096F008A3E096F022E056F608A3E056F6D7
:101A530008A3E056F608A3E056F622E056F008A3E2
:101A6300E056F008A3E056F008A3E056F022E0F6B3
:101A730008A3E0F608A3E0F608A3E0F622E6F008E0
:101A8300A3E6F008A3E6F008A3E6F022E0FAA3E059
:101A9300FBA3E0FCA3E0FD22EAF0A3EBF0A3ECF050
:101AA300A3EDF022E0F8A3E0F9A3E0FAA3E0FB2220
:101AB300E8F0A3E9F0A3EAF0A3EBF022CAC0E0E662
:101AC300F0A308DAFAD0E0FA22CAC0E0E0A3C582A4
:101AD300CCC582C583CDC583F0A3C582CCC582C5E1
:101AE30083CDC583DAE6D0E0CA22C3E498F8E4994B
:101AF300F9121B2E8026C3E49AFAE49BFBE920E744
:101B0300E9121B2EE498F8E499F922C3E498F8E467
:101B130099F9121B2EE498F8E499F9C3E49AFAE4CC
:101B23009BFB22EB20E7CFE920E7E0B90010BB00E5
:101B330008E88AF084F8AAF022E4FBC8FA22EB70E2
:101B4300227B10C833C8C933C9335007C39AC3DBD8
:101B5300F280069A50012ADBEAC833F4C8C933F489
:101B6300C9FA2275F008E4C833C8C933C933C99A1E
:101B7300C99B5004C92AC93BD5F0ECFBC833F4C850
:101B8300E4C9FA22600D08C6A2E713C618C613C635
:101B9300D5E0F322600C08C6C313C618C613C6D516
:101BA300E0F422700422600D18C6C333C608C6339E
:101BB300C6D5E0F41822251810AF08F518400C1507
:101BC300198008F51840021519D2AF2200C0D0259C
:101BD3001810AF08F518500C05198008F5185002B5
:101BE3000519D2AFD0D0222518F58210AF08F51809
:101BF300400C15198008F51840021519D2AF851944
:101C030083222518F582E43519F583222518F8E493
:101C13003519F9222518FAE43519FB222518FCE4B5
:101C23003519FD22E4732518C582C0E0E51934FF98
:101C3300C583C0E0E518C3958224F810AF088583F7
:101C4300198582188008858319858218D2AFCEF052
:101C5300A3E520F0A37808E608F0A3DEFAEFF0A3EB
:101C6300E58124FAF8E608F0A3E608F0A3E608F015
:101C7300A30808E608F0A3E608F0A315811581D0B0
:101C8300E0FED0E0F8158115811581E8C0E0EEC0D3
:101C9300E0222518C582C0E0E51934FFC583C0E002
:101CA300E518C3958224F910AF0885831985821836
:101CB3008008858319858218D2AFCEF0A3E520F082
:101CC300A37808E608F0A3DEFAEFF0A3E58124FB8E
:101CD300F8E608F0A3E608F0A30808E608F0A3E690
:101CE30008F0A315811581D0E0FED0E0F815811529
:101CF30081E8C0E0EEC0E022851983851882E0A365
:101D0300FEE0A3F5207808E0A3F608DFFAE0A3FFDE
:101D1300E0A3C0E0E0A3C0E0E0A3C0E0E0A3C0E034
:101D2300E0A3C0E010AF0885821885831980088579
:101D33008218858319D2AFD083D0820201328519EC
:101D430083851882E0A3FEE0A3F5207808E0A3F6DC
:101D530008DFFAE0A3FFE0A3C0E0E0A3C0E0E0A354
:101D6300C0E0E0A3C0E010AF088582188583198026
:101D730008858218858319D2AFD083D08222C0D040
:101D83002518C582C0E0E51934FFC583C0E0E51816
:101D9300C3958224F310AF088583198582188008C0
:101DA300858319858218D2AFC8F0A3E9F0A3EAF0BE
:101DB300A3EBF0A37908E709F0A3D8FAECF0A3EDBD
:101DC300F0A3EEF0A3EFF0A3D0E0F0A3D0E0F0A3F4
:101DD300D0E0F0A3E520F0A3E5F0F0A3228519837A
:101DE300851882E0C0E0A3E0F9A3E0FAA3E0FBA337
:101DF3007808E0F608A3DFFAE0FCA3E0FDA3E0FE29
:101E0300A3E0FFA3E0C0E0A3E0C0E0A3E0F5D0A31C
:101E1300E0F520A3E0A3F5F010AF088583198582D0
:101E2300188008858319858218D2AFD082D083D0D9
:101E3300E0F8D0E03274048006740280027401C0BA
:101E4300E0F404121BEAD0E0121ABF2274048004E7
:101E530074028000CCC0E0EDC0E0E518C39CCCADBB
:101E63001950011D10AF068C188D1980068C188D22
:101E730019D2AF121ACCD0E0FDD0E0FC22D083D02F
:101E830082E9C0E0E493A3C386F0C5F095F0F908B6
:101E9300E493A386F0C5F095F0700BE493A3C39984
:101EA3004005E9048002A3E475F002A42582F582CB
:101EB300E5F03583F583D0E0F9E493A3C0E0E49340
:101EC300C0E022D083D082ECC0E0EDC0E0E493A375
:101ED300FCE493A3FDED4C600D121F12EC24FFFCF8
:101EE300ED34FFFD80EFE493A3FCE493A3FDED4CFD
:101EF300600D121F51EC24FFFCED34FFFD80EFD089
:101F0300E0FDD0E0FCE493A3C0E0E493C0E022C092
:101F1300E0C3E49396087401939618400FE4936624
:101F2300700808740193661870007019A3A3C3E4C2
:101F33009396087401939618A3A3400DD0E0D0E0C4
:101F4300D0E0021F02A3A3A3A3A3A3D0E022C0E077
:101F5300C0F088F0E4936670080874019366187003
:101F630000A8F0A3A3700BD0F0D0E0D0E0D0E00243
:101F73001F02A3A3D0F0D0E02274F6121C95EAFE50
:101F8300EBFF8C088D09EE2434F8E43FF9E8FCE913
:101F9300FDEE243512228FFAEE243712228FF885B4
:101FA30008F0A4C885F00A8509F0A4250AF9EA28EF
:101FB300F8E439F97A257B00121B2EEA8C828D8393
:101FC300F0FA131313541FF8EE28F8E43FF9E8244A
:101FD3005DF582E439F583E0C0E074075AF8D0E098
:101FE300B800028004C313D8FCA2E0EE50082434E6
:101FF300F582E43F8018243612228FF5F0EA84A894
:10200300F0EE28F8E43FF9E82438F582E439F58363
:10201300E0F97F03021D4174F7121C95EAFEEBFF02
:10202300EE243412228FC0E0EE2435F582E43FF52E
:1020330083D0E0F08E828F83A3A3A3A3A3A3A3C023
:1020430082C0838E828F83A3A3A3A3A3E0F8A3E01C
:10205300F9D083D082E0C398F508A3E099F509EE9F
:10206300247F12228F6401703EEE2480F582E43FC8
:10207300F583C082C0838E828F83A3A3A3A3A3E02F
:10208300240108A3E03400F9D083D082E068700310
:10209300A3E06970127CCB7D06120EBFEE247FF5A0
:1020A30082E43FF583E4F0AC08AD09EEFAEFFB12EE
:1020B3001F7CE9F9122CDE7F02021D41C082C0831E
:1020C300851882851983E0F8A3E0F9C3EA9CEB9DA8
:1020D3005010C3EC98ED99401BC3EA98EB99501448
:1020E300800EC3EA98EB994007C3EC98ED9940043E
:1020F300790180027900D083D08222EAC39CFAEB73
:102103009DFB2274EF121C95900590E06408600516
:10211300E06407702A9061C8E060249005BEE0F493
:10212300601DE0F875F00BA4C8AAF02AF974C02862
:10213300FE740539FF8E828F83A3A3A3E07003028D
:102143002214906060E0C0E0EE2468F582E43FF57D
:1021530083D0E0F0750C3B750D0775080075090019
:10216300E5D914F50AE5D95403F50E601274036535
:102173000E6043E50A600AEE246712228F70028024
:1021830075900736E06401601F12228C60047A04A4
:1021930080027A00E50AC39AFA95E0FB120D698A78
:1021A300088B09EA45097005121105806412228C17
:1021B30070048A0C8B0DE50A6012850C82850D83F1
:1021C300F50BE5D9F0A3150BE50B70F612228C6025
:1021D3004474FC250AF50A780C121E3CAC0AA90EBD
:1021E300EEFAEFFB120F797402121BCFE97026AAE5
:1021F30008AB09121669793D8E828F83A3A3A3A32B
:10220300E0FA7B00120BCBEEFAEFFB120EE3120F98
:102213008B7900806F7403650E6051850A10751108
:10222300007810121E3CAC0CAD0DAA08AB09120FBE
:102233003D7402121BCFEE246812228F6480700457
:10224300747F8001E0F50C780C121E40E50EF50C4E
:10225300780C121E40A90AAC08AD099005BEE0FA3D
:102263007B00120BA17402121BCF8013900590E028
:102273006408600BAC0CAD0DEEFAEFFB1210031209
:10228300111179017F0A021D41EE2483F582E43F97
:10229300F583E02274F2121C9574FC121BB9EAFE5A
:1022A300EBFF8909A2AFE433F508C2AF022361E073
:1022B300601B780C121E3CAC0BA90EEEFAEFFB125E
:1022C3000F737402121BCF7404250BF50B740125D5
:1022D3000BF5D9850ED9E50B6018F50A850C8285B7
:1022E3000D83E0F5D9A385820C85830D150AE50AD4
:1022F30070EA75E195EE2463F8E43FF97A007B0018
:10230300A2AFE433F50BC2AF88828983E0FCA3E07C
:10231300FDEC4D603A88828983E0FAA3E0FB8A8270
:102323008B83E0FCA3E0FD88828983ECF0A3EDF0CE
:102333008A828B83E4F0A3F088828983E0FCA3E0A4
:10234300FDEC4D700A88828983A3A3E4F0A3F0E532
:102353000BA2E092AF1216699006D2E004F0EE24CD
:102363006312228FF8A3E0F9E8496064EE24631254
:10237300228F2402F8A3E03400F988828983E5825E
:102383002402F50CE43583F50DE0F50BA3E0F50E1F
:10239300EE246212228F640170369061D0E0F8124D
:1023A300228C60047C0480027C007480C398FA95BC
:1023B300E0FBE50B2CF8E43400F9E82402F85001C3
:1023C30009C3EA98EB99A2D265D03340030222B243
:1023D3009006D2E0604D9006D3E0F89006D2E0C3B9
:1023E30098500C74026509703A9006D4E060348EFC
:1023F300828F83A3A3A3A3E0851882851983122464
:10240300367402121C05E81224369006D1E028F037
:102413007402121C1FAA18AB197901120BF590064E
:10242300D2E4F0E508A2E092AF7404121BCF7F0759
:10243300021D41F0A3E4F09006D2E0F82285218743
:102443008522C622C0E074EB121D81A2AFE433F5EE
:1024530008C2AF759B00906182E0A2E05030E59125
:10246300A2E0502A7591FE7401652170211225DACC
:102473001210511225C8121E4F122A887404121BFF
:10248300CFE9640170057901121099122106906158
:1024930082E0A2E5505DE591A2E550577591DF908A
:1024A3000590E064076005E06408702F1225DA7474
:1024B300016521703E1210511225C8121E4F122AB7
:1024C300887404121BCFE964017005790112109915
:1024D3007901EEFAEFFB1222978018E0640D701376
:1024E3009005B2E004F064287002E4F07A00E0F9A9
:1024F300121117906182E0A2E6400302259DE59147
:10250300A2E6400302259D7591BF900590E0640506
:102513007008121039121045800312103F75210004
:102523001210A5E9900591F07900121099120E2F5F
:102533007A017B0090058FE0F9121639907803E059
:102543006442705690073AE014F0704EC2AF122501
:102553005400782AD0E0F618D0E0F6E59F5407F847
:102563007005750DFF8003750D7FC4C0E07829E603
:10257300F50A08E6550DF50B740B780A121B97D074
:10258300E0250AF8906270E0A2E740F8E8C33390D0
:102593006272F0906270E0D2E0F0906181E0A2E3B9
:1025A3005009E5E9A2E3500375E9F7A3E0A2E75078
:1025B30009E591A2E7500375917FE508A2E092AF88
:1025C3007F08021DE08E828F83E0F8A3E0C8241603
:1025D300F582E438F583229005BEE0F875F00BA48C
:1025E300C8AAF02AF974C028FE740539FF22C0E096
:1025F300C0D0C082C083906183E0A2E05009E5BFF0
:10260300A2E0500375BFFEE0A2E15009E5BFA2E1DD
:10261300500375BFFDE0A2E25009E5BFA2E25003FB
:1026230075BFFBE0A2E35009E5BFA2E3500375BF0A
:10263300F7E0A2E45009E5BFA2E4500375BFEFE061
:10264300A2E55009E5BFA2E5500375BFDFE0A2E6AE
:102653005009E5BFA2E6500375BFBFD083D082D037
:10266300D0D0E032C0E074F2121D81E5A7A2E6509B
:102673000FE5A1A2E6500953A7BF75A1BF1226BB60
:10268300E5A7A2E5500CE5A1A2E5500653A7DF7527
:10269300A1DFE5A7A2E15009E5A1A2E1500375A1DD
:1026A300FDE5A7A2E2500CE5A1A2E2500653A7FB69
:1026B30075A1FB7F01021DE074F7121C95752101C2
:1026C300900590E064067015120FAF8A828B83A386
:1026D300A3A3A3A3A3E0FAA3E0FB121027A2AFE4F2
:1026E30033FED2AF900596E0640170187A207B0028
:1026F30090058FE0F91217117A207B0090058FE087
:10270300F912163F906182E0D2E6F0900737E0605D
:102713002185C6228016900595E064017008E5C600
:1027230054F84405F5C653BEFC12244074016521D8
:1027330060E4EEA2E092AF7F02021D41008E238F80
:1027430024858228858327851882851983E0CEA373
:10275300E0CF852882852783EBC9EAC8EDCBECCA95
:1027630075F010C3E833C8E933C9EA33CAEB33CB96
:10277300C3EA9EF526EB9FF525B35004AB25AA26A5
:10278300EC33CCED33CDD5F0DAAE23AF242274E9AC
:10279300121C9574FA121BB9EAFEEBFF8C0A8D0B1F
:1027A30012105DEAF8EBF9ECFAEDFB8E828F8312DF
:1027B3001AB3900590E024F7C394055006751401ED
:1027C3000228F8120FAF8A088B09EA450970030241
:1027D30028F5EEFCEFFDAA18AB19121057850882F5
:1027E300850983A3A3780C121A719082E8780C12DE
:1027F3001A4B8518828519837810121A719082E812
:102803007810121A4B780C79101217D9501F780CC4
:102813007910121A0B9082C4780C1217F94047856D
:102823000C14850D15850E16850F1780459082C4EF
:102833008510148511158512168513177814790CD4
:10284300121A0B78141217F9501C75140075150021
:1028530075160075170178147910121A0B7814790C
:102863000C1219D2800C75140175150075160075BC
:102873001700740978141219B39082C8780C121ACD
:10288300717814790C121898850882850983A3A39B
:10289300A3A3A3A3122916121B2E880C890DE4F5FA
:1028A3000EF50F7814790C1219D27404121C051248
:1028B3002916121B2EE8FA8A0CE4F50D7814790C0C
:1028C3001217D950077814790C121A0B900590E05F
:1028D3006408600AE064066005E064057020908285
:1028E300CC78141217F950169082D078141219E587
:1028F300800C751400751500751600751700850A90
:1029030082850B837814121A807406121BCF7F10F2
:10291300021D41E0F8A3E0F97AD07B032274F71299
:102923001C9512106F900735E0640170109062459A
:10293300E4F0A3F053F4F343FE0C5390F312101599
:10294300E5C654B84441F5C6E59E5447644170F862
:10295300906185740FF0900733E0F47002A3E06098
:102963004E900734E0600814601B14602E8040759D
:102973000801750900900733E07808121BA6E508E3
:10298300F45280802A750801750900900733E078B6
:1029930008121BA6E508F452908014750801750906
:1029A30000900733E07808121BA6E508F452A079DB
:1029B300007F02021D4174F7121C95E9FEEAFF1223
:1029C300106F74016E700C7A807B0090058FE0F9B4
:1029D300121639902E2CE493F46008E493F9120E46
:1029E30023800953C6B8E59E544770FA12101B9012
:1029F3000735E064017003120E41900733E0F47071
:102A030002A3E0604B900734E0600814601A14607E
:102A13002C803D750801750900900733E078081292
:102A23001BA6E508428080287508017509009007F8
:102A330033E07808121BA6E508429080137508015D
:102A4300750900900733E07808121BA6E50842A039
:102A5300120FAF8A088B09A808A909E8496014E591
:102A6300E170FCE82414F582E439F583E0F46003B3
:102A7300E0F5E174016F700A7A0190058FE0F912B5
:102A830016BD0229B474F1121C958A088B098C0AAD
:102A93008D0B9082E87808121A4B740F121C05787C
:102AA3000C121A719082E8780C121A4B7808790C80
:102AB3001217D99082C450107808790C121A0B7827
:102AC300081217F94014800E780C7908121A0B7843
:102AD3000C1217F950047901800279007F08021D56
:102AE3004174ED121C958A088B098C0A8D0B908218
:102AF300E87808121A4B7413121C05780C121A7119
:102B03009082E8780C121A4B780C79081217D94086
:102B1300117808790C121A0BAA08AB09AC0AAD0B91
:102B2300802275100075110075120075130178105D
:102B3300790C121A0B781079081219D2AA10AB115A
:102B4300AC12AD137F0C021D419082E87808121A73
:102B5300718A828B837808121A5E7F04021D417486
:102B6300F5121C958C828D837808121A718A828BD8
:102B7300837808121A37122BBAC3E09CF0A3E09DA6
:102B8300122BAC402290830C7808121A718A828B24
:102B93008378081219F88A828B83A3A3A3A3E02462
:102BA30020F0A3E0344EF080A0F088828983C3E054
:102BB3009420A3E0944E22EA2404F8E43BF98C82A7
:102BC3008D83A3A3A3A3E0FCA3E0FD8882898322D2
:102BD30074F5121C95E9FE9006EDE0FAA3E0FBEE16
:102BE30029F8E433F9742128F582748239F583E0F6
:102BF3002AF508A3E03BF5097808121E3C908300F0
:102C0300121A8F1227407402121BCF8A088B098C69
:102C13000A8D0B7410780812199AAA08AB097F045D
:102C2300021D4174F1121C958A0C8B0D8C0E8D0FB5
:102C33007411121C05121E537411121C05E0240199
:102C4300F508A3E03400F509E4F50AF50B780C79EF
:102C5300081218189082DC7808121A71780C790817
:102C6300121818AA0CAB0DAC0EAD0F12274074024C
:102C7300121BCF8B09EA450960047A0180027A00AE
:102C8300EC2AFCE43DFD7413121C05E0F8A3E0F903
:102C9300E8FEE9FFECF8EDF97A717B02121B2E884E
:102CA300088909E4F50AF50B8E828F837808121AD6
:102CB30080ECF8EDF97A717B02121B2E8A088B09DE
:102CC30074057808121BA68E828F83A3A3A3A3E5A2
:102CD30008F0A3E509F07F08021D41C082C083E923
:102CE300906000F0D083D08222C0E0C0D0E8C0E082
:102CF300E9C0E0EAC0E0EBC0E0ECC0E0EDC0E0EE2C
:102D0300C0E0C082C083C0F0A2AFE433FED2AFE51F
:102D13008AA2E25018E58DA2E25012538DFB539A1A
:102D2300EF7A007B01900A49E0F9121639758A009F
:102D3300C2EBEEA2E092AFD0F0D083D082D0E0FE1F
:102D4300D0E0FDD0E0FCD0E0FBD0E0FAD0E0F9D059
:102D5300E0F8D0D0D0E032C0E0C0D0E8C0E0E9C0B5
:102D6300E0EAC0E0EBC0E0ECC0E0EDC0E0EEC0E0C4
:102D7300C008C009C00AC00BC082C083C0F0AEA89F
:102D8300D2AFE5895407603753ABF87589F8900AD9
:102D930053E070287401F012168D75081975090037
:102DA300750A00750B007808121E387A017B0090B3
:102DB3000A49E0F91217057404121BCF43AB0775D8
:102DC30089F8C2C5EEA2E7E433F8EEA2E792AFD0EA
:102DD300F0D083D082D00BD00AD009D008D0E0FE47
:102DE300D0E0FDD0E0FCD0E0FBD0E0FAD0E0F9D0B9
:102DF300E0F8D0D0D0E032C0E0C0D0E8C0E0E9C015
:102E0300E0A9A8D2AFC2C7751A00E9A2E7E433F874
:102E1300E9A2E792AFD0E0F9D0E0F8D0D0D0E03229
:102E2300C2AF02000022020132FFFFFFFFFFFFFFDC
:102E3300FFC082C083E990160BF0D083D0820201D9
:102E43003274F6121C29E9900502F0900562E0F550
:102E53000875090074027808121BA6AA08AB0912A8
:102E630016A59005031237F7900503123BE4606F34
:102E7300900562E075F003A4FAABF01216A5900575
:102E8300201237F7900520123BE4700B90050312D4
:102E93003BB51216AB8048900520124B497AFF7B55
:102EA300FF12138D7A0080198A087509007402785D
:102EB30008121BA61245F174FF122FF7E4F0A3F0DA
:102EC3000A900562E0F8EAC39840DD7905120A8D9D
:102ED300900502E0F91209797A177B0B120D0902AA
:102EE300469474F4121C298A088B09EB54806047BA
:102EF300900502E0F91216338A0A8B0BAE0AAF0B68
:102F0300EE4F602A8E828F83E064B0701A120A9F9C
:102F1300E960148E828F83A3A3A3A3E0F9EE2405B3
:102F2300FAE43FFB120A6FEEFAEFFB121627AA0828
:102F3300E5096480FB80047A007B0002314774F268
:102F4300121C2974FB121BB9EAFEEBFFEE4F60451E
:102F53007403121C05EEF0A3EFF085188285198324
:102F6300ECF0A3EDF07402121C05E9F0AA18AB19FA
:102F7300120973E9F50870757413121C05E0F50A5C
:102F8300A3E0F50BE50A450B60638E828F83123550
:102F930080EE4F700575080280537A067B00121687
:102FA300A58A0C8B0DA80CA90DE8497005750813AB
:102FB300803B88828983E4122FF7EEF0A3EF12316E
:102FC30013E50AF0A3E50BF090050612310C90050A
:102FD300066017E0FCA3E08003EAFCEBFD8C828D26
:102FE3008312310C70F38C828D8312420CA9087406
:102FF30005024DC9F0A3124B2BA32274F2121C2914
:103003008908890C750D007403780C121BA6850CB6
:103013000A850D0B900505F0900503124017123138
:103023000A602E1216AB7900801D890C750D007491
:1030330002780C121BA69005031244B08882F58314
:10304300A3A3E4F0A3F009900562E0F8E9C3984074
:10305300D9900562E0FA850AF0A4CAA8F0850BF0BE
:10306300A428FB1216A58A0C8B0DAE0CAF0DEE4FE8
:103073007003023100900562E0FC850AF0A4CCA83D
:10308300F0850BF0A428FD79001216157C00803121
:103093008D0C750D007403780C121BA68A828B832A
:1030A30012310588828983E4F0123112A3A3F0A3BD
:1030B300F00DEDC3950840D8EE250AFEEF350BFF62
:1030C3000C900562E0F8ECC39850288C0C750D0049
:1030D3007402780C121BA6900503123105E8240232
:1030E300500109FAE9FB8A828B83EEF0A3EFF07DAE
:1030F3000080BFE508900505F0790080027913028E
:103103004DCC1244B4F922A3A3123BB9EA4B22A338
:10311300124B2BA3A3A32274F4121C297900EAA255
:10312300E0501F7508B47509827808121E3C7910A7
:103133007C047D007A0D7B16120A877402121BCF62
:10314300E9F980007F04021CFBC082C0839005065E
:10315300123BE4601C88828983A3A3E06A7003A303
:10316300E06B8882898370E8A3A3A3A3123BB58095
:10317300047A007B00022E3D74F2121C2974FD12A6
:103183001BB9EAFEEBFF851882851983E4F0A3F0EF
:103193007402121C057401F0123BE17014120C430B
:1031A3001216A59005091237F7123BE1700302339B
:1031B3000D1238F7EE2404F50AE43FF50B850A8275
:1031C300F583E024FE603C24FC607424FE607E24CE
:1031D300FE700302325D24FE700302326A24FE7025
:1031E3000302327724FE700302328424FE7003024A
:1031F300329124FC70030232B224FE70030232CAFD
:10320300023306120C4390050BEAF0A3EB123319B9
:103213001206AFE9600302330690050B121E538EAC
:10322300828F83A3A3A3A3A3124B49850882850995
:1032330083123BB5120A577402121BCF023306AC3A
:1032430018AD19EEFAEFFB120AA50232D5AC18AD90
:1032530019EEFAEFFB120AAB8078AC18AD19EEFA4F
:10326300EFFB120AB1806BAC18AD19EEFAEFFB124B
:103273000AB7805EAC18AD19EEFAEFFB120ABD80F7
:1032830051AC18AD19EEFAEFFB120AC38044740275
:10329300121C0F880C890D780C121E3C7402121C30
:1032A3001FEEFAEFFB120AC97402121BCF8023AC84
:1032B30018AD19EEFAEFFB120ACFE9F87016740293
:1032C300121C05E4F0803CAC18AD19EEFAEFFB12CA
:1032D3000AD5E9F8E8602C8E828F83A3E06414603A
:1032E30022850A82850B83E090050BF08518828581
:1032F3001983123BB590050C1237F7E8A312331963
:103303001206A9EEFAEFFB120A2D7402121C05E055
:10331300F97403024DC9F07C0B7D0585088285098C
:1033230083123BB92274E8121C2974FA121BB97474
:1033330004121C05ECF0A3EDF08A128B13EA2405AA
:10334300F50EE43513F50FEA2402F510E43513F511
:1033530011851082F583123BB512079F8A0A8B0BE6
:103363007508007C037D0079007A0B7B0512161526
:10337300E50E2402F516E4350FF5177402121C0F3F
:10338300880C890D780C121E3C850E82850F83A351
:10339300A3A3A3E0F50C750D00780C121E3CE50EFB
:1033A3002405F50CE4350FF50D780C121E3C85163B
:1033B30082851783123EBC1209917406121BCF8AB1
:1033C3000C8B0DE50C450D700302354980208518E3
:1033D30082851983E088828983F0050885188285B0
:1033E3001983A3E0C0E012358AD0E0F00508E50AAE
:1033F30024FBFAE50B34FFFBC3E5089AE49B400387
:103403000235497E007F00851282851383A3A3A31F
:10341300A3E0F5097809121E40E4F514F5157814B4
:10342300121E3C7514087515057814121E3C900580
:1034330009121E537409121C05121E53E50A24F9BE
:10344300F9AC0CAD0D851082851183123BB5120AC0
:10345300FF7409121BCFE960030234EA850E8285EB
:103463000F83A3A3A3A3A3A3A3E0F8900508E06895
:103473007075E0F5148E157814121E3C124B4685B8
:103483000E82850F83A3A3A3A3A3A3A3A3123BB578
:1034930012160F7402121BCFE9604C90050C123BFD
:1034A300E4703BE4F5147814121E3C7CFF7DFF7935
:1034B30007851082851183123BB5120A69740212C3
:1034C3001BCF123BEA7017850E82850F83124CE3E4
:1034D3007404121C051245A4123EED02357D850CC1
:1034E30082850D83123580A818A919881489157847
:1034F30014121E3C7404121C05121E538516828579
:1035030017831237ED12099D7404121BCF8A0C8B9B
:103513000DEE4F70030233C612358AEE1235951243
:103523003EA3EF123595F8A3E03400F9E50C450D01
:1035330060030233D18882898374FFF00508123552
:103543008A74FFF00508E508601A1313543F123715
:10355300FD1206BBE9600990050C123BB512166912
:1035630079008016850E82850F83124CE374041252
:103573001C051245A412420C790A023E76A3A3A3AA
:10358300A3E0FEA3E0FF22A80890050CE028123E6A
:10359300A322F005080890050CE0282274E8121C09
:1035A3002974FA121BB97402121C051237F774043A
:1035B300121C05ECF0A3EDF07402121C05E02405C7
:1035C300123E8CE0F50CA3E0F50D7402121C05E02D
:1035D3002402F510A3E03400F511851082F583125F
:1035E3003BB512079F750800750900EA24FCFEEB42
:1035F30034FFFF8008050CE50C7002050DA808C315
:10360300EE98EF940050030237A9A818A919880E61
:10361300890F780E121E3C851482851583A3A3A3FC
:10362300A3124B4D121E3CE5142405F50EE435158B
:10363300F50F780E121E3C8514828515831237EB25
:103643001209917406121BCF8A0E8B0FEA450F7075
:10365300030237A9EA2404F516E4350FF517851696
:1036630082F583E0F50CA3E0F50D851882851983B7
:10367300124B498A828B83A3A3A3E0F98510828529
:103683001183123BB512097FE9F50960030237A9DB
:103693007402121C05123EB3F5097809121E40E4A8
:1036A300F512F5137812121E3C751208751305787E
:1036B30012121E3C900509121E537407121C0512A8
:1036C3001E53EEF9AC0EAD0F851082851183123BAC
:1036D300B5120AFF7409121BCFE9F509600302371B
:1036E300A9E508703FE4F50EF50F780E121E3C7C39
:1036F300FF7DFF7909851082851183123BB5120A7C
:10370300697402121BCF123ED9700D7404121C058A
:103713001237E079110237DD900508E024029005A5
:103723000CF0801490050CE0FA900508E079002471
:10373300025001096A497072A808900508E0FAE886
:103743002AFAE43400FBEE9AEF9B405A85168285F1
:103753001783E0C0E090050D12358FD0E0F0050827
:10376300851682851783A3E0C0E00890050D123506
:103773008FD0E0F00508900508124B4D121E3C1245
:103783004B46A808123E801215FD7402121BCF90FF
:103793000508E02508F50874FF650C700474FF65DF
:1037A3000D60030235F8E508601F90050CE0F5F0A5
:1037B300E508841237FD1206C1E9600990050D1270
:1037C3003BB512166979008011E509700375090A82
:1037D3007404121C051237E0A909023E7612401B3D
:1037E300E50CF0A3E50DF022A3A3124DD8AA0CAB70
:1037F3000D22A3A3EAF0A3EBF02290050BF07C0BC0
:103803007D05851082851183123BB92274EC121C4D
:103813002974FC121BB912431C7402121C1F123BA5
:10382300AF1209978A0C8B0DEA450D70030238E736
:103833001238F7A818A919881089117810121E3C9C
:103843007CFF7DFF790B850882850983123BB512C6
:103853000A697402121BCF1239ED700C850A828536
:103863000B83123EEA0238F48E828F83A3A3A3A3B1
:10387300E0F5127812121E40E4F512F513781212D5
:103883001E3C75120B7513057812121E3C7810122C
:103893001E3C7409121C05121E537409121C05E008
:1038A300F9AC0CAD0D850882850983123BB5120A6C
:1038B300FF7409121BCFE9FE70157C0B7D0585088B
:1038C30082850983123BB51206C7E970098020740B
:1038D300166E70027E0090050C123BB5121669EE4F
:1038E3007004800B7E01850A82850B83124209EEE8
:1038F300F902421EEE2402F508E43FF5092274ECB6
:10390300121C2974FC121BB9EAFEEBFF8C0E8D0FFF
:10391300EE2405F508E43FF5097402121C1F85081F
:1039230082850983123BB51209978A0C8B0DEA45F0
:103933000D70030239DDEE2402F50AE43FF50BA80E
:1039430018A919881089117810121E3C7CFF7DFF7D
:10395300790D123BAF120A697402121BCF1239EDB3
:10396300700B850882850983123EEA807A8E828FE6
:1039730083A3A3A3A3E0F5127812121E4085088245
:10398300850983A3A3121E5375120B7513057812B1
:10399300121E3C7810121E3C7409121C05121E5391
:1039A3007409121C05E0F9123BAB120AFF740912E9
:1039B3001BCFE9FE700F7C0B7D05123BAF1206CDCA
:1039C300E97009802074166E70027E0090050C1257
:1039D3003BB5121669EE7004800B7E018508828563
:1039E3000983124209EEF902421E123BF4F510A3B9
:1039F300E0F511EA45112274E8121C2974FE121B2A
:103A0300B98A168B178C148D15EA2405F50CE43549
:103A130017F50DEA2402F50EE43517F50F850E822E
:103A2300F583123BB512079F8A088B09750B007C3F
:103A3300037D0079007A0B7B05121615750A00E5E4
:103A43000814F5100424FFF508E50934FFF509808F
:103A53005490050BE0FA900508E0F8EA28F8E434FE
:103A630000F9E50898E50999500D90050BE0F8E594
:103A730010C398900508F0E0F51275130078121240
:103A83001E3C124B4690050CE02AFAA3E03400FBDF
:103A93001215FD7402121BCF900508E0F890050B78
:103AA300E028F0050A850C82850D83A3A31244C088
:103AB3004003023B9090050BE0C39508E495094051
:103AC30003023B90AE0AEE2EFEE433FF123BCFAC73
:103AD30018AD19124B61E439FB1209978A128B1343
:103AE300AC12AD13EC4D701B750B01123BBF1242B0
:103AF3000D90050C12310C6003121669A90B7402A8
:103B0300023E78851682851783A3A3A3A3E0F50B52
:103B1300780B121E40E4F512F5137812121E3C7551
:103B230012087513057812121E3C900509121E53D4
:103B33007407121C05121E53A910850E82850F836C
:103B4300123BB5120AFF7409121BCFE9F50B709BE8
:103B530090050C123BE46003023A54E4F512F513AA
:103B63007812121E3C7CFF7DFF790F850E82850F34
:103B730083123BB5120A697402121BCF123BEA602F
:103B830003023A54123BBF123EEE023B017C0B7D13
:103B930005850E82850F83123BB51206D3E96003B8
:103BA300023AF47900023B01AC0CAD0D850A828523
:103BB3000B83123BB922E0FAA3E0FB22123BCFE0D6
:103BC300FAA3E0F9EA85148285158322850C8285A0
:103BD3000D83E02EF8A3E03FF988828983229005C4
:103BE30009124CE7E84922123BF4F8A3E0F9E8494B
:103BF3002290050CEAF0A3EBF090050CE02274E8A8
:103C0300121C2974FA121BB97404121C051237F71B
:103C13008C168D177404121C05E02405F50EA3E021
:103C23003400F50F7404121C05E02402123E8C12BA
:103C33003BB512079F8A0A8B0B7F007E00A818A949
:103C430019880889097808121E3C850E82850F831E
:103C5300A3A3A3A3E0F5088E097808121E3CE50E82
:103C63002405F508E4350FF5097808121E3C850E86
:103C730082850F83A3A3123EBC1209917406121B03
:103C8300CF8A0C8B0D8029123EADF00F123EADF0A2
:103C93000F9005081241F8121E3C124B46EFF81222
:103CA3003E801215FD7402121BCF900508E02FFF12
:103CB300E50C450D7003023D3C851882851983127E
:103CC300432EA3A3A3E0F9851482851583123BB584
:103CD30012097FE9FEE50C2404F510E4350DF51116
:103CE300EE70507404121C05123EB3F508780812E6
:103CF3001E40E4F508F5097808121E3C750808759E
:103D030009057808121E3C900509121E5374071208
:103D13001C05121E53E50A24FAF9AC0CAD0D8514EB
:103D230082851583123BB5120AFF7409121BCFE972
:103D3300FE6039123EC912420CEF7003023E6390DB
:103D4300050CE0F5F0EF8490050BF07C0B7D058509
:103D53001482851583123BB51206D9E960099005D3
:103D63000D123BB51216697900023E768F08EF708B
:103D73003BE4F512F5137812121E3C7CFF7DFF79AC
:103D830011851482851583123BB5120A69740212D8
:103D93001BCF123ED97009123EC9123EED023E7688
:103DA300900508E0240490050CF08035900508E0A8
:103DB300F890050CE0FAE82404FCE43400FDEC6A16
:103DC3004D6003023D42E50A24FAFAE50B34FFFB9A
:103DD300E50828F8E43400F9EA98EB995003023D2A
:103DE30042851082851183E0C0E090050DE02FF835
:103DF300A3E034008882F583D0E0F00F851082853C
:103E03001183A3E0C0E0123E9AD0E0F00F740212D7
:103E13001C0F880889097808121E3C7402121C05BD
:103E2300121E53850E82850F831237EB12099D7480
:103E330004121BCF8A0C8B0DEA450D7003023C8ADA
:103E43007402121C05E0C0E0123E9AD0E0F00F7439
:103E530002121C05A3E0C0E0123E9AD0E0023C929D
:103E6300EE70027E0A850E82850F83123ECF1242C8
:103E73000CEEF97406121BCF7F10021CFB90050D8C
:103E8300E028FAA3E03400FB22F514A3E03400F5A4
:103E930015851482F58322123E9E2290050DE02F94
:103EA300FAA3E034008A82F58322123E9E74FF2235
:103EB30012401BA3A3A3A3E022124DD8850E828533
:103EC3000F83123BB922851082851183124CE7853B
:103ED30016828517832290050DEAF0A3EBF0900577
:103EE3000D124CE7E84922124212E8F0A3E9F079F7
:103EF300112274EA121C2974FE121BB98A088B0959
:103F03008C128D13EA2405FEE43509FFAC18AD19B4
:103F13008E828F83123BB51209978A0C8B0DEE2488
:103F230006F50EE43FF50FEA450D7003023FEDE59C
:103F3300082402F50AE43509F50B8A828B83A3A3CF
:103F4300A3E0A2E55028851882851983123BB51298
:103F53000AF38A108B11EA451160207912123BABE8
:103F6300851082851183121C27E9F50C707F850E5D
:103F730082850F83E0600979528011750C0E806D84
:103F8300850882850983A3A3A3A3E0F9E4F508F5D3
:103F9300097808121E3C8E828F83A3A3E0F508786C
:103FA30008121E3C8E828F83A3A3A3121E538E82FC
:103FB3008F83124B49123BAF120B057406121BCFB2
:103FC300E9F50C7011850E82850F83E0702D123B8D
:103FD300AF1206DF80257416650C7011750C007422
:103FE30018121C05124017E48010750C01124CDFE7
:103FF300851282851383E8F0A3E9F0850E82850F8D
:1040030083E0600479008002A90C7402121BCF7F45
:104013000E021CFB12401B22E0F8A3E0F58388820A
:104023002274EC121C2974F7121BB98A0A8B0B8CAD
:10403300108D11EA2405FEE4350BFF750C00AC1856
:10404300AD198E828F83123BB51209978A088B09AB
:10405300EA450970030241E3E50A2402F50A500226
:10406300050B8A828B83A3A3A3E0A2E5502F8518B7
:1040730082851983123BB5120AF38A0C8B0DEA452C
:104083000D604F7912AC08AD09123BAF850C8285E8
:104093000D83121C27E9F50C60030241E6850A82B1
:1040A300850B83E0F508A3E0F509AA08FB120AE7EC
:1040B300EA4B70197AFF7BFF120AE7EA4B7003029F
:1040C30041D98A828B83E508F0A3E509F0750800DE
:1040D3008008750C0E0241E60508900505E0F8E539
:1040E30008C39840030241D985080E750F00740375
:1040F300780E121BA68A828B83A3A3E0250EF8A356
:10410300E0350F1245AD70D08E828F8312420112BB
:1041130037F78E828F83A3A31242011237F5EE2461
:1041230004F508E43FF509850882F583E088828970
:1041330083A3A3A3A3F0A3E4F0EE2405F50EE43FC9
:10414300F50F850E82F583124201A3A3A3A31237B1
:10415300F57512077513007812121E3CEEFCEFFD85
:104163007404121C171215FD7402121BCFE4F5120E
:104173007812121E3C850882850983E0FC7D007954
:1041830017123BAF120A697402121BCF7407121C79
:10419300051237F77407121C05E0FA4B603D8508DA
:1041A300828509831241F8121E3C850E82850F8396
:1041B300124B491215FD7402121BCF7402121C1FFD
:1041C300123BAF1206E5E960267407121C05123B89
:1041D300B51216698019750C098008750C118003D6
:1041E300750C01124CDF85108285118312420CA9D4
:1041F3000C74098028E0F508750900780822123B41
:10420300B98882898322124212E8F0A3E9F022E0FE
:10421300F8A3E0F9850E82850F83227404121BCF65
:104223007F0C021CFB74EC121C2912431C7510003A
:10423300EE2402F50CE43FF50D850C82F583123B69
:10424300B5120AE78A088B09EA450970030243009D
:10425300850A82850B83E0640160030242F5AC08A2
:10426300AD09AA0AAB0B120ADBE9606E85088285E9
:104273000983123582EE2406F50AE43FF50B8E829C
:104283008F83A3A3121E538E828F83A3A3A3A31290
:104293001E53850A82850B83121E5379188E828FD3
:1042A3008312432E123BB5120B057406121BCFE982
:1042B300F8741668700B850A82850B83E4F0A3807B
:1042C30014E860128E828F83123BB5850E82850FB0
:1042D30083EAF0A3EBF088108018780E121E3CAC32
:1042E30008AD09EEFAEFFB120AE17402121BCFE9E3
:1042F300F510AA08AB09120AEDE510700E850C82C1
:10430300850D83123BB51206EB8009741665107098
:1043130003751000A910024223EAFEEBFF8C0E8DF9
:104323000FEE2405F50AE43FF50B22124DD8850C58
:1043330082850D832274EA121C2975080075090011
:104343007E007F00750A00EC2402F510E43DF511B0
:104353008035EC65087003ED650960030243ED8861
:10436300828983A3A3E06A7003A3E06B707C8882D5
:104373008983A3A3A3A3124CE3EE28FEEF39FFEA3C
:1043830028FAEB39FB050A1244BD503A850A0C752D
:104393000D007403780C121BA685108285118312FD
:1043A30044B01245AD601FE508450970A58C088D22
:1043B300098882898312358088828983A3A3E02EAA
:1043C300FAA3E03F80BEE50AC3940250030244AB64
:1043D300750800750900EE4F6010EEFAEFFB121638
:1043E300638A0E8B0FEA450F700579000244AD75A1
:1043F3000B00024480850B0C750D007403780C12BE
:104403001BA6851082851183E0250CF50CA3E035EE
:104413000DF50DE50C2406F514E4350DF51585149D
:1044230082F5831245B26042E50C2404F512E435AB
:104433000DF513851282F583121E53E50E2508FA36
:10444300E50F3509FB1215FD7402121BCF8512828D
:10445300851383E02508F508A3E03509F5098514DC
:1044630082851583123BB5121669E50B600D7C0836
:104473007D007900AA0CAB0D121615050BE50BC3D5
:10448300950A50030243F8851082851183124CE389
:1044930088828983A3A3A3A3A3A3E50EF0A3E50FB7
:1044A300123113EEF0A3EFF079010240121244B47B
:1044B30022E0250CF8A3E0350D22900505E0F8E590
:1044C3000AC3982274F0121C298A0E8B0F8C0A8D52
:1044D3000B750D00750C0080507916EE2406F50857
:1044E300E43FF5098E828F83A3A3121E538E828F1E
:1044F30083A3A3A3A3121E53850882850983121ED7
:1045030053850E82850F83A3A3123BB5120B05744B
:1045130006121BCFE9F50D7416650D706C850882C4
:10452300850983E4F0A3F0050C900505E0F8E50C9C
:10453300C3985066AA0C8A08750900740378081298
:104543001BA6850A82850B83A3A31245FCE8FEE91B
:10455300FF8E828F831245B26040EA2401F508E49E
:104563003400F509900505E065087002E50960145B
:1045730088828983A3A3A3A3A3A3A3A3123BE46079
:10458300030244DC79180244DEE9609B124CDF74B9
:1045930010121C051245A412420CA90D7F08021C1F
:1045A300FBE0FAA3E0F5838A8222F98882898312E9
:1045B3004DD8EC4D2274F6121C297C0080010C901E
:1045C3000562E0F8ECC398501E8C0875090074026C
:1045D3007808121BA61245F1E06A7003A3E06B7022
:1045E300DDE8FAE9FB80047A007B0002469490053B
:1045F300031245FC8882898322E02508F8A3E0356D
:1046030009F92274F2121C298A088B09750A0080A1
:10461300278E828F83A3A3A3A312310A60031216EA
:10462300697C087D007900EEFAEFFB1216158E8285
:104633008F83E4F0A3F0050A1244BD5027850A0CCA
:10464300750D007403780C121BA6850882850983F7
:10465300A3A3E0250CFEA3E0350DFF8E828F83120A
:104663003BE470AD85088285098374FFF0A3F002F3
:104673004DCC74F6121C29120A998A828B83E58227
:10468300458370067A007B008007A3A3A3A3123B94
:10469300B57F02021CFB74F4121C2989088C828DDD
:1046A30083E06402703C124C82FEA3E0F9EEF874DE
:1046B300026870037429697029750A02750B007802
:1046C3000A121E3C7410121C05121E537410121C85
:1046D30005121E53A9081213937406121BCFE9F98E
:1046E3008002790102314774E8121C2974FB121B02
:1046F300B9E9851882851983F08A168B17ECFEEDCC
:10470300FF7510008E828F83A3A3A3E0A2E4502D34
:10471300741D121C05123BB5120AF38A828B83E5C2
:104723008245837003024B21790AEEFCEFFDAA1642
:10473300AB17121C27E9F5106003024B24741F12F8
:104743001C05E0F508A3E0F5097421121C05E0F54A
:104753000AA3E0F50B7423121C05E0F50EA3E0F5A4
:104763000F8E828F83E064026003024AC2A3124C5D
:10477300E3850882850983A3858212858313EE244A
:1047830006F50CE43FF50D88828983124B61F5141D
:10479300E439F5157814121EC6010000280128C457
:1047A300470700022889480328F7470029B8490129
:1047B30029E349022984490329B84904295C4AC2E7
:1047C3004AE50E450F6003024ABD850C82850D83C1
:1047D300124CE3E8FAE9FB8A828B83E0850A82853F
:1047E3000B83124B6C121E3C8A828B83A3E0FCA3C7
:1047F300E0024A46E50E450F6003024ABD850A8280
:10480300850B837401F0124B56850882850983F06A
:104813007C007D008E828F83A3A3A3A3E02401FAEF
:10482300A3E03400FB120997EA4B60408A828B8332
:10483300E02402F8850A82850B83E028F0EA240449
:10484300F8E43BF988828983E08512828513831219
:104853004B7A124B6C121E3C8A828B83A3124B49F8
:10486300E5082403FAE43509FB024A4B850A8285ED
:104873000B83E02404F07C047D007900AA12AB13BF
:10488300121615024B24E50E450F6003024ABD12B2
:104893004B56FEA3E0FF850A82850B837404F0EE7A
:1048A300850882850983F0EF851282851383F0746E
:1048B30003121C1FEEFAEFFB1209978A0C8B0DEA09
:1048C300450D70030249678A828B83A3A312358047
:1048D3007401121C0F880E890F780E121E3C74058A
:1048E300121C05121E537CFF7DFF12099D740412D6
:1048F3001BCF8B0FEA450F7033850C82850D831216
:104903004B4D121E3C850C82850D83A3121E537CD6
:10491300027D007A367B8312078D7404121BCFE964
:10492300700A7401121C0574FFF0A3F08E828F834A
:10493300E064027039750C02750D00780C121E3C90
:104943008E828F83A3124B49E5082404FAE43509C8
:10495300FB1215FD7402121BCF850A82850B83E0BF
:10496300240280097401121C05EEF0A3EFF0740118
:10497300121C05124B3B7401121C05124B32024AE6
:10498300B7E50E450F6003024ABD850C82850D8392
:10499300124DD1AA16AB17121399850A82850B8380
:1049A3007402F0850882850983EAF08512828513F3
:1049B30083EB024ABAE50E450F6003024ABD124B70
:1049C30056F8A3E0F9850A82850B837402F0E88523
:1049D3000882850983F0E9851282851383024ABA26
:1049E300850C82850D83123BB51215F7EAFAF8C3DD
:1049F300950EE4950F405CE8650E450F70047A0050
:104A03008021851882851983E0FCE50E2CFCE435B2
:104A13000FFDC3EC98ED94005003E08005E50ECA4A
:104A2300C39AFAEA850A82850B83F08A0A750B001A
:104A3300780A121E3C850C82850D83E0250EFCA3AB
:104A4300E0350FFDAA08AB091215FD7402121BCF46
:104A5300024B24751007024B24E50E450F705B854E
:104A63000C82850D83124CE3850A82850B837407C0
:104A7300F088828983124B33124B2BE08512828597
:104A83001383F0E82402FAE439FB8A828B83124B06
:104A93003B8A828B83124B32A3A3123112124B40F7
:104AA300F0E82405F850010988828983124B40A35A
:104AB300124B7AA3A3A3A3F0806775100B806274D3
:104AC3001D121C05123BB5120A998A828B83E5825B
:104AD3004583604A124CE3880C890DE8450D603E1E
:104AE3007425121C05E0F5107810121E40780E1282
:104AF3001E3C780A121E3C7808121E3C7407121CD6
:104B030005E0F9EEFCEFFDAA16AB17850C82850DC7
:104B130083121C277407121BCFE9F510800375104D
:104B23000EA9107405023E78F088828983A322A31C
:104B3300E085088285098322124B81F022124B8182
:104B4300A3A322900509124DD822E0F50E750F009C
:104B5300780E22850C82850D8312401BE022E0FA39
:104B6300A3E0F8E4C8F9EA2822F08A828B83E0F50F
:104B73000A750B00780A22124B2B124B8122E08517
:104B83000882850983A3A32274EE121C2974FE12E2
:104B93001BB98A088B09ECFEEDFF890AAC18AD1925
:104BA300EEFAEFFB1209978A0C8B0DEA450D7003A1
:104BB300024C73851882851983123BB5120A998AB0
:104BC300828B83E58245837003024C6EA3A3124C50
:104BD300E3880E890FE8450F7003024C6E741412BC
:104BE3001C05E0F510A3E0F511E50AF50B780B12AF
:104BF3001E407419121C05121E537810121E3C74A9
:104C03001B121C05E0F9AC0CAD0DAA08AB09850E0F
:104C130082850F83121C277405121BCFE9F50B70D5
:104C23005274FE650A604C850C82850D83E0640234
:104C33007041124C82FAA3E0F9EAF8740268700337
:104C4300742969702E851082851183124B61F50CCE
:104C5300E439F50D780C121E3CEEFCEFFDAA08AB0F
:104C630009120B1D7402121BCF8008750B0E8003F3
:104C7300750B01A90B7402121BCF7F0A021CFBA345
:104C8300124CE788828983E02274F6121C2974FE91
:104C9300121BB9740C121C05124CE3E885188285AB
:104CA3001983F07401121C05E9F0E4F508F509789D
:104CB30008121E3C7508027808121E3C7404121C6C
:104CC3000F880889097808121E3C79FE120B0574B7
:104CD30006121BCF7402121BCF0246948E828F835F
:104CE300124CE722E0F8A3E0F92274F7121C29EA38
:104CF300FEEBFF8908900520124B49121399EA54E1
:104D030002600BA908EEFAEFFB12098B800279010E
:104D13007F01021CFB74F2121C2974FE121BB9EAF8
:104D2300FEEBFF890A7401650A60147402650A6068
:104D330003024DC77901120D27E96003024DC7EE47
:104D4300FAEFFB120AE7EA4B6003120AEDA818A96F
:104D530019880889097808121E3C7508027509002C
:104D63007808121E3C75083C7509837808121E3CAE
:104D73007CFF7DFF7A017B001209917406121BCF21
:104D83008038850882850983A3A3A3A3A3A3124D17
:104D9300D1EEFAEFFB12138DE4F50CF50D780C123E
:104DA3001E3C7402121C05121E537CFF7DFFAA08D1
:104DB300AB0912099D7404121BCF8A088B09E508FD
:104DC300450970BE7402121BCF7F06021CFB124002
:104DD3001B124DD822E0FCA3E0FD2274F4121C291F
:104DE3008A088B09ECFEEDFF90160BE0F4604B7A1A
:104DF300097B00121621EA4B60408A828B8374B1CF
:104E0300F0A3E4124E40F08A828B83A3A3E508F05B
:104E1300A3E509124E40A3EEF0A3EFF0740C121CAD
:104E230005124CE38A828B83A3A3A3A3A3A3A31298
:104E3300420C90160BE0F912162D023147F08A82CC
:104E43008B83A3A3A3A32274EC121C2974FA121B51
:104E5300B98909ECFEEDFF7508008A0A8B0B780A05
:104E6300121E80000410A5508D4EAB4EC74EE54E6A
:104E7300034F214F444F624F764FAB4F36504D5047
:104E830064507F50A550A550D14F7401650960034C
:104E93000250A08E828F83E0F8C394034003025034
:104EA300A0E89016F702507C740265096003025073
:104EB300A08E828F83E0F8A3E0F99016F8E8F0A3C0
:104EC300E902507C7401650960030250A08E828F51
:104ED30083E0F8C3940240030250A0E89009630200
:104EE300507C7401650960030250A08E828F83E0B9
:104EF300F8C3940540030250A0E890096402507C73
:104F03007401650960030250A08E828F83E0F8C3A9
:104F1300940240030250A0E890096502507C74108B
:104F2300650960030250A0750A10750B00780A1218
:104F33001E3C7A667B091215FD7402121BCF0250C8
:104F4300C87401650960030250A08E828F83E0F864
:104F5300C3940240030250A0E890097602507C7487
:104F630001650960030250A08E828F83E09016FBD7
:104F730002507C7404650960030250A08E828F8303
:104F8300780C121A7175104075114275120F751352
:104F9300007810790C1217D940030250A0900978B9
:104FA300780C121A800250C8E960030250A012095B
:104FB30025E970157E00EEF912136FE9F80EEEC3C2
:104FC300940A505AE860EF8055900A0B8061740789
:104FD300650960030250A0750A06750B00780A1272
:104FE3001E3C8E828F83A3AC82AD837402121C1786
:104FF3001216037402121BCF7C007D00AA18AB1992
:105003008E828F83E0F9121339E9FEC3940A4003B9
:105013000250C5120925E9700CEEF912136F79508D
:105023001216F38073740C2EF582E4340AF583743C
:105033000180467401650970648E828F83E0F8C332
:1050430094025059E8900977802F74016509704DD7
:105053008E828F83E0F8C3940A5042E89016FA8058
:10506300187401650970368E828F83E0F874F9280D
:10507300C3940A5028E89016FCF08049740165092E
:10508300701B900A0AE0F88E828F83E0900A0AF080
:10509300E87032E06401702D1213698028750818D6
:1050A3008023C3EA9427EB940050177402650970B8
:1050B300118E828F83E0FCA3E0FD1207A5E9F508BA
:1050C3008003750802A9087406121BCF7F0C021C0B
:1050D300FB74F4121C29ECFEEDFF7508008A0A8BA1
:1050E3000B780A121E8000040EB8510C5111512482
:1050F3005129512E513351515156515B51B8516A77
:10510300516F517451795183519016F7806B9016FA
:10511300F8E0F8A3E0F98E828F83E8F0A3E9025167
:10512300CC9009638053900964804E90096580494F
:10513300750A10750B00780A121E3C7C667D09EE19
:10514300FAEFFB1215FD7402121BCF0251D2900924
:105153007680269016FB8021900978121AA78E82FA
:105163008F83121AB38068900977800D9016FA80A6
:10517300089016FC8003900A0AE08E828F83804990
:10518300750900750A7E750B097C0679FFAA0AABBF
:105193000B12165DE970020509E50A240EF50A50A3
:1051A30002050B640A7004E50B640A70DC8E828FBF
:1051B30083E5098014C3EA9427EB9400500E120789
:1051C300AB8E828F83EAF0A3EBF08003750802A90C
:1051D300087F04021CFB74EE121C2974A5121BB970
:1051E3008C0C8D0D9082967414121C1F7406121A67
:1051F300CC7414121C1F121339E9FF746D121C05B1
:10520300E0F509EFC3940A400302536175F006EF1A
:10521300A4F508744D121C1F7A0E74202508F91288
:1052230016EDE970097459121C05E0FE80027E0038
:105233009016F7E064027005750B018003750B008F
:105243007408650970047422800274212508F50A24
:105253007C1B7D007900741A121C17121615741A20
:10526300121C1F7A1BA90A1216EDE9702D74341251
:105273001C05E024F9C3940A5020E50BF50A780ACB
:10528300121E40741B121C1FEEA2E0E433F9AA0C99
:10529300AB0D1208477401121BCF7C147D007900FB
:1052A300AA18AB19121615AC18AD197A1074242567
:1052B30008F91216EDE970327C1079FFAA18AB19C0
:1052C30012165DE970247410121C05AC82AD837A4A
:1052D3000474252508F91216EDAC18AD19EEA2E0F9
:1052E300E433F9AA0CAB0D12082F7435121C1F7A84
:1052F3001874702FF91216EDE970527435121C17D9
:1053030012135D7F007435121C0F880A890B850AFE
:1053130082850B83E0FCA3E0FDEC4D601F850A82D0
:10532300850B83A3A3E0F5107511007810121E3CC2
:10533300AA0CAB0D120B0B7402121BCF0FE50A2440
:1053430003F50A5002050BEFC3940840C1EEA2E136
:10535300500C900962E0F9AA0CAB0D120B11740406
:10536300650970289016F7E0640270207A009009AE
:1053730076E060027A01900963E0600478048002B9
:105383007800E84AF9AA0CAB0D1208FB7900745BAC
:10539300121BCF7F0A021CFB74F7121C291209256A
:1053A300E9705E900A0BE0640170257E00EEF9124D
:1053B300136FE9F80EEEC3940A5003E860EF900A06
:1053C3000BE4F07C0AFDF97A0C7B0A12161580298E
:1053D3007508007E0C7F0A8E828F83E06401700B58
:1053E300A90812136F8E828F83E4F00508A3AE829F
:1053F300AF83E508C3940A40DE79501216F3121303
:105403006902607174EE121C2974E2121BB98A0AD4
:105413008B0BECFEEDFF75080AE9600F14600C14AA
:10542300606E1470030254D702555A750E00750C42
:105433007E750D097510067511007810121E3CACAF
:105443000AAD0BAA0CAB0D12160F7402121BCFE997
:105453007018050EE50C240EF50C5002050DE50E33
:10546300C3940A400302555A80CA850E08E508C34F
:10547300940A400302555AEE4F700302555A750CB5
:1054830006750D00780C121E3CAC0AAD0B02554E8E
:10549300750E00750C84750D09751006751100786D
:1054A30010121E3CAC0AAD0BAA0CAB0D12160F74F6
:1054B30002121BCFE97018050EE50C240EF50C50F3
:1054C30002050DE50EC3940A400302555A80CA85AE
:1054D3000E088047750C00750D23740E121C1F7A7D
:1054E30010A90D1216EDE9701E7C1079FF740E12CF
:1054F3001C1712165DE9700FAC0AAD0B740E121C6B
:105503001712080BE96011050C7406250DF50DE55E
:105513000CC3940A504180C2850C08E508C3940A61
:105523005035EE4F6031AC18AD197A0E75F006E5C3
:1055330008A42420F91216EDE9701C750A06750BF0
:1055430000780A121E3C7402121C1FEEFAEFFB12C3
:1055530015FD7402121BCFA908741E02539374F035
:10556300121C2974DA121BB98C0C8D0D7508157475
:1055730036121C05E0FEA3E0FF74FF6A700374FF9C
:105583006B60030256D8750900750A207418121C43
:105593001F7A0EA90A1216EDE960030256947C06DF
:1055A30079FF7418121C1712165DE96003025694F2
:1055B30074702509F50BAC18AD197A18F91216EDAC
:1055C300E96003025691AA18AB1912135DE50C4565
:1055D3000D70217C187900AA18AB1912165DE960C9
:1055E300030256917C187D007900AA18AB19121694
:1055F3001502567F7A00A818A91988828983E06565
:105603000C7004A3E0650D70030256A60AE8240398
:10561300F8500109EAC3940840E078007900E849AA
:10562300703BEE4F606B7A00A818A91988828983B2
:10563300E0FCA3E0FDEC4D70030256BF0AE824032F
:10564300F8500109EAC3940840E278007900E84978
:10565300603F88828983E50CF0A3E50DF0E824021E
:10566300F582E439F583E0FAEE6A7001EF601FEE2C
:10567300F04F700888828983E4F0A3F0AA18AB196D
:1056830012135DAC18AD197A18A90B1216E7750839
:105693000005097406250AF50AE509C3940A507240
:1056A30002558FEA75F003A4F8A9F08518828519CD
:1056B30083E58228F8E58339F9025621EA75F00378
:1056C300A4F8A9F0851882851983E58228F8E58373
:1056D30039F9025651120D1B8A828B83E582458369
:1056E300602D7C007D00E5822405FAE43583FBA36D
:1056F300A3A3A3E0F9121339E9F9C3940A5013EEF3
:10570300FCEFFDAA0CAB0D1213577508008003754F
:105713000814A9087426121BCF7F08021CFBC08241
:10572300C08390097CEAF0A3EBF0900962E0FC7D72
:10573300007A267B001207A5900962E0F9120A7528
:10574300D083D08202013274EC121C298A088B099F
:10575300E97E00703B7808121E3C7416121C057813
:105763000C121A7175104075114275120F8E137851
:105773000C7910121898AA10AB11AC12AD131208C1
:10578300417402121BCFE9FE60097901AA08AB0933
:1057930012083BEEF90250CF74F0121C2974EC127C
:1057A3001BB9EAFEEBFF8E828F83A3A3E024FA707A
:1057B30003025B2824FD7003025A0214700302588B
:1057C3006B14601024FD70030259C0147003025A55
:1057D3003A025B3790097CE0F8A3E0F9E8496059A5
:1057E300E0F5838882E0F8A3E0F988088909E845B1
:1057F300096046EE240CF582E43FF583E0F50A7870
:105803000A121E40EE240BF582E43FF583E0F98E85
:10581300828F83A3A3A3A3A3A3A3A3A3E0FCA3E0D7
:10582300FDEE2403FAE43FFB850882850983121CFD
:10583300277401121BCF025B37EE2409F8E43FF90A
:10584300E8FEE9FF8E828F83121E53900978121AA5
:105853008F1208417402121BCFE97003025B377980
:10586300018E828F83025AC9750C008E828F83A3A7
:1058730085820A85830BE06003025948EE2405F50F
:1058830008E43FF509850882F583E0A2E0400302BE
:105893005948900A16E0F8A3E0F9E8496003025971
:1058A300487C0E7D007900AA18AB19121615EE2458
:1058B3000CF582E43FF583E0FAA3E0FBEA4B6010CA
:1058C300750C06750D00780C121E3CEA241080241A
:1058D3008E828F83A3A3A3E0FAA3E0FB120D1BEA3E
:1058E3004B7003025B37750C06750D00780C121EA6
:1058F3003CEA2405FCE43BFD7402121C171215FD5F
:105903007402121BCF850882850983E0A2E250044A
:10591300D2F08002C2F0A2F0E433F8740C121C053A
:10592300E048F0EEFCEFFDAA18AB19121363E9701F
:10593300117A027B00900962E0F9121639790002AC
:105943005B39750C1590097CE0F8A3E0F9E8497020
:1059530003025B37E0F5838882A3A3E0F8A3E0F9B1
:10596300890FE8450F7003025B37EE2403F508E463
:105973003FF509850A82850B83E0FC79018508825E
:10598300850983E0FAA3E0FB8882850F83121C2735
:10599300E50C7003025B37FC790385088285098374
:1059A300E0FAA3E0FB90097CE0F8A3E0F5838882AA
:1059B300A3A3E0F8A3E0F5838882025B2390097C2C
:1059C300E0F8A3E0F9E8497003025B37E0F5838868
:1059D30082A3A3E0F8A3E0F98909E845097003026B
:1059E3005B378E828F83A3E0FC79028E828F83A341
:1059F300A3A3E0FAA3E0FB8882850983025B237CEF
:105A0300007D00EE2404FAE43FFB8E828F83A3A380
:105A1300A3E0F9121339E9F8C3940A4003025B3790
:105A2300EE240AFCE43FFD7A0475F006E8A424257D
:105A3300F91216E7025B37EE2403F508E43FF50994
:105A4300850882F583E0FAA3E0FB900977E060071D
:105A53009016FAE0F980749016F7E07004790580E7
:105A63006A120D1B8A0A8B0BA80AA90BE84970035B
:105A7300025B37E82404F50AE439F50B8E828F8341
:105A8300A3A3A3A3A3A3A3E0A2E05044850A828512
:105A93000B83E0F50C60398E828F83A3A3A3A3A3AA
:105AA300A3A3A3A3A3E054027026740E121C1FE841
:105AB3002405FAE439FBA90C121339E970127903AE
:105AC300850882850983E0FAA3E0FB12083B806422
:105AD300EE2405FCE43FFD850A82850B83E0F9850E
:105AE3000882850983E0FAA3E0FB12138190097C05
:105AF300E0F8A3E0F9E849603BE0F5838882A3A3DB
:105B0300E0F8A3E0F9E8FEE9FFEE4F60277C0079B7
:105B130000850882850983E0FAA3E0FB8E828F83E8
:105B2300121C27800F8E828F83A3A3A3E0FAA3E026
:105B3300FB1213337901741402571974F2121C29DE
